:020000040800F2
:10000000F8B0002001030008731C00086B1C0008F6
:100010006F1C0008651C0008611D0008000000003E
:10002000000000000000000000000000771C000835
:10003000691C000800000000751C0008791C0008FD
:10004000651D00081B0300081B0300081B030008B4
:100050001B0300081B0300081B0300081B03000808
:100060001B0300081B0300081B0300081B030008F8
:100070001B0300081B0300081B0300081B030008E8
:100080001B0300081B030008491C00081B03000891
:100090001B0300081B0300081B0300081B030008C8
:1000A0001B0300081B0300081B0300081B030008B8
:1000B0001B0300081B0300081B0300081B030008A8
:1000C0001B0300081B0300081B0300081B03000898
:1000D0001B0300081B0300081B0300081B03000888
:1000E0001B0300081B0300081B0300081B03000878
:1000F0001B0300081B0300081B0300081B03000868
:100100001B0300081B0300081B0300081B03000857
:10011000391D00081B0300081B0300081B0300080F
:100120001B0300081B0300081B0300081B03000837
:1001300000F002F800F0B6F80AA090E8000C824443
:100140008344AAF10107DA4501D100F0ABF8AFF220
:10015000090EBAE80F0013F0010F18BFFB1A43F0A5
:10016000010318478C7D0000AC7D00000A444FF06D
:10017000000C10F8013B13F0070408BF10F8014B06
:100180001D1108BF10F8015B641E05D010F8016B4B
:10019000641E01F8016BF9D113F0080F1EBF10F8AF
:1001A000014BAD1C0C1B09D16D1E58BF01F801CBD2
:1001B000FAD505E014F8016B01F8016B6D1EF9D555
:1001C0009142D6D37047000000230024002500266A
:1001D000103A28BF78C1FBD8520728BF30C148BFAA
:1001E0000B6070476E2900F07181702900F0578212
:1001F000662907F01B81652907F01881672907F038
:1002000015816129AFF3008003681B0A28BF41F004
:100210008001692900F01E81642900F01B81752985
:1002200000F018816F2900F0E481782900F0238222
:10023000E92900F03787E42900F03487F52900F038
:100240003187EF2900F0E181F82900F0228203686C
:10025000DB0928BF41F08001632900F00087732982
:1002600000F00587E32900F01087F32900F01587D7
:10027000002070471FB507F0D4F800F0F4FA00F042
:10028000DBFF04000020002106F084FF401C6060BA
:100290000020002106F068FFE06000F033FC1FBD85
:1002A00010B510BD01F0CCF81146FFF7E3FF06F0E2
:1002B0002AFA01F0EAF803B4FFF7F2FF03BC01F0F9
:1002C000EDF8000080F30888704700000B49D1F872
:1002D00000C04A685CF8043B1068184442F8040BFC
:1002E0008C4528BFA1F1DC0C8A4228BFA1F1DC02B9
:1002F000C1F800C04A6020F000407047908C002098
:100300000948804709480047FEE7FEE7FEE7FEE7A9
:10031000FEE7FEE7FEE7FEE7FEE7FEE704480549E5
:10032000054A064B70470000911C00083101000887
:10033000F88C0020F8B00020F8900020F890002001
:100340001CB50C46064B7B4469460090204600F0E5
:1003500064FE04460020694600F072FE20461CBD83
:10036000F70C00000FB41CB5084B06AA7B44694685
:100370000090059800F051FE04460020694600F008
:100380005FFE20461CBC5DF814FB0000D10C000091
:1003900070B5044685690068C10601D5302600E0C5
:1003A0002026C00707D070BDD4E901213046904710
:1003B000206A401C20626D1EF6D570BD70B50446E3
:1003C00085690078C00707D170BDD4E901212020DC
:1003D0009047206A401C20626D1EF6D570BD0968EA
:1003E0004A0501D540B27047C905FCD500B2704737
:1003F00009684A0501D5C0B27047C905FCD580B26D
:10040000704770B50C460546012A05D0287880064D
:1004100000D5EA69002302E0012305E05B1C93425A
:1004200002D2E05C0028F9D1A869E618C01AA861D8
:10043000286A184428622846FFF7AAFF04E0D5E995
:10044000012114F8010B9047B442F8D32846FFF776
:10045000B5FF70BD2DE9F0410646002410687529EE
:10046000314616A510D0FFF7BAFF002802DA404245
:1004700013A507E031688A0701D512A502E04907F4
:1004800004D511A5012401E0FFF7B2FF00210A22E3
:1004900006F1240709E0B0FBF2FCB0FBF2F302FB2B
:1004A0001C00303078541846491C0028F3D12346EC
:1004B0002A463046BDE8F04100F041BB0000000094
:1004C0002D0000002B0000002000000011680268D1
:1004D000006A530501D508700AE0D30501D50880EC
:1004E00006E0130603D5C217C1E9000200E0086068
:1004F000012070472DE9FF5F15468A460446DFF864
:10050000AC80F8440027D8E900103E46CDE9001041
:1005100010E03AF816106A4602A800F001FE411CED
:1005200007D02178890603D5E269391891420DD8A0
:100530000744761C2078800602D5E069B84205DDC4
:10054000AE42E6DB3AF816000028E2D1A069C01BF3
:10055000A0612046FFF71CFFD8E90010CDE900108C
:10056000002017E03AF818106A4602A800F0D8FDFB
:10057000B0F1FF3F81460BD000250DF1080B05E0DF
:10058000D4E901211BF8050090476D1C4D45F7D3B8
:1005900008F10100B0428046E4DB206A3844206262
:1005A0002046FFF70BFFBDE8FF9F000052780000D8
:1005B00030B4002100F1240408E002F00705D2085D
:1005C000303542EA4372DB086554491C52EA0305A0
:1005D000F3D10468002310A2250707D5A40600D490
:1005E00021B1C46901230DA2641EC46130BC00F0B6
:1005F000A6BA10B5044621461068FFF7F9FE024678
:100600002046BDE810400023D2E7D21D22F00701AA
:10061000D1E90023CCE7000000000000300000001A
:10062000F0B40D460188090502D5214C7C4402E056
:100630001F4C7C440E34002100F1240608E002F037
:100640000F071209E75D42EA03721B097754491C40
:1006500052EA0307F3D102780023120704D5702D64
:1006600006D009B1022311342246F0BC00F067BA6B
:1006700001231034F8E770B504460D462146106892
:10068000FFF7B6FE024629462046BDE8704000232B
:10069000C6E7D21D22F00703D3E90023C0E70368B1
:1006A000126843F0200303600823C3610023B7E707
:1006B000307700002DE9F05F894604464FF0000ACC
:1006C000DFF874B1FB44C0F820A02046E1688847F9
:1006D000002874D0252806D0D4E901219047206A4B
:1006E000401C2062F1E700265F462046E16888470B
:1006F0002028054607DB312D05D2781910F8200C8B
:1007000008B10643F1E7B00701D526F00406C4F8A6
:100710001CA00027C4F818A02A2D09D0284605F0EF
:100720008DFB38B304EB8708303DC8F8185019E04A
:1007300059F8041B204604EB87029161E168884761
:10074000012F054618D1E069002820DA26F020069E
:100750001DE0D8F8180000EB800005EB40003038B1
:10076000C8F818002046E1688847054605F066FB92
:100770000028EED1012F0AD02E2D08D12046E168A5
:1007800088477F1C0546022F46F02006C4DBA0697F
:10079000002803DA404246F00106A061F00701D0CC
:1007A00026F010066C2D0BD0682D09D04C2D39D0B9
:1007B0006A2D35D0742D35D07A2D33D016E038E03F
:1007C000E1682F4620468847B842054609D16C2F7C
:1007D00026D04FF48060E1680643204688470546EE
:1007E00004E06C2F1AD04FF4807006430DB3A5F1CE
:1007F0004100192802D8203546F400664A462946A9
:10080000204626604E46FFF7EDFC80B101280BD054
:10081000F61D26F0070000F1080956E74020E4E73E
:100820008020D8E70020D6E706F104094DE72846E6
:1008300052E7206ABDE8F09FC07600000B4910B572
:10084000A1F17C020A4CC2E93712372106E000EB25
:10085000104342F82130074B00FB03400B1EA1F16F
:100860000101F4DC10BD0120E8E70000308C00201D
:10087000E119D666CD0D010010B5431C02E010F859
:10088000011B71B18107FAD14FF0013202C88C1AF5
:100890008C4314EAC211F9D0C01A0A0603D0C01E54
:1008A00010BDC01A10BD0A0401D0801E10BD09027F
:1008B000FCD0401E10BD032A40F2308010F0030C23
:1008C00000F0158011F8013BBCF1020F624498BFA3
:1008D00011F801CB00F8013B38BF11F8013BA2F140
:1008E000040298BF00F801CB38BF00F8013B11F0BB
:1008F000030300F06780083AC0F0088051F8043B19
:10090000083A51F804CBA0E80810F5E7121D5CBFC7
:1009100051F8043B40F8043BAFF30080D20724BFFA
:1009200011F8013B11F801CB48BF11F8012B24BF8E
:1009300000F8013B00F801CB48BF00F8012B7047DD
:10094000431A28BF9A427FF6B6AF032A10441144D7
:1009500040F2268010F0030F1EBF11F8013D521E19
:1009600000F8013D10F0030F7FF4F6AF11F0030320
:1009700000F00984083AC0F00B8051F8043D083AB1
:1009800051F804CD40F8043D40F804CDFFF7F3BF23
:10099000121D5CBF51F8043D40F8043DAFF30080E8
:1009A000D20724BF11F8013D11F801CD48BF11F85D
:1009B000012C24BF00F8013D00F801CD48BF00F82C
:1009C000012C704710B5203AC0F00B80B1E81850E8
:1009D000203AA0E81850B1E81850A0E81850BFF429
:1009E000F5AF5FEA027C24BFB1E81850A0E81850C8
:1009F00044BF18C918C0BDE810405FEA827C24BF1C
:100A000051F8043B40F8043B08BF7047D20728BFA9
:100A100031F8023B48BF11F8012B28BF20F8023BF8
:100A200048BF00F8012B704702F0FF0343EA03229E
:100A300042EA024200F002B84FF000020429C0F07E
:100A4000128010F0030C00F0CA83CCF1040CBCF14E
:100A5000020F18BF00F8012BA8BF20F8022BA1EB52
:100A60000C0100F0BCBB5FEAC17C24BF00F8012B85
:100A700000F8012B48BF00F8012B70474FF0013CF4
:100A800050F8042B51F8043B9A4221D1A2EB0C03FD
:100A9000934313EACC1317D150F8042B51F8043BBD
:100AA0009A4215D1A2EB0C03934313EACC130BD15A
:100AB00050F8042B51F8043B9A4209D1A2EB0C03E5
:100AC000934313EACC13DBD04FF00000704700BF14
:100AD000D01A01BAB1FA81F101F0180122FA01F03D
:100AE000CB40C1F12001DBB2C0B2C01A2CFA01F335
:100AF000D11A914311EAC311E6D17047704770478C
:100B00007047000070B5064C7C44064D7D4403E000
:100B1000206820448047241DAC42F9D170BD0000FC
:100B2000307500005075000010B500F089FB0068BA
:100B300010BD10B5044600F083FB046010BD2DE924
:100B4000F0470D4699469246044600F12408016894
:100B5000880604D5E06921F01001216000E0012041
:100B6000A84201DD471B00E00027A1697A1902EBCA
:100B70000900081AA0612078C00602D42046FFF7B9
:100B800007FC002608E0D4E901211AF80600904786
:100B9000206A401C761C20624E45F4DB2078C0069B
:100BA0000AD52046FFF7F4FB06E0D4E90121302006
:100BB0009047206A401C2062381EA7F10107F4DC30
:100BC00007E0D4E9012118F805009047206A401C8D
:100BD0002062281EA5F10105F3DC2046FFF7EEFB9D
:100BE0002078000602D50220BDE8F0870120FBE74F
:100BF00070472DE9FF4F0C461E464FF0FF378BB074
:100C0000D2E90001DDF860800A908A46C1F30A55F6
:100C100005B93D46002108464FF00000BAF1000F2B
:100C200000F4400005DA00EB80004FF4400101EAD7
:100C300050004FEA9059B9F1010F00DDB9460A980A
:100C400050EA4A000ED044F61050A5F2FF35454355
:100C50002F14B8F1000F1ED07542291E1EDDC9F1F8
:100C600000021CE0B8F1010F4FF0000001D030216C
:100C700003E0F24305E02154401CB042FBDB304668
:100C80000022002121540B99C1F80880C1E90020FD
:100C90000FB0BDE8F08FBD1B6D1CDEE74A4600DAE1
:100CA000694206A800F056FB06AB93E8070003ABC9
:100CB00083E8070050460A9900F0F7FB8DE807002B
:100CC000A0F500501F3800900398002D0ADD42F275
:100CD0001F014A460844002303A90390684600F018
:100CE00060FE09E0A0F500504A461F38002303A922
:100CF0000390684600F06AFE8DE807000004000CCF
:100D000003D04FF0FF30410800E01046B8F1000F6B
:100D100003D00022009215461EE0751E05D400F097
:100D200093FA303262556D1EF9D5B346012208435D
:100D300002D000227F1C04E02078302801D100225C
:100D40007F1E002A099784D01DE0112D07DA00F0DC
:100D50007BFA303262556D1C50EA0102F5D108432E
:100D600002D00098C8B10EE00021681E05E0235CA7
:100D7000625C63542254401E491C8142F7DBAB463F
:100D8000A81B401E0990002004F80B000B98099A3C
:100D9000C0F80880C0E9002B7AE711264FF0000860
:100DA00057E72DE9F04F88460446D21D22F007018F
:100DB00091B0D1E90001CDE90A0104F00EFE02462E
:100DC0000B98C00F01D02D2007E02068810701D5C6
:100DD0002B2002E0202101EAC000032A099001D063
:100DE000072A05DB03464146204600F073FA0BE173
:100DF0002078800601D5E06900E00620B8F1650F93
:100E0000814606D0B8F1660F18D0B8F1670F70D1DF
:100E100031E00020B9F1110F009001DB112301E056
:100E200009F101030AAA01A90CA8FFF7E2FEDDE916
:100E30000C70002609F10105834647E001204B466E
:100E400000904FF000470AAA01A90CA8FFF7D1FEB5
:100E5000DDE90DB00C995D46002610B909F10100DD
:100E60000D18B9EB050003D4C0F1FF3609F10105F7
:100E7000A5EB09002BE0B9F1010F01DA4FF00109F0
:100E80000020B9F1110F0090484601DD112300E068
:100E900003460AAA01A90CA8FFF7ABFEDDE90C7016
:100EA0004D4600268346207800070AD4AB4500DA79
:100EB0005D4601A8012D04DD411911F8011C3029FE
:100EC00007D04F4502DA17F1040F04DA01208246F9
:100ED0000FE06D1EEEE7002F02DCED1B3E4403E049
:100EE000781CA84200DD7D1CB81B00F1010A4FF000
:100EF00000472078000703D4AA4501DB4FF0FF3AF2
:100F00000021B7F1004F0DF143088DF8431024D0B4
:100F100002202B23002F01DA7F422D230A21021EFB
:100F2000A0F1010000DC5FB197FBF1FC97FBF1F24F
:100F300001FB1C7C17460CF1300C08F801CDEEE7E4
:100F4000A8F1010003702188090501D5452100E0C1
:100F50006521A0F1010800F8011C09980FA9A1EB77
:100F60000807FF1D00B10120411901EBEA70A169DA
:100F70003844081A401EA0612078C00602D42046DA
:100F8000FFF706FA099828B1D4E901219047206AB1
:100F9000401C20622078C00622D52046FFF7F8F9D1
:100FA0001EE0002E04DBB34502DD01A8805D00E0F9
:100FB0003020D4E901219047206A401C2062761C31
:100FC000AAF101005FEA000A0AD100F035F9C06811
:100FD0000168405CD4E901219047206A401C2062EE
:100FE000281EA5F10105DCDC07E0D4E9012118F891
:100FF000010B9047206A401C2062381EA7F10107B0
:10100000F3DC2046FFF7DAF9032011B041E60000D7
:1010100001694A1C02610878704700B58FB0CDE9BC
:1010200001310021059105497944CDE903101146AC
:101030006846FFF73FFB0FB000BD0000E5FFFFFF74
:101040000A6802F8010B0A60704710B5436913B1D2
:10105000AFF3008001E0FFF7D4F9012010BD127852
:1010600000F124010A7000224A700122EDE71168A4
:101070004FF0FF32E9E710B5436913B1AFF30080D9
:1010800001E0FFF737FA012010BD128800F12401BA
:1010900082840022C2840122EDE711684FF0FF3202
:1010A000E9E700002DE9F0418046D21D22F0070259
:1010B0000025D2E90002F52915A614D0011E72F10F
:1010C000000106DA0023D0EB030063EB020211A655
:1010D00008E0D8F800108B0701D50FA602E04907F9
:1010E00001D50EA601251146002408F1240704E0CD
:1010F00000F0AAF830323A55641C50EA0102F7D1E8
:101100002B46324621464046BDE8F041FFF717BD69
:10111000000000002D0000002B0000002000000057
:1011200070B516460C46054600F07EF8036893F845
:101130000101012806D0FF2C0FD8185D68B10120ED
:101140002C7070BDD3F807013246214603F2071315
:1011500003442846BDE8704018474FF0FF3070BD8B
:10116000431A28BF9A427FF62DAC104410F0030FAB
:1011700011441EBF11F8013D521E00F8013D10F050
:10118000030F7FF4F6AF103AC0F00A8010B531E9D2
:101190001850103A20E91850BFF4F9AFBDE81040DC
:1011A000530724BF31E9081020E9081044BF51F863
:1011B000043D40F8043D12F0030F08BF7047D2070A
:1011C00028BF31F8023D48BF11F8012C28BF20F894
:1011D000023D48BF00F8012C70474FF0000200B5F7
:1011E000134694469646203922BFA0E80C50A0E84A
:1011F0000C50B1F12001BFF4F7AF090728BFA0E8F8
:101200000C5048BF0CC05DF804EB890028BF40F8C3
:10121000042B08BF704748BF20F8022B11F0804F05
:1012200018BF00F8012B704710B500F005F8001D3D
:1012300010BD00BF615F000000487047B88C0020FF
:1012400000487047988C002030B5B0F10A024FEA90
:10125000900E71F100034EEA817EB0EB0E0061EB5F
:1012600091014FEA101E4EEA017E10EB0E0041EB99
:1012700011114FEA102E4EEA016E10EB0E0041EBF9
:1012800011214FEA104E4EEA014E10EB0E0041EBD9
:101290001141401841F100014FEAD00040EA41708D
:1012A0004FEAD10110EB80054FEA810444EA9074C3
:1012B00044EB01046D1944EB0404521BA3414FF0AD
:1012C000000348BF0A3200D530BD401C41F1000187
:1012D00030BD00002DE9F0411F4604460326016899
:1012E000072A01F4006004DB08B116A505E016A585
:1012F00003E008B115A500E015A521F0100020605D
:10130000A069C01EA0610FB1401EA0612046FFF77A
:101310003FF84FB1D4E9012138469047206A401C7C
:101320002062C01C206206E0206AFAE7D4E90121AD
:1013300015F8010B9047761EF8D22046FFF73EF8CD
:10134000BDE8F0814E414E006E616E00494E460090
:10135000696E66002DE9F047814616468AB0354829
:1013600078440DC88DE80D0032487844801C03ACE9
:101370000DC884E80D0041F69B300844372190FBEE
:10138000F1F290FBF1F5A5F1800501FB12041B3C85
:1013900002D56442012000E00020DFF898A08046DA
:1013A0000027FA44AAF1BE0A0EE0E0070AD032464E
:1013B000684607EB470101230AEB810100F006FBB9
:1013C0008DE8070064107F1C002CEED1194F7F447C
:1013D000AE3F19E0E80715D007EB04100DF1180A2D
:1013E00090E80E008AE80E00C068F04201D198191A
:1013F00008903246012306A903A800F0E7FA03ABE0
:1014000083E807006D10641C002DE3D14FF0010349
:1014100032466946B8F1000F03A802D000F0C1FAC5
:1014200001E000F0D3FAC9E90001C9F808200AB0C8
:10143000BDE8F087B46A000000487047988C00202F
:101440007546FFF7F9FFAE4605006946534620F0A2
:101450000700854618B020B5FEF760FFBDE82040C4
:101460004FF000064FF000074FF000084FF0000B60
:1014700021F00701AC46ACE8C009ACE8C009ACE813
:10148000C009ACE8C0098D46704710B50446AFF3FB
:1014900000802046BDE81040FEF70DBF014918202E
:1014A000ABBEFEE72600020070475FEA400C08BFB3
:1014B00091F0000F4FEA8C234FEAC12243EA5151C9
:1014C0004FEA1C5018BF00F5F0404FEA300018BF3B
:1014D00041F000415FEA6C5C00F02980BCF1FF3F05
:1014E00008BF40F080407047130C06BF12044FF055
:1014F000100C4FF0000C130E04BF12020CF1080C7C
:10150000130F04BF12010CF1040C930F04BF9200DF
:101510000CF1020CD30F04BF52000CF1010C114668
:101520004FF00002A0F11F00A0EB0C00704711F07B
:10153000004F08BF704731F000413FF4D5AF0B0CAE
:1015400006BF09044FF0100C4FF0000C0B0E04BF47
:1015500009020CF1080C0B0F04BF09010CF1040C7B
:101560008B0F04BF89000CF1020CCB0F04BF4900A4
:101570000CF1010CCCF12003A0EB0C0022FA03F3D8
:1015800002FA0CF241EA030100F10100704720F079
:101590007F4C80EA030023F07F47ACEB070303F5A1
:1015A0007C5300F0004003F1FF032DE980494FEA2E
:1015B000154B09B44FEA144325EA0B4E24EA0348BD
:1015C0000FF2042606EB132749083E785FEA320241
:1015D00003FB0667C7F5000707FB06F64FEA54371B
:1015E0004FEAD64606F1020607FB066CCCF1005C1A
:1015F0004FEA1C472CEA074C07FB06F40CFB06F5E8
:1016000004EB15464FEA961634BF00204FF0004019
:101610004FEAD13706FB07FC4FEA1C4C0CFB0BF7DB
:10162000D21B03FB0CF761EB07010CFB0EF7B0EBD1
:10163000074072EB17420CFB08F734BFA2EB0742DE
:10164000B2EB074261EB17414FEA0C444FEA9107B6
:1016500006FB07FC4FEA1C4C0CFB0BF7B0EBC7403A
:1016600072EB573203FB0CF734BFA2EBC742B2EB6D
:10167000C74261EB57310CFB0EF7B0EBC70072EBC2
:1016800057720CFB08F734BFA2EBC702B2EBC702DC
:1016900061EB5771039F4FEA816141EA921104EBBC
:1016A000CC044FEAD1374FEA826206FB07FC42EADC
:1016B00090124FEA80604FEA1C4C0CFB0BF7D21BD8
:1016C00003FB0CF761EB07010CFB0EF7B0EB0740D7
:1016D00072EB17420CFB08F734BFA2EB0742B2EBE8
:1016E000074261EB17414FEA8C554FEA910704EB33
:1016F0009C2406FB07FC4FEA1C4C0CFB0BF7B0EBE1
:10170000C74072EB573203FB0CF734BFA2EBC74262
:10171000B2EBC74261EB57310CFB0EF7B0EBC700E1
:1017200072EB57720CFB08F734BFA2EBC702B2EBA7
:10173000C70261EB577115EB4C254FEA816141EA15
:1017400092114FEA82624FEAD13742EA901206FBC9
:1017500007FC44F100044FEA80604FEA1C4C0CFB8C
:101760000BF7D21B03FB0CF761EB07010CFB0EF729
:10177000B0EB074072EB17420CFB08F734BFA2EB4B
:101780000742B2EB074261EB174115EB1C154FEA1C
:10179000813141EA92414FEA823242EA90424FEA75
:1017A00080304FEA0C7644F1000448EA03434EEAE5
:1017B0000B484FF0000EB2EB080C71EB030724BF8F
:1017C000624639464EEB0E0E4FF0000B00185241A8
:1017D00049414BEB0B0BB2EB080C71EB03077BF1B0
:1017E000000B24BF624639464EEB0E0E4FF0000B45
:1017F0000018524149414BEB0B0BB2EB080C71EB5B
:1018000003077BF1000B24BF624639464EEB0E0EF8
:1018100051EA020718BF46F0010616EB0E7655F1A5
:10182000000254F1000103D5BDE88901BDE800883C
:10183000BDE88901BDE80048B619524141EB0101FC
:10184000A3F10103704780807F7E7D7C7B7A79786D
:10185000777676757473727171706F6E6E6D6C6C75
:101860006B6A6A6968686766666564646363626117
:101870006160605F5F5E5E5D5D5C5C5B5B5A5A5998
:101880005958585757565655555554545353525204
:101890005251515050504F4F4F4E4E4D4D4D4C4C5C
:1018A0004C4B4B4B4A4A4A494949484848474747A5
:1018B00047464646454545444444444343434342E2
:1018C000424242414141002B9C4630D477002BD00C
:1018D0001CB54FEA370703B44FF010004FF010016A
:1018E000BAF1000F06D0BCF1000FDCBF40F00800D9
:1018F00040F008014FF000000FBCBDE810400BF1B4
:10190000010BBBF1010F08BF5FEA170722BF12F1FD
:10191000010211F101014FF0004143F1000300F019
:10192000004043EA00007047F9D35708D0E746EA81
:10193000064613F1400F4FEA16461FDD13F1200F44
:10194000DFBF16430A46002120335B42BED0C3F1FD
:10195000200746EA064602FA07F74FEA164646EA25
:101960000706C3F1200722FA03F201FA07F721FA6A
:1019700003F14FF0000342EA0702A7E746EA020636
:1019800046EA06464FEA164646EA0106BCBF46EA64
:101990000646360C4FF000034FF000024FF00001F6
:1019A00094E72DE9804C9A46934670B491E838004C
:1019B00007C831EA400C48BF34EA430C03D5FFF7AF
:1019C000E6FDFFF780FFF0BCBDE8008C2DE9804C00
:1019D0009A46934670B491E8380007C810F0804FDB
:1019E00008BF13F0804F03D100F005F8FFF76BFF3D
:1019F000F0BCBDE8008C20F07F4780EA030023F0B4
:101A00007F4C07EB0C03A3F57C5300F00040A3F1DF
:101A1000FE0392F0000F00F0B38095F0000F00F08D
:101A200077802DE901494FEA11404FEA144621EA37
:101A3000004800FB06FC24EA064708FB06F607FB05
:101A400008F800FB07F718EB06484CEB164C4FEA7A
:101A5000124B18EB07484FEA15464CEB174022EAA9
:101A60000B4E0BFB06FC25EA06470EFB06F607FBB2
:101A70000EFE0BFB07F71EEB064E4CEB164C4FF021
:101A800000061EEB074E4CEB174B18EB0B0840F112
:101A9000000018EB0E0B58EB000840F100008F1A05
:101AA0004FF000013CBFC943661B14BFB5EB040CEB
:101AB00000213CBFC943F61B4FEA17444EEA8E0E85
:101AC00027EA04454FEA1C4704FB07622CEA074C4F
:101AD00005FB07F70CFB05F604FB0CFC16EB0746B1
:101AE00042EB174216EB0C4642EB1C421BEB060680
:101AF00058EB0202414146EA9E0601D5BDE8018944
:101B0000B619524141EB0101A3F10103BDE801897E
:101B10004FEA14454FEA114724EA054621EA074CEB
:101B200005FB07F406FB07F70CFB06F105FB0CFCB5
:101B300011EB074144EB17444FEA124711EB0C41FC
:101B400044EB1C4422EA074C05FB07F206FB07F7AF
:101B50000CFB06F605FB0CFC16EB074642EB1742A6
:101B600016EB0C4642EB1C456A1854F1000148BFC5
:101B70007047B619524141EB0101A3F101037047CF
:101B800095F0000F37D04FEA11424FEA144721EA8F
:101B9000024624EA074C02FB07F106FB07F70CFBA1
:101BA00006F402FB0CFC14EB074441EB17414FEA2F
:101BB000154714EB0C4441EB1C4125EA074C02FB92
:101BC00007F506FB07F70CFB06F602FB0CFC16EB11
:101BD000074645EB174516EB0C4645EB1C42121920
:101BE00051F1000148BF7047B619524141EB010164
:101BF000A3F1010370474FEA14454FEA114724EA65
:101C0000054621EA074C05FB07F106FB07F70CFB2D
:101C100006F24FF0000605FB0CFC12EB074241EB0D
:101C2000174112EB0C4251EB1C4148BF7047921810
:101C300041EB0101A3F10103704710B504460021F7
:101C4000204602F091FA10BD10B503F083FA02218C
:101C5000034804F0B3F90421014804F0AFF910BDC2
:101C60000024014000BFFEE7704700BFFEE700BF51
:101C7000FEE770477047704710B504480068401C85
:101C80000249086000F098F810BD0000080000202C
:101C900008B52648006840F47000244908602448CC
:101CA000006840F001002249086000BF2048006839
:101CB00000F002000028F9D000BF1D48406840F045
:101CC00080001B4948600020009002E00098401C02
:101CD000009000985028F9D31548406840F09000D3
:101CE000134948600020009002E00098401C0090DA
:101CF00000985028F9D300BF0D48406820F0030039
:101D00000B494860084600680A49084008490860CD
:101D10004FF41F0088600846006820F480200860A7
:101D200000204860C86200F067F808BD88ED00E058
:101D300000100240FFFFF6FE10B507490748006893
:101D400005F0C9F938B10548006805F03FF9C4B29B
:101D5000204601F03FF810BD05030500347400086B
:101D600000BFFEE77047000010B5124800684FF44E
:101D70007A71B0FBF1F4601EB0F1807F01D30120D5
:101D80000FE0601E4FF0E02148610F214FF0FF305F
:101D900000F01EF800204FF0E02188610720086164
:101DA000002008B100BFFEE70021481E00F010F837
:101DB00010BD00000C0000200448006820B103485A
:101DC0000068401E01490860704700007001002053
:101DD00010B5002807DA0A07140E054A00F00F03B1
:101DE0001B1FD45403E00A07130E024A135410BDFC
:101DF00018ED00E000E400E010B500F001F810BDBF
:101E0000002000213E4A126842F480323C4B1A60A6
:101E100000BF401C3A4A126802F4003119B94FF66B
:101E2000FF729042F5D1364A126802F400320AB9C4
:101E300000BFFEE7324AD26942F08052304BDA618D
:101E4000304A126842F440422E4B1A602C4A5268C3
:101E50002B4B5A601A4652685A601A46526842F42E
:101E600080625A601A46526822F440325A601A461A
:101E7000526842F440325A601A465268224B1A4065
:101E80001F4B5A601A46526842F000625A601A4666
:101E9000126842F080721A6000BF194A126802F09C
:101EA0000072002AF9D0174A126842F48032154BAA
:101EB0001A6000BF134A526802F48032002AF9D037
:101EC000104A126842F400320E4B1A6000BF0D4AED
:101ED000526802F40032002AF9D0094A526822F00E
:101EE0000302074B5A601A46526842F002025A60D7
:101EF00000BF034A526802F00802002AF9D0704776
:101F00000010024000700040FFFFC3B702460120EE
:101F1000034B9A4202D1042900DD002070470000E3
:101F2000000402400349086000BF02490968002913
:101F3000FBD170477001002070B501F071F8064DBB
:101F40002846446801460868FEF7BCF90021284687
:101F500004F058FCA04770BD0060020870B505464B
:101F60000C4622460249284600F0BCF870BD00002D
:101F70008408002070B505460C46224602492846D2
:101F800000F0B0F870BD0000380800202DE9F04FD7
:101F9000ADF6447DADF5805D0546284603F01AFD9B
:101FA000019001240CE005EB440003F013FD611ED9
:101FB00001AA52F82110084401A941F82400641C28
:101FC000B4F5FA6FEFDB40F2355640F2C2674FF0DE
:101FD000FF384FF00009304620E04FF0FF344FF05B
:101FE000000C002110E001EB000A0DF1040B5BF87E
:101FF0002AA05BF821B0AAEB0B02A24200D2144641
:10200000624500D99446491CB1F5857FEBDBACEB0A
:102010000403434501D298468146401CB842DCDBAC
:1020200048460DF6447D0DF5805DBDE8F08F10B596
:10203000024600202DE001F118031B5C43B3131D81
:1020400003EBC00393ED000A01EBC003D3ED000ADC
:1020500030EE200A131D03EBC00383ED000A131DAD
:1020600003EBC00393ED010A01EBC003D3ED010ABA
:1020700030EE200A131D03EBC00383ED010A02F1C9
:102080003C0353F820305B1C02F13C0444F8203040
:10209000401C0328CFDB10BD10B50446002016E01D
:1020A000002204F13C0141F820209FED0D0A211D82
:1020B00001EBC00181ED000A9FED090A211D01EB32
:1020C000C00181ED010A04F138010A54401C0328C3
:1020D000E6DB01F041FC21680844A06410BD00006B
:1020E0000000000070B588B006460C46154629462B
:1020F0002046FFF79CFF1C2204F1200101A8FEF7F7
:1021000061FC01F029FCA16C884247D300203AE031
:1021100004F13C0151F8201049B3211D01EBC0012D
:10212000D1ED000A04F13C0151F8201000EE101A24
:10213000B8EEC00A80EE801A04F1200101EBC00164
:1021400081ED001A211D01EBC001D1ED010A04F15E
:102150003C0151F8201000EE101AB8EEC00A80EED3
:10216000801A04F1200101EBC00181ED011A04F194
:102170003C0151F8201009B1012200E0002204F1D5
:1021800038010A54401C0328C2DB1B2204F1200141
:1021900001A8FEF717FC2046FFF77EFF1C2201A9CD
:1021A0003046FEF70FFC08B070BD70B504460D4612
:1021B0002560201D00F0A0FC041F04F1200000F0A9
:1021C0009BFCA0F120042046FFF766FF204670BD6F
:1021D00000B50246092A03D2002000F011FC00BD20
:1021E000122A03D2012000F00BFCF8E7022000F0D5
:1021F00007FCF4E72DE9F0472DED028B04460D4670
:102200009046FB48007800F0010060B9F84803F000
:102210000EFC40B103230822F649F74803F0F5FB12
:10222000F348AFF30080F548005D14280ED2DFE8D4
:1022300000F00AA4B3C2D1F1EFEEEDECEBEAE9E86D
:10224000E7E6E5E4E3E2B8F1000F00D175E200262D
:10225000204602F09DF990B900BF002709E004EB89
:102260008401E74A02EB011101EBC70000F01FFCFB
:102270007F1C0A2FF3DBBDEC028BBDE8F08795EDE8
:10228000000AE04850F8240000EE900AF8EEE00A58
:10229000B2EE041A00EE810AF0EE408A9FEDDA0AEF
:1022A000F4EEC08AF1EE10FA01D2002652E09FED62
:1022B000D70AB0EE408A002795ED000ADFEDD40A78
:1022C000B4EEE00AF1EE10FA15D295ED000ADFED5A
:1022D000D00A30EEC00AB0EE408AF2EE040A88EE70
:1022E000200AF7EE000A30EE200ABDEEC00A10EE1A
:1022F000100A47421EE095ED000ADFEDC60AB4EE73
:10230000E00AF1EE10FA14DD95ED000ADFEDC10AE6
:1023100030EE600AB0EE408AB2EE040AC8EE000A5F
:10232000B7EE000A30EE800ABDEEC00A10EE107A59
:1023300000E002E200F030FB814600F031FB824613
:10234000B04951F82410C8194A46514604F038FFE4
:10235000064600BF00BFAB4850F82400B04200D191
:10236000EBE1A84840F82460A34800EBC403012235
:102370002146022000F028FBDFE19F4901EBC40069
:1023800003F0BCFA38B19C4800EBC403022221469A
:10239000032000F019FBD0E1974901EBC40003F0E2
:1023A000ADFA38B1944800EBC40303222146012062
:1023B00000F048FBC1E1904901EBC40003F09EFA34
:1023C00038B18D4800EBC40304222146022000F0FE
:1023D00039FBB2E1884901EBC40003F08FFA48B140
:1023E000854901EBC40041F2883100F0D3FB0520A0
:1023F00082490855A1E196E186E174E164E154E186
:1024000044E134E10EE1D1E0AFE08DE06BE040E08B
:102410000FE0FFE7784901EBC40003F06FFA38B131
:10242000754800EBC40306222146032000F00AFB96
:1024300083E1714901EBC40003F060FAF8B171481F
:1024400050F82400002803DD6E4850F8240003E013
:102450006C4850F8240040426F4941F82400084677
:1024600050F8240000EB80006C49085C40B16248E1
:1024700000EBC40307222146012000F0A5FA07E083
:102480005D4800EBC40307222146012000F0DAFA80
:1024900053E1594901EBC40003F030FA10B360482E
:1024A00003F0F8F905281AD15B4850F8240000EB36
:1024B00080005A490844407840B14F4800EBC403BB
:1024C00008222146042000F07FFA0BE04A4800EB86
:1024D000C40308222146042000F0B4FA02E00820D8
:1024E0004649085529E1444901EBC40003F006FAC6
:1024F000C8B1494850F8240000EB8000474908441F
:10250000807840B13C4800EBC403092221460520F5
:1025100000F05AFA07E0384800EBC40309222146CC
:10252000052000F08FFA08E1334901EBC40003F005
:10253000E5F9C8B1384850F8240000EB800037496D
:102540000844C07840B12C4800EBC4030A2221465D
:10255000062000F039FA07E0274800EBC4030A22FE
:102560002146062000F06EFAE7E0234901EBC400A3
:1025700003F0C4F9C8B1284850F8240000EB8000EB
:1025800026490844007940B11B4800EBC4030B22E4
:102590002146072000F018FA07E0174800EBC403B3
:1025A0000B222146072000F04DFAC6E0124901EB4C
:1025B000C40003F0A3F9C8B1174850F8240000EB99
:1025C000800016490844007940B10B4800EBC40371
:1025D0000C222146082000F0F7F907E0064800EB3E
:1025E000C4030C222146082000F02CFAA5E00000CC
:1025F00090020020B92B0008DC0800208801002090
:102600008C010020D0080020008020430000000042
:1026100000005C4300007043F4080020A87C000820
:102620008E030020484901EBC40003F067F9E8B1CC
:10263000464850F8240018B900204549085515E0CF
:10264000424850F82400002808DD3F4800EBC4034E
:102650000D222146092000F0B7F907E03A4800EBC7
:10266000C4030D222146092000F0ECF965E036494B
:1026700001EBC40003F042F938B1334800EBC40366
:102680000E222146022000F09FF956E02E4901EB70
:10269000C40003F033F938B12B4800EBC4030F2218
:1026A0002146032000F090F947E0274901EBC400E0
:1026B00003F024F938B1244800EBC403102221466A
:1026C000012000F081F938E01F4901EBC40003F05C
:1026D00015F938B11C4800EBC40311222146022031
:1026E00000F0B0F929E0184901EBC40003F006F945
:1026F00048B1154901EBC40041F2883100F04AFAB3
:1027000012201349085518E00F4901EBC40003F0EB
:10271000F5F838B10C4800EBC4031322214603201E
:1027200000F090F909E0084901EBC40003F0E6F875
:1027300010B100200649085500BF00BF034801F052
:1027400075FE00BF97E50000DC080020D0080020DF
:102750008801002010B5044604F001010C4801F086
:10276000F4F9C4F340010B4801F0EFF9C4F3800120
:10277000094801F0EAF9C4F3C001084801F0E5F99D
:10278000012020EA1411064801F0DFF910BD000015
:102790005800002060000020680000207000002029
:1027A0007800002010B52A4803F066F800B110BD8B
:1027B0002848007800F0010048B9264803F037F9AE
:1027C00028B1254800F0F8F92248AFF300802248EC
:1027D00000F0D8F900B9EAE71F4800F0E3F91F4814
:1027E000007838B11E480068FFF7B4FF00201B498D
:1027F00008702BE01A4800681B2808D1194801F01E
:1028000078F880F00104204601F0F2FE0CE0144854
:102810000068FFF7DDFC38B900F054F904462146A2
:102820000F48006801F0F4FE1C2200210C480068EB
:1028300004F0D1FC0A49086009681B2901D11F2155
:1028400001E0074909680846FFF784FF00BFAEE7CB
:102850008E0300207C0200208002002088020020DD
:102860008C0200208800002070B5BCB03D4803F009
:1028700003F808B13CB070BD78223B491EA8FEF7B2
:10288000A1F87822384978316846FEF79BF8002491
:102890001CE0012517E004EB84036E4606EBC3033E
:1028A00053F8252004EB84031EAE06EBC30353F854
:1028B000251004EB84032D4E06EB031303EBC50038
:1028C00000F0DCF86D1C0A2DE5DB641C032CE0DB5A
:1028D000244802F0D1FFC8B101222549254801F062
:1028E00027F901222249244801F022F90122204936
:1028F000224801F01DF901221D49214801F018F973
:1029000001221B491F4801F013F91DE04FF48072AA
:102910001D49184801F00CF94FF400721A49164885
:1029200001F006F94FF480621749144801F000F9EC
:102930004FF400621449124801F0FAF84FF4805243
:102940001149104801F0F4F8482310220F491048AB
:1029500000F0E2FF482308220C490E4800F0DCFF9B
:1029600000BF87E78E030020B87B00088C010020A1
:10297000000C01405800002060000020680000208A
:10298000700000207800002000080140001801407D
:10299000800000208800002010B500F00DF810BD68
:1029A00010B500F001F810BD10B5024802F072FF3A
:1029B000404210BD8E03002010B5024802F06AFFAD
:1029C00010BD00008E0300202DE9F04105460C46A5
:1029D00016461F4604EB8401074A02EB011101EB86
:1029E000C50000F05AF8054806556421384600F045
:1029F000D1F8BDE8F08100008C01002088010020A2
:102A000001460348405C08B1012070470020FCE704
:102A10008801002070B50546094802F02DFF00B17D
:102A200070BD002408E005F118031A5D05EBC40130
:102A3000E0B2FFF7DFFB641C032CF4DB00BFEFE721
:102A40008E0300202DE9F04105460C4616461F4630
:102A500004EB8401074A02EB011101EBC50000F011
:102A600026F8054806556421384600F093F8BDE87D
:102A7000F08100008C0100208801002070B5044620
:102A80000D46164632462946206801F051F80020CE
:102A90002071206801F048F870BD10B50446207917
:102AA00020B901202071206801F03AF810BD10B55E
:102AB0000446207920B100202071206801F034F80C
:102AC00010BD000070B50A4800F013FF0446094825
:102AD00000F00FFF054604B10DB91CB915B94FF050
:102AE000FF3070BD0CB10020FBE70120F9E70000CA
:102AF000800000208800002010B50446032308222F
:102B00000249204602F081FF044610BDE12C000876
:102B1000017A4172704710B50446207A60722046EF
:102B200000F0E7FE2072207A10BD10B50446204662
:102B300000F00EFF044600202072204610BD70B544
:102B400004460D4616462560666003220421D4E93A
:102B5000000303F035FC70BD002101604160704747
:102B600070B504460D46164625606660032218219E
:102B7000D4E9000303F024FC70BD00210160416032
:102B8000704700000146024A08681268101A704730
:102B900008000020024A12680A44426070470000A0
:102BA0000800002003490968016002490968416082
:102BB000704700000800002010B504462046FFF7CB
:102BC000F1FF204610BD00002DE9F0412DED068BF0
:102BD00005460E4690463046FFF7D8F904469FED6D
:102BE0003C0AB0EE409A00270CE008EB470002F0E8
:102BF000B9FEB0EE408AB0EE490A08EE080AB0EE1F
:102C0000409A7F1CA742F0DB00EE104AB8EEC00AE3
:102C1000C9EE000AB0EE608AB0EE480A02F00FFF7B
:102C2000F0EE40AAB0EE000A02F009FF8AEE808AB8
:102C3000284802F035FE00EE100AB8EEC00A28EE71
:102C4000000A85ED010ADFED228ADFED239A9FED70
:102C500023AA00271AE006EB470002F09FFEB0EE21
:102C6000408AB4EECA8AF1EE10FA01D2B0EE48AA58
:102C7000B4EEE98AF1EE10FA01DDF0EE489AB0EE1A
:102C8000680A08EE080AF0EE408A7F1CA742E2DBE1
:102C900000EE104AB8EEC00AC8EE800AB0EE608AB4
:102CA000B0EE480A02F0CBFE85ED000A95ED000A71
:102CB000F1EE040AB4EEE00AF1EE10FA03D29FED51
:102CC000040A85ED000ABDEC068BBDE8F08100002A
:102CD000000000008E030020CAF249F1CAF24971D7
:102CE0009FED040A80ED000A9FED020A80ED010AC3
:102CF000704700000000000010B5184802F0BCFD4D
:102D000050B1402216491748FFF72AFF8022144984
:102D10001548FFF714FF09E0202214491148FFF776
:102D20001FFF402211491048FFF709FF0121082029
:102D300003F0ACFB0E48006804F052F94FF4E131A7
:102D40000B48006804F0FAF808210948006804F00C
:102D5000F8F90748006804F090F910BD8E030020D0
:102D6000000C014030000020380000200014014019
:102D70003874000870B505462846FDF77DFD064607
:102D800000240DE0295D1148006804F024F900BF1B
:102D900007210E48006804F075F90028F8D0641C7B
:102DA000B442EFDB00240EE00948015D07480068EB
:102DB00004F011F900BF07210448006804F062F92B
:102DC0000028F8D0641C022CEEDB70BD38740008BB
:102DD0004874000810B50446204600F011FB10BDF1
:102DE00010B54FF4806227492748FFF7B9FE4FF42A
:102DF000006224492548FFF7A2FE00221146342034
:102E000003F094FC34200021002807DA0A07140E8E
:102E10001F4A00F00F031B1FD45403E00A07130ED0
:102E20001C4A135400BF1C48006804F0D9F84FF442
:102E3000E1311948006804F081F800211648006863
:102E400004F065F900211448006804F084F90021B9
:102E50001148006804F06DF904210F48006804F07F
:102E60005EF908210C48006804F06BF940F2053166
:102E70000948006804F022F90748006804F0FDF8EA
:102E800010BD00000010014020000020280000209C
:102E900018ED00E000E400E03474000810B51348B9
:102EA000006804F0E5F840F205311048006804F0CD
:102EB000F8F80E48006804F093F8342003F02AFC78
:102EC0004FF4806304221021094803F079FA4FF48B
:102ED000006304221021064803F072FA4FF4806068
:102EE000034948614000486110BD00003474000887
:102EF0000010014070B504462046FDF7BDFC0546B4
:102F00002946204600F002F870BD00002DE9F0418E
:102F100004460D46264600270EE016F8011B084819
:102F2000006804F058F800BF07210548006804F065
:102F3000A9F80028F8D07F1CAF42EEDBBDE8F08195
:102F40003474000810B5FEF70FFF4FF4C06003F0B3
:102F50004FFC40F2026003F061FD40F2036003F0B9
:102F60005DFD40F2046003F059FD40F2056003F09E
:102F700055FD40F2066003F051FD40F2076003F09A
:102F80004DFD40F2096003F049FD4FF4A06003F0ED
:102F900045FD40F2157003F041FD40F2167003F05C
:102FA0003DFD40F20F7003F039FD40F20B6003F07D
:102FB00035FD40F2117003F031FD40F2137003F063
:102FC0002DFD4FF4C06003F029FD4FF4E06003F0E5
:102FD00025FD40F2047003F021FD0F48406A0F49BF
:102FE000086040F61D1003F007FD08B103F04CFC2B
:102FF00040F20B7003F012FD02F0E4F801F064FF00
:10300000FFF7EEFE02F0A4FA02F016FA02F06CFCF2
:10301000FFF772FE10BD0000001002400400002007
:1030200010B5FFF73BFF02F077F810BD2DE9FE4326
:103030000746104A07CA8DE807006A460C2300209D
:10304000154600260AE0014615F801CB0CEB811865
:1030500008EB0148A8EB01084046761C9E42F2DBD3
:103060000446224604A13846FDF77CF93846BDE8FF
:10307000FE830000E8F7FF1F2530385800000000ED
:103080007047000010B54FF400510348FDF7D4FC21
:1030900000200249086010BDB46B0020900300209E
:1030A0000FB410B5ADF5027D85A8419042A8419AB4
:1030B0008499FDF745F90020419042A8FDF7DCFB1B
:1030C000441C0E480068204441F69C71884201DB94
:1030D000FFF7D8FF0A4802680068401C084B1860D8
:1030E00042AB08A101A8FDF73DF901A8FFF742FE98
:1030F0000DF5027D10BC5DF814FB0000900300206C
:10310000940300202564203A202573000346002004
:1031100070470146002070470948007830B1012807
:1031200006D0022806D0032807D105E00520704705
:103130000720FCE70A20FAE700BF00BF0A20F6E7F5
:10314000840100200348007808B90120704700205E
:10315000FCE70000E802002003480078022801D1C3
:10316000012070470020FCE7E802002010B504466B
:103170000348FFF717FD2046FFF792FF10BD000040
:10318000EC02002010B50020024908700248FFF749
:1031900009FD10BDE8020020EC0200202DE9F041FD
:1031A00005460C46302000F0BDFF2846FDF764FBC5
:1031B00007462046FDF760FB3844801CC6B2304607
:1031C00000F0B0FF002000F0ADFF2846FDF754FBF3
:1031D000C6B2304600F0A6FF284600F09DFF20460C
:1031E00000F09AFFBDE8F08130B589B005460C4685
:1031F000224605A101A8FDF7B5F801A92846FFF769
:10320000CDFF09B030BD00002564000010B52DEDE4
:10321000048B88B00446B0EE408AB2EE040AB4EEE5
:10322000C08AF1EE10FA0CD218EE100A04F088F8F9
:1032300041EC190B53EC192B0CA16846FDF792F8E1
:103240000BE0B6EE000A38EE000ABDEEC00A10EE42
:10325000102A08A16846FDF785F869462046FFF761
:103260009DFF08B0BDEC048B10BD000025322E314F
:1032700066000000256400002DE9F04192B004468C
:103280004B48007800F0010048B9494802F0CFFBF4
:1032900028B14848FFF790FC4548AFF30080464806
:1032A000007820B1012811D002287CD16EE001F015
:1032B00023FA42A0FFF7F4FE45A000F039FF3D4895
:1032C000FFF770FC01203C4908706CE043A12046E8
:1032D000FDF7D4FB002858D141A50AA8FFF7A6FEA8
:1032E0000646414802F0DCFA07463F4802F0D2FAAF
:1032F00080463B4642463DA102A80096FDF732F8C3
:1033000002A8FFF7CDFE102000F00CFF2846FDF7C5
:10331000B3FA074602A8FDF7AFFA38440830C6B240
:10332000304600F0FFFE002000F0FCFE2846FDF7CE
:10333000A3FAC6B2304600F0F5FE284600F0ECFED7
:10334000042000F0EFFE022000F0ECFE002000F070
:10335000E9FE3C2000F0E6FE002000F0E3FE02A8BB
:10336000FDF78AFAC6B2304600F0DCFE02A800F093
:10337000D3FE1A2000F0D6FE02200F4908701F4825
:10338000FFF710FC02F0AEF800BF0CE0204601F0A1
:10339000F3FA1A48FFF7F6FB4EF66021884201D98E
:1033A00000F0CEF800BF00BF12B0BDE8F081000011
:1033B000F4020020F8020020E80200202B2B2B2032
:1033C0004D5154543A3A49444C45202B2B2B000084
:1033D00041542B43495053454E4400003E000000E9
:1033E0004D515454000000008E030020706B732D6B
:1033F0002564253032642D2573000000EC02002086
:1034000070B5044604B970BD00BF16480078F8B91D
:10341000154803F08BFF90B1134803F087FF064671
:10342000114800F108010D4632460E4803F0EEFE49
:1034300010B90C4803F0E6FE0B4803F0E3FE21460A
:10344000084803F003FF58B9064803F0DBFE07E025
:103450002146054803F0FAFE10B9034803F0D2FEF6
:1034600000BFD0E7106800201869002070B5284818
:1034700002F002FA10B14FF4805000E0042004463C
:10348000234802F0F9F908B1224800E02248054635
:1034900022462946214800F04BFB204800F040FB23
:1034A0001B4802F0E9F910B14FF4006000E0012080
:1034B0000446174802F0E0F908B1164800E0164843
:1034C000054622462946164800F032FB144800F013
:1034D0002BFB0F4802F0D0F910B14FF4806000E0F0
:1034E000022004460A4802F0C7F908B1094800E082
:1034F000094805462823224629460A4800F00CFAC6
:10350000084800F019FAFFF76BFCFFF7C7FC70BD25
:103510008E030020000801400014014040000020FC
:10352000480000205000002000BF04480078062812
:1035300001D1012070470020FCE70000D8020020E4
:1035400010B5002000F002F810BD0000014908701D
:1035500070470000D802002010B500F007F80446BC
:1035600004230322282102F02BFF10BD10B50448CC
:1035700002F082F908B1034810BD0348FCE70000DF
:103580008E030020001401400018014010B5FFF721
:10359000EDFF044604230322102102F011FFFFF780
:1035A000E5FF0421416110BD10B5FFF7DFFF0446C0
:1035B000042102F063FF012800D110BD0020FCE7C8
:1035C00070B592B000BF01204449087000BF0846A2
:1035D00003F0ACFE10B3002408E021463F4803F09E
:1035E00055FE05782846FFF74BFD641C3B4803F069
:1035F0009DFEA042F1DC394803F098FE05463748AD
:1036000000F108010C462A46354803F0FFFD10B9C9
:10361000334803F0F7FD314803F0F4FD00BF00200C
:103620002E49087000BF2E4803F080FE18B92DA067
:1036300000F052FB50E06C46204600F057F904467B
:103640000020606000BF002600BF00BF0020019086
:1036500000BF002600242DE02146214803F016FE7D
:1036600005780A2D00D124E00D2D0DD100BF019861
:1036700000B91EE00021684603F01AFE0126611C15
:10368000174803F0B1FD1AE03E2D0DD13E216846EA
:1036900003F00EFE0021684603F00AFE0126611CBD
:1036A0000F4803F0A1FD0AE02946684603F000FE3A
:1036B00000BF641C0A4803F039FEA042CCDC1EB1F6
:1036C000684600F1080100E006A10C46204600F023
:1036D00003FB002EB9D100BF12B070BD10680020EE
:1036E000206A00200000000070B55848007800F003
:1036F000010058B9554802F09AF938B1544C2046A7
:10370000FFF750FA00BF5148AFF3008000BF5148A7
:103710000078072817D2DFE800F004172D5E6E7FCF
:1037200094004DA0FFF7BCFC00F0C4FAFFF72AFD9F
:103730004E4800F0F5F9FFF729FF0120FFF706FFDB
:103740004348FFF72FFA7FE049A0FFF7A9FC404864
:10375000FFF718FA40F6B83188420AD9FFF7FCFEA5
:10376000424800F0E1F90220FFF7F0FE3848FFF789
:1037700019FA69E047A0FFF793FCFFF715FFF0B1D6
:103780003348FFF70FFA0320FFF7E0FE494802F045
:1037900073F810B14FF4806000E002200446454801
:1037A00002F06AF808B1444800E04448054628237E
:1037B00022462946424800F0AFF8FFF711FB2448A3
:1037C000FFF7E0F9642805D93EA0FFF769FC002067
:1037D000FFF7BCFE38E01E48FFF7D4F9B0F5FA7FDA
:1037E00008D9414800F0A0F91948FFF7DBF9042097
:1037F000FFF7ACFE28E01648FFF7C4F940F2E241BB
:10380000884208D9384800F08BF91148FFF7CAF907
:103810000520FFF79BFE17E0294800F06AF828B161
:103820000620FFF793FE0A48FFF7BCF90848FFF7A8
:10383000A9F941F28831884202D90020FFF786FEBB
:1038400002E0FFF7BDFE00BF00BF70BDDC0200203C
:10385000E0020020D80200204D6F64656D203A2000
:1038600053746174653A3A49444C45004000002065
:103870004D6F64656D203A2053746174653A3A5710
:103880004149545F4449534348415247455F43418E
:10389000505300004D6F64656D203A20537461747D
:1038A000653A3A574149545F48495F47534D5F5025
:1038B000470000008E030020000801400014014072
:1038C00050000020212121204552524F5220212119
:1038D0002120526573657420746F20737461746560
:1038E0002069646C65000000480000200021017020
:1038F000704710B50446204600F003F880F0010040
:1039000010BD10B50446D4E9000102F0B7FD08B9B6
:10391000012010BD0020FCE72DE9F04104460D46D2
:1039200016461F462560666003223946D4E9000327
:1039300002F046FDBDE8F08110B5044604221021D6
:10394000D4E9000302F03CFDD4E90010486110BD49
:103950000021016041607047014800687047000025
:103960000800002070B50446FFF7F6FF051901E0D6
:1039700001F0C0FFFFF7F0FFA842F9D370BD10B50A
:10398000FFF780FBFFF7DEFA01F03CFD01F04EF996
:10399000FFF76CFD10BD10B501F0ACFF01F036FD76
:1039A00001F05AF9FFF7A0FE01F06CFDFEF7FAFEF8
:1039B00010BD00002DE9F04705460E4617460020D1
:1039C000387081468046012E02D14FF0FF3937E032
:1039D00029460122087820280AD008782C2807D008
:1039E00008783A2804D008783D2801D0012000E06A
:1039F0000020034618E00878202808D008782C28F2
:103A000005D008783A2802D008783D2802D153B171
:103A1000002308E03BB9521C0123B24203D1481BEA
:103A2000A0F1010905E0491CB24202DA0878002839
:103A3000E1D100BFB24202D010A0BDE8F08700BFC4
:103A400009F1010805EB080402E008F10108641C13
:103A5000207858B12078202808D020782C2805D04C
:103A600020783A2802D020783D28EED13B464246C5
:103A70004946284600F004F8DFE700000000000097
:103A80002DE9F04107460D4616461C46701B0028DE
:103A900005DC0AA0FFF704FB002020700BE02046A5
:103AA000691C03E07A5C00F8012B491CB142F9DB88
:103AB0000021017000BF2046BDE8F08157726F6E93
:103AC0006720617267756D656E74730010B504468A
:103AD00004220021D4E9000302F072FC10BD016051
:103AE000426003727047000070B504460D461646EA
:103AF00025606660074801F0BFFE18B10121022071
:103B000002F0C4FC03221C21D4E9000302F058FC9B
:103B100070BD00008E0300200021016041607047ED
:103B2000D0E9002111617047D0E90021516170474F
:103B300070B504460D4616462560666003221021C6
:103B4000D4E9000302F03CFC70BD10B504460B46FE
:103B50001BB12046FFF7E4FF02E02046FFF7E4FF39
:103B600010BD0021016041607047000000487047AF
:103B7000C802002003480078062801DB01207047B6
:103B80000020FCE7B402002010B504460548FEF70B
:103B9000F9FFA04201D8012010BDFFF7D1FC0020A1
:103BA000FAE70000B802002030B591B00446207852
:103BB00018B121462BA0FFF773FA09AA012120466C
:103BC000FFF7F8FE29A12046FCF758FF20B9FFF7C0
:103BD000B7FC012011B030BD26A12046FCF74EFFF6
:103BE00018B9FFF7ADFC0120F4E725A109A8FCF7FF
:103BF00045FF30B9244A02212046FFF7DBFE0120B1
:103C0000E8E722A12046FCF739FF08B90120E1E7E7
:103C100020A109A8FCF732FF08BB01AA0221204617
:103C2000FFF7C8FE05461DA1FCF728FF98B9A07C48
:103C3000012810D1607C65280DD1207C74280AD120
:103C4000E07B612807D101F048FE012114A000F0BB
:103C5000C7FAFEF771F92046FFF788FA00BF002087
:103C6000B8E700003C3C3C2025730000434C4F5318
:103C70004544000053454E44204641494C00000055
:103C80002B43535100000000C802002053454E440E
:103C9000204F4B002B4950440000000031330000FE
:103CA0005570677261646520736F667477617265C1
:103CB000000000000020014908707047B402002095
:103CC00010B504460248FEF76DFF0248047010BDAF
:103CD000B8020020B402002070B588B0054628461E
:103CE000FFF762FF08B108B070BD42F21076C3481A
:103CF000007820B10020C1490870C1490870C0484F
:103D00000078102813D2DFE800F008132435465459
:103D1000778DB0C6DCF7F5F4F3F2BAA000F008FA3C
:103D20000120FFF7CDFFB948B9A10988018062E100
:103D300042F21070FFF728FF50B1B6A12846FCF7F9
:103D40009DFE28B90220FFF7BBFFB3A000F0F0F9F9
:103D500051E142F21070FFF717FF50B1B2A12846AF
:103D6000FCF78CFE28B90320FFF7AAFFAFA000F0F4
:103D7000DFF940E142F21070FFF706FF50B1A5A154
:103D80002846FCF77BFE28B90420FFF799FFABA07B
:103D900000F0CEF92FE142F21070FFF7F5FE38B1D6
:103DA0009CA12846FCF76AFE10B90520FFF788FFA2
:103DB00021E14EF66020FFF7E7FEE0B16A460121FF
:103DC0002846FFF7F7FD04469FA1FCF757FE90B980
:103DD0006A4602212846FFF7EDFD007800F00F0447
:103DE000012C01D0052C05D10620FFF769FF98A012
:103DF00000F09EF900BFFEE042F21070FFF7C4FE33
:103E000078B16A4603212846FFF7D4FD044694A101
:103E1000FCF734FE28B90720FFF752FF92A000F00C
:103E200087F9E8E042F21070FFF7AEFEE0B16A46B3
:103E300001212846FFF7BEFD044676A1FCF71EFED1
:103E400030B90820FFF73CFF81A000F071F90BE0CA
:103E50006A4601212846FFF7ADFD044689A1FCF71B
:103E60000DFE08B9FFF76CFBC5E042F21070FFF7DA
:103E70008BFE78B16A4603212846FFF79BFD044676
:103E800082A1FCF7FBFD28B90920FFF719FF81A0EB
:103E900000F04EF9AFE042F21070FFF775FE78B116
:103EA0006A4601212846FFF785FD044659A1FCF723
:103EB000E5FD28B90A20FFF703FF65A000F038F9F7
:103EC00099E042F21070FFF75FFE78B16A46032175
:103ED0002846FFF76FFD044671A1FCF7CFFD28B916
:103EE0000B20FFF7EDFE70A000F022F983E071E0F7
:103EF0005AE02DE016E0FFE742F21070FFF744FEB3
:103F000078B16A4601212846FFF754FD044641A1D5
:103F1000FCF7B4FD28B10C20FFF7D2FE4CA000F056
:103F200007F968E042F21070FFF72EFE78B16A469A
:103F300003212846FFF73EFD04465EA1FCF79EFDE7
:103F400028B90D20FFF7BCFE5CA000F0F1F852E0AC
:103F50006548FFF719FE30B36A4601212846FFF78E
:103F600029FD044661A1FCF789FD48B16A4602219A
:103F70002846FFF71FFD044626A1FCF77FFD30B958
:103F80000E20FFF79DFE5BA000F0D2F80BE06A4622
:103F900002212846FFF70EFD04465AA1FCF76EFDEC
:103FA00008B9FFF7CDFA26E042F21070FFF7ECFDFA
:103FB00078B118A12846FCF761FD18B90F20FFF76A
:103FC0007FFE06E02FA12846FCF758FD08B9FFF751
:103FD000B7FA10E02846FFF74FF94C48FEF7D2FD3C
:103FE00041F28831884205D94848FEF7DBFD48A0F8
:103FF00000F09EF800BF00BF00BF74E6B5020020CD
:10400000B40200204154453000000000C8020020E6
:10401000300000004F4B000041542B4950523D31BD
:1040200031353230300000005244590041542B47A2
:10403000534D425553593D310000000041542B432C
:104040005245473D310000002B43524547000000D8
:1040500041542B43495053544154555300000000E0
:10406000494E495449414C0041542B435354543D0B
:1040700022696E7465726E6574222C22222C2222B3
:10408000000000004552524F52000000535441526C
:104090005400000041542B434949435200000000A2
:1040A000475052534143540041542B4349465352C5
:1040B00000000000535441545553000041542B4319
:1040C000495053544152543D22544350222C2264AF
:1040D00065762E72696768746563682E696F222C35
:1040E000223138383322000000710200414C524521
:1040F0004144590041542B434950484541443D31C6
:10410000000000004641494C00000000C0020020B1
:1041100041542B435351000010B504462046FEF78E
:10412000E9FE10BD01B501216846FEF7EFFE08BDAE
:1041300010B504462046FCF79FFB022806D9FFF77E
:1041400001F818B1214605A0FEF7AAFF2046FEF7A8
:10415000D1FE0448FEF7CEFE10BD00003E3E3E20DC
:1041600025730000C67C00080180704710B500214F
:104170000148FEF70FFD10BD3803002010B51248AE
:10418000007800F0010048B90F4801F050FC28B158
:104190000E48FEF711FD0C48AFF300800B48FEF708
:1041A000F1FCB0F57A7F0CD90948007848B10020BD
:1041B000074908700748016807A0FEF7EFFF0120D4
:1041C00010BD0020FCE70000600300206403002015
:1041D0005C030020580300202F7374617465000095
:1041E0007CB504460D460B48046095B1FFF7BEFF51
:1041F0006846FEF7E1FC01E0FFF776FA0648007832
:1042000030B16846FEF7BEFC42F210718842F3D32B
:1042100000BF7CBD580300205C0300200120014941
:10422000087070475C03002030B589B020480078E2
:1042300000F0010048B91E4801F0F9FB28B11D4803
:10424000FEF7BAFC1A48AFF300801A48FEF79AFC52
:10425000B0F57A7F29D91848007828BB0120164983
:104260000870164801F01CFB0446144801F012FBCC
:1042700005462B468D2212A101A80094FCF772F886
:1042800001A912A0FEF78AFF01200B49087001A8BE
:10429000FEF7CCFE044621460FA0FEF77FFF00F09C
:1042A0001FF8012009B030BD00BF0020FAE7000070
:1042B0004C03002050030020340300208E03002014
:1042C0007625643A25643A25640000002F766572ED
:1042D00073696F6E53570000626173652F696400E4
:1042E00010B51EA11EA0FEF759FF20480068C0F3BC
:1042F000007018B11EA11AA0FEF750FF1B480068FD
:10430000012101EAD07018B11CA115A0FEF746FFEB
:1043100016480068C0F3807018B11BA110A0FEF70A
:104320003DFF12480068C0F3407018B119A10CA0FD
:10433000FEF734FF0D480068C0F3C06018B119A142
:1043400007A0FEF72BFF09480068C0F3806018B192
:1043500016A103A0FEF722FF10BD00002D000000F3
:104360002F6C6173742F72657365740004000020F4
:10437000536F667477617265000000004C6F7720A0
:10438000706F7765720000005761746368646F67CF
:104390000000000046726565207761746368646F91
:1043A00067000000506F7765720000004578746503
:1043B000726E616C2070696E0000000030B589B0CB
:1043C0000025002415E00D48005D88B100200B4950
:1043D00008550B4850F824200AA101A8FBF7C2FF9A
:1043E0000D4850F82400414201A8FEF7FDFE0125CA
:1043F000641C032CE7DB284609B030BD24030020F1
:10440000DC7C0008626173652F636F6E742F6C65CE
:1044100076656C25730000001803002001460248F1
:1044200050F82100704700001803002001460020CA
:104430000FE051F82020084B53F820309A4207D063
:1044400051F82020044B43F820200122034B1A543A
:10445000401C0328EDDB70471803002024030020D4
:1044600070B59AB000260125002430E0082C03D056
:10447000112C01D01A2C00D128E02748005DF0B1A2
:104480001B2C0BD12548C06E08B925A000E025A043
:10449000014625A0FEF782FE01260DE0274850F8D0
:1044A000242027A101A8FBF75DFF1C4850F8241029
:1044B00001A8FEF799FE0126002017490855174864
:1044C00050F82400401C00B9002500BF641C1C2CBF
:1044D000CCDBEEB11E48007800F0010050B91C485A
:1044E00001F0A5FA30B185F001001A4908701848AA
:1044F000AFF3008017480078A84209D00DB109A099
:1045000000E007A0014614A0FEF748FE1148057020
:1045100030461AB070BD00006C030020446B0020D0
:1045200030000000310000002F626173652F73744A
:104530006174652F6463313030760000E87C0008D8
:10454000626173652F636F6E742F4B4D257300008E
:10455000880300208C0300202F626173652F737421
:104560006174652F73746174655F636F6E746163EA
:10457000746F72730000000010B5024602EBC203B4
:104580005818024C54F8200010BD0000446B002065
:1045900070B50546144801F08FF908B9012070BDC7
:1045A00005EBC50600241BE00F4801F073F9042851
:1045B0000CD1032C09D00C2C07D0152C05D0082CBD
:1045C00003D0112C01D01A2C00D108E0A019074902
:1045D00051F82000401C08B90020E0E700BF641C2F
:1045E000092CE1DB0120DAE78E030020446B002078
:1045F0000146054AD26E8A4204D00122034BDA7684
:10460000014AD16670470000446B00206C03002013
:1046100070B504460D460C4801F03CF9042806D15B
:10462000032C03D00C2C01D0152C00D101250748F8
:1046300050F82400A84205D0012005490855034838
:1046400040F8245070BD00008E030020446B002011
:104650006C03002030B585B01848007828B9174899
:10466000407810B91548807808B1012000E000209A
:10467000054605B3142212496846FCF7A3F9002445
:1046800016E00E48005D90B1601CC0B240F03000F2
:104690008DF80E000B48005D08B10BA000E00BA0E8
:1046A00001466846FEF77AFD002004490855641C5F
:1046B000032CE6DB00BF284605B030BD1303002005
:1046C000C87C00081003002031000000300000000A
:1046D00070B504460D46FEF73FFD00B970BD601E83
:1046E00003490D540121034A115400BFF6E70000AD
:1046F000100300201303002010B500F047F8FFF767
:104700008DFD00200349087000210348FEF742FA9E
:1047100010BD0000340300203803002010B51348FA
:10472000007800F0010058B9104801F080F938B164
:104730000F4C2046FEF736FA00BF0C48AFF300805E
:104740000B4801F0DBF878B14EF660210848FEF71F
:1047500021FA084801680068401C064B186006A052
:10476000FEF742FD012010BD0020FCE704030020FD
:104770000803002000030020626173652F737461D9
:1047800074652F636F756E746572000000200149B7
:10479000086070470003002010B52DED028B3848EB
:1047A00004780078002867D03648007EE8B13548A4
:1047B000D0ED000AB0EE600A33A0FEF727FD3148C5
:1047C000D0ED010AB0EE600A35A0FEF71FFD2D48BE
:1047D00001F0A0F8DFED380A80EE201AB0EE418A31
:1047E000B0EE480A35A0FEF711FD2648407EF0B134
:1047F0002448D0ED020AB0EE600A33A0FEF706FDB1
:104800002048D0ED030AB0EE600A35A0FEF7FEFCAA
:104810001C48083001F07EF8DFED270A80EE201AF0
:10482000B0EE418AB0EE480A33A0FEF7EFFC15481F
:10483000807EF0B11348D0ED040AB0EE600A31A0DA
:10484000FEF7E4FC0F48D0ED050AB0EE600A33A095
:10485000FEF7DCFC0B48103001F05CF8DFED160AC7
:1048600080EE201AB0EE418AB0EE480A31A0FEF781
:10487000CDFC0020024908702046BDEC028B10BD23
:1048800028030020286B0020626173652F73746118
:1048900074652F766F6C746167655F61000000005E
:1048A000626173652F73746174652F6375727265CD
:1048B0006E745F610000000000007A442F706F7713
:1048C00065725F6100000000626173652F7374613F
:1048D00074652F766F6C746167655F62000000001D
:1048E000626173652F73746174652F63757272658D
:1048F0006E745F62000000002F706F7765725F62F8
:1049000000000000626173652F73746174652F7617
:104910006F6C746167655F630000000062617365BE
:104920002F73746174652F63757272656E745F6343
:10493000000000002F706F7765725F630000000059
:1049400010B50446094800F0D9FF00B910BD4EF675
:1049500060210648FEF71EF91B2221460448FCF799
:1049600031F801200349087000BFEFE72C03002055
:10497000286B00202803002070B505462F48FEF75D
:1049800001F944F62061884205D92C48FEF70AF95E
:1049900001202B4908702BA12846FCF76FF800284E
:1049A0003DD100242648007850B10124002024493C
:1049B0000870C020FFF7B6FB0020FFF7B3FB21E033
:1049C000FFF732FC08B101241CE0FFF7D7FB08B168
:1049D000012417E0FFF7E0FE08B1012412E0FFF721
:1049E000EDFC08B101240DE0FFF73AFD08B1012408
:1049F00008E0FFF72FFE08B1012403E0FFF78EFE69
:104A000000B101240CB11A2100E01B210846FFF778
:104A100089FB14B10CA0FFF78BFB012070BD0D4882
:104A200000F06CFF38B108A0FFF782FB4FF47A71F9
:104A30000848FEF7AFF80020F0E700004003002030
:104A4000480300203E00000041542B434950534589
:104A50004E4400003803002010B54FF48061024836
:104A6000FBF7EAFF10BD00003804002070B50546D2
:104A70000E461446094805600948066008E020789B
:104A800000F094F92178884201D0207870BD641C30
:104A900020780028F3D12078F8E700007401002086
:104AA0007801002070B52DED028B90B0044609A866
:104AB00000F086FDE0B2FFF76BFD68B9FEF74CFF32
:104AC0004FF47A71B0FBF1F00521B0FBF1F000F08A
:104AD000010008B9012000E00020064646B3002589
:104AE00023E004EB440000EBC40000F1110138A204
:104AF0000020FFF7BBFF29462046FFF73DFD401C85
:104B000090B96A1C34A101A8FBF72CFC04EB440209
:104B100002EBC40202F1110105EB8502322303EB23
:104B2000420001AAFFF7A2FF6D1C082DD9DB4AE065
:104B3000E0B2FFF773FC05462A4627A101A8FBF760
:104B400011FC04EB440000EBC40000F1110101AAC8
:104B50000020FFF78BFF09A800EBC40090ED000ACE
:104B600010EE101A084602F0EBFB41EC180B53EC68
:104B7000182B1AA101A8FBF7F5FB04EB440000EB8E
:104B8000C40000F1110101AA1420FFF76FFF09A86A
:104B900000EBC40090ED010A10EE101A084602F076
:104BA000CFFB41EC180B53EC182B0CA101A8FBF721
:104BB000D9FB04EB440000EBC40000F1110101AA91
:104BC0005020FFF753FF10B0BDEC028B70BD00000A
:104BD00044656665637400002564000025342E3149
:104BE0006600000070B50446012C05D1FF22810249
:104BF0000D48FBF719FF12E02CB94FF480610A4809
:104C0000FBF71AFF0BE0022C09D1002504E0FBF7AB
:104C10005DFB054948556D1CB5F5806FF7D302481B
:104C200000F087FB70BD00003804002010B500F0D4
:104C30009FFB0120FFF7D6FFFA20FEF793FE02202C
:104C4000FFF7D0FFFA20FEF78DFE0020FFF7CAFF26
:104C5000FA20FEF787FE10BD30B591B00AA800F02B
:104C6000AFFCFFF7F9FE002403E02046FFF71AFF30
:104C7000641C032CF9DB02A8FEF7D8F9044622468F
:104C800033214620FFF7F2FE1C4800F009FE0446DF
:104C90001A4800F0FFFD05468D2023462A4618A13C
:104CA000009002A8FBF75EFB02AA33210020FFF769
:104CB000DDFEFEF739FC20B114A205210846FFF7FE
:104CC000D5FEFEF757FF20B111A205212320FFF7E3
:104CD000CDFEFEF741FA60B10EA205214120FFF79B
:104CE000C5FEFEF743FF0446224605216420FFF778
:104CF000BDFE0A4800F01DFB11B030BD8E03002040
:104D000025643A25643A256400000000504F57009E
:104D1000524547004D515454000000003804002013
:104D2000F0B503461446802B01DA402900DBF0BDC4
:104D3000E4B1CD1701EB5575ED1003EBC5151A4E17
:104D4000755D0A46CE1701EB5676F610A1EBC60745
:104D50000126BE403543EEB20846CD1701EB55752E
:104D6000ED1003EBC515104F7E551AE0CD1701EB82
:104D70005575ED1003EBC5150B4E755D0A46CE1744
:104D800001EB5676F610A1EBC6070126BE40B543EF
:104D90000846CE1701EB5676F61003EBC616024F07
:104DA000BD5500BFC3E70000380400202DE9F047DF
:104DB00004464148007818B13F480078012827D1BF
:104DC000A046FEF7A9F981464046FEF7A2F907463C
:104DD000002514E000260FE0324629464046FEF743
:104DE00095F940B1354A12685119354A126890193F
:104DF0000122FFF795FF761CBE42EDDB6D1C4D4591
:104E0000E8DB2F480168781C08442D49086051E010
:104E10002948007802284DD1202C01DB7E2C02DDB0
:104E20000020BDE8F0872748007825490968084434
:104E3000802806DC23484078204909680844402837
:104E400001DD0020EDE7002529E0A4F120001D4947
:104E5000497800FB01501B49496831F81070002661
:104E600018E007FA06F000F4004048B1134A12684F
:104E70005119134A126890190122FFF751FF08E0F7
:104E80000E4A126851190E4A126890190022FFF753
:104E900047FF761C0B480078B042E2DC6D1C0948E5
:104EA0004078A842D1DC07480078054909680844E1
:104EB000034908602046B4E78401002078010020FF
:104EC000740100207C01002010B58EB0022001F09A
:104ED000A5FC00221146122001F028FC8448FEF7B0
:104EE000F5FD8448FEF7F2FD8348FEF7EFFD8348A9
:104EF000FEF7ECFD8248FEF7E9FD8248FEF7E6FD8D
:104F00000021814801F030F98048079000208DF899
:104F100034007F48099001208DF835000002089088
:104F200080000A9000208DF8360006200B904FF488
:104F300000500C9007AA0021734801F04DF90021A0
:104F4000714801F0F8F8022200216F4801F0DBF906
:104F500000216D4801F0D6F847F23050ADF800005E
:104F60001020ADF80200ADF8040040F6FF7002908A
:104F70004FF40070ADF8060000208DF80C00694673
:104F8000644801F083FF04A801F0FFFE0020ADF8A3
:104F900014000120ADF8100004AA00215D4801F0C2
:104FA00091FD40F6FE7200215A4801F0AEFE7022DB
:104FB0000021584801F07CFE00221146554801F0BE
:104FC000B7FE0121534801F0ADFF524801F074FDD6
:104FD000504801F056FF002000F0F4FF01220221AA
:104FE0004A484C3801F061F80122110247484C3818
:104FF00001F05BF8002145484C3800F05EFF0622C6
:10500000012142484C3800F035FF394800F089FC56
:1050100004460723224600213C484C3800F0E0FFBC
:10502000344800F07EFC044607232246012137481D
:105030004C3800F0D5FF304800F073FC04460723DD
:105040002246022131484C3800F0CAFF2B4800F0BC
:1050500068FC04460723224603212C484C3800F004
:10506000BFFF274800F05DFC0446072322460421C9
:1050700026484C3800F0B4FF224800F052FC0446A9
:1050800007232246052121484C3800F0A9FF0122C0
:1050900011461E484C3800F02EFF002201211B480B
:1050A0004C3800F047FF022118484C3800F086FFCA
:1050B000042116484C3800F081FF022113484C3877
:1050C00000F066FF11484C3800F00CFF0120FCF79F
:1050D00029FF0E484C3800F0B8FE0C484C3800F060
:1050E000FCFE012109484C3800F0D0FF0EB010BD85
:1050F0009C030020A8030020B4030020C00300206C
:10510000CC030020D8030020000002404C240140C2
:105110002C040020002C014010B50B4800F0D8FEF4
:105120000221094800F01EFF084801F0A5FE0748CB
:1051300001F034FE0021064801F016F80022114665
:10514000122001F0F3FA10BD00240140002C0140B0
:105150000000024010B5024800F046FA10BD000001
:105160002C0400201CB504466846FDF725FD06E02A
:105170006846FDF707FD642801D900201CBD2146C3
:105180000348006801F08EFA0028F1D00120F5E70D
:10519000307400081CB504466846FDF70DFD06E0B6
:1051A0006846FDF7EFFC642801D900201CBD2146AC
:1051B0000348006801F076FA0028F1D10120F5E7F4
:1051C0003074000810B51A4800F056FB10B14FF4C7
:1051D000807000E040200446224616491648FEF73B
:1051E00083FC134800F048FB10B14FF4007000E05E
:1051F0008020044622460F491048FEF775FC002225
:105200000F491048006801F091F9782300221146F7
:105210000C48006801F05FFA0A48006801F029FABA
:105220004FF480610748006801F078F910BD000074
:105230008E030020000C0140100000201800002008
:10524000801A0600307400082DE9FC4105460C4622
:1052500016466846FDF7B0FC40F20160FFF79AFF82
:1052600010B90020BDE8FC812D48006801F041FA2A
:105270004FF4A060FFF776FF08B90020F2E76FF067
:10528000010278212648006801F01BFA40F2015023
:10529000FFF768FF00212248006801F03FF940F263
:1052A00001511F48006801F0E9F929461C480068CF
:1052B00001F0DCF940F20750FFF754FF01274FF0EF
:1052C00000080EE014F8011B1548006801F0CEF943
:1052D00040F20750FFF746FF08B9002703E008F146
:1052E0000108B045EEDB0E48006801F007FA06E061
:1052F0006846FDF747FC642801D9002706E0084806
:105300000068006800F400700028F1D100BF4FF47D
:1053100080610348006801F001F93846A2E7000007
:105320003074000801B5012269460020FFF78CFFA8
:1053300008BD70B50546002417E004F1B001C8B2FD
:10534000FFF7F0FF00B912E00020FFF7EBFF10209D
:10535000FFF7E8FF802000FB045102464020FFF7E2
:1053600073FF00B903E0601CC4B2082CE5DB70BD1C
:1053700010B5AE20FFF7D6FF00B910BDD420FFF75F
:10538000D1FF8020FFF7CEFFA820FFF7CBFF3F2003
:10539000FFF7C8FFD320FFF7C5FF0020FFF7C2FFCC
:1053A0004020FFF7BFFF8D20FFF7BCFF1420FFF761
:1053B000B9FFA120FFF7B6FFC820FFF7B3FFDA203F
:1053C000FFF7B0FF1220FFF7ADFF8120FFF7AAFF24
:1053D000CF20FFF7A7FFD920FFF7A4FFF120FFF7A9
:1053E000A1FFDB20FFF79EFF4020FFF79BFFA420DB
:1053F000FFF798FFA620FFF795FFAF20FFF792FF7A
:1054000000BFBAE710B5FDF72FFA10BD00B595B093
:1054100000F090F9684600F0DDF81C22694607A804
:10542000FBF7D0FA1B2207A90EA8FBF7CBFA0EA8B0
:10543000FDF7F0FA15B000BD3EB50E4A07CA8DE87B
:10544000070000240BE05DF8242004EB44010A4B24
:1054500003EB810048230949FEF75EFA641C032C24
:10546000F1DB48234FF4007204490548FEF754FA73
:105470003EBD00003C7400080804002000100140FC
:105480006801002070B5002427E004EB4401144AB1
:1054900002EB8100FDF73FFB04EB4401104A02EBF5
:1054A0008100017A427A914201D0012100E000217D
:1054B00091B104EB44010A4A02EB8100017A81F0C8
:1054C00001052946601CFFF703F904EB4401044A77
:1054D00002EB8100FDF71CFB641C032CD5DB70BDC7
:1054E0000804002070B500241AE004EB44010E4AC1
:1054F00002EB8100FDF70FFB04EB44010A4A02EBCB
:105500008100017A81F001052946601CFFF7E0F86F
:1055100004EB4401044A02EB8100FDF7F9FA641C34
:10552000032CE2DB70BD00000804002008200149C4
:10553000086070471014014010B5082303221021A1
:10554000024800F03DFFFFF7F1FF10BD00140140DD
:1055500000B587B0FFF7F0FF282303221821104879
:1055600000F02EFF1023032204210D4800F028FF35
:10557000002001904FF482700090002002900220E1
:1055800005900002039020200690002004906946B8
:10559000044801F078FA034801F070FA07B000BD42
:1055A000000C0140003C00400448B0F90000B0F598
:1055B000FA6F01DB012070470020FCE7A402002005
:1055C00010B504461C2202492046FBF7FBF910BD2A
:1055D0000009002010B504461C2202492046FBF7B2
:1055E000F1F910BD1C09002038B504464748007881
:1055F00000F0010058B9454800F019FA38B1444D9F
:105600002846FDF7CFFA00BF4048AFF3008041487D
:10561000008810B93E48FDF7C5FA3E48B0F90000D1
:10562000B0F5FA6F71DA21883B4801F057FE054664
:1056300029466846FEF798FD3849364AB2F90020F7
:1056400001EB42010088088061883348183001F07E
:1056500045FE054629466846FEF786FD30492D4A37
:10566000B2F9002001EB420100880880A1882A4895
:10567000303001F033FE054629466846FEF774FDDA
:105680002849244AB2F9002001EB42010088088031
:10569000E1882148483001F021FE05462946684648
:1056A000FEF762FD20491B4AB2F9002001EB4201DE
:1056B0000088088021891848603001F00FFE0546F7
:1056C00029466846FEF750FD1849124AB2F90020F3
:1056D00001EB42010088088061890F48783001F0B1
:1056E000FDFD054629466846FEF73EFD1049094A7C
:1056F000B2F9002001EB42010088088005480088CB
:10570000401C00B20349088000BF38BDA802002039
:10571000AC020020A40200201467002054090020DD
:10572000F41800209428002034380020D4470020AA
:105730007457002010B59CB0FFF736FF002839D011
:10574000684600F043F81C22694615A8FBF73AF9B1
:105750001B2215A91848FBF735F91748FFF7F0F891
:1057600015496846FCF706FC1C2269460EA8FBF7A3
:1057700029F91B220EA91148FBF724F90E496846A6
:10578000FCF7ECFB1C22694607A8FBF71BF91B2260
:1057900007A90B48FBF716F9002405E0E0B2FDF776
:1057A0002FF908490855641C032CF7DB0020064933
:1057B000088000BF1CB010BD000900201C0900209B
:1057C00038090020A0020020A402002010B588B0F3
:1057D00004460020FDF714F98DF81C000120FDF7A8
:1057E0000FF98DF81D000220FDF70AF98DF81E0053
:1057F0006846FDF781F9184A18496846FDF7E4F94B
:10580000174A184902A8FDF7DFF9174A174904A8F3
:10581000FDF7DAF9002015E007A9095C21B9144960
:10582000095C09B9012200E0002206A90A54095CBA
:1058300039B9694601EBC0010E4A02EBC0030CCB3B
:105840000CC1401C0328E7DB1C2269462046FBF7FD
:10585000B9F808B010BD0000343800205409002009
:10586000D4470020F418002074570020942800200A
:10587000A00200200009002010B50346184600F0E1
:1058800009F8002801DC012000E000200446204641
:1058900010BD00000146014A1068704700F8030877
:1058A000024604480168002901DC102070470846C0
:1058B000FCE7000004F8030870B505460248FEF74F
:1058C00018F80446204670BD6801002010B500217C
:1058D00040F6FF7000F030FD10BD10B5062140F617
:1058E000FF7000F029FD10BD10B5FFF7EFFF00F0CD
:1058F0005FFD10BD10B500F053FD10BD0146044A18
:1059000048681268904201D8012070470020FCE7E7
:105910000800002090ED000AD0ED010A20EE200AD8
:1059200070470146087A704710B50446B0EE000A89
:1059300000F085F8F2EE040A20EE200ADFED040AFA
:1059400060EE200A9FED031A80EE810A10BD000070
:1059500033335340A01A07409FED010A70470000FF
:1059600000E8804410B5044600BF2046FFF7DCFF86
:105970009FED081AC0EE010AB0EE600A208800EE22
:10598000900AF8EE600A9FED041A70EEC10A20EE4C
:10599000200A10BD00E07F4500E0FF4400B501464D
:1059A00000BF0846FFF7D8FF9FED081AC0EE010AB6
:1059B000B0EE600A088800EE900AF8EE600A9FEDEB
:1059C000041A70EEC10A20EE200A00BD00E07F45F7
:1059D00000E0FF4401460888704703B40198410085
:1059E000009850EAC12018BF04204A0D18BF40F0AB
:1059F000010040F2FF72B2EB515F08BF40F00200BD
:105A0000012808BF052002B070472DE9F0411C466F
:105A100017460E00804607D0054602E02846B047EC
:105A20003D442046641EF9D24046BDE8F08101683D
:105A300009B100207047012101600846704710B588
:105A40002DED028BB1EEC08A18EE100A20F0004056
:105A5000C0F1FF40C00F0AD010EE100A20F0004045
:105A6000C0F1FF40C00F04BF0120FBF762F8B0EEA9
:105A7000480ABDEC028B10BD10B50348FDF79CF839
:105A80000248FDF799F810BDB8020020C0020020BE
:105A900010B50348FDF790F80248FDF78DF810BDEA
:105AA000380300204003002010B5074C03230822D0
:105AB00006492046FFF7A9FF0446054C2046FDF79E
:105AC00071F800BF10BD0000286B0020E12C000819
:105AD0002C03002010B5002301225F495F48FDF729
