:020000040802F0
:1060000078B2002001630208EB7D0208E37D0208FC
:10601000E77D0208DD7D0208D97E0208000000004D
:10602000000000000000000000000000EF7D0208FA
:10603000E17D020800000000ED7D0208F17D02080C
:10604000DD7E02081B6302081B6302081B63020853
:106050001B6302081B6302081B6302081B63020820
:106060001B6302081B6302081B6302081B63020810
:106070001B6302081B6302081B6302081B63020800
:106080001B6302081B630208C17D02081B63020830
:106090001B6302081B6302081B6302081B630208E0
:1060A0001B6302081B6302081B6302081B630208D0
:1060B0001B6302081B6302081B6302081B630208C0
:1060C0001B6302081B6302081B6302081B630208B0
:1060D0001B6302081B6302081B6302081B630208A0
:1060E0001B6302081B6302081B6302081B63020890
:1060F0001B6302081B6302081B6302081B63020880
:106100001B6302081B6302081B6302081B6302086F
:10611000B17E02081B6302081B6302081B630208AE
:106120001B6302081B6302081B6302081B6302084F
:1061300000F002F800F0B6F80AA090E8000C8244E3
:106140008344AAF10107DA4501D100F0ABF8AFF2C0
:10615000090EBAE80F0013F0010F18BFFB1A43F045
:10616000010318471C6900003C6900000A444FF015
:10617000000C10F8013B13F0070408BF10F8014BA6
:106180001D1108BF10F8015B641E05D010F8016BEB
:10619000641E01F8016BF9D113F0080F1EBF10F84F
:1061A000014BAD1C0C1B09D16D1E58BF01F801CB72
:1061B000FAD505E014F8016B01F8016B6D1EF9D5F5
:1061C0009142D6D37047000000230024002500260A
:1061D000103A28BF78C1FBD8520728BF30C148BF4A
:1061E0000B6070476E2900F07181702900F05782B2
:1061F000662905F04D87652905F04A87672905F06E
:1062000047876129AFF3008003681B0A28BF41F06C
:106210008001692900F01E81642900F01B81752925
:1062200000F018816F2900F0E481782900F02382C2
:10623000E92900F05385E42900F05085F52900F0A4
:106240004D85EF2900F0E181F82900F022820368F2
:10625000DB0928BF41F08001632900F01C85732908
:1062600000F02185E32900F02C85F32900F0318529
:10627000002070471FB505F006FF00F002FB01F09B
:10628000FBF804000020002105F02CFE401C60609B
:106290000020002105F03CFEE06000F065FC1FBD21
:1062A00010B510BD01F0C3F81146FFF7E3FF05F08C
:1062B000E8F801F0A5F903B4FFF7F2FF03BC01F021
:1062C000A9F9000080F30888704700000B49D1F855
:1062D00000C04A685CF8043B1068184442F8040B9C
:1062E0008C4528BFA1F1DC0C8A4228BFA1F1DC0259
:1062F000C1F800C04A6020F0004070470C8E0020BA
:106300000948804709480047FEE7FEE7FEE7FEE749
:10631000FEE7FEE7FEE7FEE7FEE7FEE70448054985
:10632000054A064B70470000097E020831610208E9
:10633000788E002078B20020789200207892002099
:106340001CB50C46064B7B4469460090204600F085
:1063500080FC04460020694600F08EFC20461CBDEF
:106360002F0900000FB41CB5084B06AA7B446946F0
:106370000090059800F06DFC04460020694600F08E
:106380007BFC20461CBC5DF814FB000009090000E2
:1063900070B5044685690068C10601D5302600E065
:1063A0002026C00707D070BDD4E9012130469047B0
:1063B000206A401C20626D1EF6D570BD70B5044683
:1063C00085690078C00707D170BDD4E9012120207C
:1063D0009047206A401C20626D1EF6D570BD09688A
:1063E0004A0501D540B27047C905FCD500B27047D7
:1063F00009684A0501D5C0B27047C905FCD580B20D
:10640000704770B50C460546012A05D028788006ED
:1064100000D5EA69002302E0012305E05B1C9342FA
:1064200002D2E05C0028F9D1A869E618C01AA86178
:10643000286A184428622846FFF7AAFF04E0D5E935
:10644000012114F8010B9047B442F8D32846FFF716
:10645000B5FF70BD2DE9F04106460024106875298E
:10646000314616A510D0FFF7BAFF002802DA4042E5
:1064700013A507E031688A0701D512A502E0490794
:1064800004D511A5012401E0FFF7B2FF00210A2283
:1064900006F1240709E0B0FBF2FCB0FBF2F302FBCB
:1064A0001C00303078541846491C0028F3D123468C
:1064B0002A463046BDE8F04100F06CBB0000000009
:1064C0002D0000002B000000200000001168026871
:1064D000006A530501D508700AE0D30501D508808C
:1064E00006E0130603D5C217C1E9000200E0086008
:1064F000012070472DE9FF5F15468A460446DFF804
:10650000AC80F8440027D8E900103E46CDE90010E1
:1065100010E03AF816106A4602A800F055FC411C3B
:1065200007D02178890603D5E269391891420DD840
:106530000744761C2078800602D5E069B84205DD64
:10654000AE42E6DB3AF816000028E2D1A069C01B93
:10655000A0612046FFF71CFFD8E90010CDE900102C
:10656000002017E03AF818106A4602A800F02CFC48
:10657000B0F1FF3F81460BD000250DF1080B05E07F
:10658000D4E901211BF8050090476D1C4D45F7D358
:1065900008F10100B0428046E4DB206A3844206202
:1065A0002046FFF70BFFBDE8FF9F00001A630000C5
:1065B00030B4002100F1240408E002F00705D208FD
:1065C000303542EA4372DB086554491C52EA030540
:1065D000F3D10468002310A2250707D5A40600D430
:1065E00021B1C46901230DA2641EC46130BC00F056
:1065F000D1BA10B5044621461068FFF7F9FE0246ED
:106600002046BDE810400023D2E7D21D22F007014A
:10661000D1E90023CCE700000000000030000000BA
:10662000F0B40D460188090502D5214C7C4402E0F6
:106630001F4C7C440E34002100F1240608E002F0D7
:106640000F071209E75D42EA03721B097754491CE0
:1066500052EA0307F3D102780023120704D5702D04
:1066600006D009B1022311342246F0BC00F092BAE0
:1066700001231034F8E770B504460D462146106832
:10668000FFF7B6FE024629462046BDE870400023CB
:10669000C6E7D21D22F00703D3E90023C0E7036851
:1066A000126843F0200303600823C3610023B7E7A7
:1066B000F86100002DE9F05F894604464FF0000ABA
:1066C000DFF874B1FB44C0F820A02046E168884799
:1066D000002874D0252806D0D4E901219047206AEB
:1066E000401C2062F1E700265F462046E1688847AB
:1066F0002028054607DB312D05D2781910F8200C2B
:1067000008B10643F1E7B00701D526F00406C4F846
:106710001CA00027C4F818A02A2D09D0284604F090
:10672000E1F838B304EB8708303DC8F8185019E099
:1067300059F8041B204604EB87029161E168884701
:10674000012F054618D1E069002820DA26F020063E
:106750001DE0D8F8180000EB800005EB4000303851
:10676000C8F818002046E1688847054604F0BAF8E2
:106770000028EED1012F0AD02E2D08D12046E16845
:1067800088477F1C0546022F46F02006C4DBA0691F
:10679000002803DA404246F00106A061F00701D06C
:1067A00026F010066C2D0BD0682D09D04C2D39D059
:1067B0006A2D35D0742D35D07A2D33D016E038E0DF
:1067C000E1682F4620468847B842054609D16C2F1C
:1067D00026D04FF48060E16806432046884705468E
:1067E00004E06C2F1AD04FF4807006430DB3A5F16E
:1067F0004100192802D8203546F400664A46294649
:10680000204626604E46FFF7EDFC80B101280BD0F4
:10681000F61D26F0070000F1080956E74020E4E7DE
:106820008020D8E70020D6E706F104094DE7284686
:1068300052E7206ABDE8F09F8861000070B5064607
:1068400000F0A4F90468054630460A22002100F051
:1068500083FA2C6070BD00000B4910B5A1F17C02D9
:106860000A4CC2E93712372106E000EB104342F828
:106870002130074B00FB03400B1EA1F10101F4DCAA
:1068800010BD0120E8E70000AC8D0020E119D666BC
:10689000CD0D010040EA0103024630B59B0710D13F
:1068A0004FF0013400E008C208C91D1B9D4315EAE2
:1068B000C41FF8D013F0FF0102F8011B0DD01B0A12
:1068C000F8E711F8013B002B02F8013B05D011F865
:1068D000013B002B02F8013BF3D130BD10B5431C46
:1068E00002E010F8011B71B18107FAD14FF00132BB
:1068F00002C88C1A8C4314EAC211F9D0C01A0A06D5
:1069000003D0C01E10BDC01A10BD0A0401D0801EE5
:1069100010BD0902FCD0401E10BD032A40F2308099
:1069200010F0030C00F0158011F8013BBCF1020FD0
:10693000624498BF11F801CB00F8013B38BF11F851
:10694000013BA2F1040298BF00F801CB38BF00F868
:10695000013B11F0030300F06780083AC0F00880A3
:1069600051F8043B083A51F804CBA0E80810F5E7C9
:10697000121D5CBF51F8043B40F8043BAFF30080AC
:10698000D20724BF11F8013B11F801CB48BF11F821
:10699000012B24BF00F8013B00F801CB48BF00F8F1
:1069A000012B7047431A28BF9A427FF6B6AF032ADD
:1069B0001044114440F2268010F0030F1EBF11F85E
:1069C000013D521E00F8013D10F0030F7FF4F6AFB9
:1069D00011F0030300F02B82083AC0F00B8051F84D
:1069E000043D083A51F804CD40F8043D40F804CD88
:1069F000FFF7F3BF121D5CBF51F8043D40F8043DA2
:106A0000AFF30080D20724BF11F8013D11F801CD8A
:106A100048BF11F8012C24BF00F8013D00F801CD5A
:106A200048BF00F8012C704710B5203AC0F00B8029
:106A3000B1E81850203AA0E81850B1E81850A0E882
:106A40001850BFF4F5AF5FEA027C24BFB1E81850DC
:106A5000A0E8185044BF18C918C0BDE810405FEA4C
:106A6000827C24BF51F8043B40F8043B08BF7047C8
:106A7000D20728BF31F8023B48BF11F8012B28BFCD
:106A800020F8023B48BF00F8012B704702F0FF03DB
:106A900043EA032242EA024200F002B84FF0000249
:106AA0000429C0F0128010F0030C00F0EC81CCF14E
:106AB000040CBCF1020F18BF00F8012BA8BF20F88E
:106AC000022BA1EB0C0100F0DEB95FEAC17C24BF10
:106AD00000F8012B00F8012B48BF00F8012B70478C
:106AE0004FF0013C50F8042B51F8043B9A4221D15D
:106AF000A2EB0C03934313EACC1317D150F8042BE9
:106B000051F8043B9A4215D1A2EB0C03934313EACC
:106B1000CC130BD150F8042B51F8043B9A4209D105
:106B2000A2EB0C03934313EACC13DBD04FF000002D
:106B3000704700BFD01A01BAB1FA81F101F0180113
:106B400022FA01F0CB40C1F12001DBB2C0B2C01A81
:106B50002CFA01F3D11A914311EAC311E6D170471F
:106B6000704770477047000070B5064C7C44064D76
:106B70007D4403E0206820448047241DAC42F9D1C5
:106B800070BD00005C600000746000000048704749
:106B9000148E00202DE9F0470D4699469246044692
:106BA00000F124080168880604D5E06921F010018D
:106BB000216000E00120A84201DD471B00E0002722
:106BC000A1697A1902EB0900081AA0612078C006B1
:106BD00002D42046FFF7DCFB002608E0D4E90121BF
:106BE0001AF806009047206A401C761C20624E4529
:106BF000F4DB2078C0060AD52046FFF7C9FB06E083
:106C0000D4E9012130209047206A401C2062381EC0
:106C1000A7F10107F4DC07E0D4E9012118F8050029
:106C20009047206A401C2062281EA5F10105F3DC74
:106C30002046FFF7C3FB2078000602D50220BDE8FE
:106C4000F0870120FBE7000001694A1C0261087817
:106C5000704700B58FB0CDE901310021059105499C
:106C60007944CDE9031011466846FFF723FD0FB0C4
:106C700000BD0000E5FFFFFF0A6802F8010B0A6093
:106C8000704710B5436913B1AFF3008001E0FFF71F
:106C9000B8FB012010BD127800F124010A70002217
:106CA0004A700122EDE711684FF0FF32E9E710B5B5
:106CB000436913B1AFF3008001E0FFF71BFC012033
:106CC00010BD128800F1240182840022C2840122B6
:106CD000EDE711684FF0FF32E9E700002DE9F041E0
:106CE0008046D21D22F007020025D2E90002F529D4
:106CF00015A614D0011E72F1000106DA0023D0EBB4
:106D0000030063EB020211A608E0D8F800108B071D
:106D100001D50FA602E0490701D50EA601251146AF
:106D2000002408F1240704E000F0DEF830323A5580
:106D3000641C50EA0102F7D12B46324621464046F8
:106D4000BDE8F041FFF726BF000000002D00000065
:106D50002B000000200000002DE9F04791460F466F
:106D600080460446002614F8015B2DB100F0B4F80B
:106D70000068405DC007F6D12B2D02D02D2D18D014
:106D8000641E4A463946204600F002FB27B13968A6
:106D9000A14201D1C7F800804FF0020471050BD564
:106DA0004042002803DDFFF7F1FE0460A007BDE8C4
:106DB000F08746F48066E4E70028F8DAFFF7E6FE9D
:106DC00004606FF00040F2E770B516460C460546C9
:106DD00000F082F8036893F80101012806D0FF2C27
:106DE0000FD8185D68B101202C7070BDD3F8070171
:106DF0003246214603F2071303442846BDE870409B
:106E000018474FF0FF3070BD431A28BF9A427FF6F3
:106E10000BAE104410F0030F11441EBF11F8013DDA
:106E2000521E00F8013D10F0030F7FF4F6AF103A48
:106E3000C0F00A8010B531E91850103A20E9185016
:106E4000BFF4F9AFBDE81040530724BF31E9081083
:106E500020E9081044BF51F8043D40F8043D12F009
:106E6000030F08BF7047D20728BF31F8023D48BF63
:106E700011F8012C28BF20F8023D48BF00F8012C72
:106E800070474FF0000200B51346944696462039ED
:106E900022BFA0E80C50A0E80C50B1F12001BFF4D3
:106EA000F7AF090728BFA0E80C5048BF0CC05DF839
:106EB00004EB890028BF40F8042B08BF704748BF87
:106EC00020F8022B11F0804F18BF00F8012B7047FB
:106ED00000487047148E002010B500F0CDFA001D58
:106EE00010BD00BF0150000030B5B0F10A024FEAFA
:106EF000900E71F100034EEA817EB0EB0E0061EB63
:106F000091014FEA101E4EEA017E10EB0E0041EB9C
:106F100011114FEA102E4EEA016E10EB0E0041EBFC
:106F200011214FEA104E4EEA014E10EB0E0041EBDC
:106F30001141401841F100014FEAD00040EA417090
:106F40004FEAD10110EB80054FEA810444EA9074C6
:106F500044EB01046D1944EB0404521BA3414FF0B0
:106F6000000348BF0A3200D530BD401C41F100018A
:106F700030BD70472DE9FF4F0C461E464FF0FF37DE
:106F80008BB0D2E90001DDF860800A908A46C1F337
:106F90000A5505B93D46002108464FF00000BAF1F8
:106FA000000F00F4400005DA00EB80004FF44001D0
:106FB00001EA50004FEA9059B9F1010F00DDB946DE
:106FC0000A9850EA4A000ED044F61050A5F2FF3558
:106FD00045432F14B8F1000F1ED07542291E1EDD47
:106FE000C9F100021CE0B8F1010F4FF0000001D020
:106FF000302103E0F24305E02154401CB042FBDBAA
:1070000030460022002121540B99C1F80880C1E9C3
:1070100000200FB0BDE8F08FBD1B6D1CDEE74A46B7
:1070200000DA694206A800F079FA06AB93E8070097
:1070300003AB83E8070050460A9900F0F2FA8DE8A6
:107040000700A0F500501F3800900398002D0ADDBE
:1070500042F21F014A460844002303A903906846F0
:1070600000F05BFD09E0A0F500504A461F38002300
:1070700003A90390684600F065FD8DE80700000451
:10708000000C03D04FF0FF30410800E01046B8F18B
:10709000000F03D00022009215461EE0751E05D495
:1070A000FFF722FF303262556D1EF9D5B34601223B
:1070B000084302D000227F1C04E02078302801D150
:1070C00000227F1E002A099784D01DE0112D07DAC7
:1070D000FFF70AFF303262556D1C50EA0102F5D10C
:1070E000084302D00098C8B10EE00021681E05E0F8
:1070F000235C625C63542254401E491C8142F7DBCE
:10710000AB46A81B401E0990002004F80B000B980A
:10711000099AC0F80880C0E9002B7AE711264FF0E1
:10712000000857E72DE9F04F88460446D21D22F0AB
:10713000070191B0D1E90001CDE90A0103F0DDF9C1
:1071400002460B98C00F01D02D2007E02068810770
:1071500001D52B2002E0202101EAC000032A09907A
:1071600001D0072A05DB03464146204600F088F996
:107170000BE12078800601D5E06900E00620B8F137
:10718000650F814606D0B8F1660F18D0B8F1670FC9
:1071900070D131E00020B9F1110F009001DB112313
:1071A00001E009F101030AAA01A90CA8FFF7E2FE18
:1071B000DDE90C70002609F10105834647E0012056
:1071C0004B4600904FF000470AAA01A90CA8FFF710
:1071D000D1FEDDE90DB00C995D46002610B909F12C
:1071E00001000D18B9EB050003D4C0F1FF3609F119
:1071F0000105A5EB09002BE0B9F1010F01DA4FF011
:1072000001090020B9F1110F0090484601DD11235A
:1072100000E003460AAA01A90CA8FFF7ABFEDDE9CE
:107220000C704D4600268346207800070AD4AB45F3
:1072300000DA5D4601A8012D04DD411911F8011C99
:10724000302907D04F4502DA17F1040F04DA012084
:1072500082460FE06D1EEEE7002F02DCED1B3E4480
:1072600003E0781CA84200DD7D1CB81B00F1010A78
:107270004FF000472078000703D4AA4501DB4FF008
:10728000FF3A0021B7F1004F0DF143088DF843108C
:1072900024D002202B23002F01DA7F422D230A2144
:1072A000021EA0F1010000DC5FB197FBF1FC97FB2F
:1072B000F1F201FB1C7C17460CF1300C08F801CDF3
:1072C000EEE7A8F1010003702188090501D54521E9
:1072D00000E06521A0F1010800F8011C09980FA940
:1072E000A1EB0807FF1D00B10120411901EBEA7075
:1072F000A1693844081A401EA0612078C00602D453
:107300002046FFF745F8099828B1D4E901219047B4
:10731000206A401C20622078C00622D52046FFF754
:1073200037F81EE0002E04DBB34502DD01A8805DC6
:1073300000E03020D4E901219047206A401C2062FF
:10734000761CAAF101005FEA000A0AD100F094F865
:10735000C0680168405CD4E901219047206A401C64
:107360002062281EA5F10105DCDC07E0D4E901213B
:1073700018F8010B9047206A401C2062381EA7F1C4
:107380000107F3DC2046FFF719F8032011B041E6AE
:107390002DE9F05F824615468B4600270AF101046D
:1073A000B9460078302801D09DB113E014F8010BE4
:1073B0000127782803D0582801D045B10AE00DB143
:1073C000102D07D1002714F8010B102502E0082525
:1073D00000E00A250026B0460EE005FB080005FB8C
:1073E00006F101271FFA80F801EB1046B6F5803F41
:1073F00000D3B94614F8010B294600F081F80028A3
:10740000EBDABBF1000F05D00FB1641E00E054466B
:10741000CBF80040B9F1000F06D0FFF7B7FB02210F
:107420000160C81EBDE8F09F48EA0640FAE77546CD
:10743000FFF74EFDAE4605006946534620F00700B3
:10744000854618B020B5FEF769FFBDE820404FF033
:1074500000064FF000074FF000084FF0000B21F03E
:107460000701AC46ACE8C009ACE8C009ACE8C0090B
:10747000ACE8C0098D46704700487047348E002044
:107480002DE9F0411F46044603260168072A01F44E
:10749000006004DB08B116A505E016A503E008B1FD
:1074A00015A500E015A521F010002060A069C01E00
:1074B000A0610FB1401EA0612046FEF769FF4FB1E9
:1074C000D4E9012138469047206A401C2062C01C44
:1074D000206206E0206AFAE7D4E9012115F8010BE1
:1074E0009047761EF8D22046FEF768FFBDE8F0818F
:1074F0004E414E006E616E00494E4600696E660058
:107500003A2800D2303820F02002412A01D3A2F1DB
:107510003700884201D34FF0FF3070472DE9F04724
:10752000814616468AB0354878440DC88DE80D006E
:1075300032487844801C03AC0DC884E80D0041F645
:107540009B300844372190FBF1F290FBF1F5A5F157
:10755000800501FB12041B3C02D56442012000E0BF
:107560000020DFF898A080460027FA44AAF1BE0A5E
:107570000EE0E0070AD03246684607EB47010123D8
:107580000AEB810100F0DEFA8DE8070064107F1C31
:10759000002CEED1194F7F44AE3F19E0E80715D01B
:1075A00007EB04100DF1180A90E80E008AE80E00AF
:1075B000C068F04201D1981908903246012306A90B
:1075C00003A800F0BFFA03AB83E807006D10641C4A
:1075D000002DE3D14FF0010332466946B8F1000FA8
:1075E00003A802D000F099FA01E000F0ABFAC9E973
:1075F0000001C9F808200AB0BDE8F087B4530000C4
:1076000010B50446AFF300802046BDE81040FEF7F9
:1076100052BE000001491820ABBEFEE72600020062
:1076200070475FEA400C08BF91F0000F4FEA8C23CF
:107630004FEAC12243EA51514FEA1C5018BF00F5EE
:10764000F0404FEA300018BF41F000415FEA6C5C47
:1076500000F02980BCF1FF3F08BF40F08040704738
:10766000130C06BF12044FF0100C4FF0000C130E59
:1076700004BF12020CF1080C130F04BF12010CF12D
:10768000040C930F04BF92000CF1020CD30F04BF43
:1076900052000CF1010C11464FF00002A0F11F0046
:1076A000A0EB0C00704711F0004F08BF704731F09D
:1076B00000413FF4D5AF0B0C06BF09044FF0100C8E
:1076C0004FF0000C0B0E04BF09020CF1080C0B0F5D
:1076D00004BF09010CF1040C8B0F04BF89000CF1ED
:1076E000020CCB0F04BF49000CF1010CCCF12003BC
:1076F000A0EB0C0022FA03F302FA0CF241EA0301B8
:1077000000F10100704720F07F4C80EA030023F075
:107710007F47ACEB070303F57C5300F0004003F117
:10772000FF032DE980494FEA154B09B44FEA144392
:1077300025EA0B4E24EA03480FF2042606EB132732
:1077400049083E785FEA320203FB0667C7F5000787
:1077500007FB06F64FEA54374FEAD64606F1020613
:1077600007FB066CCCF1005C4FEA1C472CEA074C87
:1077700007FB06F40CFB06F504EB15464FEA9616DC
:1077800034BF00204FF000404FEAD13706FB07FC22
:107790004FEA1C4C0CFB0BF7D21B03FB0CF761EB05
:1077A00007010CFB0EF7B0EB074072EB17420CFB26
:1077B00008F734BFA2EB0742B2EB074261EB174177
:1077C0004FEA0C444FEA910706FB07FC4FEA1C4CBA
:1077D0000CFB0BF7B0EBC74072EB573203FB0CF717
:1077E00034BFA2EBC742B2EBC74261EB57310CFB8F
:1077F0000EF7B0EBC70072EB57720CFB08F734BF03
:10780000A2EBC702B2EBC70261EB5771039F4FEACD
:10781000816141EA921104EBCC044FEAD1374FEA7F
:10782000826206FB07FC42EA90124FEA80604FEA50
:107830001C4C0CFB0BF7D21B03FB0CF761EB070195
:107840000CFB0EF7B0EB074072EB17420CFB08F78E
:1078500034BFA2EB0742B2EB074261EB17414FEA9C
:107860008C554FEA910704EB9C2406FB07FC4FEA7A
:107870001C4C0CFB0BF7B0EBC74072EB573203FB11
:107880000CF734BFA2EBC742B2EBC74261EB5731F2
:107890000CFB0EF7B0EBC70072EB57720CFB08F74E
:1078A00034BFA2EBC702B2EBC70261EB577115EB15
:1078B0004C254FEA816141EA92114FEA82624FEA18
:1078C000D13742EA901206FB07FC44F100044FEA6C
:1078D00080604FEA1C4C0CFB0BF7D21B03FB0CF730
:1078E00061EB07010CFB0EF7B0EB074072EB1742A0
:1078F0000CFB08F734BFA2EB0742B2EB074261EB87
:10790000174115EB1C154FEA813141EA92414FEACC
:10791000823242EA90424FEA80304FEA0C7644F1DC
:10792000000448EA03434EEA0B484FF0000EB2EB66
:10793000080C71EB030724BF624639464EEB0E0E6E
:107940004FF0000B0018524149414BEB0B0BB2EBCF
:10795000080C71EB03077BF1000B24BF624639462C
:107960004EEB0E0E4FF0000B0018524149414BEB0D
:107970000B0BB2EB080C71EB03077BF1000B24BF80
:10798000624639464EEB0E0E51EA020718BF46F02A
:10799000010616EB0E7655F1000254F1000103D5F5
:1079A000BDE88901BDE80088BDE88901BDE800485F
:1079B000B619524141EB0101A3F1010370478080E8
:1079C0007F7E7D7C7B7A7978777676757473727139
:1079D00071706F6E6E6D6C6C6B6A6A6968686766F1
:1079E00066656464636362616160605F5F5E5E5D83
:1079F0005D5C5C5B5B5A5A595958585757565655F7
:107A000055555454535352525251515050504F4F58
:107A10004F4E4E4D4D4D4C4C4C4B4B4B4A4A4A49A8
:107A200049494848484747474746464645454544EB
:107A30004444444343434342424242414141002B78
:107A40009C4630D477002BD01CB54FEA370703B4DF
:107A50004FF010004FF01001BAF1000F06D0BCF14A
:107A6000000FDCBF40F0080040F008014FF00000BC
:107A70000FBCBDE810400BF1010BBBF1010F08BFBB
:107A80005FEA170722BF12F1010211F101014FF065
:107A9000004143F1000300F0004043EA000070475A
:107AA000F9D35708D0E746EA064613F1400F4FEAEC
:107AB00016461FDD13F1200FDFBF16430A460021D3
:107AC00020335B42BED0C3F1200746EA064602FAE5
:107AD00007F74FEA164646EA0706C3F1200722FADF
:107AE00003F201FA07F721FA03F14FF0000342EA2B
:107AF0000702A7E746EA020646EA06464FEA1646A6
:107B000046EA0106BCBF46EA0646360C4FF00003C3
:107B10004FF000024FF0000194E72DE9804C9A46A7
:107B2000934670B491E8380007C831EA400C48BF6A
:107B300034EA430C03D5FFF7E6FDFFF780FFF0BC06
:107B4000BDE8008C2DE9804C9A46934670B491E8CC
:107B5000380007C810F0804F08BF13F0804F03D1E2
:107B600000F005F8FFF76BFFF0BCBDE8008C20F0DB
:107B70007F4780EA030023F07F4C07EB0C03A3F55B
:107B80007C5300F00040A3F1FE0392F0000F00F0E0
:107B9000B38095F0000F00F077802DE901494FEA9E
:107BA00011404FEA144621EA004800FB06FC24EA93
:107BB000064708FB06F607FB08F800FB07F718EB7B
:107BC00006484CEB164C4FEA124B18EB07484FEAAD
:107BD00015464CEB174022EA0B4E0BFB06FC25EA40
:107BE00006470EFB06F607FB0EFE0BFB07F71EEB28
:107BF000064E4CEB164C4FF000061EEB074E4CEBBE
:107C0000174B18EB0B0840F1000018EB0E0B58EB6C
:107C1000000840F100008F1A4FF000013CBFC9433B
:107C2000661B14BFB5EB040C00213CBFC943F61B17
:107C30004FEA17444EEA8E0E27EA04454FEA1C47E6
:107C400004FB07622CEA074C05FB07F70CFB05F663
:107C500004FB0CFC16EB074642EB174216EB0C46F6
:107C600042EB1C421BEB060658EB0202414146EA7E
:107C70009E0601D5BDE80189B619524141EB0101CB
:107C8000A3F10103BDE801894FEA14454FEA11470A
:107C900024EA054621EA074C05FB07F406FB07F733
:107CA0000CFB06F105FB0CFC11EB074144EB174400
:107CB0004FEA124711EB0C4144EB1C4422EA074CFB
:107CC00005FB07F206FB07F70CFB06F605FB0CFCB1
:107CD00016EB074642EB174216EB0C4642EB1C45EF
:107CE0006A1854F1000148BF7047B619524141EB80
:107CF0000101A3F10103704795F0000F37D04FEA5F
:107D000011424FEA144721EA024624EA074C02FBDB
:107D100007F106FB07F70CFB06F402FB0CFC14EB67
:107D2000074441EB17414FEA154714EB0C4441EB74
:107D30001C4125EA074C02FB07F506FB07F70CFB85
:107D400006F602FB0CFC16EB074645EB174516EB57
:107D50000C4645EB1C42121951F1000148BF704717
:107D6000B619524141EB0101A3F1010370474FEAFB
:107D700014454FEA114724EA054621EA074C05FB62
:107D800007F106FB07F70CFB06F24FF0000605FBB8
:107D90000CFC12EB074241EB174112EB0C4251EB8A
:107DA0001C4148BF7047921841EB0101A3F1010348
:107DB000704710B504460021204601F019FA10BDA5
:107DC00010B501F00FFD0221034802F04BFE042123
:107DD000014802F047FE10BD0024014000BFFEE74D
:107DE000704700BFFEE700BFFEE77047704770476F
:107DF00010B504480068401C0249086000F098F87B
:107E000010BD00002000002008B52648006840F49E
:107E10007000244908602448006840F001002249AD
:107E2000086000BF2048006800F002000028F9D078
:107E300000BF1D48406840F080001B49486000209A
:107E4000009002E00098401C009000985028F9D360
:107E50001548406840F090001349486000200090A9
:107E600002E00098401C009000985028F9D300BF11
:107E70000D48406820F003000B4948600846006840
:107E80000A490840084908604FF41F008860084606
:107E9000006820F48020086000204860C86200F07C
:107EA00067F808BD88ED00E000100240FFFFF6FE15
:107EB00010B507490748006803F0CBFF38B1054803
:107EC000006803F041FFC4B2204600F0D1FA10BDB3
:107ED0000503050004C8020800BFFEE77047000064
:107EE00010B5124800684FF47A71B0FBF1F4601ECF
:107EF000B0F1807F01D301200FE0601E4FF0E02140
:107F000048610F214FF0FF3000F01EF800204FF0C5
:107F1000E021886107200861002008B100BFFEE76A
:107F20000021481E00F010F810BD000030000020B5
:107F30000448006820B103480068401E01490860F9
:107F4000704700009401002010B5002807DA0A07E6
:107F5000140E054A00F00F031B1FD45403E00A0758
:107F6000130E024A135410BD18ED00E000E400E0C7
:107F700010B500F001F810BD002000213E4A126843
:107F800042F480323C4B1A6000BF401C3A4A1268EF
:107F900002F4003119B94FF6FF729042F5D1364A1A
:107FA000126802F400320AB900BFFEE7324AD26911
:107FB00042F08052304BDA61304A126842F440425B
:107FC0002E4B1A602C4A52682B4B5A601A46526844
:107FD0005A601A46526842F480625A601A465268E1
:107FE00022F440325A601A46526842F440325A60D3
:107FF0001A465268224B1A401F4B5A601A46526862
:1080000042F000625A601A46126842F080721A60AA
:1080100000BF194A126802F00072002AF9D0174A0C
:10802000126842F48032154B1A6000BF134A52683E
:1080300002F48032002AF9D0104A126842F4003269
:108040000E4B1A6000BF0D4A526802F40032002A3B
:10805000F9D0094A526822F00302074B5A601A46C7
:10806000526842F002025A6000BF034A526802F0AE
:108070000802002AF9D0704700100240007000404A
:10808000FFFFC3B702460120034B9A4202D10429E5
:1080900000DD002070470000000402400349086032
:1080A00000BF024909680029FBD1704794010020F4
:1080B00010B50446002016E0002204F13C0141F80E
:1080C00020209FED0D0A211D01EBC00181ED000A6A
:1080D0009FED090A211D01EBC00181ED010A04F1A8
:1080E00038010A54401C0328E6DB00F003FE216837
:1080F0000844A06410BD00000000000070B50446F4
:108100000D462560201D00F0E7F8041F04F1200053
:1081100000F0E2F8A0F120042046FFF7C9FF204656
:1081200070BD00002DE9F04107460D460DB9BDE8D0
:10813000F0811F491F4A126888182A463946FEF7FF
:10814000ECFB1C48006828441A4908600868C117FD
:1081500000EB91718910A0EB810141B915480168CC
:10816000134800F06DF80020124908601EE0114825
:10817000006803281ADD0F48046800E0641EE11758
:1081800004EB91718910A4EB81010029F6D1094813
:108190000068061B2146064800F052F80448011901
:1081A0003246FEF7FFFB0348066000BF00BFBEE794
:1081B000300900202C00002010B50E480068C0B126
:1081C00008E0FF210B4802680068401C094B18605A
:1081D0000948815407490868C11700EB917189105B
:1081E000A0EB81010029ECD102480168024800F0AF
:1081F00027F810BD2C0000203009002070B50B4876
:1082000004684FF0006000F033F8094D05E04021AC
:108210002846FFF787FF4035403C402CF7DA1CB179
:1082200021462846FFF77EFF70BD00002400002095
:108230000030010801480068704700002400002059
:1082400070B505460C46224629460748006801F0ED
:10825000EAFB0548006820440349086003480068B9
:1082600020440249086070BD28000020240000203E
:108270002DE9F04105462627A5F10060C60A002435
:1082800007E0301901F096FB10B9301901F0A6FB98
:10829000641C262CF5DB04480560002003490860B7
:1082A00003490860BDE8F081280000202400002078
:1082B0002C00002070B500F001FA4FF00065284650
:1082C000446801460868FDF7FDFF0021284603F0D9
:1082D00057F9A04770BD000010B5044603230822DB
:1082E0000249204602F021F9044610BD7D830208B0
:1082F00010B50446204600F0F9FC04460020207228
:10830000204610BD70B504460D46164625606660D1
:1083100003220421D4E9000302F010FF70BD002104
:1083200001604160704770B504460D4616462560F1
:10833000666003221821D4E9000302F0FFFE70BD3D
:1083400000210160416070470146024A08681268D6
:10835000101A704720000020034909680160024993
:1083600009684160704700002000002010B50446F5
:108370002046FFF7F1FF204610BD00009FED040AE4
:1083800080ED000A9FED020A80ED010A70470000AF
:108390000000000010B5184801F0AEFF50B14022B7
:1083A00016491748FFF7BFFF802214491548FFF709
:1083B000A9FF09E0202214491148FFF7B4FF402229
:1083C00011491048FFF79EFF0121082002F01CFF11
:1083D0000E48006803F0C2FC4FF4E1310B4800681E
:1083E00003F06AFC08210948006803F068FD0748AB
:1083F000006803F000FD10BD2D020020000C0140BC
:10840000540000205C0000200014014008C802084D
:1084100070B505462846FEF761FA064600240DE0D1
:10842000295D1148006803F094FC00BF07210E4845
:10843000006803F0E5FC0028F8D0641CB442EFDBD0
:1084400000240EE00948015D0748006803F081FC44
:1084500000BF07210448006803F0D2FC0028F8D0D0
:10846000641C022CEEDB70BD08C8020818C80208A4
:1084700010B50446204600F09DF910BD10B54FF42C
:10848000806227492748FFF74EFF4FF400622449D6
:108490002548FFF737FF00221146342003F004F887
:1084A00034200021002807DA0A07140E1F4A00F0C2
:1084B0000F031B1FD45403E00A07130E1C4A135466
:1084C00000BF1C48006803F049FC4FF4E131194833
:1084D000006803F0F1FB00211648006803F0D5FCAA
:1084E00000211448006803F0F4FC002111480068E2
:1084F00003F0DDFC04210F48006803F0CEFC0821E6
:108500000C48006803F0DBFC40F2053109480068C4
:1085100003F092FC0748006803F06DFC10BD0000FA
:1085200000100140440000204C00002018ED00E045
:1085300000E400E004C8020810B51348006803F026
:1085400055FC40F205311048006803F068FC0E4805
:10855000006803F003FC342002F09AFF4FF48063BC
:1085600004221021094802F0E9FD4FF400630422BF
:108570001021064802F0E2FD4FF480600349486193
:108580004000486110BD000004C80208001001400E
:1085900070B504462046FEF7A1F905462946204657
:1085A00000F002F870BD00002DE9F04104460D46D0
:1085B000264600270EE016F8011B0848006803F065
:1085C000C8FB00BF07210548006803F019FC00281C
:1085D000F8D07F1CAF42EEDBBDE8F08104C8020892
:1085E00010B5FFF77DFC4FF4C06002F0BFFF40F212
:1085F000026003F0D1F840F2036003F0CDF840F2DE
:10860000046003F0C9F840F2056003F0C5F840F2D9
:10861000066003F0C1F840F2076003F0BDF840F2D5
:10862000096003F0B9F84FF4A06003F0B5F840F228
:10863000157003F0B1F840F2167003F0ADF840F297
:108640000F7003F0A9F840F20B6003F0A5F840F2B8
:10865000117003F0A1F840F2137003F09DF84FF48D
:10866000C06003F099F84FF4E06003F095F840F231
:10867000047003F091F80F48406A0F49086040F613
:108680001D1003F077F808B102F0BCFF40F20B7048
:1086900003F082F801F0DEF800F05EFFFFF7EEFE77
:1086A00001F058FD01F01EFD01F048FEFFF772FEDB
:1086B00010BD0000001002400400002010B5FFF7BC
:1086C0003BFF01F071F810BD7047000010B54FF48A
:1086D00000510348FEF7E2F900200249086010BD8E
:1086E000880D0020100200200FB410B5ADF5027DFA
:1086F00085A8419042A8419A8499FDF721FE002067
:10870000419042A8FEF7EAF8441C0E480068204455
:1087100041F69C71884201DBFFF7D8FF0A480268E6
:108720000068401C084B186042AB08A101A8FDF787
:1087300019FE01A8FFF76CFE0DF5027D10BC5DF877
:1087400014FB000010020020140200202564203ACF
:108750002025730003460020704701460020704723
:108760000948007830B1012806D0022806D0032835
:1087700007D105E0052070470720FCE70A20FAE74B
:1087800000BF00BF0A20F6E71C000020F0B502463B
:108790000B4600201446002509E0014614F8016B41
:1087A00006EB811707EB01477F1A38466D1C9D4287
:1087B000F3DBF0BD70B5044601F0E8F918B12046CE
:1087C00001F0DEF970BD04B9FCE700BF164800787F
:1087D000F8B9164803F054FC90B1144803F050FC6B
:1087E0000646124800F108010D4632460E4803F0D5
:1087F000B7FB10B90C4803F0AFFB0C4803F0ACFB1F
:108800002146094803F0CCFB58B9074803F0A4FB04
:1088100007E02146054803F0C3FB10B9034803F005
:108820009BFB00BFCEE70000700A0020780B002001
:1088300070B5284801F060FD10B14FF4805000E0A1
:1088400004200446234801F057FD08B1224800E007
:108850002248054622462946214800F039FB204897
:1088600000F02EFB1B4801F047FD10B14FF40060F3
:1088700000E001200446174801F03EFD08B116480B
:1088800000E01648054622462946164800F020FB1F
:10889000144800F019FB0F4801F02EFD10B14FF401
:1088A000806000E0022004460A4801F025FD08B17E
:1088B000094800E0094805462823224629460A4877
:1088C00000F0F8F9084800F005FAFFF7D7FDFFF7C8
:1088D00033FE70BD2D02002000080140001401404D
:1088E000640000206C000020740000200149087022
:1088F000704700000002002010B500F007F80446A1
:1089000004230322282102F019FC10BD10B50448ED
:1089100001F0F2FC08B1034810BD0348FCE7000079
:108920002D020020001401400018014010B5FFF78F
:10893000EDFF044604230322102102F0FFFBFFF7A2
:10894000E5FF0421416110BD10B5FFF7DFFF0446CC
:10895000042102F051FC012800D110BD0020FCE7E9
:1089600070B592B000BF01204449087000BF0846AE
:1089700003F086FB10B3002408E021463F4803F0D3
:108980002FFB05782846FFF79FFE641C3B4803F049
:1089900077FBA042F1DC394803F072FB054637480B
:1089A00000F108010C462A46354803F0D9FA10B9FF
:1089B000334803F0D1FA314803F0CEFA00BF00206B
:1089C0002E49087000BF2E4803F05AFB18B92DA09D
:1089D00000F008FB50E06C46204600F055F90446D4
:1089E0000020606000BF002600BF00BF0020019093
:1089F00000BF002600242DE02146214803F0F0FAB4
:108A000005780A2D00D124E00D2D0DD100BF01986D
:108A100000B91EE00021684603F0F4FA0126611C4B
:108A2000174803F08BFA1AE03E2D0DD13E2168461F
:108A300003F0E8FA0021684603F0E4FA0126611C1D
:108A40000F4803F07BFA0AE02946684603F0DAFA99
:108A500000BF641C0A4803F013FBA042CCDC1EB12B
:108A6000684600F1080100E006A10C46204600F02F
:108A7000B9FA002EB9D100BF12B070BD700A002043
:108A8000800C00200000000070B55748007800F00E
:108A9000010058B9544801F05AFD38B1534C2046F2
:108AA000FFF75AFC00BF5048AFF3008000BF5048AA
:108AB0000078072815D2DFE800F004152B5C6C7DE8
:108AC00092004CA0FFF710FE00F07AFA4E4800F03A
:108AD000F7F9FFF72BFF0120FFF708FF4348FFF7E7
:108AE0003BFC7FE049A0FFF7FFFD4048FFF72CFC6F
:108AF00040F6B83188420AD9FFF7FEFE424800F03E
:108B0000E3F90220FFF7F2FE3848FFF725FC69E0A1
:108B100047A0FFF7E9FDFFF717FFF0B13348FFF774
:108B20001BFC0320FFF7E2FE494801F0E5FB10B112
:108B30004FF4806000E002200446454801F0DCFB71
:108B400008B1444800E04448054628232246294607
:108B5000424800F0AFF8FFF791FC2448FFF7F4FB20
:108B6000642805D93EA0FFF7BFFD0020FFF7BEFE39
:108B700038E01E48FFF7E8FBB0F5FA7F08D9414816
:108B800000F0A2F91948FFF7E7FB0420FFF7AEFE5B
:108B900028E01648FFF7D8FB40F2E241884208D9A6
:108BA000384800F08DF91148FFF7D6FB0520FFF794
:108BB0009DFE17E0294800F06AF828B10620FFF76B
:108BC00095FE0A48FFF7C8FB0848FFF7BDFB41F2D6
:108BD0008831884202D90020FFF788FE02E0FFF7C3
:108BE000BFFE00BF00BF70BD0402002008020020CD
:108BF000000200204D6F64656D203A20537461744B
:108C0000653A3A49444C4500640000204D6F646564
:108C10006D203A2053746174653A3A574149545F64
:108C20004449534348415247455F43415053000034
:108C30004D6F64656D203A2053746174653A3A57FC
:108C40004149545F48495F47534D5F50470000001A
:108C50002D02002000080140001401407400002093
:108C6000212121204552524F52202121212052659D
:108C700073657420746F2073746174652069646C0B
:108C8000650000006C00002000210170704710B5E5
:108C90000446204600F003F880F0010010BD10B536
:108CA0000446D4E9000102F0A7FA08B9012010BD7A
:108CB0000020FCE72DE9F04104460D4616461F460C
:108CC0002560666003223946D4E9000302F036FAD3
:108CD000BDE8F08110B5044604221021D4E9000358
:108CE00002F02CFAD4E90010486110BD00210160A7
:108CF0004160704701480068704700002000002074
:108D000070B50446FFF7F6FF051901E001F01CFB02
:108D1000FFF7F0FFA842F9D370BD10B5FFF760FC74
:108D200000F00CFBFFF784FD01F008FB10BD10B54F
:108D300000F046F900F03CFF10BD10B501F004FB57
:108D4000FFF7A2FE00F010FB00F000FF08B1FFF7F4
:108D5000B1FA10BD2DE9F04705460E461746002032
:108D6000387081468046012E02D14FF0FF3937E03E
:108D700029460122087820280AD008782C2807D014
:108D800008783A2804D008783D2801D0012000E076
:108D90000020034618E00878202808D008782C28FE
:108DA00005D008783A2802D008783D2802D153B17E
:108DB000002308E03BB9521C0123B24203D1481BF7
:108DC000A0F1010905E0491CB24202DA0878002846
:108DD000E1D100BFB24202D010A0BDE8F08700BFD1
:108DE00009F1010805EB080402E008F10108641C20
:108DF000207858B12078202808D020782C2805D059
:108E000020783A2802D020783D28EED13B464246D1
:108E10004946284600F004F8DFE7000000000000A3
:108E20002DE9F04107460D4616461C46701B0028EA
:108E300005DC0AA0FFF758FC002020700BE020465C
:108E4000691C03E07A5C00F8012B491CB142F9DB94
:108E50000021017000BF2046BDE8F08157726F6E9F
:108E60006720617267756D656E74730010B5044696
:108E700004220021D4E9000302F060F910BD016072
:108E8000426003727047000070B504460D461646F6
:108E900025606660074801F02FFA18B10121022011
:108EA00002F0B2F903221C21D4E9000302F046F9D2
:108EB00070BD00002D02002000210160416070475C
:108EC000D0E9002111617047D0E90021516170475C
:108ED00070B504460D4616462560666003221021D3
:108EE000D4E9000302F02AF970BD0021016041605D
:108EF0007047000010B504460548FFF725FAA04268
:108F000001D8012010BDFFF712FF0020FAE7000092
:108F10009801002070B588B004466A4601212046B9
:108F2000FFF718FF05461AA12046FDF7D9FD20B925
:108F3000FFF7FDFE012008B070BD17A12846FDF720
:108F4000CFFD58B96A4602212046FFF703FF0646C7
:108F500031461348FDF79EFC0120ECE711A12046A5
:108F6000FDF7BEFD18B9FFF7E2FE0120E3E710A10F
:108F70002046FDF7B5FD08B90120DCE70EA1284623
:108F8000FDF7AEFD08B90020D5E70020D3E70000CB
:108F9000434C4F53454400002B4353510000000005
:108FA000AC01002053454E44204641494C0000008E
:108FB00053454E44204F4B002B49504400000000C5
:108FC0000020014908707047A001002010B5044638
:108FD000024804700248FFF7BFF910BDA00100204D
:108FE0009801002070B588B005462846FFF792FF2B
:108FF00008B108B070BD42F21076494800780828E0
:109000000FD2DFE800F0040F20314250738645A0F4
:1090100000F0D6F80120FFF7D9FF444844A10988A1
:1090200001807AE042F21070FFF764FF50B141A175
:109030002846FDF755FD28B90220FFF7C7FF3EA0DF
:1090400000F0BEF869E042F21070FFF753FF50B134
:109050003DA12846FDF744FD28B90320FFF7B6FFE0
:109060003AA000F0ADF858E042F21070FFF742FF6E
:1090700050B130A12846FDF733FD28B90420FFF791
:10908000A5FF36A000F09CF847E042F21070FFF711
:1090900031FF38B127A12846FDF722FD10B9052080
:1090A000FFF794FF39E04EF66020FFF723FFE0B1B1
:1090B0006A4601212846FFF74DFE04462AA1FDF726
:1090C0000FFD90B96A4602212846FFF743FE00785B
:1090D00000F00F04012C01D0052C05D10620FFF76C
:1090E00075FF23A000F06CF800BF16E042F210708C
:1090F000FFF700FF60B16A4603212846FFF72AFE0A
:1091000004461FA1FDF7ECFC10B9072004490870C4
:1091100003E0284600F052FD00BF00BF00BF68E733
:10912000A00100204154453000000000AC010020A7
:10913000300000004F4B000041542B4950523D314C
:1091400031353230300000005244590041542B4731
:10915000534D425553593D310000000041542B43BB
:109160005245473D310000002B4352454700000067
:1091700041542B434950535441545553000000006F
:10918000494E495449414C0030B591B004460D4612
:109190002A46214601A8FDF7E5F801A800F010F8DD
:1091A00011B030BD30B591B004460D462A46214677
:1091B00001A8FDF7D7F801A800F002F811B030BD02
:1091C00010B504462046FDF789FB022803D9214645
:1091D00004A0FFF789FA2046FFF7DAF90348FFF702
:1091E000D7F910BD3E3E3E20257300001BC8020883
:1091F0000180704770B5054610480068062810D1F8
:10920000012409E00E4A02EBC411621E0C4B03EB71
:10921000C210FDF73FFB641C062CF3DB0520074959
:10922000086006490A680968491C044B196004492A
:1092300001EBC2102946FDF72DFB70BD1800002080
:10924000300600200FB400B5C1B043A8009001A8BB
:10925000009A4299FDF774F80020009001A8FFF7EA
:10926000C9FF41B05DF814FB70B50025002408E08B
:10927000064800EBC4122946002000F01FF80A350A
:10928000641C034800688442F2DB70BD3006002095
:10929000180000200348006808B90120704700202A
:1092A000FCE700001800002010B54FF48061024870
:1092B000FDF7F4FB10BD00003002002070B505463C
:1092C0000E461446094805600948066008E0207803
:1092D00000F0B4F82178884201D0207870BD641C79
:1092E00020780028F3D12078F8E70000080000205B
:1092F0000C00002070B50446012C05D1FF2281022C
:109300000D48FDF7C3FB12E02CB94FF480610A4809
:10931000FDF7C4FB0BE0022C09D1002504E0FCF7AB
:10932000D5FF054948556D1CB5F5806FF7D3024848
:1093300000F0A3FB70BD00003002002010B500F06B
:10934000BBFB0120FFF7D6FFFA20FFF7D9FC022074
:10935000FFF7D0FFFA20FFF7D3FC0020FFF7CAFF8A
:10936000FA20FFF7CDFC10BD00B591B0FFF79CFFD0
:10937000FFF790FF50B1882208A101A8FCF7F2FF87
:1093800001AA00210846FFF799FF01E0FFF76CFFF3
:10939000064800F072FB11B000BD00005570677206
:1093A0006164652076202564000000003002002002
:1093B000F0B503461446802B01DA402900DBF0BDEE
:1093C000E4B1CD1701EB5575ED1003EBC5151A4E41
:1093D000755D0A46CE1701EB5676F610A1EBC6076F
:1093E0000126BE403543EEB20846CD1701EB557558
:1093F000ED1003EBC515104F7E551AE0CD1701EBAC
:109400005575ED1003EBC5150B4E755D0A46CE176D
:1094100001EB5676F610A1EBC6070126BE40B54318
:109420000846CE1701EB5676F61003EBC616024F30
:10943000BD5500BFC3E70000300200202DE9F04712
:1094400004464148007818B13F480078012827D1E8
:10945000A046FFF785F981464046FFF77EF90746AB
:10946000002514E000260FE0324629464046FFF76B
:1094700071F940B1354A12685119354A126890198C
:109480000122FFF795FF761CBE42EDDB6D1C4D45BA
:10949000E8DB2F480168781C08442D49086051E03A
:1094A0002948007802284DD1202C01DB7E2C02DDDA
:1094B0000020BDE8F087274800782549096808445E
:1094C000802806DC23484078204909680844402861
:1094D00001DD0020EDE7002529E0A4F120001D4971
:1094E000497800FB01501B49496831F8107000268B
:1094F00018E007FA06F000F4004048B1134A126879
:109500005119134A126890190122FFF751FF08E020
:109510000E4A126851190E4A126890190022FFF77C
:1095200047FF761C0B480078B042E2DC6D1C09480E
:109530004078A842D1DC074800780549096808440A
:10954000034908602046B4E71C0000200C000020FE
:10955000080000201000002010B58EB0022002F09C
:109560001BF800221146122001F09EFF8448FFF7ED
:109570007DFC8448FFF77AFC8348FFF777FC83483B
:10958000FFF774FC8248FFF771FC8248FFF76EFC1E
:109590000021814801F03CFB8048079000208DF8B5
:1095A00034007F48099001208DF8350000020890B2
:1095B00080000A9000208DF8360006200B904FF4B2
:1095C00000500C9007AA0021734801F059FB0021BC
:1095D000714801F004FB022200216F4801F0E7FB13
:1095E00000216D4801F0E2FA47F23050ADF800007A
:1095F0001020ADF80200ADF8040040F6FF700290B4
:109600004FF40070ADF8060000208DF80C0069469C
:10961000644802F0F9FA04A802F075FA0020ADF8E7
:1096200014000120ADF8100004AA00215D4802F0EA
:1096300007F940F6FE7200215A4802F024FA70221F
:109640000021584802F0F2F900221146554802F074
:109650002DFA0121534802F023FB524802F0EAF8A8
:10966000504802F0CCFA002001F000FA0122022159
:109670004A484C3801F06DFA0122110247484C3833
:1096800001F067FA002145484C3801F06AF90622DA
:10969000012142484C3801F041F9394800F02AFFD5
:1096A00004460723224600213C484C3801F0ECF9DF
:1096B000344800F01FFF04460723224601213748A3
:1096C0004C3801F0E1F9304800F014FF044607235C
:1096D0002246022131484C3801F0D6F92B4800F0DF
:1096E00009FF04460723224603212C484C3801F089
:1096F000CBF9274800F0FEFE04460723224604214A
:1097000026484C3801F0C0F9224800F0F3FE044628
:1097100007232246052121484C3801F0B5F90122E2
:1097200011461E484C3801F03AF9002201211B482D
:109730004C3801F053F9022118484C3801F092F9E5
:10974000042116484C3801F08DF9022113484C3899
:1097500001F072F911484C3801F018F90120FEF7B8
:109760009DFC0E484C3801F0C4F80C484C3801F010
:1097700008F9012109484C3801F0DCF90EB010BDA0
:1097800074090020800900208C090020980900201D
:10979000A4090020B0090020000002404C24014030
:1097A000040A0020002C014010B50B4801F0E4F839
:1097B0000221094801F02AF9084802F01BFA07487B
:1097C00002F0AAF90021064801F022FA002211460F
:1097D000122001F069FE10BD00240140002C014060
:1097E0000000024010B5024800F0E0FC10BD00008F
:1097F000040A00201CB504466846FEF7B7FD06E0E3
:109800006846FEF7A1FD642801D900201CBD214651
:109810000348006801F004FE0028F1D00120F5E7BC
:1098200000C802081CB504466846FEF79FFD06E026
:109830006846FEF789FD642801D900201CBD214639
:109840000348006801F0ECFD0028F1D10120F5E7A4
:1098500000C8020810B51A4800F04EFD10B14FF4D0
:10986000807000E040200446224616491648FFF763
:109870000BFB134800F040FD10B14FF4007000E006
:109880008020044622460F491048FFF7FDFA0022C7
:109890000F491048006801F007FD782300221146A7
:1098A0000C48006801F0D5FD0A48006801F09FFDF2
:1098B0004FF480610748006801F0EEFC10BD000025
:1098C0002D020020000C0140340000203C0000204C
:1098D000801A060000C802082DE9FC4105460C4626
:1098E00016466846FEF742FD40F20160FFF79AFF18
:1098F00010B90020BDE8FC812D48006801F0B7FDDB
:109900004FF4A060FFF776FF08B90020F2E76FF090
:10991000010278212648006801F091FD40F20150D3
:10992000FFF768FF00212248006801F0B5FC40F213
:1099300001511F48006801F05FFD29461C4800687E
:1099400001F052FD40F20750FFF754FF01274FF09E
:1099500000080EE014F8011B1548006801F044FDF2
:1099600040F20750FFF746FF08B9002703E008F16F
:109970000108B045EEDB0E48006801F07DFD06E011
:109980006846FEF7E1FC642801D9002706E0084894
:109990000068006800F400700028F1D100BF4FF4A7
:1099A00080610348006801F077FC3846A2E70000B8
:1099B00000C8020810B501464FF0006000EBC1235B
:1099C00003F500541A4605E01068401C08B1002059
:1099D00010BD1032A242F7D30120F9E710B50446BA
:1099E00001F0EAFA40F2053001F04EFA4FF441700E
:1099F00001F04AFA40F2023001F046FA4FF00061FD
:109A000001EBC42001F066FA40F2053001F03CFAA7
:109A10004FF4417001F038FA40F2023001F034FAAC
:109A200001F042FA10BD2DE9F04105460E461446FC
:109A300001F0C2FA00E0641CE11704EB9171891097
:109A4000A4EB81010029F6D12F1909E028463168DD
:109A500001F0D4FA361D2D1D40F2073001F014FA42
:109A6000BD42F3D301F020FABDE8F08101B5012237
:109A700069460020FFF730FF08BD70B50546002499
:109A800017E004F1B001C8B2FFF7F0FF00B912E02F
:109A90000020FFF7EBFF1020FFF7E8FF802000FB1E
:109AA000045102464020FFF717FF00B903E0601C95
:109AB000C4B2082CE5DB70BD10B5AE20FFF7D6FFB1
:109AC00000B910BDD420FFF7D1FF8020FFF7CEFFF3
:109AD000A820FFF7CBFF3F20FFF7C8FFD320FFF7F9
:109AE000C5FF0020FFF7C2FF4020FFF7BFFF8D201A
:109AF000FFF7BCFF1420FFF7B9FFA120FFF7B6FF67
:109B0000C820FFF7B3FFDA20FFF7B0FF1220FFF7FE
:109B1000ADFF8120FFF7AAFFCF20FFF7A7FFD920D5
:109B2000FFF7A4FFF120FFF7A1FFDB20FFF79EFF67
:109B30004020FFF79BFFA420FFF798FFA620FFF728
:109B400095FFAF20FFF792FF00BFBAE70348007808
:109B5000112801D1012070470020FCE7BC01002042
:109B600010B504460548FEF7EFFBA04201D20120E4
:109B700010BDFFF7DCF80020FAE70000D401002058
:109B800010B50446204600F0E3FB10BD07480078FE
:109B90000E2807D0054800780F2803D00348007826
:109BA000102801D1012070470020FCE7BC010020F3
:109BB0000020014908707047BC010020F0B589B051
:109BC000044642F21075DA48007812280ED2DFE817
:109BD00000F0090E162738495A6B7F94A9BED3E6C8
:109BE000F8F7F6F5BA21012000F058FA9CE1BE2101
:109BF000022000F053FACFA0FFF7E2FA94E1D54833
:109C0000FFF7AEFF58B1D4A12046FCF769FF30B989
:109C1000C721032000F042FAD0A0FFF7D1FA83E178
:109C2000CC48FFF79DFF58B1CBA12046FCF758FF69
:109C300030B9D221042000F031FAD0A0FFF7C0FAE9
:109C400072E1C448FFF78CFF58B1C3A12046FCF76E
:109C500047FF30B9DD21052000F020FACDA0FFF745
:109C6000AFFA61E1BB48FFF77BFF58B1BAA12046CC
:109C7000FCF736FF30B9E821062000F00FFACBA040
:109C8000FFF79EFA50E1B348FFF76AFF58B1B2A15F
:109C90002046FCF725FF30B9F321072000F0FEF93C
:109CA000C6A0FFF78DFA3FE142F21070FFF758FFB0
:109CB00068B1A9A12046FCF713FF40B9FE21082096
:109CC00000F0ECF9C0480168C0A0FFF75DFA2BE195
:109CD00042F21070FFF744FF70B19FA12046FCF7DD
:109CE000FFFE48B940F20911092000F0D7F9BB483E
:109CF0000168BBA0FFF748FA16E142F21070FFF7C7
:109D00002FFF70B194A12046FCF7EAFE48B94FF44A
:109D10008A710A2000F0C2F9B5480168B5A0FFF7C2
:109D200033FA01E142F21070FFF71AFF70B18AA115
:109D30002046FCF7D5FE48B940F21F110B2000F079
:109D4000ADF9B0480168B0A0FFF71EFAECE042F2AE
:109D50001070FFF705FF70B17FA12046FCF7C0FE31
:109D600048B94FF495710C2000F098F9AB480168A0
:109D7000ABA0FFF709FAD7E042F21070FFF7F0FE50
:109D800060B175A12046FCF7ABFE38B940F2351141
:109D90000D2000F083F9A7A0FFF712FAC4E0A8484D
:109DA000FFF7DEFE00B301AA01212046FEF7D2FF35
:109DB0000646A4A1FCF794FEB0B903E0B3E04FE07F
:109DC00032E01DE0A1A12046FCF78AFE68B94FF4FD
:109DD000A1710E2000F062F90020A0490860A0499E
:109DE0000860042000F05AFB09E09EA12046FCF721
:109DF00077FE20B940F24911112000F04FF993E0AD
:109E00008F48FFF7ADFE70B19A48007858B194487A
:109E10009949096801604FF4AC710F2000F03EF9D8
:109E2000042000F03BFB7FE08548FFF799FEB0B1CE
:109E30009048007898B191488F490968016090482E
:109E4000FEF716FA40F26711102000F027F900F033
:109E50006EFA402000F022FB00208A49087063E07F
:109E60007748FFF77DFE00285CD086480078B8B3BD
:109E7000854801688048FEF755F983484FF4BB7167
:109E8000026882A0FEF730FCFEF7D4F907463A4696
:109E90004FF4BC717DA0FFF7D5F9FEF78DF9FEF701
:109EA000C9F9064631467648FEF770FC6B490860F2
:109EB0000846006871490968884212D100BFFEF760
:109EC0009DF931464FF00060FEF760FC6B49096870
:109ED0008842F4D14FF4C471112000F0DFF802E0A1
:109EE00002E0FEF724FF1DE062480078D0B166482A
:109EF00001686148FEF716F9634840F29311026861
:109F000062A0FEF7F1FBFEF795F90646324640F2F5
:109F100095115EA0FFF796F95F48FEF71DFA402005
:109F200000F0BCFA00E000BF00BF09B0F0BD0000C7
:109F3000BC01002041542B53415042523D332C313F
:109F40002C22434F4E54595045222C2247505253F5
:109F500022000000084C01004F4B000041542B53DD
:109F6000415042523D332C312C2241504E222C2262
:109F7000696E7465726E65742200000041542B5343
:109F8000415042523D332C312C2255534552222C04
:109F90002222000041542B53415042523D332C3178
:109FA0002C22505744222C222200000041542B53D3
:109FB000415042523D312C310000000041542B46AB
:109FC00054504349443D3100C001002041542B46C8
:109FD0005450534552563D2225732200C40100209F
:109FE00041542B465450554E3D222573220000000B
:109FF000C801002041542B46545050573D22257330
:10A0000022000000CC01002041542B46545047450B
:10A0100054504154483D222573220000D0010020B5
:10A0200041542B4654504745544E414D453D222501
:10A030007322000041542B4654504745543D310093
:10A04000F82401002B465450474554002B465450E9
:10A050004745543A20312C3100000000E401002033
:10A06000DC0100202B4654504745543A20312C3710
:10A0700037000000FC010020300A0020E001002031
:10A0800000300108FD010020F80100202564207245
:10A090006563762025640000D401002070B5A0B06F
:10A0A00004460D460A4804700A48FEF755F900BFF9
:10A0B000094850F82400064633462A4607A1684658
:10A0C000FCF750F96846FFF795F820B070BD000026
:10A0D000BC010020D401002038C9020825642025D5
:10A0E000730000003EB50E4A07CA8DE80700002441
:10A0F0000BE05DF8242004EB44010A4B03EB8100E4
:10A1000048230949FEF7D6FD641C032CF1DB4823E4
:10A110004FF4007204490548FEF7CCFD3EBD000037
:10A120000CC80208E0090020001001408C0100204A
:10A1300008200149086070471014014010B5082339
:10A1400003221021024800F0F9FFFFF7F1FF10BDD4
:10A150000014014000B587B0FFF7F0FF2823032269
:10A160001821104800F0EAFF1023032204210D48B3
:10A1700000F0E4FF002001904FF482700090002076
:10A1800002900220059000020390202006900020FB
:10A1900004906946044801F034FB034801F02CFBAD
:10A1A00007B000BD000C0140003C004038B504463B
:10A1B0004748007800F0010058B9454800F0C7F959
:10A1C00038B1444D2846FEF7C7F800BF4048AFF30A
:10A1D00000804148008810B93E48FEF7BDF83E486F
:10A1E000B0F90000B0F5FA6F71DA21883B4801F050
:10A1F0001FFF054629466846FEF7FAFF3849364AEA
:10A20000B2F9002001EB42010088088061883348E0
:10A21000183001F00DFF054629466846FEF7E8FFB5
:10A2200030492D4AB2F9002001EB42010088088034
:10A23000A1882A48303001F0FBFE054629466846D1
:10A24000FEF7D6FF2849244AB2F9002001EB42016B
:10A2500000880880E1882148483001F0E9FE054681
:10A2600029466846FEF7C4FF20491B4AB2F9002080
:10A2700001EB42010088088021891848603001F014
:10A28000D7FE054629466846FEF7B2FF1849124A2E
:10A29000B2F9002001EB42010088088061890F4873
:10A2A000783001F0C5FE054629466846FEF7A0FF56
:10A2B0001049094AB2F9002001EB420100880880E8
:10A2C00005480088401C00B20349088000BF38BD23
:10A2D00020020020240200201C020020348C0020D8
:10A2E000742E0020143E0020B44D0020545D002048
:10A2F000F46C0020947C002010B50346184600F052
:10A3000009F8002801DC012000E000200446204676
:10A3100010BD00000146014A1068704700F80308AC
:10A3200010B5002140F6FF7000F0C4FE10BD10B55E
:10A33000062140F6FF7000F0BDFE10BD10B5FFF71E
:10A34000EFFF00F0F3FE10BD10B500F0E7FE10BD0A
:10A35000F0B589B0044642480078B0B14148016880
:10A360000068401C3F4A10603F4844541046006853
:10A370003E490968884270D10020394908703C493B
:10A38000086001203B49087067E00D2C65D00A2C5D
:10A390005BD13748006800285FD00021344802684C
:10A3A0000068401C324B18603348815401AA0121D7
:10A3B000FEF7D0FC074631A13846FCF791FB002898
:10A3C0003DD101AA02212C48FEF7C4FC054628789D
:10A3D000312815D101AA03212748FEF7BBFC064608
:10A3E0003078312808D12748016827A0FEF7DAFE27
:10A3F00000201F49086002E00120274908701DE085
:10A40000287832281AD101AA03211B48FEF7A2FCA2
:10A4100006463046FCF712FA144908600846006800
:10A42000002801DD012000E000200D4908700846E9
:10A43000007810B900200E49086000BF04E0002039
:10A44000074908700A49086007E009480168006880
:10A45000401C074A10600848445409B0F0BD000091
:10A46000E8010020F8010020300A0020F40100205B
:10A47000EC010020FC010020100A00202B46545063
:10A4800047455400F001002041542B4654504745A5
:10A49000543D322C25640000FD01002010B5044617
:10A4A00000F012F803480460016803A0FEF77AFE8A
:10A4B00010BD0000F001002041542B465450474588
:10A4C000543D322C256400000020054908600549F0
:10A4D000087005490860054908600549087070471B
:10A4E000EC010020E8010020F8010020F00100202C
:10A4F000FC0100200146087A704703B4019841002E
:10A50000009850EAC12018BF04204A0D18BF40F03F
:10A51000010040F2FF72B2EB515F08BF40F0020051
:10A52000012808BF052002B070472DE9F0411C4604
:10A5300017460E00804607D0054602E02846B04781
:10A540003D442046641EF9D24046BDE8F0810168D2
:10A5500009B10020704701210160084670470000E2
:10A5600010B50348FDF702FF0248FDF7FFFE10BDDE
:10A5700098010020A401002010B5034C2046FDF7EF
:10A58000EBFE00BF10BD0000D401002010B5002379
:10A5900001225F495F48FEF772FC012302225C49F9
:10A5A0005D48FEF76CFC0223042259495B48FEF724
:10A5B00066FC0323082256495948FEF760FC052330
:10A5C000202253495748FEF75AFC0723802250495E
:10A5D0005548FEF754FC042310224D495348FEF71A
:10A5E0004EFC062340224A495148FEF748FC0E2300
:10A5F000102250495048FEF742FC5048FEF75CFCE0
:10A600004F48FEF759FC4F48FDF79AFE4E48FDF7BC
:10A6100086FE4E48FDF794FE4D48FDF780FE4D48FE
:10A62000FEF763FC4C48FEF760FC4C48FEF75EFB0F
:10A630004B48FEF75AFC4B48FEF757FC4A48FEF7DA
:10A6400054FC4A48FEF751FC4948FEF74EFC494885
:10A65000FEF74CFB4848FEF749FB4848FEF745FC2F
:10A660004748FEF742FC4748FEF73FFC4648FEF7E6
:10A670003CFC4648FEF739FC4548FEF736FC4548A9
:10A68000FEF733FC4448FEF730FC4448FEF72DFC4F
:10A690004348FEF72AFC4348FEF727FC4248FEF7F2
:10A6A00024FC4248FEF721FC4148FEF71EFC4148CD
:10A6B000FEF71BFC4048FEF718FC4048FEF715FC6F
:10A6C0003F48FEF712FC3F48FEF70FFC3E48FEF7FE
:10A6D0000CFC3E48FEF709FC3D48FEF706FC3D48F1
:10A6E000FEF703FC3C48FEF700FC3C48FEF7FDFB90
:10A6F0003B48FEF7FAFB3B48FEF7F7FB3A48FEF70C
:10A70000F5FA03230C2239493948FFF70EFF10BD33
:10A710000008014074090020800900208C090020F5
:10A7200098090020A4090020B0090020BC090020DD
:10A73000C809002000100140D40900203400002086
:10A740003C000020440000204C0000205400002069
:10A750005C000020640000206C00002074000020D9
:10A760007C000020840000208C0000209400002049
:10A770009C000020A4000020AC000020B4000020B9
:10A78000BC000020C4000020CC000020D400002029
:10A79000DC000020E4000020EC000020F400002099
:10A7A000FC000020040100200C0100201401002006
:10A7B0001C010020240100202C0100203401002075
:10A7C0003C010020440100204C01002054010020E5
:10A7D0005C010020640100206C0100207401002055
:10A7E0007C010020840100208C010020F1820208FD
:10A7F000E009002010B51D48FDF76EFD1C48FDF76F
:10A800006BFD1C48FDF768FD4FF4FA6302221A49FC
:10A810001A48FFF78AFE4FF4FA63022216491848D5
:10A82000FFF783FE4FF4FA63022213491548FFF73E
:10A830007CFE4FF4FA6302220F491348FFF775FEBE
:10A840004FF4FA6302220C491048FFF76EFE4FF4F2
:10A85000FA63022208490E48FFF767FE0623182212
:10A860000C490D48FFF761FE10BD0000202E0020AE
:10A870003C2E0020582E0020B37D0208742E0020AC
:10A88000143E0020B44D0020545D0020F46C0020E4
:10A89000947C00207BC00208348C002070470000AC
:10A8A00010B541F288310448FDF728FC4EF66021CE
:10A8B0000248FDF723FC10BD882D0020D42D002078
:10A8C00010B5054801F082FB044801F07FFB044805
:10A8D00001F07CFB10BD0000700A0020780B002006
:10A8E000800C002030380A2801D201207047002057
:10A8F0007047816841F00801816000BF816801F004
:10A9000008010029FAD1816841F00401816000BF8B
:10A91000816801F004010029FAD1704730B501299E
:10A9200002D002291AD10CE0C36A23F47003C36277
:10A93000C36A541E4FF4700505EA04542343C362EE
:10A940000DE0836B23F440138363836B541E4FF439
:10A95000401505EA04542343836300E000BF00BFB1
:10A9600030BD21B1826842F40062826003E08268F7
:10A9700022F4006282607047816821F001018160E9
:10A980007047816841F4807181607047816801F08F
:10A99000010119B9816841F001018160704772B10C
:10A9A00001F001031BB1836843F48013836001F05D
:10A9B000020393B1836843F4004383600DE001F028
:10A9C00001031BB1836823F48013836001F0020349
:10A9D0001BB1836823F4004383607047012902D0D0
:10A9E000022910D107E0836823F460238360836821
:10A9F0001343836008E0836823F4E0438360836843
:10AA00001343836000E000BF00BF704701F0010204
:10AA10001AB1426822F04002426001F002021AB10B
:10AA2000426822F02002426001F004021AB142683A
:10AA300022F080024260704701F001021AB14268C0
:10AA400042F04002426001F002021AB1426842F054
:10AA50002002426001F004021AB1426842F0800212
:10AA600042607047CA4302607047000005490968A8
:10AA700021F47021034A11601146096801431160F5
:10AA80007047000004240140F0B51D4606290CD291
:10AA9000436B01EB81071F26BE40B34301EB8106E8
:10AAA00002FA06F63343436322E00C290ED2036B0D
:10AAB0008E1F06EB86071F26BE40B3438E1F06EB94
:10AAC000860602FA06F63343036311E010290FD21B
:10AAD000C36AA1F10C0606EB86071F26BE40B343EE
:10AAE000A1F10C0606EB860602FA06F63343C362B2
:10AAF0000A2A0CD2046902EB42070726BE40B4437F
:10AB000002EB420605FA06F63443046111E0122A0C
:10AB10000FD2C468A2F10A0606EB46070726BE401C
:10AB2000B443A2F10A0606EB460605FA06F63443DC
:10AB3000C460F0BD01F001021AB1826842F48002E3
:10AB4000826001F002021AB1826842F4001282604F
:10AB50007047AAB101F480731BB1436843F480735A
:10AB6000436001F480631BB1436843F48063436036
:10AB700001F00203CBB1836843F00203836014E069
:10AB800001F480731BB1436823F48073436001F4C4
:10AB900080631BB1436823F48063436001F00203C8
:10ABA0001BB1836823F002038360704770B50546CC
:10ABB0000C4621462846FDF765FA08B900BFFEE7B6
:10ABC00004EB8400810005F10800405840F00101C9
:10ABD00004EB8400820005F10800815070BD70B55F
:10ABE00005460C4621462846FDF74CFA08B900BF39
:10ABF000FEE704EB8400810005F10800405840F0B6
:10AC0000200104EB8400820005F10800815070BD32
:10AC100070B504460D4629462046FDF733FA08B9BB
:10AC200000BFFEE705EB8500810004F108004058F5
:10AC300020F0010105EB8500820004F1080081503D
:10AC4000002105EB8500820004F10800815005EB2E
:10AC50008500820004F10C00815005EB8500820024
:10AC600004F11000815005EB8500820004F114000E
:10AC700081506068AA000F2191400843606070BD58
:10AC80002DE9F04104460D46164629462046FDF7BB
:10AC9000F9F908B900BFFEE705EB8500820004F171
:10ACA00010003168815005EB8500820004F114002A
:10ACB000B1688150308A81B205EB8500820004F1D1
:10ACC0000C00815005EB8500810004F10800475815
:10ACD00027F47C57F168706808437169084307439B
:10ACE00005EB8500810004F108004750307E012803
:10ACF0000ED105EB8500810004F10800405840F0BA
:10AD0000400105EB8500820004F1080081500DE050
:10AD100005EB8500810004F10800405820F0400157
:10AD200005EB8500820004F108008150707E012847
:10AD30000ED105EB8500810004F10800405840F079
:10AD4000800105EB8500820004F1080081500DE0D0
:10AD500005EB8500810004F10800405820F08001D7
:10AD600005EB8500820004F108008150B07E70B9C7
:10AD700005EB8500810004F10800405820F0100127
:10AD800005EB8500820004F1080081500DE005EB21
:10AD90008500810004F10800405840F0100105EBE7
:10ADA0008500820004F108008150BDE8F08170B593
:10ADB00004460D46164629462046FDF763F908B9B4
:10ADC00000BFFEE705EB8500810004F10800405854
:10ADD000304305EB85018A0004F10801885070BDFD
:10ADE00000B50346012200BF00F00CF802465B1ECE
:10ADF000012A01D1002BF7D1012A00D104221046EB
:10AE000000BD000000200A49C96801F0010109B134
:10AE100001200CE00649C96801F0100109B10320C6
:10AE200005E00349C96801F0040101B1022070473F
:10AE30000020024000B50346012200BF00F00CF8DC
:10AE400002465B1E012A01D1002BF7D1012A00D155
:10AE50000422104600BD000000200A49C96C01F020
:10AE6000010109B101200CE00649C96C01F0100193
:10AE700009B1032005E00349C96C01F0040101B1E7
:10AE80000220704700200240064A02EB9011096838
:10AE900000F01F0301229A401143024B03EB901272
:10AEA00011607047002002400848006940F08000AF
:10AEB0000649086106480088B0F5007F04D90846B5
:10AEC000006D40F0800008657047000000200240DF
:10AED000E0F7FF1F30B5054633480088B0F5007F26
:10AEE00044D9324885421CD23148FFF779FF0446E5
:10AEF000002C56D12F48006940F002002D4908610E
:10AF000008464561006940F0400008612848FFF7A5
:10AF100067FF04462748006920F0020025490861C0
:10AF20003FE02348FFF786FF0446002C39D1214833
:10AF3000006D40F002001F49086508464565C0697C
:10AF400000F0020008B1084645611A48006D40F063
:10AF50004000184908651648FFF76CFF044615487D
:10AF6000006D20F00200134908651AE01048FFF751
:10AF700037FF0446ACB90F48006940F002000D49A4
:10AF8000086108464561006940F0400008610848D2
:10AF9000FFF726FF04460748006920F00200054934
:10AFA0000861204630BD0000E0F7FF1FFFFF0708E3
:10AFB0000000FF0F002002400C48006900F08000F4
:10AFC00020B10B48094948600A4848600A4800888F
:10AFD000B0F5007F09D90548006D00F0800020B170
:10AFE000034802494864034848647047002002400F
:10AFF00023016745AB89EFCDE0F7FF1F70B504462D
:10B000000D46002627480088B0F5007F31D9264834
:10B01000844217D22548FFF7E3FE0646002E3ED1B4
:10B020002348006940F001002149086125601F485C
:10B03000FFF7D6FE06461E48006920F001001C49B5
:10B0400008612CE01948FFF7F5FE06463EBB18489C
:10B05000006D40F001001649086525601348FFF7B0
:10B06000E9FE06461248006D20F00100104908650F
:10B0700015E00E48FFF7B4FE064686B90C48006995
:10B0800040F001000A49086125600848FFF7A8FE62
:10B0900006460748006920F001000549086130466E
:10B0A00070BD0000E0F7FF1FFFFF07080000FF0F63
:10B0B0000020024030B502460B46164C002145F2F6
:10B0C0005550154D286000BF1348C06800F00101BD
:10B0D000601E041E01D00029F6D109B1002030BD48
:10B0E0000D4843600B4C00BF0B48C06800F00201E4
:10B0F000601E041E01D00029F6D109B10020EEE740
:10B10000C2F30B00044DA8604AF6AA202860012073
:10B11000E5E70000FFFF0F00003000404AF6AA20DC
:10B120000149086070470000003000404CF6CC40F8
:10B13000014908607047000000300040F0B5044647
:10B1400016460025002201F00F0501F0100747B157
:10B15000042E05D145F00305E76B1F43E76300E0CC
:10B16000354300201EE0012787401F40C7B12268F9
:10B170004FEA800C0F2707FA0CF7BA43870005FA4D
:10B1800007F73A43282904D1012787401F40676108
:10B1900005E0482903D1012787401F40276122602D
:10B1A000471CB8B20828DED3082022E001278740D8
:10B1B0001F40E7B16268A0F108074FEA870C0F272C
:10B1C00007FA0CF7BA43A0F10807BF0005FA07F722
:10B1D0003A43282904D1012787401F40676105E0D1
:10B1E000482903D1012787401F4027616260471C1F
:10B1F000B8B21028DAD3F0BD02469068084008B112
:10B20000012070470020FCE7F0B50A460023002427
:10B210000021002500F00046B6F1004F02D11D4E7E
:10B22000F16901E01B4E7168C0F3034583B200F47D
:10B230004016B6F5401F08D121F0E061154E766842
:10B2400026F0E066134F7E6012E000F48016B6F53B
:10B25000801F06D1032606FA05F4A14341F0E06100
:10B2600006E0460D360103FA06F6B14341F0E0610F
:10B2700022B1460D360103FA06F6314300F00046CE
:10B28000B6F1004F02D1034EF16101E0014E716051
:10B29000F0BD0000000001400A460021016821F4D1
:10B2A00080611143016070472DE9F05F04460E464E
:10B2B00092460EB900BFFEE7022000F0ADF9074646
:10B2C0004648B7FBF0F8B8F13C0F01D34FF03C080B
:10B2D000D4F804B02BF07F0B4BEA080BC4F804B091
:10B2E0003F4886421ED83D48B7FBF0F000F1010907
:10B2F000B9F13C0F02D33C20206207E0B9F1020F04
:10B3000002D80220206201E0C4F820907000B7FB50
:10B31000F0F5042D00D20425E069C5F30B010843C4
:10B32000E06158E02F4886422CD84FF4967008FB15
:10B3300000F04FF47A71B0FBF1F0401C2062BAF1DA
:10B34000000F08D106EB4600B7FBF0F5E06920F4EA
:10B350008040E06109E006EBC60000EB0610B7FB99
:10B36000F0F5E06940F48040E061C5F30B0008B9F6
:10B3700045F00105E06940F40040E061E0692843E0
:10B38000E06128E0C8EB0810C0004FF47A71B0FB10
:10B39000F1F0401C2062BAF1000F08D106EB460024
:10B3A000B7FBF0F5E06920F48040E06109E006EBCE
:10B3B000C60000EB0610B7FBF0F5E06940F48040F2
:10B3C000E061E06940F40040E061E0692843E06149
:10B3D0000120C4F89000BDE8F09F000040420F003B
:10B3E000A0860100801A0600CAB202617047016897
:10B3F00041F001010160704710B540F201529142E5
:10B4000002D1426983690AE000EB9112126801F0EF
:10B410001F040123A3409A4300EB91131A6010BD4F
:10B4200010B5024602EB9110006801F01F040123E1
:10B43000A340184008B1012010BD0020FCE712F124
:10B44000020F02D121F0010101E041F0010101618F
:10B45000704730B50C460021016821F002012143FC
:10B460000160C3F3090342EA0305856030BD01684A
:10B4700041F4807101607047016841F4007101601E
:10B480007047FDF74AFC01E0FDF757FCFCE70000C0
:10B4900000F01F0201219140024A431142F823109B
:10B4A0007047000080E100E02DE9F04103460D46C1
:10B4B000164600240027A0462A48006800F4E060F1
:10B4C000B0F5E06F03D100BF4FF0040830E025482D
:10B4D000006800F4E060B0F5C06F03D101274FF0C1
:10B4E000030825E01F48006800F4E060B0F5A06F95
:10B4F00002D10227B8461BE01A48006800F4E06059
:10B50000B0F5806F03D103274FF0010810E0154814
:10B51000006800F4E060B0F5407F03D104274FF0ED
:10B52000000805E04FF4A06000F020F80227B846BC
:10B53000C7F1040005FA00F4C8F104010F20C84067
:10B540003040044324010848C45403F01F01012083
:10B5500088405911890001F1E021C1F80001BDE8DE
:10B56000F08100000CED00E000E400E0024901433E
:10B57000024A1160704700000000FA050CED00E07F
:10B58000034A0A400243034B1A60BFF34F8F7047D0
:10B5900080FFFF1F08ED00E0184B5968184B194059
:10B5A000164BDA6A22F000520C2820D2DFE800F0B5
:10B5B000060708091F0C1F0D1516171800BF00BF3E
:10B5C00000BF41EA803113E000BF20F004004FF0DB
:10B5D000805343EA803319430AE000BF00BF00BF35
:10B5E00020F00C0041EA803142F0005200E000BF40
:10B5F00000BF024B5960DA62704700000010024041
:10B60000FF3FFFEF0348406A40F080700149486205
:10B6100070470000001002402DE9F04F8CB0074643
:10B6200000200A904BA090E8004CC068CDE905BE10
:10B63000CDF810A007900FF2201ADAE9000ACDE940
:10B64000020A0FF2141ADAE9000ACDE9000A4548A5
:10B650004068C0F381000B900B9820B1012804D002
:10B66000022841D104E0404A40E04FF461023DE04D
:10B670003C48406800F4803CBCF5803F13D1394819
:10B68000C06A00F08048B8F1000F02D14FF46103A6
:10B6900000E0364B3348406800F40039B9F5003F0C
:10B6A00002D15B0800E0324B2E484068C0F3834172
:10B6B0002C48406800F0006008B141F010012948B2
:10B6C000406800F0804008B141F020010F2901D20C
:10B6D000891C06E00F2903D33E2901D8491C00E04C
:10B6E0003F2103FB01F201E01F4A00BF00BF1D48DC
:10B6F0004068C0F3031504A8465D22FA06F4194811
:10B700004068C0F3022502A8465D24FA06F00990BD
:10B7100014484068C0F3C2251DF8056024FA06F0FD
:10B72000089037B1012F06D0022F06D0032F0AD17F
:10B7300006E00A9208E00A9406E009980A9003E0FD
:10B7400008980A9000E000BF00BF0A980CB0BDE85E
:10B75000F08F000000000000000000000102030460
:10B76000060708090010024000127A00006CDC0293
:10B7700000093D000146074A02EB9110006801F004
:10B780001F0301229A40104008B101207047002099
:10B79000FCE7000000100240064A02EB9011096825
:10B7A00000F01F0301229A401143024B03EB901259
:10B7B0001160704700100240064A02EB90110968C0
:10B7C00000F01F0301229A409143024B03EB9012B9
:10B7D0001160704700100240064A02EB90110968A0
:10B7E00000F01F0301229A401143024B03EB901219
:10B7F0001160704700100240016841F04001016093
:10B80000704702460020106800F441500B6818434E
:10B810004B6818438B681843CB6818430B6918436F
:10B820004B6918438B6918431060D36923F4006394
:10B83000D3617047016821F080010160704700000A
:10B8400010B531B101293FD002297DD003297CD127
:10B85000BFE0036A23F001030362836923F003035B
:10B860008361036A148823430362036A23F002039B
:10B870000362036A9488234303626A4B984202D0AE
:10B88000694B98421FD1036A23F004030362036AE1
:10B89000548823430362036A23F008030362036AA4
:10B8A000D48823430362436823F48073436043686E
:10B8B000148923434360436823F40073436043685F
:10B8C000548923434360ABE0036A23F0100303620F
:10B8D000836923F440738361036A148843EA041381
:10B8E0000362036A23F020030362036A948843EA35
:10B8F000041303624B4B984202D04B4B984226D123
:10B90000036A23F040030362036A548843EA041382
:10B910000362036A23F080030362036AD48843EA64
:10B9200004130362436823F480634360436814890B
:10B9300043EA84034360436823F40063436043683D
:10B94000548943EA840301E002E068E0436067E071
:10B95000036A23F480730362C36923F00303C361A2
:10B96000036A148843EA04230362036A23F400731E
:10B970000362036A948843EA04230362294B9842D2
:10B9800002D0294B984223D1036A23F480630362D7
:10B99000036A548843EA04230362036A23F40063BE
:10B9A0000362036AD48843EA04230362436823F4EE
:10B9B000805343604368148943EA04134360436837
:10B9C00023F4005343604368548943EA04134360FB
:10B9D00026E0036A23F480530362C36923F44073AF
:10B9E000C361036A148843EA04330362036A23F4DD
:10B9F00000530362036A948843EA04330362094BE9
:10BA0000984202D0084B984208D1436823F48043FF
:10BA100043604368148943EA8413436000E000BF35
:10BA200000BF10BD002C01400034014031B101299C
:10BA30000CD0022913D0032922D118E0836923F006
:10BA4000700383618369134383611AE0836923F47C
:10BA5000E0438361836943EA0223836111E0C369A0
:10BA600023F07003C361C3691343C36109E0C36971
:10BA700023F4E043C361C36943EA0223C36100E0E6
:10BA800000BF00BF704731B1012906D0022906D09E
:10BA9000032908D105E0426306E0826304E0C26343
:10BAA00002E0026400E000BF00BF704731B101292D
:10BAB0000CD0022913D0032922D118E0836923F086
:10BAC000080383618369134383611AE0836923F464
:10BAD00000638361836943EA0223836111E0C369E0
