:020000040802F0
:1060000078BA0020C9620208677D02085F7D020835
:10601000637D0208597D0208557E020800000000D9
:106020000000000000000000000000006B7D02087E
:106030005D7D020800000000697D02086D7D020898
:10604000597E0208E3620208E3620208E362020882
:10605000E3620208E3620208E3620208E362020804
:10606000E3620208E3620208E3620208E3620208F4
:10607000E3620208E3620208E3620208E3620208E4
:10608000E3620208E36202083D7D0208E36202085F
:10609000E3620208E3620208E3620208E3620208C4
:1060A000E3620208E3620208E3620208E3620208B4
:1060B000E3620208E3620208E3620208E3620208A4
:1060C000E3620208E3620208E3620208E362020894
:1060D000E3620208E3620208E3620208E362020884
:1060E000E3620208E3620208E3620208E362020874
:1060F000E3620208E3620208E3620208E362020864
:10610000E3620208E3620208E3620208E362020853
:106110002D7E0208E3620208E3620208E3620208DD
:10612000E3620208E3620208E3620208E362020833
:1061300000F002F800F0B4F80AA090E8000C8244E5
:106140008344AAF10107DA4501D100F0A9F8AFF2C2
:10615000090EBAE80F0013F0010F18BFFB1A43F045
:106160000103184718590000385900000A444FF03D
:10617000000C10F8013B13F0070408BF10F8014BA6
:106180001D1108BF10F8015B641E05D010F8016BEB
:10619000641E01F8016BF9D113F0080F1EBF10F84F
:1061A000014BAD1C0C1B09D16D1E58BF01F801CB72
:1061B000FAD505E014F8016B01F8016B6D1EF9D5F5
:1061C0009142D6D37047000000230024002500260A
:1061D000103A28BF78C1FBD8520728BF30C148BF4A
:1061E0000B6070476E2900F05581702900F03B82EA
:1061F000662905F08783652905F08483672905F002
:1062000081836129AFF3008003681B0A28BF41F036
:106210008001692900F00281642900F0FF8075295E
:1062200000F0FC806F2900F0C881782900F0078217
:10623000E92900F01185E42900F00E85F52900F028
:106240000B85EF2900F0C581F82900F0068203686C
:10625000DB0928BF41F08001632900F0DA8473294B
:1062600000F0DF84E32900F0EA84F32900F0EF84F2
:10627000002070471FB505F040FB01F0BBF804009B
:106280000020002105F068FA401C60600020002119
:1062900005F078FAE06000F025FC1FBD10B510BDD8
:1062A00001F083F81146FFF7E5FF04F024FD01F04B
:1062B00065F903B4FFF7F2FF03BC01F069F90000D0
:1062C00080F3088870470000094880470948004764
:1062D000FEE7FEE7FEE7FEE7FEE7FEE7FEE7FEE796
:1062E000FEE7FEE704480549054A064B70470000F3
:1062F000857D0208316102087886002078BA002086
:10630000788A0020788A00201CB50C46064B7B4416
:1063100069460090204600F05AFC04460020694679
:1063200000F068FC20461CBDE30800000FB41CB55B
:10633000084B06AA7B4469460090059800F047FC8C
:1063400004460020694600F055FC20461CBC5DF860
:1063500014FB0000BD08000070B5044685690068A4
:10636000C10601D5302600E02026C00707D070BD49
:10637000D4E9012130469047206A401C20626D1EFE
:10638000F6D570BD70B5044685690078C00707D1A1
:1063900070BDD4E9012120209047206A401C206272
:1063A0006D1EF6D570BD09684A0501D540B270472B
:1063B000C905FCD500B2704709684A0501D5C0B2CD
:1063C0007047C905FCD580B2704770B50C460546CC
:1063D000012A05D02878800600D5EA69002302E06A
:1063E000012305E05B1C934202D2E05C0028F9D156
:1063F000A869E618C01AA861286A184428622846C5
:10640000FFF7AAFF04E0D5E9012114F8010B90473A
:10641000B442F8D32846FFF7B5FF70BD2DE9F0412F
:106420000646002410687529314616A510D0FFF7DE
:10643000BAFF002802DA404213A507E031688A0754
:1064400001D512A502E0490704D511A5012401E0F8
:10645000FFF7B2FF00210A2206F1240709E0B0FB92
:10646000F2FCB0FBF2F302FB1C003030785418460B
:10647000491C0028F3D123462A463046BDE8F041A6
:1064800000F046BB000000002D0000002B000000C3
:106490002000000011680268006A530501D50870E9
:1064A0000AE0D30501D5088006E0130603D5C2171C
:1064B000C1E9000200E00860012070472DE9FF5F9C
:1064C00015468A460446DFF8AC80F8440027D8E930
:1064D00000103E46CDE9001010E03AF816106A466A
:1064E00002A800F02FFC411C07D02178890603D5B3
:1064F000E269391891420DD80744761C207880064D
:1065000002D5E069B84205DDAE42E6DB3AF8160096
:106510000028E2D1A069C01BA0612046FFF71CFF44
:10652000D8E90010CDE90010002017E03AF8181063
:106530006A4602A800F006FCB0F1FF3F81460BD08E
:1065400000250DF1080B05E0D4E901211BF8050039
:1065500090476D1C4D45F7D308F10100B0428046CD
:10656000E4DB206A384420622046FFF70BFFBDE8D9
:10657000FF9F00005A54000030B4002100F12404B1
:1065800008E002F00705D208303542EA4372DB0822
:106590006554491C52EA0305F3D10468002310A294
:1065A000250707D5A40600D421B1C46901230DA293
:1065B000641EC46130BC00F0ABBA10B5044621467D
:1065C0001068FFF7F9FE02462046BDE810400023A0
:1065D000D2E7D21D22F00701D1E90023CCE7000069
:1065E0000000000030000000F0B40D4601880905ED
:1065F00002D5214C7C4402E01F4C7C440E34002127
:1066000000F1240608E002F00F071209E75D42EAF4
:1066100003721B097754491C52EA0307F3D102782D
:106620000023120704D5702D06D009B102231134BE
:106630002246F0BC00F06CBA01231034F8E770B5C4
:1066400004460D4621461068FFF7B6FE024629466D
:106650002046BDE870400023C6E7D21D22F00703A4
:10666000D3E90023C0E70368126843F02003036006
:106670000823C3610023B7E7385300002DE9F05F1A
:10668000894604464FF0000ADFF874B1FB44C0F8B5
:1066900020A02046E1688847002874D0252806D02D
:1066A000D4E901219047206A401C2062F1E70026CE
:1066B0005F462046E16888472028054607DB312DE4
:1066C00005D2781910F8200C08B10643F1E7B0079D
:1066D00001D526F00406C4F81CA00027C4F818A0B1
:1066E0002A2D09D0284603F071FD38B304EB870842
:1066F000303DC8F8185019E059F8041B204604EB47
:1067000087029161E1688847012F054618D1E06949
:10671000002820DA26F020061DE0D8F8180000EB4B
:10672000800005EB40003038C8F818002046E168CA
:106730008847054603F04AFD0028EED1012F0AD014
:106740002E2D08D12046E16888477F1C0546022F80
:1067500046F02006C4DBA069002803DA404246F078
:106760000106A061F00701D026F010066C2D0BD0B9
:10677000682D09D04C2D39D06A2D35D0742D35D0E7
:106780007A2D33D016E038E0E1682F46204688475E
:10679000B842054609D16C2F26D04FF48060E168DD
:1067A000064320468847054604E06C2F1AD04FF474
:1067B000807006430DB3A5F14100192802D8203599
:1067C00046F400664A462946204626604E46FFF7B4
:1067D00009FD80B101280BD0F61D26F0070000F15D
:1067E000080956E74020E4E78020D8E70020D6E7F4
:1067F00006F104094DE7284652E7206ABDE8F09FFC
:10680000C852000070B5064600F07EF904680546DF
:1068100030460A22002100F05DFA2C6070BD40EA8B
:106820000103024630B59B0710D14FF0013400E060
:1068300008C208C91D1B9D4315EAC41FF8D013F0F8
:10684000FF0102F8011B0DD01B0AF8E711F8013B0C
:10685000002B02F8013B05D011F8013B002B02F898
:10686000013BF3D130BD10B5431C02E010F8011B11
:1068700071B18107FAD14FF0013202C88C1A8C43F2
:1068800014EAC211F9D0C01A0A0603D0C01E10BD06
:10689000C01A10BD0A0401D0801E10BD0902FCD030
:1068A000401E10BD032A40F2308010F0030C00F0AF
:1068B000158011F8013BBCF1020F624498BF11F83A
:1068C00001CB00F8013B38BF11F8013BA2F10402F3
:1068D00098BF00F801CB38BF00F8013B11F003036B
:1068E00000F06780083AC0F0088051F8043B083A8D
:1068F00051F804CBA0E80810F5E7121D5CBF51F871
:10690000043B40F8043BAFF30080D20724BF11F8EA
:10691000013B11F801CB48BF11F8012B24BF00F84F
:10692000013B00F801CB48BF00F8012B7047431A28
:1069300028BF9A427FF6B6AF032A1044114440F2B2
:10694000268010F0030F1EBF11F8013D521E00F803
:10695000013D10F0030F7FF4F6AF11F0030300F0D8
:106960002482083AC0F00B8051F8043D083A51F8EF
:1069700004CD40F8043D40F804CDFFF7F3BF121DED
:106980005CBF51F8043D40F8043DAFF30080D207EE
:1069900024BF11F8013D11F801CD48BF11F8012CB9
:1069A00024BF00F8013D00F801CD48BF00F8012CDC
:1069B000704710B5203AC0F00B80B1E81850203A6B
:1069C000A0E81850B1E81850A0E81850BFF4F5AF8F
:1069D0005FEA027C24BFB1E81850A0E8185044BF19
:1069E00018C918C0BDE810405FEA827C24BF51F886
:1069F000043B40F8043B08BF7047D20728BF31F87A
:106A0000023B48BF11F8012B28BF20F8023B48BFCA
:106A100000F8012B70474FF000020429C0F01280EB
:106A200010F0030C00F0ED81CCF1040CBCF1020F6E
:106A300018BF00F8012BA8BF20F8022BA1EB0C0116
:106A400000F0DFB95FEAC17C24BF00F8012B00F839
:106A5000012B48BF00F8012B704700004FF0013CAC
:106A600050F8042B51F8043B9A4221D1A2EB0C03BD
:106A7000934313EACC1317D150F8042B51F8043B7D
:106A80009A4215D1A2EB0C03934313EACC130BD11A
:106A900050F8042B51F8043B9A4209D1A2EB0C03A5
:106AA000934313EACC13DBD04FF00000704700BFD4
:106AB000D01A01BAB1FA81F101F0180122FA01F0FD
:106AC000CB40C1F12001DBB2C0B2C01A2CFA01F3F5
:106AD000D11A914311EAC311E6D17047704770474C
:106AE0007047000070B5064C7C44064D7D4403E0C1
:106AF000206820448047241DAC42F9D170BD0000BD
:106B0000DC500000F4500000004870471886002058
:106B10002DE9F0470D4699469246044600F12408B7
:106B20000168880604D5E06921F01001216000E0C9
:106B30000120A84201DD471B00E00027A1697A1966
:106B400002EB0900081AA0612078C00602D4204692
:106B5000FFF702FC002608E0D4E901211AF806003C
:106B60009047206A401C761C20624E45F4DB20785A
:106B7000C0060AD52046FFF7EFFB06E0D4E9012165
:106B800030209047206A401C2062381EA7F1010780
:106B9000F4DC07E0D4E9012118F805009047206AE9
:106BA000401C2062281EA5F10105F3DC2046FFF7FA
:106BB000E9FB2078000602D50220BDE8F08701201D
:106BC000FBE7000001694A1C02610878704700B5C4
:106BD0008FB0CDE901310021059105497944CDE916
:106BE000031011466846FFF749FD0FB000BD0000D5
:106BF000E5FFFFFF0A6802F8010B0A60704710B555
:106C0000436913B1AFF3008001E0FFF7DEFB012021
:106C100010BD127800F124010A7000224A7001228E
:106C2000EDE711684FF0FF32E9E710B5436913B1A2
:106C3000AFF3008001E0FFF741FC012010BD128896
:106C400000F1240182840022C2840122EDE7116850
:106C50004FF0FF32E9E700002DE9F0418046D21DF8
:106C600022F007020025D2E90002F52915A614D06A
:106C7000011E72F1000106DA0023D0EB030063EB82
:106C8000020211A608E0D8F800108B0701D50FA664
:106C900002E0490701D50EA601251146002408F19E
:106CA000240704E000F0DEF830323A55641C50EA64
:106CB0000102F7D12B46324621464046BDE8F0415D
:106CC000FFF726BF000000002D0000002B00000091
:106CD000200000002DE9F04791460F46804604460B
:106CE000002614F8015B2DB100F0B4F80068405D97
:106CF000C007F6D12B2D02D02D2D18D0641E4A4688
:106D00003946204600F002FB27B13968A14201D183
:106D1000C7F800804FF0020471050BD540420028EF
:106D200003DDFFF7F1FE0460A007BDE8F08746F43D
:106D30008066E4E70028F8DAFFF7E6FE04606FF00B
:106D40000040F2E770B516460C46054600F082F8A2
:106D5000036893F80101012806D0FF2C0FD8185DB5
:106D600068B101202C7070BDD3F80701324621466E
:106D700003F2071303442846BDE8704018474FF05C
:106D8000FF3070BD431A28BF9A427FF612AE1044FE
:106D900010F0030F11441EBF11F8013D521E00F800
:106DA000013D10F0030F7FF4F6AF103AC0F00A80F7
:106DB00010B531E91850103A20E91850BFF4F9AF76
:106DC000BDE81040530724BF31E9081020E908103E
:106DD00044BF51F8043D40F8043D12F0030F08BFD2
:106DE0007047D20728BF31F8023D48BF11F8012C87
:106DF00028BF20F8023D48BF00F8012C70474FF033
:106E0000000200B5134694469646203922BFA0E8FA
:106E10000C50A0E80C50B1F12001BFF4F7AF090706
:106E200028BFA0E80C5048BF0CC05DF804EB8900F7
:106E300028BF40F8042B08BF704748BF20F8022B3A
:106E400011F0804F18BF00F8012B704700487047C1
:106E50001886002010B500F0CDFA001D10BD00BF4F
:106E6000F948000030B5B0F10A024FEA900E71F116
:106E700000034EEA817EB0EB0E0061EB91014FEA18
:106E8000101E4EEA017E10EB0E0041EB11114FEA8D
:106E9000102E4EEA016E10EB0E0041EB11214FEA6D
:106EA000104E4EEA014E10EB0E0041EB114140181E
:106EB00041F100014FEAD00040EA41704FEAD101B0
:106EC00010EB80054FEA810444EA907444EB01041E
:106ED0006D1944EB0404521BA3414FF0000348BF5B
:106EE0000A3200D530BD401C41F1000130BD704771
:106EF0002DE9FF4F0C461E464FF0FF378BB0D2E90D
:106F00000001DDF860800A908A46C1F30A5505B990
:106F10003D46002108464FF00000BAF1000F00F492
:106F2000400005DA00EB80004FF4400101EA500018
:106F30004FEA9059B9F1010F00DDB9460A9850EABD
:106F40004A000ED044F61050A5F2FF3545432F14E9
:106F5000B8F1000F1ED07542291E1EDDC9F10002D6
:106F60001CE0B8F1010F4FF0000001D0302103E028
:106F7000F24305E02154401CB042FBDB30460022C6
:106F8000002121540B99C1F80880C1E900200FB0FD
:106F9000BDE8F08FBD1B6D1CDEE74A4600DA694292
:106FA00006A800F079FA06AB93E8070003AB83E884
:106FB000070050460A9900F0F2FA8DE80700A0F5A4
:106FC00000501F3800900398002D0ADD42F21F0187
:106FD0004A460844002303A90390684600F05BFD7D
:106FE00009E0A0F500504A461F38002303A903908A
:106FF000684600F065FD8DE807000004000C03D032
:107000004FF0FF30410800E01046B8F1000F03D008
:107010000022009215461EE0751E05D4FFF722FFE0
:10702000303262556D1EF9D5B3460122084302D0B5
:1070300000227F1C04E02078302801D100227F1E2E
:10704000002A099784D01DE0112D07DAFFF70AFF07
:10705000303262556D1C50EA0102F5D1084302D06E
:107060000098C8B10EE00021681E05E0235C625C58
:1070700063542254401E491C8142F7DBAB46A81BD7
:10708000401E0990002004F80B000B98099AC0F8E4
:107090000880C0E9002B7AE711264FF0000857E777
:1070A0002DE9F04F88460446D21D22F0070191B029
:1070B000D1E90001CDE90A0102F093FE02460B98E6
:1070C000C00F01D02D2007E02068810701D52B20BB
:1070D00002E0202101EAC000032A099001D0072A1A
:1070E00005DB03464146204600F088F90BE1207895
:1070F000800601D5E06900E00620B8F1650F814601
:1071000006D0B8F1660F18D0B8F1670F70D131E032
:107110000020B9F1110F009001DB112301E009F10A
:1071200001030AAA01A90CA8FFF7E2FEDDE90C7031
:10713000002609F10105834647E001204B460090F7
:107140004FF000470AAA01A90CA8FFF7D1FEDDE91C
:107150000DB00C995D46002610B909F101000D181B
:10716000B9EB050003D4C0F1FF3609F10105A5EB29
:1071700009002BE0B9F1010F01DA4FF001090020FD
:10718000B9F1110F0090484601DD112300E00346DC
:107190000AAA01A90CA8FFF7ABFEDDE90C704D4669
:1071A00000268346207800070AD4AB4500DA5D4606
:1071B00001A8012D04DD411911F8011C302907D067
:1071C0004F4502DA17F1040F04DA012082460FE07E
:1071D0006D1EEEE7002F02DCED1B3E4403E0781C41
:1071E000A84200DD7D1CB81B00F1010A4FF00047EA
:1071F0002078000703D4AA4501DB4FF0FF3A0021B5
:10720000B7F1004F0DF143088DF8431024D0022050
:107210002B23002F01DA7F422D230A21021EA0F129
:10722000010000DC5FB197FBF1FC97FBF1F201FB81
:107230001C7C17460CF1300C08F801CDEEE7A8F1E4
:10724000010003702188090501D5452100E0652171
:10725000A0F1010800F8011C09980FA9A1EB08078B
:10726000FF1D00B10120411901EBEA70A16938440A
:10727000081A401EA0612078C00602D42046FFF7FD
:107280006BF8099828B1D4E901219047206A401C85
:1072900020622078C00622D52046FFF75DF81EE068
:1072A000002E04DBB34502DD01A8805D00E0302044
:1072B000D4E901219047206A401C2062761CAAF183
:1072C00001005FEA000A0AD100F094F8C068016882
:1072D000405CD4E901219047206A401C2062281EAE
:1072E000A5F10105DCDC07E0D4E9012118F8010B68
:1072F0009047206A401C2062381EA7F10107F3DC8A
:107300002046FFF73FF8032011B041E62DE9F05F7A
:10731000824615468B4600270AF10104B9460078DB
:10732000302801D09DB113E014F8010B0127782813
:1073300003D0582801D045B10AE00DB1102D07D176
:10734000002714F8010B102502E0082500E00A25AB
:107350000026B0460EE005FB080005FB06F10127FC
:107360001FFA80F801EB1046B6F5803F00D3B9460E
:1073700014F8010B294600F081F80028EBDABBF184
:10738000000F05D00FB1641E00E05446CBF800405A
:10739000B9F1000F06D0FFF7B7FB02210160C81E4C
:1073A000BDE8F09F48EA0640FAE77546FFF74EFD54
:1073B000AE4605006946534620F00700854618B0E2
:1073C00020B5FEF78FFFBDE820404FF000064FF0DC
:1073D00000074FF000084FF0000B21F00701AC460A
:1073E000ACE8C009ACE8C009ACE8C009ACE8C00929
:1073F0008D46704700487047388600202DE9F041DF
:107400001F46044603260168072A01F4006004DBD6
:1074100008B116A505E016A503E008B115A500E022
:1074200015A521F010002060A069C01EA0610FB159
:10743000401EA0612046FEF78FFF4FB1D4E9012125
:1074400038469047206A401C2062C01C206206E03B
:10745000206AFAE7D4E9012115F8010B9047761E5E
:10746000F8D22046FEF78EFFBDE8F0814E414E0077
:107470006E616E00494E4600696E66003A2800D281
:10748000303820F02002412A01D3A2F1370088428F
:1074900001D34FF0FF3070472DE9F0478146164683
:1074A0008AB0354878440DC88DE80D0032487844DC
:1074B000801C03AC0DC884E80D0041F69B300844E5
:1074C000372190FBF1F290FBF1F5A5F1800501FB6E
:1074D00012041B3C02D56442012000E00020DFF8CA
:1074E00098A080460027FA44AAF1BE0A0EE0E00701
:1074F0000AD03246684607EB470101230AEB8101B7
:1075000000F0DEFA8DE8070064107F1C002CEED13D
:10751000194F7F44AE3F19E0E80715D007EB041080
:107520000DF1180A90E80E008AE80E00C068F042DB
:1075300001D1981908903246012306A903A800F04A
:10754000BFFA03AB83E807006D10641C002DE3D184
:107550004FF0010332466946B8F1000F03A802D08C
:1075600000F099FA01E000F0ABFAC9E90001C9F8AE
:1075700008200AB0BDE8F0874045000010B5044679
:10758000AFF300802046BDE81040FEF792BE000039
:1075900001491820ABBEFEE72600020070475FEAF3
:1075A000400C08BF91F0000F4FEA8C234FEAC12234
:1075B00043EA51514FEA1C5018BF00F5F0404FEA22
:1075C000300018BF41F000415FEA6C5C00F0298098
:1075D000BCF1FF3F08BF40F080407047130C06BF6E
:1075E00012044FF0100C4FF0000C130E04BF1202E7
:1075F0000CF1080C130F04BF12010CF1040C930FD3
:1076000004BF92000CF1020CD30F04BF52000CF126
:10761000010C11464FF00002A0F11F00A0EB0C007E
:10762000704711F0004F08BF704731F000413FF440
:10763000D5AF0B0C06BF09044FF0100C4FF0000C37
:107640000B0E04BF09020CF1080C0B0F04BF09015B
:107650000CF1040C8B0F04BF89000CF1020CCB0F52
:1076600004BF49000CF1010CCCF12003A0EB0C008D
:1076700022FA03F302FA0CF241EA030100F10100DD
:10768000704720F07F4C80EA030023F07F47ACEB8B
:10769000070303F57C5300F0004003F1FF032DE9DD
:1076A00080494FEA154B09B44FEA144325EA0B4EC3
:1076B00024EA03480FF2042606EB132749083E7814
:1076C0005FEA320203FB0667C7F5000707FB06F611
:1076D0004FEA54374FEAD64606F1020607FB066C1E
:1076E000CCF1005C4FEA1C472CEA074C07FB06F480
:1076F0000CFB06F504EB15464FEA961634BF002046
:107700004FF000404FEAD13706FB07FC4FEA1C4C14
:107710000CFB0BF7D21B03FB0CF761EB07010CFB17
:107720000EF7B0EB074072EB17420CFB08F734BFC3
:10773000A2EB0742B2EB074261EB17414FEA0C4460
:107740004FEA910706FB07FC4FEA1C4C0CFB0BF7BA
:10775000B0EBC74072EB573203FB0CF734BFA2EB20
:10776000C742B2EBC74261EB57310CFB0EF7B0EBEF
:10777000C70072EB57720CFB08F734BFA2EBC702CD
:10778000B2EBC70261EB5771039F4FEA816141EA97
:10779000921104EBCC044FEAD1374FEA826206FB28
:1077A00007FC42EA90124FEA80604FEA1C4C0CFB47
:1077B0000BF7D21B03FB0CF761EB07010CFB0EF779
:1077C000B0EB074072EB17420CFB08F734BFA2EB9B
:1077D0000742B2EB074261EB17414FEA8C554FEA83
:1077E000910704EB9C2406FB07FC4FEA1C4C0CFBA6
:1077F0000BF7B0EBC74072EB573203FB0CF734BF0B
:10780000A2EBC742B2EBC74261EB57310CFB0EF75C
:10781000B0EBC70072EB57720CFB08F734BFA2EB5A
:10782000C702B2EBC70261EB577115EB4C254FEA6B
:10783000816141EA92114FEA82624FEAD13742EA0E
:10784000901206FB07FC44F100044FEA80604FEA07
:107850001C4C0CFB0BF7D21B03FB0CF761EB070175
:107860000CFB0EF7B0EB074072EB17420CFB08F76E
:1078700034BFA2EB0742B2EB074261EB174115EBB5
:107880001C154FEA813141EA92414FEA823242EAC5
:1078900090424FEA80304FEA0C7644F1000448EA07
:1078A00003434EEA0B484FF0000EB2EB080C71EBAD
:1078B000030724BF624639464EEB0E0E4FF0000B15
:1078C0000018524149414BEB0B0BB2EB080C71EB2A
:1078D00003077BF1000B24BF624639464EEB0E0EC8
:1078E0004FF0000B0018524149414BEB0B0BB2EB30
:1078F000080C71EB03077BF1000B24BF624639468D
:107900004EEB0E0E51EA020718BF46F0010616EBC9
:107910000E7655F1000254F1000103D5BDE889014E
:10792000BDE80088BDE88901BDE80048B6195241AC
:1079300041EB0101A3F10103704780807F7E7D7CD4
:107940007B7A7978777676757473727171706F6EF1
:107950006E6D6C6C6B6A6A6968686766666564649C
:10796000636362616160605F5F5E5E5D5D5C5C5B26
:107970005B5A5A5959585857575656555555545495
:10798000535352525251515050504F4F4F4E4E4DF3
:107990004D4D4C4C4C4B4B4B4A4A4A49494948483F
:1079A000484747474746464645454544444444437F
:1079B00043434342424242414141002B9C4630D422
:1079C00077002BD01CB54FEA370703B44FF01000F7
:1079D0004FF01001BAF1000F06D0BCF1000FDCBF70
:1079E00040F0080040F008014FF000000FBCBDE877
:1079F00010400BF1010BBBF1010F08BF5FEA170745
:107A000022BF12F1010211F101014FF0004143F1D7
:107A1000000300F0004043EA00007047F9D3570824
:107A2000D0E746EA064613F1400F4FEA16461FDD3F
:107A300013F1200FDFBF16430A46002120335B42BB
:107A4000BED0C3F1200746EA064602FA07F74FEA1E
:107A5000164646EA0706C3F1200722FA03F201FAA6
:107A600007F721FA03F14FF0000342EA0702A7E704
:107A700046EA020646EA06464FEA164646EA010686
:107A8000BCBF46EA0646360C4FF000034FF000023A
:107A90004FF0000194E72DE9804C9A46934670B46C
:107AA00091E8380007C831EA400C48BF34EA430C7B
:107AB00003D5FFF7E6FDFFF780FFF0BCBDE8008CC3
:107AC0002DE9804C9A46934670B491E8380007C877
:107AD00010F0804F08BF13F0804F03D100F005F87D
:107AE000FFF76BFFF0BCBDE8008C20F07F4780EA19
:107AF000030023F07F4C07EB0C03A3F57C5300F04D
:107B00000040A3F1FE0392F0000F00F0B38095F067
:107B1000000F00F077802DE901494FEA11404FEA4C
:107B2000144621EA004800FB06FC24EA064708FB4D
:107B300006F607FB08F800FB07F718EB06484CEBC6
:107B4000164C4FEA124B18EB07484FEA15464CEB20
:107B5000174022EA0B4E0BFB06FC25EA06470EFBFC
:107B600006F607FB0EFE0BFB07F71EEB064E4CEB73
:107B7000164C4FF000061EEB074E4CEB174B18EB64
:107B80000B0840F1000018EB0E0B58EB000840F119
:107B900000008F1A4FF000013CBFC943661B14BFA1
:107BA000B5EB040C00213CBFC943F61B4FEA174458
:107BB0004EEA8E0E27EA04454FEA1C4704FB076293
:107BC0002CEA074C05FB07F70CFB05F604FB0CFC45
:107BD00016EB074642EB174216EB0C4642EB1C42F3
:107BE0001BEB060658EB0202414146EA9E0601D510
:107BF000BDE80189B619524141EB0101A3F101032E
:107C0000BDE801894FEA14454FEA114724EA0546C9
:107C100021EA074C05FB07F406FB07F70CFB06F10E
:107C200005FB0CFC11EB074144EB17444FEA1247EC
:107C300011EB0C4144EB1C4422EA074C05FB07F214
:107C400006FB07F70CFB06F605FB0CFC16EB0746DC
:107C500042EB174216EB0C4642EB1C456A1854F1F6
:107C6000000148BF7047B619524141EB0101A3F131
:107C70000103704795F0000F37D04FEA11424FEAE9
:107C8000144721EA024624EA074C02FB07F106FBEF
:107C900007F70CFB06F402FB0CFC14EB074441EB6A
:107CA00017414FEA154714EB0C4441EB1C4125EA00
:107CB000074C02FB07F506FB07F70CFB06F602FB79
:107CC0000CFC16EB074645EB174516EB0C4645EB4F
:107CD0001C42121951F1000148BF7047B6195241B8
:107CE00041EB0101A3F1010370474FEA14454FEA4C
:107CF000114724EA054621EA074C05FB07F106FB7C
:107D000007F70CFB06F24FF0000605FB0CFC12EB2C
:107D1000074241EB174112EB0C4251EB1C4148BFAB
:107D20007047921841EB0101A3F10103704710B5B0
:107D300004460021204601F0EDF910BD10B501F018
:107D400031FB0221034802F001FB0421014802F04B
:107D5000FDFA10BD0024014000BFFEE7704700BFE0
:107D6000FEE700BFFEE770477047704710B5044854
:107D70000068401C0249086000F098F810BD00003F
:107D80000800002008B52648006840F47000244927
:107D900008602448006840F001002249086000BFE4
:107DA0002048006800F002000028F9D000BF1D48FC
:107DB000406840F080001B4948600020009002E0CD
:107DC0000098401C009000985028F9D3154840684E
:107DD00040F09000134948600020009002E00098B5
:107DE000401C009000985028F9D300BF0D4840680F
:107DF00020F003000B494860084600680A49084023
:107E0000084908604FF41F0088600846006820F4A5
:107E10008020086000204860C86200F067F808BD54
:107E200088ED00E000100240FFFFF6FE10B50749A4
:107E30000748006803F047FC38B10548006803F0C4
:107E4000BDFBC4B2204600F0D1FA10BD0503050009
:107E50000CB9020800BFFEE77047000010B51248D9
:107E600000684FF47A71B0FBF1F4601EB0F1807FCE
:107E700001D301200FE0601E4FF0E02148610F2187
:107E80004FF0FF3000F01EF800204FF0E021886135
:107E900007200861002008B100BFFEE70021481E4E
:107EA00000F010F810BD0000180000200448006821
:107EB00020B103480068401E014908607047000077
:107EC0007C01002010B5002807DA0A07140E054AC5
:107ED00000F00F031B1FD45403E00A07130E024ADD
:107EE000135410BD18ED00E000E400E010B500F000
:107EF00001F810BD002000213E4A126842F4803291
:107F00003C4B1A6000BF401C3A4A126802F4003130
:107F100019B94FF6FF729042F5D1364A126802F451
:107F200000320AB900BFFEE7324AD26942F08052FD
:107F3000304BDA61304A126842F440422E4B1A60EC
:107F40002C4A52682B4B5A601A4652685A601A469D
:107F5000526842F480625A601A46526822F44032F3
:107F60005A601A46526842F440325A601A465268C1
:107F7000224B1A401F4B5A601A46526842F0006268
:107F80005A601A46126842F080721A6000BF194A9D
:107F9000126802F00072002AF9D0174A126842F4FF
:107FA0008032154B1A6000BF134A526802F48032C7
:107FB000002AF9D0104A126842F400320E4B1A60BF
:107FC00000BF0D4A526802F40032002AF9D0094A73
:107FD000526822F00302074B5A601A46526842F078
:107FE00002025A6000BF034A526802F00802002AE7
:107FF000F9D070470010024000700040FFFFC3B787
:1080000002460120034B9A4202D1042900DD0020E0
:1080100070470000000402400349086000BF0249A5
:1080200009680029FBD170477C01002010B5044687
:10803000002016E0002204F13C0141F820209FEDD1
:108040000D0A211D01EBC00181ED000A9FED090A17
:10805000211D01EBC00181ED010A04F138010A5430
:10806000401C0328E6DB00F0E7FD21680844A0641B
:1080700010BD00000000000070B504460D462560EC
:10808000201D00F0E7F8041F04F1200000F0E2F8E2
:10809000A0F120042046FFF7C9FF204670BD000074
:1080A0002DE9F04107460D460DB9BDE8F0811F49A5
:1080B0001F4A126888182A463946FEF7F3FB1C4807
:1080C000006828441A4908600868C11700EB9171DC
:1080D0008910A0EB810141B915480168134800F0EF
:1080E0006DF80020124908601EE01148006803285E
:1080F0001ADD0F48046800E0641EE11704EB91717B
:108100008910A4EB81010029F6D109480068061BFB
:108110002146064800F052F8044801193246FEF79D
:1081200006FC0348066000BF00BFBEE7180200203F
:108130001400002010B50E480068C0B108E0FF210F
:108140000B4802680068401C094B186009488154BC
:1081500007490868C11700EB91718910A0EB8101F4
:108160000029ECD102480168024800F027F810BD50
:10817000140000201802002070B50B4804684FF06E
:10818000006000F033F8094D05E040212846FFF774
:1081900087FF4035403C402CF7DA1CB12146284689
:1081A000FFF77EFF70BD00000C00002000300108CA
:1081B00001480068704700000C00002070B50546BB
:1081C0000C46224629460748006801F06EF905482A
:1081D00000682044034908600348006820440249BD
:1081E000086070BD100000200C0000202DE9F04157
:1081F00005462627A5F10060C60A002407E03019CD
:1082000001F01AF910B9301901F02AF9641C262C72
:10821000F5DB044805600020034908600349086055
:10822000BDE8F081100000200C00002014000020A8
:1082300070B500F001FA4FF0006528464468014629
:108240000868FEF73DF80021284602F0D3FDA0475C
:1082500070BD000010B504460323082202492046E1
:1082600001F0D7FD044610BDF982020810B504469E
:10827000204600F0DDFC044600202072204610BDA0
:1082800070B504460D46164625606660032204213B
:10829000D4E9000302F0C6FB70BD0021016041601B
:1082A000704770B504460D46164625606660032289
:1082B0001821D4E9000302F0B5FB70BD0021016074
:1082C000416070470146024A08681268101A7047F8
:1082D00008000020034909680160024909684160FB
:1082E000704700000800002010B504462046FFF744
:1082F000F1FF204610BD00009FED040A80ED000A4A
:108300009FED020A80ED010A7047000000000000A6
:1083100010B5184801F064FC50B1402216491748C6
:10832000FFF7BFFF802214491548FFF7A9FF09E0B6
:10833000202214491148FFF7B4FF40221149104888
:10834000FFF79EFF0121082002F0D2FB0E480068D3
:1083500003F03EF94FF4E1310B48006803F0E6F812
:1083600008210948006803F0E4F90748006803F0B1
:108370007CF910BD15020020000C01403C000020DB
:10838000440000200014014010B9020870B50546F1
:108390002846FEF768FA064600240DE0295D1148DC
:1083A000006803F010F900BF07210E48006803F0D1
:1083B00061F90028F8D0641CB442EFDB00240EE021
:1083C0000948015D0748006803F0FDF800BF072178
:1083D0000448006803F04EF90028F8D0641C022C11
:1083E000EEDB70BD10B9020820B9020810B50446D2
:1083F000204600F081F910BD10B54FF48062274986
:108400002748FFF74EFF4FF4006224492548FFF745
:1084100037FF00221146342002F080FC3420002176
:10842000002807DA0A07140E1F4A00F00F031B1F6B
:10843000D45403E00A07130E1C4A135400BF1C480F
:10844000006803F0C5F84FF4E1311948006803F003
:108450006DF800211648006803F051F90021144816
:10846000006803F070F900211148006803F059F921
:1084700004210F48006803F04AF908210C480068FD
:1084800003F057F940F205310948006803F00EF98E
:108490000748006803F0E9F810BD00000010014033
:1084A0002C0000203400002018ED00E000E400E083
:1084B0000CB9020810B51348006803F0D1F840F277
:1084C00005311048006803F0E4F80E48006803F036
:1084D0007FF8342002F016FC4FF480630422102150
:1084E000094802F09FFA4FF4006304221021064865
:1084F00002F098FA4FF480600349486140004861F7
:1085000010BD00000CB902080010014070B504460F
:108510002046FEF7A8F905462946204600F002F855
:1085200070BD00002DE9F04104460D4626460027A7
:108530000EE016F8011B0848006803F044F800BF7D
:1085400007210548006803F095F80028F8D07F1C43
:10855000AF42EEDBBDE8F0810CB9020810B5FFF7C1
:108560007DFC4FF4C06002F03BFC40F2026002F080
:108570004DFD40F2036002F049FD40F2046002F05C
:1085800045FD40F2056002F041FD40F2066002F058
:108590003DFD40F2076002F039FD40F2096002F053
:1085A00035FD4FF4A06002F031FD40F2157002F08D
:1085B0002DFD40F2167002F029FD40F20F7002F01E
:1085C00025FD40F20B6002F021FD40F2117002F037
:1085D0001DFD40F2137002F019FD4FF4C06002F06F
:1085E00015FD4FF4E06002F011FD40F2047002F05E
:1085F0000DFD0F48406A0F49086040F61D1002F05B
:10860000F3FC08B102F038FC40F20B7002F0FEFC03
:1086100000F0D0FE00F080FDFFF7EEFE01F00EFA54
:1086200001F0D4F901F0FEFAFFF772FE10BD000070
:10863000001002400400002010B5FFF73BFF00F0DF
:1086400093FE10BD7047000010B54FF40051034871
:10865000FEF7E1F900200249086010BD7006002015
:10866000F80100200FB410B5ADF5027D85A841904A
:1086700042A8419A8499FDF747FE0020419042A804
:10868000FEF7F1F8441C0E480068204441F69C7146
:10869000884201DBFFF7D8FF0A4802680068401CE7
:1086A000084B186042AB08A101A8FDF73FFE01A8E6
:1086B000FFF76CFE0DF5027D10BC5DF814FB0000A9
:1086C000F8010020FC0100202564203A20257300D9
:1086D000F0B502460B4600201446002509E001468D
:1086E00014F8016B06EB811707EB01477F1A384638
:1086F0006D1C9D42F3DBF0BD70B5044600F018FF21
:1087000018B1204600F00EFF70BD04B9FCE700BFB1
:1087100016480078F8B9164803F0ECF890B1144800
:1087200003F0E8F80646124800F108010D4632460B
:108730000E4803F04FF810B90C4803F047F80C4806
:1087400003F044F82146094803F064F858B9074893
:1087500003F03CF807E02146054803F05BF810B948
:10876000034803F033F800BFCEE7000058030020B1
:108770006004002070B5284801F032FA10B14FF4BF
:10878000805000E004200446234801F029FA08B193
:10879000224800E02248054622462946214800F0AA
:1087A00029FB204800F01EFB1B4801F019FA10B10C
:1087B0004FF4006000E001200446174801F010FA71
:1087C00008B1164800E016480546224629461648D4
:1087D00000F010FB144800F009FB0F4801F000FA0C
:1087E00010B14FF4806000E0022004460A4801F016
:1087F000F7F908B1094800E0094805462823224650
:1088000029460A4800F0F8F9084800F005FAFFF791
:10881000F3FDFFF74FFE70BD150200200008014078
:10882000001401404C000020540000205C00002097
:108830000149087070470000E801002010B500F001
:1088400007F8044604230322282102F0EBF810BDA8
:1088500010B5044801F0C4F908B1034810BD03483D
:10886000FCE7000015020020001401400018014040
:1088700010B5FFF7EDFF044604230322102102F098
:10888000D1F8FFF7E5FF0421416110BD10B5FFF7F6
:10889000DFFF0446042102F023F9012800D110BDB6
:1088A0000020FCE770B592B000BF01204449087079
:1088B00000BF084603F01EF810B3002408E021466C
:1088C0003F4802F0C7FF05782846FFF7BBFE641C4F
:1088D0003B4803F00FF8A042F1DC394803F00AF8F6
:1088E0000546374800F108010C462A46354802F093
:1088F00071FF10B9334802F069FF314802F066FF9A
:1089000000BF00202E49087000BF2E4802F0F2FF81
:1089100018B92DA000F0F8FA50E06C46204600F09F
:1089200055F904460020606000BF002600BF00BF6C
:108930000020019000BF002600242DE021462148A0
:1089400002F088FF05780A2D00D124E00D2D0DD10D
:1089500000BF019800B91EE00021684602F08CFFBC
:108960000126611C174802F023FF1AE03E2D0DD1AD
:108970003E21684602F080FF0021684602F07CFF3D
:108980000126611C0F4802F013FF0AE029466846E1
:1089900002F072FF00BF641C0A4802F0ABFFA04265
:1089A000CCDC1EB1684600F1080100E006A10C46CF
:1089B000204600F0A9FA002EB9D100BF12B070BD58
:1089C00058030020680500200000000070B55748DB
:1089D000007800F0010058B9544801F02CFA38B181
:1089E000534C2046FFF776FC00BF5048AFF30080A1
:1089F00000BF50480078072815D2DFE800F00415C2
:108A00002B5C6C7D92004CA0FFF72CFE00F06AFA04
:108A10004E4800F0E7F9FFF72BFF0120FFF708FFB2
:108A20004348FFF757FC7FE049A0FFF71BFE404893
:108A3000FFF748FC40F6B83188420AD9FFF7FEFE3E
:108A4000424800F0D3F90220FFF7F2FE3848FFF762
:108A500041FC69E047A0FFF705FEFFF717FFF0B103
:108A60003348FFF737FC0320FFF7E2FE494801F0E7
:108A7000B7F810B14FF4806000E00220044645488A
:108A800001F0AEF808B1444800E044480546282308
:108A900022462946424800F0AFF8FFF7ADFC2448D3
:108AA000FFF710FC642805D93EA0FFF7DBFD00208E
:108AB000FFF7BEFE38E01E48FFF704FCB0F5FA7F72
:108AC00008D9414800F092F91948FFF703FC042047
:108AD000FFF7AEFE28E01648FFF7F4FB40F2E24154
:108AE000884208D9384800F07DF91148FFF7F2FBB9
:108AF0000520FFF79DFE17E0294800F06AF828B12D
:108B00000620FFF795FE0A48FFF7E4FB0848FFF749
:108B1000D9FB41F28831884202D90020FFF788FE54
:108B200002E0FFF7BFFE00BF00BF70BDEC010020F8
:108B3000F0010020E80100204D6F64656D203A20AF
:108B400053746174653A3A49444C45004C00002026
:108B50004D6F64656D203A2053746174653A3A57DD
:108B60004149545F4449534348415247455F43415B
:108B7000505300004D6F64656D203A20537461744A
:108B8000653A3A574149545F48495F47534D5F50F2
:108B900047000000150200200008014000140140B9
:108BA0005C000020212121204552524F52202121DA
:108BB0002120526573657420746F2073746174652D
:108BC0002069646C650000005400002000210170E1
:108BD000704710B50446204600F003F880F001000D
:108BE00010BD10B50446D4E9000101F079FF08B9C1
:108BF000012010BD0020FCE72DE9F04104460D46A0
:108C000016461F462560666003223946D4E90003F4
:108C100001F008FFBDE8F08110B5044604221021E0
:108C2000D4E9000301F0FEFED4E90010486110BD54
:108C300000210160416070470148006870470000F2
:108C40000800002010B5FFF789FCFFF793FD00F046
:108C5000E9FF10BD10B500F045F900F07BFC10BD38
:108C600010B500F0E5FFFFF7B1FE00F041FC08B1E0
:108C7000FFF7DEFA10BD00002DE9F04705460E466D
:108C800017460020387081468046012E02D14FF0F1
:108C9000FF3937E029460122087820280AD00878D1
:108CA0002C2807D008783A2804D008783D2801D02D
:108CB000012000E00020034618E00878202808D0B2
:108CC00008782C2805D008783A2802D008783D2862
:108CD00002D153B1002308E03BB9521C0123B24238
:108CE00003D1481BA0F1010905E0491CB24202DA98
:108CF00008780028E1D100BFB24202D010A0BDE840
:108D0000F08700BF09F1010805EB080402E008F153
:108D10000108641C207858B12078202808D02078D9
:108D20002C2805D020783A2802D020783D28EED192
:108D30003B4642464946284600F004F8DFE700007B
:108D4000000000002DE9F04107460D4616461C467E
:108D5000701B002805DC0AA0FFF784FC00202070AF
:108D60000BE02046691C03E07A5C00F8012B491CEB
:108D7000B142F9DB0021017000BF2046BDE8F0815F
:108D800057726F6E6720617267756D656E747300E0
:108D900010B5044604220021D4E9000301F042FE8C
:108DA00010BD0160426003727047000070B5044658
:108DB0000D46164625606660074800F011FF18B1A1
:108DC0000121022001F094FE03221C21D4E90003BA
:108DD00001F028FE70BD0000150200200021016096
:108DE00041607047D0E9002111617047D0E900214E
:108DF0005161704770B504460D46164625606660A1
:108E000003221021D4E9000301F00CFE70BD002103
:108E1000016041607047000010B504460548FFF747
:108E200051FAA04201D8012010BDFFF713FF002026
:108E3000FAE700008001002070B588B004466A4659
:108E400001212046FFF718FF05461AA12046FDF72D
:108E500005FE20B9FFF7FEFE012008B070BD17A186
:108E60002846FDF7FBFD58B96A4602212046FFF768
:108E700003FF064631461348FDF7D1FC0120ECE71D
:108E800011A12046FDF7EAFD18B9FFF7E3FE012026
:108E9000E3E710A12046FDF7E1FD08B90120DCE77A
:108EA0000EA12846FDF7DAFD08B90020D5E700201D
:108EB000D3E70000434C4F53454400002B4353512C
:108EC000000000009401002053454E4420464149D3
:108ED0004C00000053454E44204F4B002B4950445A
:108EE0000000000000200149087070478801002040
:108EF00010B50446024804700248FFF7EBF910BDB4
:108F0000880100208001002070B588B00546284601
:108F1000FFF792FF08B108B070BD42F210764948E1
:108F2000007808280FD2DFE800F0040F203142500B
:108F3000738645A000F0D6F80120FFF7D9FF44481A
:108F400044A1098801807AE042F21070FFF764FFC3
:108F500050B141A12846FDF781FD28B90220FFF755
:108F6000C7FF3EA000F0BEF869E042F21070FFF7C4
:108F700053FF50B13DA12846FDF770FD28B90320ED
:108F8000FFF7B6FF3AA000F0ADF858E042F21070DB
:108F9000FFF742FF50B130A12846FDF75FFD28B929
:108FA0000420FFF7A5FF36A000F09CF847E042F24E
:108FB0001070FFF731FF38B127A12846FDF74EFDAD
:108FC00010B90520FFF794FF39E04EF66020FFF757
:108FD00023FFE0B16A4601212846FFF74DFE044613
:108FE0002AA1FDF73BFD90B96A4602212846FFF70A
:108FF00043FE007800F00F04012C01D0052C05D1B0
:109000000620FFF775FF23A000F06CF800BF16E004
:1090100042F21070FFF700FF60B16A460321284654
:10902000FFF72AFE04461FA1FDF718FD10B907201F
:109030000449087003E0284600F092FA00BF00BF20
:1090400000BF68E78801002041544530000000005F
:1090500094010020300000004F4B000041542B4988
:1090600050523D3131353230300000005244590009
:1090700041542B47534D425553593D310000000098
:1090800041542B435245473D310000002B4352458C
:109090004700000041542B43495053544154555309
:1090A00000000000494E495449414C0030B591B090
:1090B00004460D462A46214601A8FDF737F901A8C6
:1090C00000F010F811B030BD30B591B004460D4637
:1090D0002A46214601A8FDF729F901A800F002F867
:1090E00011B030BD10B504462046FDF7BCFB022888
:1090F00003D9214604A0FFF7B5FA2046FFF706FA88
:109100000348FFF703FA10BD3E3E3E2025730000E2
:1091100023B902080180704710B58EB0022001F01B
:1091200075FE00221146122001F0F8FD8448FFF779
:109130002FFE8448FFF72CFE8348FFF729FE834863
:10914000FFF726FE8248FFF723FE8248FFF720FE46
:109150000021814801F0D0F98048079000208DF867
:1091600034007F48099001208DF8350000020890F6
:1091700080000A9000208DF8360006200B904FF4F6
:1091800000500C9007AA0021734801F0EDF900216E
:10919000714801F098F9022200216F4801F07BFA32
:1091A00000216D4801F076F947F23050ADF800002B
:1091B0001020ADF80200ADF8040040F6FF700290F8
:1091C0004FF40070ADF8060000208DF80C006946E1
:1091D000644802F053F904A802F0CFF80020ADF87B
:1091E00014000120ADF8100004AA00215D4801F030
:1091F00061FF40F6FE7200215A4802F07EF87022AC
:109200000021584802F04CF800221146554802F05F
:1092100087F80121534802F07DF9524801F044FFDC
:10922000504802F026F9002001F094F801220221B2
:109230004A484C3801F001F90122110247484C38E4
:1092400001F0FBF8002145484C3800F0FEFF0622F3
:10925000012142484C3800F0D5FF394800F0BEFDEE
:1092600004460723224600213C484C3801F080F890
:10927000344800F0B3FD0446072322460121374855
:109280004C3801F075F8304800F0A8FD044607237B
:109290002246022131484C3801F06AF82B4800F090
:1092A0009DFD04460723224603212C484C3801F03B
:1092B0005FF8274800F092FD044607232246042168
:1092C00026484C3801F054F8224800F087FD044647
:1092D00007232246052121484C3801F049F8012294
:1092E00011461E484C3800F0CEFF002201211B48D9
:1092F0004C3800F0E7FF022118484C3801F026F8FE
:10930000042116484C3801F021F8022113484C384A
:1093100001F006F811484C3800F0ACFF0120FEF7D0
:109320007BFE0E484C3800F058FF0C484C3800F0DB
:109330009CFF012109484C3801F070F80EB010BDB7
:109340005C020020680200207402002080020020DD
:109350008C02002098020020000002404C240140B2
:10936000EC020020002C014010B50B4800F078FF03
:109370000221094800F0BEFF084802F075F80748CE
:1093800002F004F80021064801F0B6F80022114668
:10939000122001F0C3FC10BD00240140002C01404C
:1093A0000000024010B5024800F074FB10BD000040
:1093B000EC02002010B51A4800F012FC10B14FF476
:1093C000807000E040200446224616491648FFF708
:1093D000EDFC134800F004FC10B14FF4007000E005
:1093E0008020044622460F491048FFF7DFFC002288
:1093F0000F491048006801F0CBFB7823002211468A
:109400000C48006801F069FC0A48006801F060FC43
:109410004FF480610748006801F0B2FB10BD000006
:1094200015020020000C01401C0000202400002038
:10943000801A060008B9020810B501464FF0006016
:1094400000EBC12303F500541A4605E01068401CE8
:1094500008B1002010BD1032A242F7D30120F9E775
:1094600010B5044601F01CFA40F2053001F080F915
:109470004FF4417001F07CF940F2023001F078F9CC
:109480004FF0006101EBC42001F098F940F2053083
:1094900001F06EF94FF4417001F06AF940F20230C8
:1094A00001F066F901F074F910BD2DE9F0410546AF
:1094B0000E46144601F0F4F900E0641CE11704EBD9
:1094C00091718910A4EB81010029F6D12F1909E0CF
:1094D0002846316801F006FA361D2D1D40F207308E
:1094E00001F046F9BD42F3D301F052F9BDE8F08135
:1094F00003480078112801D1012070470020FCE7C3
:10950000A401002010B504460548FEF7DBFEA0428A
:1095100001D2012010BDFFF79DFB0020FAE70000FB
:10952000BC01002010B50446204600F085FB10BDAC
:10953000074800780E2807D0054800780F2803D088
:1095400003480078102801D1012070470020FCE773
:10955000A40100200020014908707047A4010020E8
:1095600070B588B0044642F21075BA4800781228E7
:109570000DD2DFE800F0090D142434445464778AD6
:109580009DB0C3D4F6F5F4F30120B24908705EE152
:10959000022000F00FFAB0A0FFF7A4FD57E1B64893
:1095A000FFF7B0FF50B1B5A12046FDF757FA28B933
:1095B000032000F0FFF9B2A0FFF794FD47E1AE48A9
:1095C000FFF7A0FF50B1ADA12046FDF747FA28B93B
:1095D000042000F0EFF9B2A0FFF784FD37E1A648C0
:1095E000FFF790FF50B1A5A12046FDF737FA28B943
:1095F000052000F0DFF9B0A0FFF774FD27E19E48D9
:10960000FFF780FF50B19DA12046FDF727FA28B94A
:10961000062000F0CFF9AEA0FFF764FD17E19648F1
:10962000FFF770FF50B195A12046FDF717FA28B952
:10963000072000F0BFF9AAA0FFF754FD07E142F2AE
:109640001070FFF75FFF60B18CA12046FDF706FAAE
:1096500038B9082000F0AEF9A4480168A4A0FFF7CB
:1096600025FDF4E042F21070FFF74CFF60B183A1DA
:109670002046FDF7F3F938B9092000F09BF9A0481E
:109680000168A0A0FFF712FDE1E042F21070FFF7C1
:1096900039FF60B179A12046FDF7E0F938B90A2019
:1096A00000F088F99B4801689BA0FFF7FFFCCEE023
:1096B00042F21070FFF726FF60B170A12046FDF75F
:1096C000CDF938B90B2000F075F99748016897A0DB
:1096D000FFF7ECFCBBE042F21070FFF713FF60B144
:1096E00066A12046FDF7BAF938B90C2000F062F9FE
:1096F0009348016893A0FFF7D9FCA8E042F21070EC
:10970000FFF700FF50B15DA12046FDF7A7F928B98A
:109710000D2000F04FF990A0FFF7E4FC97E091488E
:10972000FFF7F0FE30B36A4601212046FFF7A4FAA6
:1097300006468DA1FDF792F9E0B98DA12046FDF70F
:109740008DF978B90E2000F035F900208C490860B9
:109750008C490860042000F015FB0BE076E036E051
:109760001BE008E088A12046FDF778F910B9112028
:10977000384908706BE07B48FFF7C4FE60B186484B
:10978000007848B17F488549096801600F2000F0E2
:1097900011F9042000F0F6FA59E07248FFF7B2FE22
:1097A000A0B17D48007888B17D487C490968016096
:1097B0007C48FEF71BFD102000F0FCF800F02BFAAF
:1097C000402000F0DFFA0020774908703FE065484C
:1097D000FFF798FE50B37448007840B373480168AF
:1097E0006E48FEF75DFCFEF7A5FCFEF7E1FC0646C1
:1097F00031466C48FEF76CFF614908600846006816
:109800006749096888420FD100BFFEF7B5FC3146B1
:109810004FF00060FEF75CFF614909688842F4D1AF
:1098200011200C49087001E0FFF714FA0DE05A48C6
:10983000007850B15D4801685848FEF731FC5C483B
:10984000FEF748FD402000F09DFA00E000BF00BF99
:1098500008B070BDA401002041542B534150425226
:109860003D332C312C22434F4E54595045222C224B
:109870004750525322000000084C01004F4B00009B
:1098800041542B53415042523D332C312C224150F4
:109890004E222C22696E7465726E6574220000007F
:1098A00041542B53415042523D332C312C225553BD
:1098B0004552222C2222000041542B534150425247
:1098C0003D332C312C22505744222C222200000000
:1098D00041542B53415042523D312C310000000085
:1098E00041542B4654504349443D3100A8010020C7
:1098F00041542B465450534552563D222573220065
:10990000AC01002041542B465450554E3D22257346
:1099100022000000B001002041542B465450505703
:109920003D22257322000000B401002041542B4643
:109930005450474554504154483D2225732200005D
:10994000B801002041542B4654504745544E414DD8
:10995000453D22257322000041542B465450474573
:10996000543D3100F82401002B4654504745540023
:109970002B4654504745543A20312C31000000000A
:10998000CC010020C40100202B4654504745543AD6
:1099900020312C3737000000E4010020180300209C
:1099A000C801002000300108E5010020E00100208E
:1099B000BC01002010B50446024804700248FEF7BE
:1099C00089FC10BDA4010020BC0100203EB50E4A58
:1099D00007CA8DE8070000240BE05DF8242004EBA3
:1099E00044010A4B03EB810048230949FFF704F9BE
:1099F000641C032CF1DB48234FF400720449054832
:109A0000FFF7FAF83EBD000014B90208C8020020B2
:109A100000100140740100200820014908607047CF
:109A20001014014010B5082303221021024800F051
:109A3000F9FFFFF7F1FF10BD0014014000B587B03A
:109A4000FFF7F0FF282303221821104800F0EAFF57
:109A50001023032204210D4800F0E4FF00200190B0
:109A60004FF48270009000200290022005900002C6
:109A7000039020200690002004906946044801F0DD
:109A8000FAFA034801F0F2FA07B000BD000C0140F9
:109A9000003C004038B504464748007800F001001B
:109AA00058B9454800F0C7F938B1444D2846FEF78B
:109AB00011FC00BF4048AFF300804148008810B956
:109AC0003E48FEF707FC3E48B0F90000B0F5FA6FDB
:109AD00071DA21883B4801F0E5FE054629466846D3
:109AE000FFF718FB3849364AB2F9002001EB420172
:109AF0000088088061883348183001F0D3FE05469D
:109B000029466846FFF706FB30492D4AB2F9002086
:109B100001EB420100880880A1882A48303001F01A
:109B2000C1FE054629466846FFF7F4FA2849244A4B
:109B3000B2F9002001EB420100880880E188214849
:109B4000483001F0AFFE054629466846FFF7E2FAC5
:109B500020491B4AB2F9002001EB4201008808802D
:109B600021891848603001F09DFE05462946684667
:109B7000FFF7D0FA1849124AB2F9002001EB42016E
:109B80000088088061890F48783001F08BFE054617
:109B900029466846FFF7BEFA1049094AB2F9002083
:109BA00001EB42010088088005480088401C00B293
:109BB0000349088000BF38BD080200200C020020C5
:109BC000040200201C8500205C270020FC360020B9
:109BD0009C4600203C560020DC6500207C7500205F
:109BE00010B50346184600F009F8002801DC0120F2
:109BF00000E000200446204610BD00000146014A56
:109C00001068704700F8030810B5002140F6FF7097
:109C100000F0C4FE10BD10B5062140F6FF7000F044
:109C2000BDFE10BD10B5FFF7EFFF00F0F3FE10BD55
:109C300010B500F0E7FE10BDF0B589B0044642480B
:109C40000078B0B1414801680068401C3F4A10608C
:109C50003F484454104600683E490968884270D124
:109C60000020394908703C49086001203B490870D0
:109C700067E00D2C65D00A2C5BD1374800680028BE
:109C80005FD00021344802680068401C324B1860E5
:109C90003348815401AA0121FEF7EEFF074631A1A6
:109CA0003846FCF7DBFE00283DD101AA02212C48F2
:109CB000FEF7E2FF05462878312815D101AA0321D5
:109CC0002748FEF7D9FF06463078312808D12748C3
:109CD000016827A0FFF7F8F900201F49086002E09B
:109CE0000120274908701DE0287832281AD101AADE
:109CF00003211B48FEF7C0FF06463046FCF782FDF5
:109D00001449086008460068002801DD012000E0D1
:109D100000200D4908700846007810B900200E494F
:109D2000086000BF04E00020074908700A49086085
:109D300007E0094801680068401C074A10600848AD
:109D4000445409B0F0BD0000D0010020E001002023
:109D500018030020DC010020D4010020E4010020D1
:109D6000F80200202B46545047455400D8010020EB
:109D700041542B4654504745543D322C2564000035
:109D8000E501002010B5044600F012F80348046015
:109D9000016803A0FFF798F910BD0000D80100206A
:109DA00041542B4654504745543D322C2564000005
:109DB0000020054908600549087005490860054903
:109DC0000860054908707047D4010020D0010020C8
:109DD000E0010020D8010020E40100200146087ABB
:109DE000704703B401984100009850EAC12018BFA1
:109DF00004204A0D18BF40F0010040F2FF72B2EBA0
:109E0000515F08BF40F00200012808BF052002B0E2
:109E100070472DE9F0411C4617460E00804607D0DA
:109E2000054602E02846B0473D442046641EF9D26C
:109E30004046BDE8F081016809B10020704701216A
:109E4000016008467047000010B50348FEF74CFA61
:109E50000248FEF749FA10BD800100208C01002065
:109E600010B5034C2046FEF735FA00BF10BD0000C8
:109E7000BC01002010B5002301225F495F48FEF7B6
:109E800090FF012302225C495D48FEF78AFF02230E
:109E9000042259495B48FEF784FF032308225649F0
:109EA0005948FEF77EFF0523202253495748FEF705
:109EB00078FF0723802250495548FEF772FF04239C
:109EC00010224D495348FEF76CFF062340224A49B1
:109ED0005148FEF766FF0E23102250495048FEF706
:109EE00060FF5048FEF77AFF4F48FEF777FF4F4874
:109EF000FEF7E4F94E48FEF7D0F94E48FEF7DEF9DA
:109F00004D48FEF7CAF94D48FEF781FF4C48FEF771
:109F10007EFF4C48FEF78CFE4B48FEF778FF4B481F
:109F2000FEF775FF4A48FEF772FF4A48FEF76FFFDB
:109F30004948FEF76CFF4948FEF77AFE4848FEF7AD
:109F400077FE4848FEF763FF4748FEF760FF474843
:109F5000FEF75DFF4648FEF75AFF4648FEF757FFFB
:109F60004548FEF754FF4548FEF751FF4448FEF7C9
:109F70004EFF4448FEF74BFF4348FEF748FF434877
:109F8000FEF745FF4248FEF742FF4248FEF73FFF1B
:109F90004148FEF73CFF4148FEF739FF4048FEF7D5
:109FA00036FF4048FEF733FF3F48FEF730FF3F489B
:109FB000FEF72DFF3E48FEF72AFF3E48FEF727FF3B
:109FC0003D48FEF724FF3D48FEF721FF3C48FEF7E1
:109FD0001EFF3C48FEF71BFF3B48FEF718FF3B48BF
:109FE000FEF715FF3A48FEF723FE03230C223949FA
:109FF0003948FFF70EFF10BD000801405C02002049
:10A000006802002074020020800200208C020020E0
:10A0100098020020A4020020B0020020001001409D
:10A02000BC0200201C000020240000202C00002086
:10A03000340000203C000020440000204C000020A0
:10A04000540000205C000020640000206C00002010
:10A05000740000207C000020840000208C00002080
:10A06000940000209C000020A4000020AC000020F0
:10A07000B4000020BC000020C4000020CC00002060
:10A08000D4000020DC000020E4000020EC000020D0
:10A09000F4000020FC000020040100200C0100203E
:10A0A000140100201C010020240100202C010020AC
:10A0B000340100203C010020440100204C0100201C
:10A0C000540100205C010020640100206C0100208C
:10A0D000740100206D820208C802002010B51D48DE
:10A0E000FEF7B8F81C48FEF7B5F81C48FEF7B2F8C2
:10A0F0004FF4FA6302221A491A48FFF78AFE4FF416
:10A10000FA63022216491848FFF783FE4FF4FA63F8
:10A11000022213491548FFF77CFE4FF4FA6302222E
:10A120000F491348FFF775FE4FF4FA6302220C49FA
:10A130001048FFF76EFE4FF4FA63022208490E48FA
:10A14000FFF767FE062318220C490D48FFF761FE52
:10A1500010BD0000082700202427002040270020F1
:10A160002F7D02085C270020FC3600209C46002042
:10A170003C560020DC6500207C750020EFB802080A
:10A180001C8500207047000010B541F2883104485A
:10A19000FDF772FF4EF660210248FDF76DFF10BD1E
:10A1A00070260020BC26002010B5054801F048FBB1
:10A1B000044801F045FB044801F042FB10BD0000DB
:10A1C00058030020600400206805002030380A2869
:10A1D00001D20120704700207047816841F00801DA
:10A1E000816000BF816801F008010029FAD181680F
:10A1F00041F00401816000BF816801F00401002981
:10A20000FAD1704730B5012902D002291AD10CE0E9
:10A21000C36A23F47003C362C36A541E4FF470050B
:10A2200005EA04542343C3620DE0836B23F4401317
:10A230008363836B541E4FF4401505EA0454234393
:10A24000836300E000BF00BF30BD21B1826842F4EB
:10A250000062826003E0826822F4006282607047DC
:10A26000816821F0010181607047816841F480714B
:10A2700081607047816801F0010119B9816841F07E
:10A2800001018160704772B101F001031BB1836865
:10A2900043F48013836001F0020393B1836843F4B5
:10A2A000004383600DE001F001031BB1836823F4D8
:10A2B0008013836001F002031BB1836823F4004321
:10A2C00083607047012902D0022910D107E083681A
:10A2D00023F46023836083681343836008E083680A
:10A2E00023F4E043836083681343836000E000BF8E
:10A2F00000BF704701F001021AB1426822F040022B
:10A30000426001F002021AB1426822F0200242606B
:10A3100001F004021AB1426822F0800242607047E4
:10A3200001F001021AB1426842F04002426001F0BD
:10A3300002021AB1426842F02002426001F00402B7
:10A340001AB1426842F0800242607047CA4302601C
:10A35000704700000549096821F47021034A116023
:10A360001146096801431160704700000424014050
:10A37000F0B51D4606290CD2436B01EB81071F2661
:10A38000BE40B34301EB810602FA06F63343436352
:10A3900022E00C290ED2036B8E1F06EB86071F26C8
:10A3A000BE40B3438E1F06EB860602FA06F6334321
:10A3B000036311E010290FD2C36AA1F10C0606EB6A
:10A3C00086071F26BE40B343A1F10C0606EB8606A6
:10A3D00002FA06F63343C3620A2A0CD2046902EB7E
:10A3E00042070726BE40B44302EB420605FA06F6D2
:10A3F0003443046111E0122A0FD2C468A2F10A06A4
:10A4000006EB46070726BE40B443A2F10A0606EB58
:10A41000460605FA06F63443C460F0BD01F00102B9
:10A420001AB1826842F48002826001F002021AB11D
:10A43000826842F4001282607047AAB101F480730E
:10A440001BB1436843F48073436001F480631BB124
:10A45000436843F48063436001F00203CBB1836837
:10A4600043F00203836014E001F480731BB143687E
:10A4700023F48073436001F480631BB1436823F4C9
:10A480008063436001F002031BB1836823F0020381
:10A490008360704770B505460C4621462846FDF797
:10A4A000AFFD08B900BFFEE704EB8400810005F1B1
:10A4B0000800405840F0010104EB8400820005F1DF
:10A4C0000800815070BD70B505460C4621462846EF
:10A4D000FDF796FD08B900BFFEE704EB840081009C
:10A4E00005F10800405840F0200104EB8400820090
:10A4F00005F10800815070BD70B504460D4629462F
:10A500002046FDF77DFD08B900BFFEE705EB85009D
:10A51000810004F10800405820F0010105EB85009E
:10A52000820004F108008150002105EB85008200C3
:10A5300004F10800815005EB8500820004F10C0055
:10A54000815005EB8500820004F11000815005EB7D
:10A550008500820004F1140081506068AA000F2178
:10A5600091400843606070BD2DE9F04104460D46FE
:10A57000164629462046FDF743FD08B900BFFEE711
:10A5800005EB8500820004F110003168815005EB75
:10A590008500820004F11400B1688150308A81B2D4
:10A5A00005EB8500820004F10C00815005EB85006D
:10A5B000810004F10800475827F47C57F16870685F
:10A5C000084371690843074305EB8500810004F1E6
:10A5D00008004750307E01280ED105EB8500810030
:10A5E00004F10800405840F0400105EB850082006E
:10A5F00004F1080081500DE005EB8500810004F1B5
:10A600000800405820F0400105EB8500820004F16D
:10A6100008008150707E01280ED105EB8500810075
:10A6200004F10800405840F0800105EB85008200ED
:10A6300004F1080081500DE005EB8500810004F174
:10A640000800405820F0800105EB8500820004F1ED
:10A6500008008150B07E70B905EB8500810004F1DF
:10A660000800405820F0100105EB8500820004F13D
:10A67000080081500DE005EB8500810004F1080021
:10A68000405840F0100105EB8500820004F10800FD
:10A690008150BDE8F08170B504460D461646294646
:10A6A0002046FDF7ADFC08B900BFFEE705EB8500CD
:10A6B000810004F108004058304305EB85018A0011
:10A6C00004F10801885070BD00B50346012200BFA7
:10A6D00000F00CF802465B1E012A01D1002BF7D1D5
:10A6E000012A00D10422104600BD000000200A49C2
:10A6F000C96801F0010109B101200CE00649C968EF
:10A7000001F0100109B1032005E00349C96801F017
:10A71000040101B1022070470020024000B5034649
:10A72000012200BF00F00CF802465B1E012A01D195
:10A73000002BF7D1012A00D10422104600BD0000F1
:10A7400000200A49C96C01F0010109B101200CE0A7
:10A750000649C96C01F0100109B1032005E0034965
:10A76000C96C01F0040101B10220704700200240D1
:10A77000064A02EB9011096800F01F0301229A407B
:10A780001143024B03EB901211607047002002400E
:10A790000848006940F080000649086106480088C2
:10A7A000B0F5007F04D90846006D40F080000865D0
:10A7B0007047000000200240E0F7FF1F30B505465B
:10A7C00033480088B0F5007F44D9324885421CD216
:10A7D0003148FFF779FF0446002C56D12F48006915
:10A7E00040F002002D49086108464561006940F0CB
:10A7F000400008612848FFF767FF044627480069C2
:10A8000020F00200254908613FE02348FFF786FF5A
:10A810000446002C39D12148006D40F002001F4948
:10A82000086508464565C06900F0020008B10846A1
:10A8300045611A48006D40F0400018490865164807
:10A84000FFF76CFF04461548006D20F00200134925
:10A8500008651AE01048FFF737FF0446ACB90F4807
:10A86000006940F002000D49086108464561006931
:10A8700040F0400008610848FFF726FF04460748FB
:10A88000006920F0020005490861204630BD000043
:10A89000E0F7FF1FFFFF07080000FF0F0020024046
:10A8A0000C48006900F0800020B10B48094948605D
:10A8B0000A4848600A480088B0F5007F09D9054871
:10A8C000006D00F0800020B103480249486403484D
:10A8D000486470470020024023016745AB89EFCDF3
:10A8E000E0F7FF1F70B504460D4600262748008894
:10A8F000B0F5007F31D92648844217D22548FFF7AA
:10A90000E3FE0646002E3ED12348006940F00100D8
:10A910002149086125601F48FFF7D6FE06461E48FC
:10A92000006920F001001C4908612CE01948FFF77C
:10A93000F5FE06463EBB1848006D40F00100164982
:10A94000086525601348FFF7E9FE06461248006DCA
:10A9500020F001001049086515E00E48FFF7B4FE2D
:10A96000064686B90C48006940F001000A490861B2
:10A9700025600848FFF7A8FE06460748006920F052
:10A98000010005490861304670BD0000E0F7FF1F77
:10A99000FFFF07080000FF0F0020024030B502460D
:10A9A0000B46164C002145F25550154D286000BF4E
:10A9B0001348C06800F00101601E041E01D0002988
:10A9C000F6D109B1002030BD0D4843600B4C00BFEB
:10A9D0000B48C06800F00201601E041E01D000296F
:10A9E000F6D109B10020EEE7C2F30B00044DA860D8
:10A9F0004AF6AA2028600120E5E70000FFFF0F00CB
:10AA0000003000404AF6AA20014908607047000063
:10AA1000003000404CF6CC4001490860704700000F
:10AA200000300040F0B5044616460025002201F033
:10AA30000F0501F0100747B1042E05D145F00305BD
:10AA4000E76B1F43E76300E0354300201EE001276A
:10AA500087401F40C7B122684FEA800C0F2707FAD2
:10AA60000CF7BA43870005FA07F73A43282904D1BF
:10AA7000012787401F40676105E0482903D101276E
:10AA800087401F4027612260471CB8B20828DED3E8
:10AA9000082022E0012787401F40E7B16268A0F14B
:10AAA00008074FEA870C0F2707FA0CF7BA43A0F103
:10AAB0000807BF0005FA07F73A43282904D1012700
:10AAC00087401F40676105E0482903D1012787407F
:10AAD0001F4027616260471CB8B21028DAD3F0BD6E
:10AAE00002469068084008B1012070470020FCE74A
:10AAF000F0B50A46002300240021002500F000469E
:10AB0000B6F1004F02D11D4EF16901E01B4E716894
:10AB1000C0F3034583B200F44016B6F5401F08D1D8
:10AB200021F0E061154E766826F0E066134F7E60F6
:10AB300012E000F48016B6F5801F06D1032606FA4F
:10AB400005F4A14341F0E06106E0460D360103FA49
:10AB500006F6B14341F0E06122B1460D360103FA39
:10AB600006F6314300F00046B6F1004F02D1034E25
:10AB7000F16101E0014E7160F0BD00000000014094
:10AB80000A460021016821F4806111430160704789
:10AB90002DE9F05F04460E4692460EB900BFFEE76F
:10ABA000022000F073F907464648B7FBF0F8B8F109
:10ABB0003C0F01D34FF03C08D4F804B02BF07F0BCE
:10ABC0004BEA080BC4F804B03F4886421ED83D4803
:10ABD000B7FBF0F000F10109B9F13C0F02D33C20C2
:10ABE000206207E0B9F1020F02D80220206201E0E2
:10ABF000C4F820907000B7FBF0F5042D00D20425B6
:10AC0000E069C5F30B010843E06158E02F48864234
:10AC10002CD84FF4967008FB00F04FF47A71B0FB1B
:10AC2000F1F0401C2062BAF1000F08D106EB46009B
:10AC3000B7FBF0F5E06920F48040E06109E006EB45
:10AC4000C60000EB0610B7FBF0F5E06940F4804069
:10AC5000E061C5F30B0008B945F00105E06940F477
:10AC60000040E061E0692843E06128E0C8EB08109B
:10AC7000C0004FF47A71B0FBF1F0401C2062BAF1D1
:10AC8000000F08D106EB4600B7FBF0F5E06920F4B1
:10AC90008040E06109E006EBC60000EB0610B7FB60
:10ACA000F0F5E06940F48040E061E06940F4004084
:10ACB000E061E0692843E0610120C4F89000BDE84C
:10ACC000F09F000040420F00A0860100801A06009D
:10ACD000016841F001010160704730B50C46002168
:10ACE000016821F0020121430160C3F3090342EA34
:10ACF0000305856030BDFDF7A5FF01E0FDF7B0FF5E
:10AD0000FCE7000000F01F0201219140024A4311BC
:10AD100042F823107047000080E100E02DE9F04187
:10AD200003460D46164600240027A0462A48006820
:10AD300000F4E060B0F5E06F03D100BF4FF004080D
:10AD400030E02548006800F4E060B0F5C06F03D142
:10AD500001274FF0030825E01F48006800F4E06079
:10AD6000B0F5A06F02D10227B8461BE01A48006870
:10AD700000F4E060B0F5806F03D103274FF00108C5
:10AD800010E01548006800F4E060B0F5407F03D1A2
:10AD900004274FF0000805E04FF4A06000F020F811
:10ADA0000227B846C7F1040005FA00F4C8F104010F
:10ADB0000F20C8403040044324010848C45403F025
:10ADC0001F01012088405911890001F1E021C1F8DB
:10ADD0000001BDE8F08100000CED00E000E400E0BF
:10ADE00002490143024A1160704700000000FA0561
:10ADF0000CED00E0034A0A400243034B1A60BFF324
:10AE00004F8F704780FFFF1F08ED00E0184B596817
:10AE1000184B1940164BDA6A22F000520C2820D247
:10AE2000DFE800F0060708091F0C1F0D151617189C
:10AE300000BF00BF00BF41EA803113E000BF20F037
:10AE400004004FF0805343EA803319430AE000BF07
:10AE500000BF00BF20F00C0041EA803142F00052F8
:10AE600000E000BF00BF024B5960DA62704700008B
:10AE700000100240FF3FFFEF0348406A40F080703F
:10AE80000149486270470000001002402DE9F04F70
:10AE90008CB0074600200A904BA090E8004CC06898
:10AEA000CDE905BECDF810A007900FF2201ADAE91F
:10AEB000000ACDE9020A0FF2141ADAE9000ACDE914
:10AEC000000A45484068C0F381000B900B9820B100
:10AED000012804D0022841D104E0404A40E04FF468
:10AEE00061023DE03C48406800F4803CBCF5803F96
:10AEF00013D13948C06A00F08048B8F1000F02D180
:10AF00004FF4610300E0364B3348406800F40039E9
:10AF1000B9F5003F02D15B0800E0324B2E48406893
:10AF2000C0F383412C48406800F0006008B141F054
:10AF300010012948406800F0804008B141F020012C
:10AF40000F2901D2891C06E00F2903D33E2901D81D
:10AF5000491C00E03F2103FB01F201E01F4A00BF52
:10AF600000BF1D484068C0F3031504A8465D22FADF
:10AF700006F419484068C0F3022502A8465D24FA89
:10AF800006F0099014484068C0F3C2251DF805601A
:10AF900024FA06F0089037B1012F06D0022F06D010
:10AFA000032F0AD106E00A9208E00A9406E0099805
:10AFB0000A9003E008980A9000E000BF00BF0A98DA
:10AFC0000CB0BDE8F08F00000000000000000000A1
:10AFD00001020304060708090010024000127A006B
:10AFE000006CDC0200093D000146074A02EB9110AB
:10AFF000006801F01F0301229A40104008B10120AF
:10B0000070470020FCE7000000100240064A02EBF7
:10B010009011096800F01F0301229A401143024B6E
:10B0200003EB90121160704700100240064A02EBD9
:10B030009011096800F01F0301229A409143024BCE
:10B0400003EB90121160704700100240064A02EBB9
:10B050009011096800F01F0301229A401143024B2E
:10B0600003EB90121160704700100240016841F03C
:10B0700040010160704702460020106800F4415012
:10B080000B6818434B6818438B681843CB68184308
:10B090000B6918434B6918438B6918431060D369D7
:10B0A00023F40063D3617047016821F080010160DF
:10B0B0007047000010B531B101293FD002297DD081
:10B0C00003297CD1BFE0036A23F001030362836993
:10B0D00023F003038361036A148823430362036A32
:10B0E00023F002030362036A9488234303626A4BDA
:10B0F000984202D0694B98421FD1036A23F004039F
:10B100000362036A548823430362036A23F008033B
:10B110000362036AD48823430362436823F4807381
:10B1200043604368148923434360436823F40073F6
:10B1300043604368548923434360ABE0036A23F0D0
:10B1400010030362836923F440738361036A1488E4
:10B1500043EA04130362036A23F020030362036AD1
:10B16000948843EA041303624B4B984202D04B4B42
:10B17000984226D1036A23F040030362036A54888D
:10B1800043EA04130362036A23F080030362036A41
:10B19000D48843EA04130362436823F48063436062
:10B1A0004368148943EA84034360436823F40063DB
:10B1B00043604368548943EA840301E002E068E0A5
:10B1C000436067E0036A23F480730362C36923F07A
:10B1D0000303C361036A148843EA04230362036A16
:10B1E00023F400730362036A948843EA042303622E
:10B1F000294B984202D0294B984223D1036A23F469
:10B2000080630362036A548843EA04230362036A87
:10B2100023F400630362036AD48843EA04230362CD
:10B22000436823F4805343604368148943EA04135A
:10B230004360436823F4005343604368548943EAFE
:10B240000413436026E0036A23F480530362C36956
:10B2500023F44073C361036A148843EA043303622E
:10B26000036A23F400530362036A948843EA0433B5
:10B270000362094B984202D0084B984208D14368B8
:10B2800023F4804343604368148943EA8413436092
:10B2900000E000BF00BF10BD002C014000340140A1
:10B2A00031B101290CD0022913D0032922D118E091
:10B2B000836923F0700383618369134383611AE018
:10B2C000836923F4E0438361836943EA0223836152
:10B2D00011E0C36923F07003C361C3691343C36101
:10B2E00009E0C36923F4E043C361C36943EA02236D
:10B2F000C36100E000BF00BF704731B1012906D033
:10B30000022906D0032908D105E0426306E08263E2
:10B3100004E0C26302E0026400E000BF00BF7047C7
:10B3200031B101290CD0022913D0032922D118E010
:10B33000836923F0080383618369134383611AE0FF
:10B34000836923F400638361836943EA0223836191
:10B3500011E0C36923F00803C361C3691343C361E8
:10B3600009E0C36923F40063C361C36943EA0223AC
:10B37000C36100E000BF00BF704700210180418031
:10B380008180C180018141817047000010B5044671
:10B390003349601A8C4244D00CDCB4F1804F1CD08D
:10B3A0003048204410B3B0F5806F28D0B0F5006F5E
:10B3B00052D12DE0B0F5806F3CD0B0F58E3F03D078
:10B3C000B0F5923F48D13EE040F20B30FFF73EFE31
:10B3D00040F20B30FFF72AFE3FE04FF48060FFF7AA
:10B3E00035FE4FF48060FFF721FE36E040F2014069
:10B3F000FFF72CFE40F20140FFF718FE2DE040F26F
:10B400000240FFF723FE40F20240FFF70FFE24E068
:10B4100040F20340FFF71AFE40F20340FFF706FE3A
:10B420001BE040F20440FFF711FE40F20440FFF73A
:10B43000FDFD12E040F20540FFF708FE40F2054036
:10B44000FFF7F4FD09E040F20D30FFF7FFFD40F299
:10B450000D30FFF7EBFD00E000BF00BF10BD0000A6
:10B460000010004000FCFFBF016821F001010160F5
:10B470007047016841F00101016070470A888262EB
:10B480001D4A90420ED0B0F1804F0BD01B4A904223
:10B4900008D01B4A904205D01A4A904202D01A4A5C
:10B4A00090420BD1026822F07002026002684B8861
:10B4B0001A43026002688B881A4302608A68C2627B
:10B4C000124A90420AD0124A904207D0026822F4EF
:10B4D000407202600268CB881A430260064A9042BA
:10B4E00002D0094A904201D10A7B0263426942F0CC
:10B4F0000102426170470000002C0140000400403E
:10B5000000080040000C00400034014000100040E2
:10B5100000140040012904D1426C42F4004242640C
:10B5200003E0426C22F40042426470472DE9F04788
:10B5300004460D460027B846B94600261D49601A44
:10B540008C421CD006DC1C48204470B1B0F5806FE2
:10B550001FD10FE0B0F5806F16D0B0F56C4F18D149
:10B560000320FFF793FC074614E00220FFF78EFC50
:10B5700007460FE00220FFF789FC07460AE0022099
:10B58000FFF784FC074605E00220FFF77FFC074633
:10B5900000E000BF00BF07EB5500B0FBF5F64FF62B
:10B5A000F07006EA000806F00F0948EA0900A060FA
:10B5B000BDE8F087004C004000BCFFBF0146486872
:10B5C000C0F308007047C1F30802426070470000F2
:10B5D00010B504462049601A8C4228D006DC1F486A
:10B5E000204490B1B0F5806F33D117E0B0F5806F93
:10B5F00026D0B0F56C4F2CD140F20E30FFF726FD6F
:10B6000040F20E30FFF712FD24E040F21140FFF748
:10B610001DFD40F21140FFF709FD1BE040F2124012
:10B62000FFF714FD40F21240FFF700FD12E040F278
:10B630001340FFF70BFD40F21340FFF7F7FC09E062
:10B6400040F21440FFF702FD40F21440FFF7EEFC19
:10B6500000E000BF00BF10BD004C004000BCFFBFB9
:10B66000C16821F40051C1607047C16841F40051C4
:10B67000C160704710B5024602EB9110006801F0FE
:10B680001F040123A340184008B1012010BD002071
:10B69000FCE710B500EB9112126801F01F040123C2
:10B6A000A3409A4300EB91131A6010BD10B500EB54
:10B6B0009112126801F01F040123A3401A4300EB0A
:10B6C00091131A6010BD70B5024600230024C1F327
:10B6D0008910105801F01F060125B54000EA050346
:10B6E00002EB91500068C1F304460125B54000EA21
:10B6F000050414B10BB1012070BD0020FCE7C26845
:10B7000022F4C062C260C2680A43C2607047C26865
:10B7100022F00402C260C26801F004031A43C2604E
:10B720007047026922F44052026102690A430261D1
:10B730007047C26822F00802C260C26801F00803C4
:10B740001A43C2607047C26822F48052C260C26865
:10B750000A43C2607047000010B500290AD008787B
:10B76000002807D005487844FBF778F9002801D075
:10B77000002010BD0248784410BD000036030000D0
:10B780002E03000010B500290AD00878002807D041
:10B7900005487844FBF762F9002801D0002010BD6D
:10B7A0000248784410BD00001A0400001204000092
:10B7B00070B504460D466068421B04F1080041194B
:10B7C000FBF7B5F86068401B606070BD0021416008
:10B7D0007047000070B504460E461546204600F03E
:10B7E00089F82844B0F5807F04DD0948FCF73AFF6A
:10B7F000002070BD04F10801626850182A463146E5
:10B80000FBF750F86068284460600120F1E7000011
:10B8100000BA020870B504460D466068FF2807DCD0
:10B820006168481C606004F108004554012070BD47
:10B830000248FCF717FF0020F9E7000015BA0208DC
:10B8400010B504462046FDF7C1F9044600206060AB
:10B85000204610BD70B505460C46002C08DB284676
:10B8600000F048F8A04203DD05F10800204470BD57
:10B870000048FCE71602002070B504460D466068DB
:10B88000402807DA6168481C606004F108004554EC
:10B89000012070BD0248FCF7E5FE0020F9E700003A
:10B8A0002ABA020870B504460D4660690A2807D115
:10B8B0001222A11C2046FBF73AF86069401E606125
:10B8C0006169481C606124F8115020460022002163
:10B8D00004E030F8113013449AB2491C43698B429A
:10B8E000F7DC818A89B292FBF1F188B270BD002148
:10B8F000416170470146486870474FF04070E1EE83
:10B90000100A7047FBF7CCBB00540040004C0040CD
:10B910000044004004000000020000000400000099
:10B920000D0A000D000000000000000000000000F3
:10B930003031323334353637383941424344454665
:10B94000403058003031323334353637383961625F
:10B950006364656640307800040000080000000061
:10B960000000000200010000100000000240000082
:10B97000000000A00000000005400000000000C81A
:10B98000000000000C4000000000409C000000008F
:10B99000194000000020BCBE000000003440000040
:10B9A000BFC91B8E00000004B5400000504BCFD033
:10B9B0006607E2CF010000006C4100003E8251AA00
:10B9C000DFEEA73401000000D9420000DCB5A0E2A0
:10B9D0003A301F97FFFFFFFFB4450000FD25A0C8C8
:10B9E000E9A3C14FFFFFFFFFFF3F00000000008001
:10B9F00000000000FF3F0000000000800000000089
:10BA00002121216275666665722069732066756CF6
:10BA10006C212121002121216275666665722069F1
:10BA2000732066756C6C21212100212121627566CD
:10BA30006665722069732066756C6C212121000097
:10BA40005177657274793132332100002F00000084
:10BA500073393231353367675F3100007339323102
:10BA6000353367672E62656765742E746563680099
:10BA70004D657465722E66726D000000E4BB0208AD
:10BA800000000020180200006C61020804BC0208DB
:10BA90001802002060B80000C86102081001000010
:10BAA00043000000F8FFFFFF00404040404040409E
:10BAB0004040414141414140404040404040404081
:10BAC0004040404040404040400502020202020225
:10BAD0000202020202020202022020202020202074
