:020000040802F0
:1060000070B90020A9620208477D02083F7D02089E
:10601000437D0208397D0208357E02080000000039
:106020000000000000000000000000004B7D02089E
:106030003D7D020800000000497D02084D7D0208F8
:10604000397E0208C3620208C3620208C362020802
:10605000C3620208C3620208C3620208C362020884
:10606000C3620208C3620208C3620208C362020874
:10607000C3620208C3620208C3620208C362020864
:10608000C3620208C36202081D7D0208C3620208DF
:10609000C3620208C3620208C3620208C362020844
:1060A000C3620208C3620208C3620208C362020834
:1060B000C3620208C3620208C3620208C362020824
:1060C000C3620208C3620208C3620208C362020814
:1060D000C3620208C3620208C3620208C362020804
:1060E000C3620208C3620208C3620208C3620208F4
:1060F000C3620208C3620208C3620208C3620208E4
:10610000C3620208C3620208C3620208C3620208D3
:106110000D7E0208C3620208C3620208C36202085D
:10612000C3620208C3620208C3620208C3620208B3
:1061300000F002F800F0A4F80AA090E8000C8244F5
:106140008344AAF10107DA4501D100F099F8AFF2D2
:10615000090EBAE80F0013F0010F18BFFB1A43F045
:106160000103184750550000705500000A4410F80C
:10617000014B14F00F0508BF10F8015B240908BF9C
:1061800010F8014B6D1E05D010F8013B6D1E01F893
:10619000013BF9D1641E03D0641E01F8015BFBD101
:1061A0009142E4D37047000000230024002500261C
:1061B000103A28BF78C1FBD8520728BF30C148BF6A
:1061C0000B6070476E2900F05581702900F03B820A
:1061D000662905F0B981652905F0B681672905F0C2
:1061E000B3816129AFF3008003681B0A28BF41F027
:1061F0008001692900F00281642900F0FF8075297F
:1062000000F0FC806F2900F0C881782900F0078237
:10621000E92900F01185E42900F00E85F52900F048
:106220000B85EF2900F0C581F82900F0068203688C
:10623000DB0928BF41F08001632900F0DA8473296B
:1062400000F0DF84E32900F0EA84F32900F0EF8412
:10625000002070471FB505F072F901F0BBF804008B
:106260000020002105F0C2F8401C606000200021E1
:1062700005F0D2F8E06000F025FC1FBD10B510BDA0
:1062800001F083F81146FFF7E5FF04F07EFB01F013
:1062900065F903B4FFF7F2FF03BC01F069F90000F0
:1062A00080F3088870470000094880470948004784
:1062B000FEE7FEE7FEE7FEE7FEE7FEE7FEE7FEE7B6
:1062C000FEE7FEE704480549054A064B7047000013
:1062D000657D0208316102087085002070B90020D8
:1062E00070890020708900201CB50C46064B7B4449
:1062F00069460090204600F05AFC0446002069469A
:1063000000F068FC20461CBDE30800000FB41CB57B
:10631000084B06AA7B4469460090059800F047FCAC
:1063200004460020694600F055FC20461CBC5DF880
:1063300014FB0000BD08000070B5044685690068C4
:10634000C10601D5302600E02026C00707D070BD69
:10635000D4E9012130469047206A401C20626D1E1E
:10636000F6D570BD70B5044685690078C00707D1C1
:1063700070BDD4E9012120209047206A401C206292
:106380006D1EF6D570BD09684A0501D540B270474B
:10639000C905FCD500B2704709684A0501D5C0B2ED
:1063A0007047C905FCD580B2704770B50C460546EC
:1063B000012A05D02878800600D5EA69002302E08A
:1063C000012305E05B1C934202D2E05C0028F9D176
:1063D000A869E618C01AA861286A184428622846E5
:1063E000FFF7AAFF04E0D5E9012114F8010B90475B
:1063F000B442F8D32846FFF7B5FF70BD2DE9F04150
:106400000646002410687529314616A510D0FFF7FE
:10641000BAFF002802DA404213A507E031688A0774
:1064200001D512A502E0490704D511A5012401E018
:10643000FFF7B2FF00210A2206F1240709E0B0FBB2
:10644000F2FCB0FBF2F302FB1C003030785418462B
:10645000491C0028F3D123462A463046BDE8F041C6
:1064600000F046BB000000002D0000002B000000E3
:106470002000000011680268006A530501D5087009
:106480000AE0D30501D5088006E0130603D5C2173C
:10649000C1E9000200E00860012070472DE9FF5FBC
:1064A00015468A460446DFF8AC80F8440027D8E950
:1064B00000103E46CDE9001010E03AF816106A468A
:1064C00002A800F02FFC411C07D02178890603D5D3
:1064D000E269391891420DD80744761C207880066D
:1064E00002D5E069B84205DDAE42E6DB3AF81600B7
:1064F0000028E2D1A069C01BA0612046FFF71CFF65
:10650000D8E90010CDE90010002017E03AF8181083
:106510006A4602A800F006FCB0F1FF3F81460BD0AE
:1065200000250DF1080B05E0D4E901211BF8050059
:1065300090476D1C4D45F7D308F10100B0428046ED
:10654000E4DB206A384420622046FFF70BFFBDE8F9
:10655000FF9F0000B250000030B4002100F124047D
:1065600008E002F00705D208303542EA4372DB0842
:106570006554491C52EA0305F3D10468002310A2B4
:10658000250707D5A40600D421B1C46901230DA2B3
:10659000641EC46130BC00F0ABBA10B5044621469D
:1065A0001068FFF7F9FE02462046BDE810400023C0
:1065B000D2E7D21D22F00701D1E90023CCE7000089
:1065C0000000000030000000F0B40D46018809050D
:1065D00002D5214C7C4402E01F4C7C440E34002147
:1065E00000F1240608E002F00F071209E75D42EA15
:1065F00003721B097754491C52EA0307F3D102784E
:106600000023120704D5702D06D009B102231134DE
:106610002246F0BC00F06CBA01231034F8E770B5E4
:1066200004460D4621461068FFF7B6FE024629468D
:106630002046BDE870400023C6E7D21D22F00703C4
:10664000D3E90023C0E70368126843F02003036026
:106650000823C3610023B7E7904F00002DE9F05FE6
:10666000894604464FF0000ADFF874B1FB44C0F8D5
:1066700020A02046E1688847002874D0252806D04D
:10668000D4E901219047206A401C2062F1E70026EE
:106690005F462046E16888472028054607DB312D04
:1066A00005D2781910F8200C08B10643F1E7B007BD
:1066B00001D526F00406C4F81CA00027C4F818A0D1
:1066C0002A2D09D0284603F013FC38B304EB8708C1
:1066D000303DC8F8185019E059F8041B204604EB67
:1066E00087029161E1688847012F054618D1E0696A
:1066F000002820DA26F020061DE0D8F8180000EB6C
:10670000800005EB40003038C8F818002046E168EA
:106710008847054603F0ECFB0028EED1012F0AD094
:106720002E2D08D12046E16888477F1C0546022FA0
:1067300046F02006C4DBA069002803DA404246F098
:106740000106A061F00701D026F010066C2D0BD0D9
:10675000682D09D04C2D39D06A2D35D0742D35D007
:106760007A2D33D016E038E0E1682F46204688477E
:10677000B842054609D16C2F26D04FF48060E168FD
:10678000064320468847054604E06C2F1AD04FF494
:10679000807006430DB3A5F14100192802D82035B9
:1067A00046F400664A462946204626604E46FFF7D4
:1067B00009FD80B101280BD0F61D26F0070000F17D
:1067C000080956E74020E4E78020D8E70020D6E714
:1067D00006F104094DE7284652E7206ABDE8F09F1C
:1067E000204F000070B5064600F07EF904680546AB
:1067F00030460A22002100F05DFA2C6070BD40EAAC
:106800000103024630B59B0710D14FF0013400E080
:1068100008C208C91D1B9D4315EAC41FF8D013F018
:10682000FF0102F8011B0DD01B0AF8E711F8013B2C
:10683000002B02F8013B05D011F8013B002B02F8B8
:10684000013BF3D130BD10B5431C02E010F8011B31
:1068500071B18107FAD14FF0013202C88C1A8C4312
:1068600014EAC211F9D0C01A0A0603D0C01E10BD26
:10687000C01A10BD0A0401D0801E10BD0902FCD050
:10688000401E10BD032A40F2308010F0030C00F0CF
:10689000158011F8013BBCF1020F624498BF11F85A
:1068A00001CB00F8013B38BF11F8013BA2F1040213
:1068B00098BF00F801CB38BF00F8013B11F003038B
:1068C00000F06780083AC0F0088051F8043B083AAD
:1068D00051F804CBA0E80810F5E7121D5CBF51F891
:1068E000043B40F8043BAFF30080D20724BF11F80B
:1068F000013B11F801CB48BF11F8012B24BF00F870
:10690000013B00F801CB48BF00F8012B7047431A48
:1069100028BF9A427FF6B6AF032A1044114440F2D2
:10692000268010F0030F1EBF11F8013D521E00F823
:10693000013D10F0030F7FF4F6AF11F0030300F0F8
:106940002482083AC0F00B8051F8043D083A51F80F
:1069500004CD40F8043D40F804CDFFF7F3BF121D0D
:106960005CBF51F8043D40F8043DAFF30080D2070E
:1069700024BF11F8013D11F801CD48BF11F8012CD9
:1069800024BF00F8013D00F801CD48BF00F8012CFC
:10699000704710B5203AC0F00B80B1E81850203A8B
:1069A000A0E81850B1E81850A0E81850BFF4F5AFAF
:1069B0005FEA027C24BFB1E81850A0E8185044BF39
:1069C00018C918C0BDE810405FEA827C24BF51F8A6
:1069D000043B40F8043B08BF7047D20728BF31F89A
:1069E000023B48BF11F8012B28BF20F8023B48BFEB
:1069F00000F8012B70474FF000020429C0F012800C
:106A000010F0030C00F0ED81CCF1040CBCF1020F8E
:106A100018BF00F8012BA8BF20F8022BA1EB0C0136
:106A200000F0DFB95FEAC17C24BF00F8012B00F859
:106A3000012B48BF00F8012B704700004FF0013CCC
:106A400050F8042B51F8043B9A4221D1A2EB0C03DD
:106A5000934313EACC1317D150F8042B51F8043B9D
:106A60009A4215D1A2EB0C03934313EACC130BD13A
:106A700050F8042B51F8043B9A4209D1A2EB0C03C5
:106A8000934313EACC13DBD04FF00000704700BFF4
:106A9000D01A01BAB1FA81F101F0180122FA01F01D
:106AA000CB40C1F12001DBB2C0B2C01A2CFA01F315
:106AB000D11A914311EAC311E6D17047704770476C
:106AC0007047000070B5064C7C44064D7D4403E0E1
:106AD000206820448047241DAC42F9D170BD0000DD
:106AE000344D0000484D00000048704710850020DC
:106AF0002DE9F0470D4699469246044600F12408D8
:106B00000168880604D5E06921F01001216000E0E9
:106B10000120A84201DD471B00E00027A1697A1986
:106B200002EB0900081AA0612078C00602D42046B2
:106B3000FFF702FC002608E0D4E901211AF806005C
:106B40009047206A401C761C20624E45F4DB20787A
:106B5000C0060AD52046FFF7EFFB06E0D4E9012185
:106B600030209047206A401C2062381EA7F10107A0
:106B7000F4DC07E0D4E9012118F805009047206A09
:106B8000401C2062281EA5F10105F3DC2046FFF71A
:106B9000E9FB2078000602D50220BDE8F08701203D
:106BA000FBE7000001694A1C02610878704700B5E4
:106BB0008FB0CDE901310021059105497944CDE936
:106BC000031011466846FFF749FD0FB000BD0000F5
:106BD000E5FFFFFF0A6802F8010B0A60704710B575
:106BE000436913B1AFF3008001E0FFF7DEFB012042
:106BF00010BD127800F124010A7000224A700122AF
:106C0000EDE711684FF0FF32E9E710B5436913B1C2
:106C1000AFF3008001E0FFF741FC012010BD1288B6
:106C200000F1240182840022C2840122EDE7116870
:106C30004FF0FF32E9E700002DE9F0418046D21D18
:106C400022F007020025D2E90002F52915A614D08A
:106C5000011E72F1000106DA0023D0EB030063EBA2
:106C6000020211A608E0D8F800108B0701D50FA684
:106C700002E0490701D50EA601251146002408F1BE
:106C8000240704E000F0DEF830323A55641C50EA84
:106C90000102F7D12B46324621464046BDE8F0417D
:106CA000FFF726BF000000002D0000002B000000B1
:106CB000200000002DE9F04791460F46804604462B
:106CC000002614F8015B2DB100F0B4F80068405DB7
:106CD000C007F6D12B2D02D02D2D18D0641E4A46A8
:106CE0003946204600F002FB27B13968A14201D1A4
:106CF000C7F800804FF0020471050BD54042002810
:106D000003DDFFF7F1FE0460A007BDE8F08746F45D
:106D10008066E4E70028F8DAFFF7E6FE04606FF02B
:106D20000040F2E770B516460C46054600F082F8C2
:106D3000036893F80101012806D0FF2C0FD8185DD5
:106D400068B101202C7070BDD3F80701324621468E
:106D500003F2071303442846BDE8704018474FF07C
:106D6000FF3070BD431A28BF9A427FF612AE10441E
:106D700010F0030F11441EBF11F8013D521E00F820
:106D8000013D10F0030F7FF4F6AF103AC0F00A8017
:106D900010B531E91850103A20E91850BFF4F9AF96
:106DA000BDE81040530724BF31E9081020E908105E
:106DB00044BF51F8043D40F8043D12F0030F08BFF2
:106DC0007047D20728BF31F8023D48BF11F8012CA7
:106DD00028BF20F8023D48BF00F8012C70474FF053
:106DE000000200B5134694469646203922BFA0E81B
:106DF0000C50A0E80C50B1F12001BFF4F7AF090727
:106E000028BFA0E80C5048BF0CC05DF804EB890017
:106E100028BF40F8042B08BF704748BF20F8022B5A
:106E200011F0804F18BF00F8012B704700487047E1
:106E30001085002010B500F0CDFA001D10BD00BF78
:106E4000AD45000030B5B0F10A024FEA900E71F185
:106E500000034EEA817EB0EB0E0061EB91014FEA38
:106E6000101E4EEA017E10EB0E0041EB11114FEAAD
:106E7000102E4EEA016E10EB0E0041EB11214FEA8D
:106E8000104E4EEA014E10EB0E0041EB114140183E
:106E900041F100014FEAD00040EA41704FEAD101D0
:106EA00010EB80054FEA810444EA907444EB01043E
:106EB0006D1944EB0404521BA3414FF0000348BF7B
:106EC0000A3200D530BD401C41F1000130BD704791
:106ED0002DE9FF4F0C461E464FF0FF378BB0D2E92D
:106EE0000001DDF860800A908A46C1F30A5505B9B1
:106EF0003D46002108464FF00000BAF1000F00F4B3
:106F0000400005DA00EB80004FF4400101EA500038
:106F10004FEA9059B9F1010F00DDB9460A9850EADD
:106F20004A000ED044F61050A5F2FF3545432F1409
:106F3000B8F1000F1ED07542291E1EDDC9F10002F6
:106F40001CE0B8F1010F4FF0000001D0302103E048
:106F5000F24305E02154401CB042FBDB30460022E6
:106F6000002121540B99C1F80880C1E900200FB01D
:106F7000BDE8F08FBD1B6D1CDEE74A4600DA6942B2
:106F800006A800F079FA06AB93E8070003AB83E8A4
:106F9000070050460A9900F0F2FA8DE80700A0F5C4
:106FA00000501F3800900398002D0ADD42F21F01A7
:106FB0004A460844002303A90390684600F05BFD9D
:106FC00009E0A0F500504A461F38002303A90390AA
:106FD000684600F065FD8DE807000004000C03D052
:106FE0004FF0FF30410800E01046B8F1000F03D029
:106FF0000022009215461EE0751E05D4FFF722FF01
:10700000303262556D1EF9D5B3460122084302D0D5
:1070100000227F1C04E02078302801D100227F1E4E
:10702000002A099784D01DE0112D07DAFFF70AFF27
:10703000303262556D1C50EA0102F5D1084302D08E
:107040000098C8B10EE00021681E05E0235C625C78
:1070500063542254401E491C8142F7DBAB46A81BF7
:10706000401E0990002004F80B000B98099AC0F804
:107070000880C0E9002B7AE711264FF0000857E797
:107080002DE9F04F88460446D21D22F0070191B049
:10709000D1E90001CDE90A0102F0C3FC02460B98D8
:1070A000C00F01D02D2007E02068810701D52B20DB
:1070B00002E0202101EAC000032A099001D0072A3A
:1070C00005DB03464146204600F088F90BE12078B5
:1070D000800601D5E06900E00620B8F1650F814621
:1070E00006D0B8F1660F18D0B8F1670F70D131E053
:1070F0000020B9F1110F009001DB112301E009F12B
:1071000001030AAA01A90CA8FFF7E2FEDDE90C7051
:10711000002609F10105834647E001204B46009017
:107120004FF000470AAA01A90CA8FFF7D1FEDDE93C
:107130000DB00C995D46002610B909F101000D183B
:10714000B9EB050003D4C0F1FF3609F10105A5EB49
:1071500009002BE0B9F1010F01DA4FF0010900201D
:10716000B9F1110F0090484601DD112300E00346FC
:107170000AAA01A90CA8FFF7ABFEDDE90C704D4689
:1071800000268346207800070AD4AB4500DA5D4626
:1071900001A8012D04DD411911F8011C302907D087
:1071A0004F4502DA17F1040F04DA012082460FE09E
:1071B0006D1EEEE7002F02DCED1B3E4403E0781C61
:1071C000A84200DD7D1CB81B00F1010A4FF000470A
:1071D0002078000703D4AA4501DB4FF0FF3A0021D5
:1071E000B7F1004F0DF143088DF8431024D0022071
:1071F0002B23002F01DA7F422D230A21021EA0F14A
:10720000010000DC5FB197FBF1FC97FBF1F201FBA1
:107210001C7C17460CF1300C08F801CDEEE7A8F104
:10722000010003702188090501D5452100E0652191
:10723000A0F1010800F8011C09980FA9A1EB0807AB
:10724000FF1D00B10120411901EBEA70A16938442A
:10725000081A401EA0612078C00602D42046FFF71D
:107260006BF8099828B1D4E901219047206A401CA5
:1072700020622078C00622D52046FFF75DF81EE088
:10728000002E04DBB34502DD01A8805D00E0302064
:10729000D4E901219047206A401C2062761CAAF1A3
:1072A00001005FEA000A0AD100F094F8C0680168A2
:1072B000405CD4E901219047206A401C2062281ECE
:1072C000A5F10105DCDC07E0D4E9012118F8010B88
:1072D0009047206A401C2062381EA7F10107F3DCAA
:1072E0002046FFF73FF8032011B041E62DE9F05F9B
:1072F000824615468B4600270AF10104B9460078FC
:10730000302801D09DB113E014F8010B0127782833
:1073100003D0582801D045B10AE00DB1102D07D196
:10732000002714F8010B102502E0082500E00A25CB
:107330000026B0460EE005FB080005FB06F101271C
:107340001FFA80F801EB1046B6F5803F00D3B9462E
:1073500014F8010B294600F081F80028EBDABBF1A4
:10736000000F05D00FB1641E00E05446CBF800407A
:10737000B9F1000F06D0FFF7B7FB02210160C81E6C
:10738000BDE8F09F48EA0640FAE77546FFF74EFD74
:10739000AE4605006946534620F00700854618B002
:1073A00020B5FEF78FFFBDE820404FF000064FF0FC
:1073B00000074FF000084FF0000B21F00701AC462A
:1073C000ACE8C009ACE8C009ACE8C009ACE8C00949
:1073D0008D46704700487047308500202DE9F04108
:1073E0001F46044603260168072A01F4006004DBF7
:1073F00008B116A505E016A503E008B115A500E043
:1074000015A521F010002060A069C01EA0610FB179
:10741000401EA0612046FEF78FFF4FB1D4E9012145
:1074200038469047206A401C2062C01C206206E05B
:10743000206AFAE7D4E9012115F8010B9047761E7E
:10744000F8D22046FEF78EFFBDE8F0814E414E0097
:107450006E616E00494E4600696E66003A2800D2A1
:10746000303820F02002412A01D3A2F137008842AF
:1074700001D34FF0FF3070472DE9F04781461646A3
:107480008AB0354878440DC88DE80D0032487844FC
:10749000801C03AC0DC884E80D0041F69B30084405
:1074A000372190FBF1F290FBF1F5A5F1800501FB8E
:1074B00012041B3C02D56442012000E00020DFF8EA
:1074C00098A080460027FA44AAF1BE0A0EE0E00721
:1074D0000AD03246684607EB470101230AEB8101D7
:1074E00000F0DEFA8DE8070064107F1C002CEED15E
:1074F000194F7F44AE3F19E0E80715D007EB0410A1
:107500000DF1180A90E80E008AE80E00C068F042FB
:1075100001D1981908903246012306A903A800F06A
:10752000BFFA03AB83E807006D10641C002DE3D1A4
:107530004FF0010332466946B8F1000F03A802D0AC
:1075400000F099FA01E000F0ABFAC9E90001C9F8CE
:1075500008200AB0BDE8F0879841000010B5044645
:10756000AFF300802046BDE81040FEF792BE000059
:1075700001491820ABBEFEE72600020070475FEA13
:10758000400C08BF91F0000F4FEA8C234FEAC12254
:1075900043EA51514FEA1C5018BF00F5F0404FEA42
:1075A000300018BF41F000415FEA6C5C00F02980B8
:1075B000BCF1FF3F08BF40F080407047130C06BF8E
:1075C00012044FF0100C4FF0000C130E04BF120207
:1075D0000CF1080C130F04BF12010CF1040C930FF3
:1075E00004BF92000CF1020CD30F04BF52000CF147
:1075F000010C11464FF00002A0F11F00A0EB0C009F
:10760000704711F0004F08BF704731F000413FF460
:10761000D5AF0B0C06BF09044FF0100C4FF0000C57
:107620000B0E04BF09020CF1080C0B0F04BF09017B
:107630000CF1040C8B0F04BF89000CF1020CCB0F72
:1076400004BF49000CF1010CCCF12003A0EB0C00AD
:1076500022FA03F302FA0CF241EA030100F10100FD
:10766000704720F07F4C80EA030023F07F47ACEBAB
:10767000070303F57C5300F0004003F1FF032DE9FD
:1076800080494FEA154B09B44FEA144325EA0B4EE3
:1076900024EA03480FF2042606EB132749083E7834
:1076A0005FEA320203FB0667C7F5000707FB06F631
:1076B0004FEA54374FEAD64606F1020607FB066C3E
:1076C000CCF1005C4FEA1C472CEA074C07FB06F4A0
:1076D0000CFB06F504EB15464FEA961634BF002066
:1076E0004FF000404FEAD13706FB07FC4FEA1C4C35
:1076F0000CFB0BF7D21B03FB0CF761EB07010CFB38
:107700000EF7B0EB074072EB17420CFB08F734BFE3
:10771000A2EB0742B2EB074261EB17414FEA0C4480
:107720004FEA910706FB07FC4FEA1C4C0CFB0BF7DA
:10773000B0EBC74072EB573203FB0CF734BFA2EB40
:10774000C742B2EBC74261EB57310CFB0EF7B0EB0F
:10775000C70072EB57720CFB08F734BFA2EBC702ED
:10776000B2EBC70261EB5771039F4FEA816141EAB7
:10777000921104EBCC044FEAD1374FEA826206FB48
:1077800007FC42EA90124FEA80604FEA1C4C0CFB67
:107790000BF7D21B03FB0CF761EB07010CFB0EF799
:1077A000B0EB074072EB17420CFB08F734BFA2EBBB
:1077B0000742B2EB074261EB17414FEA8C554FEAA3
:1077C000910704EB9C2406FB07FC4FEA1C4C0CFBC6
:1077D0000BF7B0EBC74072EB573203FB0CF734BF2B
:1077E000A2EBC742B2EBC74261EB57310CFB0EF77D
:1077F000B0EBC70072EB57720CFB08F734BFA2EB7B
:10780000C702B2EBC70261EB577115EB4C254FEA8B
:10781000816141EA92114FEA82624FEAD13742EA2E
:10782000901206FB07FC44F100044FEA80604FEA27
:107830001C4C0CFB0BF7D21B03FB0CF761EB070195
:107840000CFB0EF7B0EB074072EB17420CFB08F78E
:1078500034BFA2EB0742B2EB074261EB174115EBD5
:107860001C154FEA813141EA92414FEA823242EAE5
:1078700090424FEA80304FEA0C7644F1000448EA27
:1078800003434EEA0B484FF0000EB2EB080C71EBCD
:10789000030724BF624639464EEB0E0E4FF0000B35
:1078A0000018524149414BEB0B0BB2EB080C71EB4A
:1078B00003077BF1000B24BF624639464EEB0E0EE8
:1078C0004FF0000B0018524149414BEB0B0BB2EB50
:1078D000080C71EB03077BF1000B24BF62463946AD
:1078E0004EEB0E0E51EA020718BF46F0010616EBEA
:1078F0000E7655F1000254F1000103D5BDE889016F
:10790000BDE80088BDE88901BDE80048B6195241CC
:1079100041EB0101A3F10103704780807F7E7D7CF4
:107920007B7A7978777676757473727171706F6E11
:107930006E6D6C6C6B6A6A696868676666656464BC
:10794000636362616160605F5F5E5E5D5D5C5C5B46
:107950005B5A5A59595858575756565555555454B5
:10796000535352525251515050504F4F4F4E4E4D13
:107970004D4D4C4C4C4B4B4B4A4A4A49494948485F
:10798000484747474746464645454544444444439F
:1079900043434342424242414141002B9C4630D442
:1079A00077002BD01CB54FEA370703B44FF0100017
:1079B0004FF01001BAF1000F06D0BCF1000FDCBF90
:1079C00040F0080040F008014FF000000FBCBDE897
:1079D00010400BF1010BBBF1010F08BF5FEA170765
:1079E00022BF12F1010211F101014FF0004143F1F8
:1079F000000300F0004043EA00007047F9D3570845
:107A0000D0E746EA064613F1400F4FEA16461FDD5F
:107A100013F1200FDFBF16430A46002120335B42DB
:107A2000BED0C3F1200746EA064602FA07F74FEA3E
:107A3000164646EA0706C3F1200722FA03F201FAC6
:107A400007F721FA03F14FF0000342EA0702A7E724
:107A500046EA020646EA06464FEA164646EA0106A6
:107A6000BCBF46EA0646360C4FF000034FF000025A
:107A70004FF0000194E72DE9804C9A46934670B48C
:107A800091E8380007C831EA400C48BF34EA430C9B
:107A900003D5FFF7E6FDFFF780FFF0BCBDE8008CE3
:107AA0002DE9804C9A46934670B491E8380007C897
:107AB00010F0804F08BF13F0804F03D100F005F89D
:107AC000FFF76BFFF0BCBDE8008C20F07F4780EA39
:107AD000030023F07F4C07EB0C03A3F57C5300F06D
:107AE0000040A3F1FE0392F0000F00F0B38095F088
:107AF000000F00F077802DE901494FEA11404FEA6D
:107B0000144621EA004800FB06FC24EA064708FB6D
:107B100006F607FB08F800FB07F718EB06484CEBE6
:107B2000164C4FEA124B18EB07484FEA15464CEB40
:107B3000174022EA0B4E0BFB06FC25EA06470EFB1C
:107B400006F607FB0EFE0BFB07F71EEB064E4CEB93
:107B5000164C4FF000061EEB074E4CEB174B18EB84
:107B60000B0840F1000018EB0E0B58EB000840F139
:107B700000008F1A4FF000013CBFC943661B14BFC1
:107B8000B5EB040C00213CBFC943F61B4FEA174478
:107B90004EEA8E0E27EA04454FEA1C4704FB0762B3
:107BA0002CEA074C05FB07F70CFB05F604FB0CFC65
:107BB00016EB074642EB174216EB0C4642EB1C4213
:107BC0001BEB060658EB0202414146EA9E0601D530
:107BD000BDE80189B619524141EB0101A3F101034E
:107BE000BDE801894FEA14454FEA114724EA0546EA
:107BF00021EA074C05FB07F406FB07F70CFB06F12F
:107C000005FB0CFC11EB074144EB17444FEA12470C
:107C100011EB0C4144EB1C4422EA074C05FB07F234
:107C200006FB07F70CFB06F605FB0CFC16EB0746FC
:107C300042EB174216EB0C4642EB1C456A1854F116
:107C4000000148BF7047B619524141EB0101A3F151
:107C50000103704795F0000F37D04FEA11424FEA09
:107C6000144721EA024624EA074C02FB07F106FB0F
:107C700007F70CFB06F402FB0CFC14EB074441EB8A
:107C800017414FEA154714EB0C4441EB1C4125EA20
:107C9000074C02FB07F506FB07F70CFB06F602FB99
:107CA0000CFC16EB074645EB174516EB0C4645EB6F
:107CB0001C42121951F1000148BF7047B6195241D8
:107CC00041EB0101A3F1010370474FEA14454FEA6C
:107CD000114724EA054621EA074C05FB07F106FB9C
:107CE00007F70CFB06F24FF0000605FB0CFC12EB4D
:107CF000074241EB174112EB0C4251EB1C4148BFCC
:107D00007047921841EB0101A3F10103704710B5D0
:107D100004460021204601F095F810BD10B501F091
:107D2000D9F90221034802F0A3F90421014802F025
:107D30009FF910BD0024014000BFFEE7704700BF5F
:107D4000FEE700BFFEE770477047704710B5044874
:107D50000068401C0249086000F09CF810BD00005B
:107D60000800002008B52648006840F47000244947
:107D700008602448006840F001002249086000BF04
:107D80002048006800F002000028F9D000BF1D481C
:107D9000406840F080001B4948600020009002E0ED
:107DA0000098401C009000985028F9D3154840686E
:107DB00040F09000134948600020009002E00098D5
:107DC000401C009000985028F9D300BF0D4840682F
:107DD00020F003000B494860084600680A49084043
:107DE000084908604FF41F0088600846006820F4C6
:107DF0008020086000204860C86200F06BF808BD71
:107E000088ED00E000100240FFFFF6FE10B50749C4
:107E10000748006803F0A1FA38B10548006803F08C
:107E200017FAC4B2204600F061FA10BD0503050040
:107E300050B5020800BFFEE710B500F0B5FD0446DE
:107E400000BF10BD10B5124800684FF47A71B0FB46
:107E5000F1F4601EB0F1807F01D301200FE0601EBD
:107E60004FF0E02148610F214FF0FF3000F01EF885
:107E700000204FF0E021886107200861002008B150
:107E800000BFFEE70021481E00F010F810BD000002
:107E9000180000200448006820B103480068401E14
:107EA00001490860704700007401002010B50028E7
:107EB00007DA0A07140E054A00F00F031B1FD454FB
:107EC00003E00A07130E024A135410BD18ED00E038
:107ED00000E400E010B500F001F810BD0020002122
:107EE0003E4A126842F480323C4B1A6000BF401C8C
:107EF0003A4A126802F4003119B94FF6FF72904203
:107F0000F5D1364A126802F400320AB900BFFEE722
:107F1000324AD26942F08052304BDA61304A1268FC
:107F200042F440422E4B1A602C4A52682B4B5A6046
:107F30001A4652685A601A46526842F480625A6081
:107F40001A46526822F440325A601A46526842F485
:107F500040325A601A465268224B1A401F4B5A60F0
:107F60001A46526842F000625A601A46126842F09D
:107F700080721A6000BF194A126802F00072002A6B
:107F8000F9D0174A126842F48032154B1A6000BFCC
:107F9000134A526802F48032002AF9D0104A12685B
:107FA00042F400320E4B1A6000BF0D4A526802F4D0
:107FB0000032002AF9D0094A526822F00302074B26
:107FC0005A601A46526842F002025A6000BF034AE1
:107FD000526802F00802002AF9D0704700100240EF
:107FE00000700040FFFFC3B702460120034B9A42D6
:107FF00002D1042900DD0020704700000004024087
:108000000349086000BF024909680029FBD1704795
:108010007401002010B50446002016E0002204F18F
:108020003C0141F820209FED0D0A211D01EBC0010C
:1080300081ED000A9FED090A211D01EBC00181EDD0
:10804000010A04F138010A54401C0328E6DB00F061
:10805000ABFC21680844A06410BD000000000000D3
:1080600070B504460D462560201D00F0E7F8041F9A
:1080700004F1200000F0E2F8A0F120042046FFF710
:10808000C9FF204670BD00002DE9F04107460D46AE
:108090000DB9BDE8F0811F491F4A126888182A46A9
:1080A0003946FEF7EFFB1C48006828441A4908606F
:1080B0000868C11700EB91718910A0EB810141B9EB
:1080C00015480168134800F06DF800201249086057
:1080D0001EE01148006803281ADD0F48046800E01C
:1080E000641EE11704EB91718910A4EB8101002952
:1080F000F6D109480068061B2146064800F052F8F0
:10810000044801193246FEF702FC0348066000BF2E
:1081100000BFBEE70C0200201400002010B50E487E
:108120000068C0B108E0FF210B4802680068401CED
:10813000094B18600948815407490868C11700EBCA
:1081400091718910A0EB81010029ECD102480168EE
:10815000024800F027F810BD140000200C02002097
:1081600070B50B4804684FF0006000F033F8094D1B
:1081700005E040212846FFF787FF4035403C402C72
:10818000F7DA1CB121462846FFF77EFF70BD0000DC
:108190000C00002000300108014800687047000012
:1081A0000C00002070B505460C46224629460748BB
:1081B000006800F0F8FF05480068204403490860A3
:1081C0000348006820440249086070BD1000002088
:1081D0000C0000202DE9F04105462627A5F100609E
:1081E000C60A002407E0301900F0A4FF10B93019C6
:1081F00000F0B4FF641C262CF5DB04480560002069
:108200000349086003490860BDE8F08110000020C0
:108210000C0000201400002070B500F06DF94FF044
:1082200000652846446801460868FEF739F80021D1
:10823000284602F029FCA04770BD000010B5044696
:10824000032308220249204601F003FC044610BD26
:10825000D582020870B504460D46164632462946B8
:10826000204600F09DFB044600202072204670BD91
:1082700010B5044603220421D4E9000302F064FA95
:1082800010BD01604260704710B5044603221821FA
:10829000D4E9000302F058FA10BD01604260704753
:1082A0000146024A08681268101A70470800002048
:1082B000034909680160024909684160704700008C
:1082C0000800002010B504462046FFF7F1FF2046C5
:1082D00010BD00009FED040A80ED000A9FED020A28
:1082E00080ED010A704700000000000010B5044650
:1082F000204600F06DF910BD10B52548FFF7C4FF0A
:108300002448FFF7B5FF00221146342002F050FB4D
:1083100034200021002807DA0A07140E1E4A00F054
:108320000F031B1FD45403E00A07130E1B4A1354F8
:1083300000BF1B48006802F095FF4FF4E131184878
:10834000006802F03DFF00211548006803F021F8A5
:1083500000211348006803F040F80021104800682D
:1083600003F029F804210E48006803F01AF80821E8
:108370000B48006803F027F840F205310848006810
:1083800002F0DEFF0648006802F0B9FF10BD0000F1
:108390002C0000203400002018ED00E000E400E094
:1083A00050B5020810B50948006802F0A3FF40F27A
:1083B00005310648006802F0B6FF0448006802F084
:1083C00051FF342002F0E8FA10BD000050B5020859
:1083D00070B504462046FEF736FA05462946204683
:1083E00000F002F870BD00002DE9F04104460D4692
:1083F000264600270EE016F8011B0848006802F028
:108400002CFF00BF07210548006802F07DFF00280F
:10841000F8D07F1CAF42EEDBBDE8F08150B502081A
:1084200010B5FFF70FFD4FF4C06002F023FB40F2E0
:10843000026002F035FC40F2036002F031FC40F2D1
:10844000046002F02DFC40F2056002F029FC40F2CD
:10845000066002F025FC40F2076002F021FC40F2C9
:10846000096002F01DFC4FF4A06002F019FC40F21C
:10847000157002F015FC40F2167002F011FC40F28B
:108480000F7002F00DFC40F20B6002F009FC40F2AC
:10849000117002F005FC40F2137002F001FC4FF481
:1084A000C06002F0FDFB4FF4E06002F0F9FB40F227
:1084B000047002F0F5FB0E48406A0E49086040F671
:1084C0001D1002F0DBFB08B102F020FB40F20B7044
:1084D00002F0E6FB00F006FE00F0B6FCFFF70CFF32
:1084E00000F084FE01F01CF901F0BCF910BD0000A1
:1084F000001002400400002010B5FFF753FF00F009
:10850000CBFD10BD10B5044607480068B0F5005F0C
:1085100001DB00F00DF8044801680068401C024AC5
:1085200010600248445410BDF00100206406002091
:1085300010B54FF400510348FEF75DFA00200249E0
:10854000086010BD64060020F00100200FB410B5D3
:108550009AB01DA8009001A8009A1C99FDF7C4FECE
:108560000020009001A8FEF76EF9441C0C4800683A
:10857000204441F69C71884201DBFFF7D9FF09498D
:10858000074A12688818224601A9FEF77BF90448B9
:1085900000682044024908601AB010BC5DF814FB62
:1085A000F001002064060020F0B502460B460020D2
:1085B0001446002509E0014614F8016B06EB81170B
:1085C00007EB01477F1A38466D1C9D42F3DBF0BD77
:1085D00070B5044600F056FE18B1204600F04CFE7F
:1085E00070BD04B9FCE700BF16480078F8B916481A
:1085F00002F0A2FF90B1144802F09EFF0646124816
:1086000000F108010D4632460E4802F02DFF10B968
:108610000C4802F025FF0C4802F022FF21460948D1
:1086200002F042FF58B9074802F01AFF07E021465E
:10863000054802F039FF10B9034802F011FF00BFEE
:10864000CEE700004C0300205404002010B5084879
:1086500000F075FA074800F072FA2821064800F089
:1086600082F9034800F067FA024800F064FA10BD8E
:108670004C000020540000205C00002010B500F0E9
:108680002FF8002000F002F810BD0000014908702A
:1086900070470000E001002010B5042303222821C8
:1086A000014802F051F810BD0018014010B5042334
:1086B00003221021034802F047F804200149143135
:1086C000086010BD0018014010B50421034802F0F5
:1086D00099F8012800D110BD0020FCE700180140E6
:1086E00010B5054802F0BCFE044802F0B9FE04488B
:1086F00002F0B6FE10BD00004C0300205404002020
:108700005C05002070B592B000BF0120444908709C
:1087100000BF084602F010FF10B3002408E0214615
:108720003F4802F0E1FE05782846FFF7EBFE641CA7
:108730003B4802F001FFA042F1DC394802F0FCFEA8
:108740000546374800F108010C462A46354802F034
:108750008BFE10B9334802F083FE314802F080FEF0
:1087600000BF00202E49087000BF2E4802F0E4FE32
:1087700018B92DA000F06CFA50E06C46204600F0CD
:10878000EFF804460020606000BF002600BF00BF75
:108790000020019000BF002600242DE02146214842
:1087A00002F0A2FE05780A2D00D124E00D2D0DD196
:1087B00000BF019800B91EE00021684602F0A6FE45
:1087C0000126611C174802F03DFE1AE03E2D0DD136
:1087D0003E21684602F09AFE0021684602F096FEAD
:1087E0000126611C0F4802F02DFE0AE0294668466A
:1087F00002F08CFE00BF641C0A4802F09DFEA042FD
:10880000CCDC1EB1684600F1080100E006A10C4670
:10881000204600F01DFA002EB9D100BF12B070BD85
:108820004C0300205C0500200000000010B5464805
:10883000007800F0010058B9434801F01CF938B144
:10884000424C2046FFF734FD00BF3F48AFF30080A5
:1088500000BF3F480078072874D2DFE800F004101A
:10886000223A4A5B70003B4800F065F9FFF71EFFB3
:108870000120FFF70BFF3548FFF71AFD62E0334890
:10888000FFF70EFDB0F57A7F0AD9FFF705FF3148F3
:1088900000F05EF90220FFF7F9FE2C48FFF708FD13
:1088A00050E0FFF711FF28B12848FFF701FD032032
:1088B000FFF7ECFE2548FFF7F3FC642802D90020FF
:1088C000FFF7E4FE2148FFF7F3FC0320FFF7DEFE8D
:1088D00038E01E48FFF7E4FCB0F5FA7F08D91E48DF
:1088E00000F036F91948FFF7E3FC0420FFF7CEFE4D
:1088F00028E01648FFF7D4FC40F2E241884208D94C
:10890000154800F018F91148FFF7D2FC0520FFF7D1
:10891000BDFE17E0114800F030F828B10620FFF73F
:10892000B5FE0A48FFF7C4FC0848FFF7B9FC41F25E
:108930008831884202D90020FFF7A8FE02E0FFF745
:10894000E1FE00BF00BF10BDE4010020E8010020EF
:10895000E00100204C000020540000205C000020BA
:1089600000210170704770B504460D460322294668
:10897000D4E9000301F0E8FE70BD10B504462046BE
:1089800000F003F880F0010010BD10B50446D4E9F2
:10899000000101F037FF08B9012010BD0020FCE7FD
:1089A00001604260704700000148006870470000A5
:1089B0000800002010B5FFF733FDFFF747FE00F079
:1089C00051FF10BD10B5FFF759FE00F02FF900F070
:1089D0006BFC10BD10B500F04BFFFFF727FF00F058
:1089E00031FC08B1FFF718FC10BD00002DE9F0477D
:1089F00005460E4617460020387081468046012EF7
:108A000002D14FF0FF3937E02946012208782028AB
:108A10000AD008782C2807D008783A2804D008789B
:108A20003D2801D0012000E00020034618E008782E
:108A3000202808D008782C2805D008783A2802D0B9
:108A400008783D2802D153B1002308E03BB9521CFD
:108A50000123B24203D1481BA0F1010905E0491CE2
:108A6000B24202DA08780028E1D100BFB24202D057
:108A700010A0BDE8F08700BF09F1010805EB08046C
:108A800002E008F10108641C207858B12078202801
:108A900008D020782C2805D020783A2802D02078D9
:108AA0003D28EED13B4642464946284600F004F8B0
:108AB000DFE70000000000002DE9F04107460D4609
:108AC00016461C46701B002805DC0AA0FFF73EFD79
:108AD000002020700BE02046691C03E07A5C00F85F
:108AE000012B491CB142F9DB0021017000BF204677
:108AF000BDE8F08157726F6E6720617267756D65B2
:108B00006E74730010B5044604220021D4E90003FA
:108B100001F01AFE10BD016042600372704710B58B
:108B2000044603221C21D4E9000301F00DFE10BD10
:108B3000016042607047D0E900211161704710B5B3
:108B4000044603221021D4E9000301F0FDFD10BD0D
:108B5000D0E9002151617047016042607047000018
:108B600010B504460548FFF79BFBA04201D8012041
:108B700010BDFFF727FF0020FAE700007801002072
:108B800070B588B004466A4601212046FFF72EFFE3
:108B900005461AA12046FDF751FF20B9FFF712FF45
:108BA000012008B070BD17A12846FDF747FF58B94E
:108BB0006A4602212046FFF719FF06463146134850
:108BC000FDF71DFE0120ECE711A12046FDF736FF61
:108BD00018B9FFF7F7FE0120E3E710A12046FDF7E3
:108BE0002DFF08B90120DCE70EA12846FDF726FF7E
:108BF00008B90020D5E70020D3E70000434C4F53CD
:108C0000454400002B435351000000008C0100201C
:108C100053454E44204641494C00000053454E44C4
:108C2000204F4B002B495044000000000020014918
:108C3000087070478001002010B504460248047097
:108C40000248FFF735FB10BD8001002078010020AD
:108C500070B588B005462846FFF792FF08B108B006
:108C600070BD42F210764948007808280FD2DFE83C
:108C700000F0040F20314250738645A000F0D6F872
:108C80000120FFF7D9FF444844A1098801807AE018
:108C900042F21070FFF764FF50B141A12846FDF782
:108CA000CDFE28B90220FFF7C7FF3EA000F0BEF8B6
:108CB00069E042F21070FFF753FF50B13DA1284622
:108CC000FDF7BCFE28B90320FFF7B6FF3AA000F07D
:108CD000ADF858E042F21070FFF742FF50B130A1FA
:108CE0002846FDF7ABFE28B90420FFF7A5FF36A004
:108CF00000F09CF847E042F21070FFF731FF38B106
:108D000027A12846FDF79AFE10B90520FFF794FF2A
:108D100039E04EF66020FFF723FFE0B16A460121FB
:108D20002846FFF763FE04462AA1FDF787FE90B9A7
:108D30006A4602212846FFF759FE007800F00F042A
:108D4000012C01D0052C05D10620FFF775FF23A0CB
:108D500000F06CF800BF16E042F21070FFF700FF61
:108D600060B16A4603212846FFF740FE04461FA172
:108D7000FDF764FE10B907200449087003E0284697
:108D800000F098FA00BF00BF00BF68E78001002034
:108D900041544530000000008C01002030000000EC
:108DA0004F4B000041542B4950523D313135323048
:108DB000300000005244590041542B47534D425556
:108DC00053593D310000000041542B435245473D6B
:108DD000310000002B4352454700000041542B4313
:108DE000495053544154555300000000494E4954D2
:108DF00049414C0030B591B004460D462A46214603
:108E000001A8FDF783FA01A800F010F811B030BDF9
:108E100030B591B004460D462A46214601A8FDF71B
:108E200075FA01A800F002F811B030BD10B5044683
:108E30002046FFF7CDFA0248FFF7CAFA10BD00003E
:108E40005CB502080180704710B58EB0022001F0B9
:108E500027FE00221146122001F0AAFD8448FFF7E8
:108E600051FE8448FFF74EFE8348FFF74BFE8348D0
:108E7000FFF748FE8248FFF745FE8248FFF742FEB3
:108E80000021814801F0CAF98048079000208DF840
:108E900034007F48099001208DF8350000020890C9
:108EA00080000A9000208DF8360006200B904FF4C9
:108EB00000500C9007AA0021734801F0E7F9002147
:108EC000714801F092F9022200216F4801F075FA11
:108ED00000216D4801F070F947F23050ADF8000004
:108EE0001020ADF80200ADF8040040F6FF700290CB
:108EF0004FF40070ADF8060000208DF80C006946B4
:108F0000644802F005F904A802F081F80020ADF8E9
:108F100014000120ADF8100004AA00215D4801F002
:108F200013FF40F6FE7200215A4802F030F870221A
:108F30000021584801F0FEFF00221146554802F07A
:108F400039F80121534802F02FF9524801F0F6FE9A
:108F5000504802F0D8F8002001F08EF801220221DA
:108F60004A484C3801F0FBF80122110247484C38BE
:108F700001F0F5F8002145484C3800F0F8FF0622D2
:108F8000012142484C3800F0CFFF394800F046FD3F
:108F900004460723224600213C484C3801F07AF869
:108FA000344800F03BFD04460723224601213748A0
:108FB0004C3801F06FF8304800F030FD04460723CC
:108FC0002246022131484C3801F064F82B4800F069
:108FD00025FD04460723224603212C484C3801F086
:108FE00059F8274800F01AFD0446072322460421B9
:108FF00026484C3801F04EF8224800F00FFD044698
:1090000007232246052121484C3801F043F801226C
:1090100011461E484C3800F0C8FF002201211B48B1
:109020004C3800F0E1FF022118484C3801F020F8DC
:10903000042116484C3801F01BF8022113484C3823
:1090400001F000F811484C3800F0A6FF0120FEF7AF
:10905000D7FF0E484C3800F052FF0C484C3800F057
:1090600096FF012109484C3801F06AF80EB010BD96
:10907000500200205C0200206802002074020020E0
:10908000800200208C020020000002404C2401409D
:10909000E0020020002C014010B50B4800F072FFE8
:1090A0000221094800F0B8FF084802F027F80748F5
:1090B00001F0B6FF0021064801F0B0F80022114689
:1090C000122001F075FC10BD00240140002C01406D
:1090D0000000024010B5024800F034FB10BD000053
:1090E000E002002010B50F48FFF719FD0E48FFF70A
:1090F00016FD00220D490E48006801F093FB78230D
:10910000002211460A48006801F031FC0848006856
:1091100001F028FC4FF480610548006801F07AFBFB
:1091200010BD00001C00002024000020801A060052
:109130004CB5020810B501464FF0006000EBC123AA
:1091400003F500541A4605E01068401C08B10020E1
:1091500010BD1032A242F7D30120F9E710B5044642
:1091600001F030FA40F2053001F094F94FF441700B
:1091700001F090F940F2023001F08CF94FF00061FB
:1091800001EBC42001F0ACF940F2053001F082F9A6
:109190004FF4417001F07EF940F2023001F07AF9AB
:1091A00001F088F910BD2DE9F04105460E46144640
:1091B00001F008FA00E0641CE11704EB91718910DA
:1091C000A4EB81010029F6D12F1909E02846316866
:1091D00001F01AFA361D2D1D40F2073001F05AF940
:1091E000BD42F3D301F066F9BDE8F08100B587B068
:1091F000282303221821114801F0A6FA1023032284
:1092000004210E4801F0A0FA002001904FF4827072
:1092100000900020029005904FF4007003903820D9
:1092200006900020049069460548006801F06DFD35
:109230000348006801F064FD07B000BD000C014068
:1092400058B5020803480078112801D10120704761
:109250000020FCE79C01002010B504460548FFF7FC
:109260001FF8A04201D2012010BDFFF7ABFB002088
:10927000FAE70000B401002010B50446204600F0D3
:10928000FBFA10BD074800780E2807D00548007883
:109290000F2803D003480078102801D1012070471F
:1092A0000020FCE79C010020002001490870704765
:1092B0009C01002070B588B0044642F21075BA488F
:1092C000007812280DD2DFE800F0090D1424344490
:1092D0005464778A9DB0C3D4F6F5F4F30120B24903
:1092E00008705EE1022000F00FFAB0A0FFF79EFDCB
:1092F00057E1B648FFF7B0FF50B1B5A12046FDF7E2
:109300009DFB28B9032000F0FFF9B2A0FFF78EFD06
:1093100047E1AE48FFF7A0FF50B1ADA12046FDF7F1
:109320008DFB28B9042000F0EFF9B2A0FFF77EFD15
:1093300037E1A648FFF790FF50B1A5A12046FDF701
:109340007DFB28B9052000F0DFF9B0A0FFF76EFD26
:1093500027E19E48FFF780FF50B19DA12046FDF711
:109360006DFB28B9062000F0CFF9AEA0FFF75EFD37
:1093700017E19648FFF770FF50B195A12046FDF721
:109380005DFB28B9072000F0BFF9AAA0FFF74EFD4A
:1093900007E142F21070FFF75FFF60B18CA1204639
:1093A000FDF74CFB38B9082000F0AEF9A44801687D
:1093B000A4A0FFF71FFDF4E042F21070FFF74CFF8E
:1093C00060B183A12046FDF739FB38B9092000F0D0
:1093D0009BF9A0480168A0A0FFF70CFDE1E042F274
:1093E0001070FFF739FF60B179A12046FDF726FB29
:1093F00038B90A2000F088F99B4801689BA0FFF764
:10940000F9FCCEE042F21070FFF726FF60B170A1C8
:109410002046FDF713FB38B90B2000F075F997488B
:10942000016897A0FFF7E6FCBBE042F21070FFF77F
:1094300013FF60B166A12046FDF700FB38B90C2090
:1094400000F062F99348016893A0FFF7D3FCA8E00D
:1094500042F21070FFF700FF50B15DA12046FDF70A
:10946000EDFA28B90D2000F04FF990A0FFF7DEFCCF
:1094700097E09148FFF7F0FE30B36A46012120469D
:10948000FFF7B4FA06468DA1FDF7D8FAE0B98DA131
:109490002046FDF7D3FA78B90E2000F035F9002008
:1094A0008C4908608C490860042000F08BFA0BE0BE
:1094B00076E036E01BE008E088A12046FDF7BEFA22
:1094C00010B91120384908706BE07B48FFF7C4FEE3
:1094D00060B18648007848B17F48854909680160D5
:1094E0000F2000F011F9042000F06CFA59E07248E6
:1094F000FFF7B2FEA0B17D48007888B17D487C4975
:10950000096801607C48FEF765FE102000F0FCF859
:1095100000F0A1F9402000F055FA002077490870CA
:109520003FE06548FFF798FE50B37448007840B3B9
:10953000734801686E48FEF7A7FDFEF7EFFDFEF7E2
:109540002BFE064631466C48FFF72EF8614908604D
:10955000084600686749096888420FD1FEF700FE97
:1095600000BF31464FF00060FFF71EF861490968FF
:109570008842F6D111200C49087001E0FFF722FA69
:109580000DE05A48007850B15D4801685848FEF730
:109590007BFD5C48FEF78CFE402000F013FA00E0F3
:1095A00000BF00BF08B070BD9C01002041542B5388
:1095B000415042523D332C312C22434F4E5459508E
:1095C00045222C224750525322000000084C010033
:1095D0004F4B000041542B53415042523D332C31EC
:1095E0002C2241504E222C22696E7465726E657475
:1095F0002200000041542B53415042523D332C3144
:109600002C2255534552222C2222000041542B5328
:10961000415042523D332C312C22505744222C22AF
:109620002200000041542B53415042523D312C3115
:109630000000000041542B4654504349443D310042
:10964000A001002041542B465450534552563D2210
:1096500025732200A401002041542B465450554E3E
:109660003D22257322000000A801002041542B4612
:10967000545050573D22257322000000AC010020B9
:1096800041542B465450474554504154483D22259F
:1096900073220000B001002041542B46545047452E
:1096A000544E414D453D22257322000041542B4626
:1096B00054504745543D3100F82401002B46545086
:1096C000474554002B4654504745543A20312C31DD
:1096D00000000000C4010020BC0100202B465450B3
:1096E0004745543A20312C3737000000DC01002078
:1096F0000C030020C001002000300108DD01002023
:10970000D8010020B401002010B5044602480470BE
:109710000248FEF7CDFD10BD9C010020B4010020E1
:1097200010B5002408E004EB4401054A02EB810077
:109730004821FFF718F9641C032CF4DB10BD00006E
:10974000BC02002038B504463648007800F001001D
:1097500058B9344800F08FF938B1334D2846FEF738
:10976000A7FD00BF2F48AFF300803048008810B934
:109770002D48FEF79DFD2D48B0F90000B0F5FA6FB9
:109780004EDA21886846FFF75DFB2949274AB2F97E
:10979000002001EB42010088088061886846FFF7DD
:1097A00051FB2449214AB2F9002001EB4201008813
:1097B0000880A1886846FFF745FB1F491B4AB2F99C
:1097C000002001EB420100880880E1886846FFF72D
:1097D00039FB1A49154AB2F9002001EB4201008811
:1097E000088021896846FFF72DFB15490F4AB2F919
:1097F000002001EB42010088088061896846FFF77C
:1098000021FB1049094AB2F9002001EB420100880E
:10981000088006480088401C00B20449088000BF48
:1098200038BD0000FC01002000020020F8010020EB
:1098300050270020F03600209046002030560020AF
:10984000D06500207075002010B5002140F6FF7033
:1098500000F036FF10BD10B5062140F6FF7000F095
:109860002FFF10BD10B5FFF7EFFF00F065FF10BD33
:1098700010B500F059FF10BDF0B589B0044642485C
:109880000078B0B1414801680068401C3F4A106050
:109890003F484454104600683E490968884270D1E8
:1098A0000020394908703C49086001203B49087094
:1098B00067E00D2C65D00A2C5BD137480068002882
:1098C0005FD00021344802680068401C324B1860A9
:1098D0003348815401AA0121FFF788F8074631A1D6
:1098E0003846FDF7ABF800283DD101AA02212C48EB
:1098F000FFF77CF805462878312815D101AA032105
:109900002748FFF773F806463078312808D12748F2
:10991000016827A0FFF77CFA00201F49086002E0D9
:109920000120274908701DE0287832281AD101AAA1
:1099300003211B48FFF75AF806463046FCF752FF52
:109940001449086008460068002801DD012000E095
:1099500000200D4908700846007810B900200E4913
:10996000086000BF04E00020074908700A49086049
:1099700007E0094801680068401C074A1060084871
:10998000445409B0F0BD0000C8010020D8010020F7
:109990000C030020D4010020CC010020DC010020B9
:1099A000EC0200202B46545047455400D0010020C3
:1099B00041542B4654504745543D322C25640000F9
:1099C000DD01002010B5044600F012F803480460E1
:1099D000016803A0FFF71CFA10BD0000D0010020B1
:1099E00041542B4654504745543D322C25640000C9
:1099F00000200549086005490870054908600549C7
:109A00000860054908707047CC010020C80100209B
:109A1000D8010020D0010020DC0100200146087A96
:109A2000704703B401984100009850EAC12018BF64
:109A300004204A0D18BF40F0010040F2FF72B2EB63
:109A4000515F08BF40F00200012808BF052002B0A6
:109A500070472DE9F0411C4617460E00804607D09E
:109A6000054602E02846B0473D442046641EF9D230
:109A70004046BDE8F081016809B10020704701212E
:109A8000016008467047000010B50348FEF71AFC55
:109A90000248FEF717FC10BD780100208401002069
:109AA00010B5034C2046FEF703FC00BF10BD0000BC
:109AB000B401002010B5002301229D499D48FFF705
:109AC0002AF8012302229A499B48FFF724F802232F
:109AD000042297499948FFF71EF803230822944966
:109AE0009748FFF718F80523202291499548FFF77A
:109AF00012F8072380228E499348FFF70CF80423BD
:109B000010228B499148FFF706F806234022884926
:109B10008F48FFF700F80E2310228E498E48FEF77B
:109B2000FAFF40228D498E48FFF702F880228B49C8
:109B30008C48FEF7FDFF4FF4806286498A48FEF7A5
:109B4000ACFB4FF4006283498848FEF79AFB202261
:109B500087498848FEF7A1FB402285498648FEF7E1
:109B600090FB042282498548FEF7F6FF01228049D6
:109B70008348FEF7F1FF02227D498248FEF710FF7D
:109B80004FF480726A498048FEF7E6FF4FF4007296
:109B900067497E48FEF7E0FF4FF4806264497C48E5
:109BA000FEF7DAFF4FF4006261497A48FEF7D4FF0E
:109BB0004FF480525E497848FEF7CEFF1022774975
:109BC0007748FEF7EDFE082274497648FEF7E8FE76
:109BD0004FF4007271497448FEF7BEFF4FF4807273
:109BE0006E497248FEF7B8FF80226C497048FEF754
:109BF000B3FF042259496F48FEF7AEFF02225749CE
:109C00006D48FEF7A9FF012254496C48FEF7A4FFF6
:109C1000202250496A48FEF79FFF4FF480625F4957
:109C20006848FEF799FF4FF400625C496648FEF70A
:109C300093FF4FF4805259496448FEF78DFF4FF46B
:109C4000005256496248FEF787FF4FF4804253495D
:109C50006048FEF781FF4FF4004250495E48FEF72E
:109C60007BFF4FF480623D495C48FEF775FF4FF47F
:109C700000623A495A48FEF76FFF4FF48052374965
:109C80005848FEF769FF4FF4005234495648FEF732
:109C900063FF4FF4804231495448FEF75DFF4FF4B3
:109CA00000422E495248FEF757FF4FF48072304968
:109CB0005048FEF751FF4FF400722D494E48FEF711
:109CC0004BFF4FF480622A494C48FEF745FF4FF4A2
:109CD000006227494A48FEF73FFF4FF4805224496B
:109CE0004848FEF739FF4FF4005221494648FEF735
:109CF00033FF4FF480421E494448FEF72DFF4FF4D6
:109D000000421B494248FEF727FF042211494148FF
:109D1000FEF7A0FA02220F493E480C30FEF79AFAED
:109D200001220C493B481830FEF794FA10BD0000A0
:109D300000080140500200205C0200206802002060
:109D400074020020800200208C0200209802002073
:109D5000A402002000100140B0020020000C0140CD
:109D60001C000020240000202C00002034000020D3
:109D7000001401403C000020440000204C00002062
:109D8000540000205C000020640000206C000020D3
:109D9000740000207C000020840000200018014096
:109DA0008C000020940000209C000020A4000020D3
:109DB000AC000020B4000020BC000020C400002043
:109DC000CC000020D4000020DC000020E4000020B3
:109DD000EC000020F4000020FC0000200401002022
:109DE0000C010020140100201C010020240100208F
:109DF0002C010020340100203C01002044010020FF
:109E00004C010020540100205C010020640100206E
:109E10006C010020BC02002010B51A48FEF70EFAB3
:109E20001948FEF70BFA1948FEF708FA4FF4FA63DF
:109E3000022217491748FFF70CFE4FF4FA6302227B
:109E400013491548FFF705FE4FF4FA630222104943
:109E50001248FFF7FEFD4FF4FA6302220C49104846
:109E6000FFF7F7FD4FF4FA63022209490D48FFF7A7
:109E7000F0FD4FF4FA63022205490B48FFF7E9FDB4
:109E800010BD0000FC2600201827002034270020E9
:109E90000F7D020850270020F03600209046002059
:109EA00030560020D06500207075002010B541F2BA
:109EB00088310448FEF7D4F84EF660210248FEF7D8
:109EC000CFF810BD64260020B026002010B505484C
:109ED00001F000FB044801F0FDFA044801F0FAFA31
:109EE00010BD00004C030020540400205C0500203D
:109EF00030380A2801D2012070470020704781685D
:109F000041F00801816000BF816801F0080100296B
:109F1000FAD1816841F00401816000BF816801F0DD
:109F200004010029FAD1704730B5012902D0022975
:109F30001AD10CE0C36A23F47003C362C36A541ECF
:109F40004FF4700505EA04542343C3620DE0836BAC
:109F500023F440138363836B541E4FF4401505EACA
:109F600004542343836300E000BF00BF30BD21B130
:109F7000826842F40062826003E0826822F4006238
:109F800082607047816821F00101816070478168BB
:109F900041F4807181607047816801F0010119B955
:109FA000816841F001018160704772B101F00103E5
:109FB0001BB1836843F48013836001F0020393B103
:109FC000836843F4004383600DE001F001031BB19B
:109FD000836823F48013836001F002031BB183685C
:109FE00023F4004383607047012902D0022910D175
:109FF00007E0836823F460238360836813438360EE
:10A0000008E0836823F4E04383608368134383603C
:10A0100000E000BF00BF704701F001021AB14268C2
:10A0200022F04002426001F002021AB1426822F0BE
:10A030002002426001F004021AB1426822F080025C
:10A040004260704701F001021AB1426842F04002DA
:10A05000426001F002021AB1426842F020024260FE
:10A0600001F004021AB1426842F080024260704777
:10A07000CA430260704700000549096821F4702155
:10A08000034A1160114609680143116070470000DE
:10A0900004240140F0B51D4606290CD2436B01EBA8
:10A0A00081071F26BE40B34301EB810602FA06F684
:10A0B0003343436322E00C290ED2036B8E1F06EB61
:10A0C00086071F26BE40B3438E1F06EB860602FAA4
:10A0D00006F63343036311E010290FD2C36AA1F1DE
:10A0E0000C0606EB86071F26BE40B343A1F10C0603
:10A0F00006EB860602FA06F63343C3620A2A0CD23E
:10A10000046902EB42070726BE40B44302EB420655
:10A1100005FA06F63443046111E0122A0FD2C4682E
:10A12000A2F10A0606EB46070726BE40B443A2F199
:10A130000A0606EB460605FA06F63443C460F0BD8F
:10A1400001F001021AB1826842F48002826001F0DB
:10A1500002021AB1826842F4001282607047AAB10A
:10A1600001F480731BB1436843F48073436001F4CE
:10A1700080631BB1436843F48063436001F00203D2
:10A18000CBB1836843F00203836014E001F4807371
:10A190001BB1436823F48073436001F480631BB1F7
:10A1A000436823F48063436001F002031BB18368BA
:10A1B00023F002038360704770B505460C462146C4
:10A1C0002846FDF711FF08B900BFFEE704EB840045
:10A1D000810005F10800405840F0010104EB8400C3
:10A1E000820005F10800815070BD70B505460C462F
:10A1F00021462846FDF7F8FE08B900BFFEE704EB4C
:10A200008400810005F10800405840F0200104EB73
:10A210008400820005F10800815070BD70B50446CD
:10A220000D4629462046FDF7DFFE08B900BFFEE7D0
:10A2300005EB8500810004F10800405820F0010181
:10A2400005EB8500820004F108008150002105EB38
:10A250008500820004F10800815005EB8500820032
:10A2600004F10C00815005EB8500820004F1100020
:10A27000815005EB8500820004F114008150606874
:10A28000AA000F2191400843606070BD2DE9F041A4
:10A2900004460D46164629462046FDF7A5FE08B998
:10A2A00000BFFEE705EB8500820004F11000316875
:10A2B000815005EB8500820004F11400B1688150E3
:10A2C000308A81B205EB8500820004F10C008150D8
:10A2D00005EB8500810004F10800475827F47C57FE
:10A2E000F1687068084371690843074305EB85000E
:10A2F000810004F108004750307E01280ED105EBA3
:10A300008500810004F10800405840F0400105EB51
:10A310008500820004F1080081500DE005EB850006
:10A32000810004F10800405820F0400105EB850051
:10A33000820004F108008150707E01280ED105EBE7
:10A340008500810004F10800405840F0800105EBD1
:10A350008500820004F1080081500DE005EB8500C6
:10A36000810004F10800405820F0800105EB8500D1
:10A37000820004F108008150B07E70B905EB8500C1
:10A38000810004F10800405820F0100105EB850021
:10A39000820004F1080081500DE005EB850081008A
:10A3A00004F10800405840F0100105EB85008200E0
:10A3B00004F108008150BDE8F08170B504460D46F7
:10A3C000164629462046FDF70FFE08B900BFFEE7F6
:10A3D00005EB8500810004F108004058304305EB8F
:10A3E00085018A0004F10801885070BD00B503465C
:10A3F000012200BF00F00CF802465B1E012A01D1C9
:10A40000002BF7D1012A00D10422104600BD000024
:10A4100000200A49C96801F0010109B101200CE0DE
:10A420000649C96801F0100109B1032005E003499C
:10A43000C96801F0040101B1022070470020024008
:10A4400000B50346012200BF00F00CF802465B1E77
:10A45000012A01D1002BF7D1012A00D10422104694
:10A4600000BD000000200A49C96C01F0010109B1DA
:10A4700001200CE00649C96C01F0100109B103206C
:10A4800005E00349C96C01F0040101B102207047E5
:10A4900000200240064A02EB9011096800F01F03F9
:10A4A00001229A401143024B03EB90121160704756
:10A4B000002002400848006940F080000649086119
:10A4C00006480088B0F5007F04D90846006D40F0CA
:10A4D000800008657047000000200240E0F7FF1F81
:10A4E00030B5054633480088B0F5007F44D932487E
:10A4F00085421CD23148FFF779FF0446002C56D123
:10A500002F48006940F002002D4908610846456166
:10A51000006940F0400008612848FFF767FF0446E3
:10A520002748006920F00200254908613FE02348E0
:10A53000FFF786FF0446002C39D12148006D40F01A
:10A5400002001F49086508464565C06900F0020021
:10A5500008B1084645611A48006D40F040001849AE
:10A5600008651648FFF76CFF04461548006D20F09B
:10A570000200134908651AE01048FFF737FF044648
:10A58000ACB90F48006940F002000D490861084667
:10A590004561006940F0400008610848FFF726FF68
:10A5A00004460748006920F002000549086120467A
:10A5B00030BD0000E0F7FF1FFFFF07080000FF0F9E
:10A5C000002002400C48006900F0800020B10B48D8
:10A5D000094948600A4848600A480088B0F5007F89
:10A5E00009D90548006D00F0800020B103480249F8
:10A5F00048640348486470470020024023016745CF
:10A60000AB89EFCDE0F7FF1F70B504460D4600267D
:10A6100027480088B0F5007F31D92648844217D2F8
:10A620002548FFF7E3FE0646002E3ED12348006989
:10A6300040F001002149086125601F48FFF7D6FE60
:10A6400006461E48006920F001001C4908612CE004
:10A650001948FFF7F5FE06463EBB1848006D40F06E
:10A6600001001649086525601348FFF7E9FE064614
:10A670001248006D20F001001049086515E00E48F1
:10A68000FFF7B4FE064686B90C48006940F00100A9
:10A690000A49086125600848FFF7A8FE06460748F2
:10A6A000006920F0010005490861304670BD0000D6
:10A6B000E0F7FF1FFFFF07080000FF0F0020024028
:10A6C00030B502460B46164C002145F25550154D4B
:10A6D000286000BF1348C06800F00101601E041E1E
:10A6E00001D00029F6D109B1002030BD0D484360EA
:10A6F0000B4C00BF0B48C06800F00201601E041E36
:10A7000001D00029F6D109B10020EEE7C2F30B0019
:10A71000044DA8604AF6AA2028600120E5E7000061
:10A72000FFFF0F00003000404AF6AA2001490860F0
:10A7300070470000003000404CF6CC4001490860F2
:10A740007047000000300040F0B504461646002572
:10A75000002201F00F0501F0100747B1042E05D1CA
:10A7600045F00305E76B1F43E76300E03543002036
:10A770001EE0012787401F40C7B122684FEA800CC6
:10A780000F2707FA0CF7BA43870005FA07F73A4391
:10A79000282904D1012787401F40676105E0482927
:10A7A00003D1012787401F4027612260471CB8B2B0
:10A7B0000828DED3082022E0012787401F40E7B1A8
:10A7C0006268A0F108074FEA870C0F2707FA0CF719
:10A7D000BA43A0F10807BF0005FA07F73A43282952
:10A7E00004D1012787401F40676105E0482903D154
:10A7F000012787401F4027616260471CB8B21028BC
:10A80000DAD3F0BD02469068084008B101207047D5
:10A810000020FCE70A460021016821F48061114311
:10A82000016070472DE9F05F04460E4692460EB96E
:10A8300000BFFEE7022000F073F907464648B7FB69
:10A84000F0F8B8F13C0F01D34FF03C08D4F804B055
:10A850002BF07F0B4BEA080BC4F804B03F4886424C
:10A860001ED83D48B7FBF0F000F10109B9F13C0FEB
:10A8700002D33C20206207E0B9F1020F02D8022087
:10A88000206201E0C4F820907000B7FBF0F5042DC1
:10A8900000D20425E069C5F30B010843E06158E0EC
:10A8A0002F4886422CD84FF4967008FB00F04FF4E6
:10A8B0007A71B0FBF1F0401C2062BAF1000F08D1B0
:10A8C00006EB4600B7FBF0F5E06920F48040E0615C
:10A8D00009E006EBC60000EB0610B7FBF0F5E069F7
:10A8E00040F48040E061C5F30B0008B945F0010574
:10A8F000E06940F40040E061E0692843E06128E05D
:10A90000C8EB0810C0004FF47A71B0FBF1F0401CA6
:10A910002062BAF1000F08D106EB4600B7FBF0F554
:10A92000E06920F48040E06109E006EBC60000EB3E
:10A930000610B7FBF0F5E06940F48040E061E069A3
:10A9400040F40040E061E0692843E0610120C4F880
:10A950009000BDE8F09F000040420F00A08601007B
:10A96000801A0600016841F001010160704730B5AE
:10A970000C460021016821F0020121430160C3F36C
:10A98000090342EA0305856030BDFEF713F801E0D4
:10A99000FEF720F8FCE7000000F01F0201219140C3
:10A9A000024A431142F823107047000080E100E0A2
:10A9B0002DE9F04103460D46164600240027A04627
:10A9C0002A48006800F4E060B0F5E06F03D100BFF2
:10A9D0004FF0040830E02548006800F4E060B0F56E
:10A9E000C06F03D101274FF0030825E01F4800681E
:10A9F00000F4E060B0F5A06F02D10227B8461BE07A
:10AA00001A48006800F4E060B0F5806F03D10327B6
:10AA10004FF0010810E01548006800F4E060B0F560
:10AA2000407F03D104274FF0000805E04FF4A060F9
:10AA300000F020F80227B846C7F1040005FA00F438
:10AA4000C8F104010F20C8403040044324010848E5
:10AA5000C45403F01F01012088405911890001F1FD
:10AA6000E021C1F80001BDE8F08100000CED00E03C
:10AA700000E400E002490143024A1160704700000F
:10AA80000000FA050CED00E0034A0A400243034BC4
:10AA90001A60BFF34F8F704780FFFF1F08ED00E083
:10AAA000184B5968184B1940164BDA6A22F00052BD
:10AAB0000C2820D2DFE800F0060708091F0C1F0D44
:10AAC0001516171800BF00BF00BF41EA803113E020
:10AAD00000BF20F004004FF0805343EA8033194355
:10AAE0000AE000BF00BF00BF20F00C0041EA803147
:10AAF00042F0005200E000BF00BF024B5960DA6232
:10AB00007047000000100240FF3FFFEF0348406A1B
:10AB100040F0807001494862704700000010024018
:10AB20002DE9F04F8CB0074600200A904BA090E82A
:10AB3000004CC068CDE905BECDF810A007900FF21B
:10AB4000201ADAE9000ACDE9020A0FF2141ADAE94A
:10AB5000000ACDE9000A45484068C0F381000B9027
:10AB60000B9820B1012804D0022841D104E0404ACA
:10AB700040E04FF461023DE03C48406800F4803C16
:10AB8000BCF5803F13D13948C06A00F08048B8F165
:10AB9000000F02D14FF4610300E0364B33484068A8
:10ABA00000F40039B9F5003F02D15B0800E0324BF8
:10ABB0002E484068C0F383412C48406800F0006094
:10ABC00008B141F010012948406800F0804008B108
:10ABD00041F020010F2901D2891C06E00F2903D37F
:10ABE0003E2901D8491C00E03F2103FB01F201E0AE
:10ABF0001F4A00BF00BF1D484068C0F3031504A8EA
:10AC0000465D22FA06F419484068C0F3022502A8FE
:10AC1000465D24FA06F0099014484068C0F3C22546
:10AC20001DF8056024FA06F0089037B1012F06D010
:10AC3000022F06D0032F0AD106E00A9208E00A94F8
:10AC400006E009980A9003E008980A9000E000BF27
:10AC500000BF0A980CB0BDE8F08F000000000000B3
:10AC6000000000000102030406070809001002406A
:10AC700000127A00006CDC0200093D000146074A20
:10AC800002EB9110006801F01F0301229A4010406E
:10AC900008B1012070470020FCE7000000100240CE
:10ACA000064A02EB9011096800F01F0301229A4046
:10ACB0001143024B03EB90121160704700100240E9
:10ACC000064A02EB9011096800F01F0301229A4026
:10ACD0009143024B03EB9012116070470010024049
:10ACE000064A02EB9011096800F01F0301229A4006
:10ACF0001143024B03EB90121160704700100240A9
:10AD0000016841F040010160704702460020106870
:10AD100000F441500B6818434B6818438B68184384
:10AD2000CB6818430B6918434B6918438B69184368
:10AD30001060D36923F40063D3617047016821F088
:10AD4000800101607047000010B531B101293FD08A
:10AD500002297DD003297CD1BFE0036A23F00103DF
:10AD60000362836923F003038361036A1488234326
:10AD70000362036A23F002030362036A9488234395
:10AD800003626A4B984202D0694B98421FD1036A12
:10AD900023F004030362036A548823430362036AB3
:10ADA00023F008030362036AD488234303624368E1
:10ADB00023F48073436043681489234343604368EA
:10ADC00023F4007343604368548923434360ABE03A
:10ADD000036A23F010030362836923F440738361E1
:10ADE000036A148843EA04130362036A23F020030E
:10ADF0000362036A948843EA041303624B4B98424C
:10AE000002D04B4B984226D1036A23F040030362E1
:10AE1000036A548843EA04130362036A23F080033D
:10AE20000362036AD48843EA04130362436823F489
:10AE3000806343604368148943EA84034360436842
:10AE400023F4006343604368548943EA840301E0C8
:10AE500002E068E0436067E0036A23F48073036202
:10AE6000C36923F00303C361036A148843EA04231C
:10AE70000362036A23F400730362036A948843EA5B
:10AE800004230362294B984202D0294B984223D1D4
:10AE9000036A23F480630362036A548843EA042349
:10AEA0000362036A23F400630362036AD48843EAFB
:10AEB00004230362436823F4805343604368148986
:10AEC00043EA04134360436823F400534360436838
:10AED000548943EA0413436026E0036A23F4805351
:10AEE0000362C36923F44073C361036A148843EAAD
:10AEF00004330362036A23F400530362036A9488F1
:10AF000043EA04330362094B984202D0084B98424B
:10AF100008D1436823F4804343604368148943EABB
:10AF20008413436000E000BF00BF10BD002C01404F
:10AF30000034014031B101290CD0022913D003297A
:10AF400022D118E0836923F070038361836913437E
:10AF500083611AE0836923F4E0438361836943EAF0
:10AF60000223836111E0C36923F07003C361C369E5
:10AF70001343C36109E0C36923F4E043C361C369B8
:10AF800043EA0223C36100E000BF00BF704731B154
:10AF9000012906D0022906D0032908D105E0426321
:10AFA00006E0826304E0C26302E0026400E000BFE6
:10AFB00000BF704731B101290CD0022913D00329F9
:10AFC00022D118E0836923F0080383618369134366
:10AFD00083611AE0836923F400638361836943EA30
:10AFE0000223836111E0C36923F00803C361C369CD
:10AFF0001343C36109E0C36923F40063C361C369F8
:10B0000043EA0223C36100E000BF00BF7047002194
:10B01000018041808180C1800181418170470000B1
:10B0200010B504463349601A8C4244D00CDCB4F1AC
:10B03000804F1CD03048204410B3B0F5806F28D02A
:10B04000B0F5006F52D12DE0B0F5806F3CD0B0F577
:10B050008E3F03D0B0F5923F48D13EE040F20B3036
:10B06000FFF73EFE40F20B30FFF72AFE3FE04FF4C1
:10B070008060FFF735FE4FF48060FFF721FE36E079
:10B0800040F20140FFF72CFE40F20140FFF718FEAE
:10B090002DE040F20240FFF723FE40F20240FFF7AE
:10B0A0000FFE24E040F20340FFF71AFE40F2034097
:10B0B000FFF706FE1BE040F20440FFF711FE40F2EE
:10B0C0000440FFF7FDFD12E040F20540FFF708FEE7
:10B0D00040F20540FFF7F4FD09E040F20D30FFF7C4
:10B0E000FFFD40F20D30FFF7EBFD00E000BF00BFB9
:10B0F00010BD00000010004000FCFFBF016821F0FF
:10B10000010101607047016841F001010160704771
:10B110000A8882621D4A90420ED0B0F1804F0BD057
:10B120001B4A904208D01B4A904205D01A4A9042CE
:10B1300002D01A4A90420BD1026822F070020260DB
:10B1400002684B881A43026002688B881A430260C7
:10B150008A68C262124A90420AD0124A904207D0CC
:10B16000026822F4407202600268CB881A430260CF
:10B17000064A904202D0094A904201D10A7B0263FA
:10B18000426942F00102426170470000002C014018
:10B190000004004000080040000C00400034014062
:10B1A0000010004000140040012904D1426C42F418
:10B1B0000042426403E0426C22F400424264704761
:10B1C0002DE9F04704460D460027B846B94600264B
:10B1D0001D49601A8C421CD006DC1C48204470B10A
:10B1E000B0F5806F1FD10FE0B0F5806F16D0B0F5CD
:10B1F0006C4F18D10320FFF793FC074614E00220A0
:10B20000FFF78EFC07460FE00220FFF789FC074698
:10B210000AE00220FFF784FC074605E00220FFF762
:10B220007FFC074600E000BF00BF07EB5500B0FB06
:10B23000F5F64FF6F07006EA000806F00F0948EA46
:10B240000900A060BDE8F087004C004000BCFFBFD3
:10B2500001464868C0F308007047C1F30802426025
:10B260007047000010B504462049601A8C4228D06F
:10B2700006DC1F48204490B1B0F5806F33D117E051
:10B28000B0F5806F26D0B0F56C4F2CD140F20E3067
:10B29000FFF726FD40F20E30FFF712FD24E040F2EA
:10B2A0001140FFF71DFD40F21140FFF709FD1BE0C3
:10B2B00040F21240FFF714FD40F21240FFF700FD8C
:10B2C00012E040F21340FFF70BFD40F21340FFF78E
:10B2D000F7FC09E040F21440FFF702FD40F2144091
:10B2E000FFF7EEFC00E000BF00BF10BD004C0040C7
:10B2F00000BCFFBFC16821F40051C1607047C16844
:10B3000041F40051C160704710B5024602EB911044
:10B31000006801F01F040123A340184008B1012078
:10B3200010BD0020FCE710B500EB9112126801F08F
:10B330001F040123A3409A4300EB91131A6010BD30
:10B3400010B500EB9112126801F01F040123A34015
:10B350001A4300EB91131A6010BD70B5024600232A
:10B360000024C1F38910105801F01F060125B540D3
:10B3700000EA050302EB91500068C1F30446012581
:10B38000B54000EA050414B10BB1012070BD0020E6
:10B39000FCE7C26822F4C062C260C2680A43C260AD
:10B3A0007047C26822F00402C260C26801F0040360
:10B3B0001A43C2607047026922F440520261026976
:10B3C0000A4302617047C26822F00802C260C26884
:10B3D00001F008031A43C2607047C26822F4805229
:10B3E000C260C2680A43C2607047000010B50029FD
:10B3F0000AD00878002807D005487844FBF71EFBE0
:10B40000002801D0002010BD0248784410BD000083
:10B41000DA020000D202000010B500290AD0087834
:10B42000002807D005487844FBF708FB002801D026
:10B43000002010BD0248784410BD0000BE0300008B
:10B44000B603000070B504460D466068421B04F167
:10B4500008004119FBF75BFA6068401B606070BD33
:10B46000002141607047000070B504460E46154645
:10B47000204600F061F82844B0F5807F04DD0948DB
:10B48000FDF764F8002070BD04F1080162685018EF
:10B490002A463146FBF7F6F96068284460600120CF
:10B4A000F1E7000038B6020870B504460D46606842
:10B4B000FF2807DC6168481C606004F108004554FF
:10B4C000012070BD0248FDF741F80020F9E70000B7
:10B4D0004DB6020810B504462046FDF741FA044671
:10B4E00000206060204610BD70B505460C46002C5B
:10B4F00008DB284600F020F8A04203DD05F1080033
:10B50000204470BD0048FCE70802002070B50446E6
:10B510000D466068402807DA6168481C606004F1E5
:10B5200008004554012070BD0248FDF70FF80020C7
:10B53000F9E7000062B602080146486870474FF01C
:10B540004070E1EE100A7047FBF79ABD00540040CE
:10B55000004C004000440040003C00400D00000052
:10B56000000000000000000030313233343536373F
:10B570003839414243444546403058003031323337
:10B580003435363738396162636465664030780037
:10B59000040000080000000000000002000100009C
:10B5A0001000000002400000000000A000000000A9
:10B5B00005400000000000C8000000000C40000032
:10B5C0000000409C00000000194000000020BCBEAC
:10B5D0000000000034400000BFC91B8E00000004C2
:10B5E000B5400000504BCFD06607E2CF010000000D
:10B5F0006C4100003E8251AADFEEA734010000003A
:10B60000D9420000DCB5A0E23A301F97FFFFFFFFF0
:10B61000B4450000FD25A0C8E9A3C14FFFFFFFFF0F
:10B62000FF3F00000000008000000000FF3F00001E
:10B63000000000800000000021212162756666651F
:10B64000722069732066756C6C21212100212121F3
:10B650006275666665722069732066756C6C21215F
:10B66000210021212162756666657220697320665A
:10B67000756C6C212121000051776572747931322B
:10B68000332100002F0000007339323135336767F2
:10B690005F31000073393231353367672E62656779
:10B6A00065742E74656368004D657465722E6672EC
:10B6B0006D00000018B80208000000200C02000015
:10B6C0006C6102083CB802080C02002064B700005C
:10B6D000A86102081001000043000000F8FFFFFF0E
:10B6E0000040404040404040404041414141414095
:10B6F000404040404040404040404040404040404A
:10B7000040050202020202020202020202020202D8
:10B7100002202020202020202020200202020202DD
:10B720000202909090909090101010101010101035
:10B730001010101010101010101010100202020241
:10B740000202888888888888080808080808080885
:10B750000808080808080808080808080202020281
:10B760004000000000000000000000000000000099
:10B7700000000000000000000000000000000000C9
:10B7800000000000000000000000000000000000B9
:10B7900000000000000000000000000000000000A9
:10B7A0000000000000000000000000000000000099
:10B7B0000000000000000000000000000000000089
:10B7C0000000000000000000000000000000000079
:10B7D0000000000000000000000000000000000069
:10B7E000000000001C00000043000000F8FFFFFF05
:10B7F0000C0000000E0000000F0000002E000000F2
:10B80000B5E2FFFF85E2FFFF99E2FFFFC1E6FFFF20
:10B810009DE6FFFF05E6FFFF02190104FF0E270763
:10B82000017302143000155994B6020888B6020854
:0CB8300078B6020884B60208A8B6020828
:04000005080261315B
:00000001FF
