:020000040800F2
:1000000020B00020C9020008EF1B0008E71B000811
:10001000EB1B0008E11B0008DD1C000800000000CD
:10002000000000000000000000000000F31B0008BA
:10003000E51B000800000000F11B0008F51B00088C
:10004000E11C0008E3020008E3020008E3020008E4
:10005000E3020008E3020008E3020008E3020008EC
:10006000E3020008E3020008E3020008E3020008DC
:10007000E3020008E3020008E3020008E3020008CC
:10008000E3020008E3020008C51B0008E3020008C1
:10009000E3020008E3020008E3020008E3020008AC
:1000A000E3020008E3020008E3020008E30200089C
:1000B000E3020008E3020008E3020008E30200088C
:1000C000E3020008E3020008E3020008E30200087C
:1000D000E3020008E3020008E3020008E30200086C
:1000E000E3020008E3020008E3020008E30200085C
:1000F000E3020008E3020008E3020008E30200084C
:10010000E3020008E3020008E3020008E30200083B
:10011000B51C0008E3020008E3020008E30200083F
:10012000E3020008E3020008E3020008E30200081B
:1001300000F002F800F0B4F80AA090E8000C824445
:100140008344AAF10107DA4501D100F0A9F8AFF222
:10015000090EBAE80F0013F0010F18BFFB1A43F0A5
:100160000103184708770000287700000A444FF081
:10017000000C10F8013B13F0070408BF10F8014B06
:100180001D1108BF10F8015B641E05D010F8016B4B
:10019000641E01F8016BF9D113F0080F1EBF10F8AF
:1001A000014BAD1C0C1B09D16D1E58BF01F801CBD2
:1001B000FAD505E014F8016B01F8016B6D1EF9D555
:1001C0009142D6D37047000000230024002500266A
:1001D000103A28BF78C1FBD8520728BF30C148BFAA
:1001E0000B6070476E2900F05581702900F03B824A
:1001F000662906F05586652906F05286672906F0BD
:100200004F866129AFF3008003681B0A28BF41F0C5
:100210008001692900F00281642900F0FF807529BE
:1002200000F0FC806F2900F0C881782900F0078277
:10023000E92900F0F586E42900F0F286F52900F0BE
:10024000EF86EF2900F0C581F82900F006820368E7
:10025000DB0928BF41F08001632900F0BE867329C5
:1002600000F0C386E32900F0CE86F32900F0D386A0
:10027000002070471FB506F00EFE00F09BFF040043
:100280000020002106F0C0FC401C6060002000211E
:1002900006F0A4FCE06000F0F3FB1FBD10B510BD3C
:1002A00001F08CF81146FFF7E5FF05F066FF01F05D
:1002B000AAF803B4FFF7F2FF03BC01F0ADF80000A9
:1002C00080F30888704700000948804709480047C4
:1002D000FEE7FEE7FEE7FEE7FEE7FEE7FEE7FEE7F6
:1002E000FEE7FEE704480549054A064B7047000053
:1002F0000D1C000831010008208C002020B00020D7
:1003000020900020209000201CB50C46064B7B441A
:1003100069460090204600F03EFE044600206946F3
:1003200000F04CFE20461CBDAB0C00000FB41CB509
:10033000084B06AA7B4469460090059800F02BFE06
:1003400004460020694600F039FE20461CBC5DF8DA
:1003500014FB0000850C000070B504468569006838
:10036000C10601D5302600E02026C00707D070BDA9
:10037000D4E9012130469047206A401C20626D1E5E
:10038000F6D570BD70B5044685690078C00707D101
:1003900070BDD4E9012120209047206A401C2062D2
:1003A0006D1EF6D570BD09684A0501D540B270478B
:1003B000C905FCD500B2704709684A0501D5C0B22D
:1003C0007047C905FCD580B2704770B50C4605462C
:1003D000012A05D02878800600D5EA69002302E0CA
:1003E000012305E05B1C934202D2E05C0028F9D1B6
:1003F000A869E618C01AA861286A18442862284625
:10040000FFF7AAFF04E0D5E9012114F8010B90479A
:10041000B442F8D32846FFF7B5FF70BD2DE9F0418F
:100420000646002410687529314616A510D0FFF73E
:10043000BAFF002802DA404213A507E031688A07B4
:1004400001D512A502E0490704D511A5012401E058
:10045000FFF7B2FF00210A2206F1240709E0B0FBF2
:10046000F2FCB0FBF2F302FB1C003030785418466B
:10047000491C0028F3D123462A463046BDE8F04106
:1004800000F01BBB000000002D0000002B0000004E
:100490002000000011680268006A530501D5087049
:1004A0000AE0D30501D5088006E0130603D5C2177C
:1004B000C1E9000200E00860012070472DE9FF5FFC
:1004C00015468A460446DFF8AC80F8440027D8E990
:1004D00000103E46CDE9001010E03AF816106A46CA
:1004E00002A800F0DBFD411C07D02178890603D566
:1004F000E269391891420DD80744761C20788006AD
:1005000002D5E069B84205DDAE42E6DB3AF81600F6
:100510000028E2D1A069C01BA0612046FFF71CFFA4
:10052000D8E90010CDE90010002017E03AF81810C3
:100530006A4602A800F0B2FDB0F1FF3F81460BD041
:1005400000250DF1080B05E0D4E901211BF8050099
:1005500090476D1C4D45F7D308F10100B04280462D
:10056000E4DB206A384420622046FFF70BFFBDE839
:10057000FF9F00000672000030B4002100F1240447
:1005800008E002F00705D208303542EA4372DB0882
:100590006554491C52EA0305F3D10468002310A2F4
:1005A000250707D5A40600D421B1C46901230DA2F3
:1005B000641EC46130BC00F080BA10B50446214608
:1005C0001068FFF7F9FE02462046BDE81040002300
:1005D000D2E7D21D22F00701D1E90023CCE70000C9
:1005E0000000000030000000F0B40D46018809054D
:1005F00002D5214C7C4402E01F4C7C440E34002187
:1006000000F1240608E002F00F071209E75D42EA54
:1006100003721B097754491C52EA0307F3D102788D
:100620000023120704D5702D06D009B1022311341E
:100630002246F0BC00F041BA01231034F8E770B54F
:1006400004460D4621461068FFF7B6FE02462946CD
:100650002046BDE870400023C6E7D21D22F0070304
:10066000D3E90023C0E70368126843F02003036066
:100670000823C3610023B7E7E47000002DE9F05FB1
:10068000894604464FF0000ADFF874B1FB44C0F815
:1006900020A02046E1688847002874D0252806D08D
:1006A000D4E901219047206A401C2062F1E700262E
:1006B0005F462046E16888472028054607DB312D44
:1006C00005D2781910F8200C08B10643F1E7B007FD
:1006D00001D526F00406C4F81CA00027C4F818A011
:1006E0002A2D09D0284605F0E3F838B304EB870833
:1006F000303DC8F8185019E059F8041B204604EBA7
:1007000087029161E1688847012F054618D1E069A9
:10071000002820DA26F020061DE0D8F8180000EBAB
:10072000800005EB40003038C8F818002046E1682A
:100730008847054605F0BCF80028EED1012F0AD005
:100740002E2D08D12046E16888477F1C0546022FE0
:1007500046F02006C4DBA069002803DA404246F0D8
:100760000106A061F00701D026F010066C2D0BD019
:10077000682D09D04C2D39D06A2D35D0742D35D047
:100780007A2D33D016E038E0E1682F4620468847BE
:10079000B842054609D16C2F26D04FF48060E1683D
:1007A000064320468847054604E06C2F1AD04FF4D4
:1007B000807006430DB3A5F14100192802D82035F9
:1007C00046F400664A462946204626604E46FFF714
:1007D00009FD80B101280BD0F61D26F0070000F1BD
:1007E000080956E74020E4E78020D8E70020D6E754
:1007F00006F104094DE7284652E7206ABDE8F09F5C
:100800007470000010B5431C02E010F8011B71B1B8
:100810008107FAD14FF0013202C88C1A8C4314EAD6
:10082000C211F9D0C01A0A0603D0C01E10BDC01AEA
:1008300010BD0A0401D0801E10BD0902FCD0401E6C
:1008400010BD032A40F2308010F0030C00F0158038
:1008500011F8013BBCF1020F624498BF11F801CBC3
:1008600000F8013B38BF11F8013BA2F1040298BF28
:1008700000F801CB38BF00F8013B11F0030300F092
:100880006780083AC0F0088051F8043B083A51F8F4
:1008900004CBA0E80810F5E7121D5CBF51F8043B3B
:1008A00040F8043BAFF30080D20724BF11F8013BAE
:1008B00011F801CB48BF11F8012B24BF00F8013B10
:1008C00000F801CB48BF00F8012B7047431A28BF3E
:1008D0009A427FF6B6AF032A1044114440F22680B4
:1008E00010F0030F1EBF11F8013D521E00F8013D2C
:1008F00010F0030F7FF4F6AF11F0030300F0018452
:10090000083AC0F00B8051F8043D083A51F804CD84
:1009100040F8043D40F804CDFFF7F3BF121D5CBF63
:1009200051F8043D40F8043DAFF30080D20724BFE6
:1009300011F8013D11F801CD48BF11F8012C24BF79
:1009400000F8013D00F801CD48BF00F8012C7047C8
:1009500010B5203AC0F00B80B1E81850203AA0E85A
:100960001850B1E81850A0E81850BFF4F5AF5FEA8E
:10097000027C24BFB1E81850A0E8185044BF18C941
:1009800018C0BDE810405FEA827C24BF51F8043BE8
:1009900040F8043B08BF7047D20728BF31F8023B3C
:1009A00048BF11F8012B28BF20F8023B48BF00F8D0
:1009B000012B70474FF000020429C0F0128010F0A4
:1009C000030C00F0CA83CCF1040CBCF1020F18BF79
:1009D00000F8012BA8BF20F8022BA1EB0C0100F0BE
:1009E000BCBB5FEAC17C24BF00F8012B00F8012BDF
:1009F00048BF00F8012B70474FF0013C50F8042B22
:100A000051F8043B9A4221D1A2EB0C03934313EA21
:100A1000CC1317D150F8042B51F8043B9A4215D14E
:100A2000A2EB0C03934313EACC130BD150F8042B25
:100A300051F8043B9A4209D1A2EB0C03934313EA09
:100A4000CC13DBD04FF00000704700BFD01A01BAC2
:100A5000B1FA81F101F0180122FA01F0CB40C1F1A5
:100A60002001DBB2C0B2C01A2CFA01F3D11A9143B3
:100A700011EAC311E6D17047704770477047000014
:100A800070B5064C7C44064D7D4403E0206820444C
:100A90008047241DAC42F9D170BD0000306F0000CA
:100AA000506F000010B500F089FB006810BD10B554
:100AB000044600F083FB046010BD2DE9F0470D46AD
:100AC00099469246044600F124080168880604D538
:100AD000E06921F01001216000E00120A84201DD61
:100AE000471B00E00027A1697A1902EB0900081AE8
:100AF000A0612078C00602D42046FFF72DFC002616
:100B000008E0D4E901211AF806009047206A401C49
:100B1000761C20624E45F4DB2078C0060AD52046BC
:100B2000FFF71AFC06E0D4E9012130209047206A43
:100B3000401C2062381EA7F10107F4DC07E0D4E96D
:100B4000012118F805009047206A401C2062281EE9
:100B5000A5F10105F3DC2046FFF714FC2078000620
:100B600002D50220BDE8F0870120FBE770472DE9A0
:100B7000FF4F0C461E464FF0FF378BB0D2E9000105
:100B8000DDF860800A908A46C1F30A5505B93D46F2
:100B9000002108464FF00000BAF1000F00F44000B9
:100BA00005DA00EB80004FF4400101EA50004FEA03
:100BB0009059B9F1010F00DDB9460A9850EA4A0090
:100BC0000ED044F61050A5F2FF3545432F14B8F16E
:100BD000000F1ED07542291E1EDDC9F100021CE067
:100BE000B8F1010F4FF0000001D0302103E0F243D3
:100BF00005E02154401CB042FBDB304600220021BE
:100C000021540B99C1F80880C1E900200FB0BDE85C
:100C1000F08FBD1B6D1CDEE74A4600DA694206A86C
:100C200000F056FB06AB93E8070003AB83E8070030
:100C300050460A9900F0F7FB8DE80700A0F5005038
:100C40001F3800900398002D0ADD42F21F014A462A
:100C50000844002303A90390684600F060FE09E001
:100C6000A0F500504A461F38002303A903906846A8
:100C700000F06AFE8DE807000004000C03D04FF07E
:100C8000FF30410800E01046B8F1000F03D0002209
:100C9000009215461EE0751E05D400F093FA30321E
:100CA00062556D1EF9D5B3460122084302D00022D9
:100CB0007F1C04E02078302801D100227F1E002A0A
:100CC000099784D01DE0112D07DA00F07BFA30324D
:100CD00062556D1C50EA0102F5D1084302D000981C
:100CE000C8B10EE00021681E05E0235C625C63541D
:100CF0002254401E491C8142F7DBAB46A81B401E14
:100D00000990002004F80B000B98099AC0F808809D
:100D1000C0E9002B7AE711264FF0000857E72DE9CC
:100D2000F04F88460446D21D22F0070191B0D1E968
:100D30000001CDE90A0104F0EEFA02460B98C00F5B
:100D400001D02D2007E02068810701D52B2002E08B
:100D5000202101EAC000032A099001D0072A05DBFF
:100D600003464146204600F073FA0BE120788006E6
:100D700001D5E06900E00620B8F1650F814606D094
:100D8000B8F1660F18D0B8F1670F70D131E00020CC
:100D9000B9F1110F009001DB112301E009F101030A
:100DA0000AAA01A90CA8FFF7E2FEDDE90C700026F3
:100DB00009F10105834647E001204B4600904FF0C2
:100DC00000470AAA01A90CA8FFF7D1FEDDE90DB082
:100DD0000C995D46002610B909F101000D18B9EB18
:100DE000050003D4C0F1FF3609F10105A5EB0900A8
:100DF0002BE0B9F1010F01DA4FF001090020B9F140
:100E0000110F0090484601DD112300E003460AAAB5
:100E100001A90CA8FFF7ABFEDDE90C704D460026DA
:100E20008346207800070AD4AB4500DA5D4601A866
:100E3000012D04DD411911F8011C302907D04F455F
:100E400002DA17F1040F04DA012082460FE06D1E6A
:100E5000EEE7002F02DCED1B3E4403E0781CA842C5
:100E600000DD7D1CB81B00F1010A4FF0004720781F
:100E7000000703D4AA4501DB4FF0FF3A0021B7F188
:100E8000004F0DF143088DF8431024D002202B238E
:100E9000002F01DA7F422D230A21021EA0F101005A
:100EA00000DC5FB197FBF1FC97FBF1F201FB1C7CCE
:100EB00017460CF1300C08F801CDEEE7A8F101005F
:100EC00003702188090501D5452100E06521A0F1C5
:100ED000010800F8011C09980FA9A1EB0807FF1DE4
:100EE00000B10120411901EBEA70A1693844081AE8
:100EF000401EA0612078C00602D42046FFF72CFADD
:100F0000099828B1D4E901219047206A401C206249
:100F10002078C00622D52046FFF71EFA1EE0002EDC
:100F200004DBB34502DD01A8805D00E03020D4E998
:100F300001219047206A401C2062761CAAF1010022
:100F40005FEA000A0AD100F035F9C0680168405C28
:100F5000D4E901219047206A401C2062281EA5F197
:100F60000105DCDC07E0D4E9012118F8010B90470A
:100F7000206A401C2062381EA7F10107F3DC2046DE
:100F8000FFF700FA032011B041E6000001694A1C96
:100F900002610878704700B58FB0CDE901310021BA
:100FA000059105497944CDE9031011466846FFF7DC
:100FB00065FB0FB000BD0000E5FFFFFF0A6802F807
:100FC000010B0A60704710B5436913B1AFF300809D
:100FD00001E0FFF7FAF9012010BD127800F12401B9
:100FE0000A7000224A700122EDE711684FF0FF32CB
:100FF000E9E710B5436913B1AFF3008001E0FFF7F3
:101000005DFA012010BD128800F1240182840022C3
:10101000C2840122EDE711684FF0FF32E9E70000DA
:101020002DE9F0418046D21D22F007020025D2E9C9
:101030000002F52915A614D0011E72F1000106DA8E
:101040000023D0EB030063EB020211A608E0D8F8FE
:1010500000108B0701D50FA602E0490701D50EA6A7
:1010600001251146002408F1240704E000F0AAF845
:1010700030323A55641C50EA0102F7D12B46324611
:1010800021464046BDE8F041FFF717BD00000000D3
:101090002D0000002B0000002000000070B5164657
:1010A0000C46054600F07EF8036893F8010101281C
:1010B00006D0FF2C0FD8185D68B101202C7070BDD0
:1010C000D3F807013246214603F2071303442846AA
:1010D000BDE8704018474FF0FF3070BD431A28BF7D
:1010E0009A427FF635AC104410F0030F11441EBF36
:1010F00011F8013D521E00F8013D10F0030F7FF47E
:10110000F6AF103AC0F00A8010B531E91850103A25
:1011100020E91850BFF4F9AFBDE81040530724BFD1
:1011200031E9081020E9081044BF51F8043D40F8A7
:10113000043D12F0030F08BF7047D20728BF31F8F3
:10114000023D48BF11F8012C28BF20F8023D48BFDE
:1011500000F8012C70474FF0000200B5134694468A
:101160009646203922BFA0E80C50A0E80C50B1F1FF
:101170002001BFF4F7AF090728BFA0E80C5048BF13
:101180000CC05DF804EB890028BF40F8042B08BFB1
:10119000704748BF20F8022B11F0804F18BF00F8AD
:1011A000012B704710B500F005F8001D10BD00BF01
:1011B000595A000000487047DC8B002000487047F7
:1011C000BC8B002030B5B0F10A024FEA900E71F1ED
:1011D00000034EEA817EB0EB0E0061EB91014FEA15
:1011E000101E4EEA017E10EB0E0041EB11114FEA8A
:1011F000102E4EEA016E10EB0E0041EB11214FEA6A
:10120000104E4EEA014E10EB0E0041EB114140181A
:1012100041F100014FEAD00040EA41704FEAD101AC
:1012200010EB80054FEA810444EA907444EB01041A
:101230006D1944EB0404521BA3414FF0000348BF57
:101240000A3200D530BD401C41F1000130BD000024
:101250002DE9F0411F46044603260168072A01F4E0
:10126000006004DB08B116A505E016A503E008B18F
:1012700015A500E015A521F010002060A069C01E92
:10128000A0610FB1401EA0612046FFF765F84FB185
:10129000D4E9012138469047206A401C2062C01CD6
:1012A000206206E0206AFAE7D4E9012115F8010B73
:1012B0009047761EF8D22046FFF764F8BDE8F0812B
:1012C0004E414E006E616E00494E4600696E6600EA
:1012D0002DE9F047814616468AB0354878440DC856
:1012E0008DE80D0032487844801C03AC0DC884E8BA
:1012F0000D0041F69B300844372190FBF1F290FB42
:10130000F1F5A5F1800501FB12041B3C02D56442F6
:10131000012000E00020DFF898A080460027FA4472
:10132000AAF1BE0A0EE0E0070AD03246684607EB93
:10133000470101230AEB810100F006FB8DE807005D
:1013400064107F1C002CEED1194F7F44AE3F19E092
:10135000E80715D007EB04100DF1180A90E80E000D
:101360008AE80E00C068F04201D198190890324610
:10137000012306A903A800F0E7FA03AB83E80700FE
:101380006D10641C002DE3D14FF001033246694615
:10139000B8F1000F03A802D000F0C1FA01E000F09C
:1013A000D3FAC9E90001C9F808200AB0BDE8F087FE
:1013B000B464000000487047BC8B00207546FFF7FE
:1013C000F9FFAE4605006946534620F00700854602
:1013D00018B020B5FEF786FFBDE820404FF00006AC
:1013E0004FF000074FF000084FF0000B21F007010D
:1013F000AC46ACE8C009ACE8C009ACE8C009ACE850
:10140000C0098D46704710B50446AFF300802046F2
:10141000BDE81040FEF74DBF01491820ABBEFEE706
:101420002600020070475FEA400C08BF91F0000FF1
:101430004FEA8C234FEAC12243EA51514FEA1C5034
:1014400018BF00F5F0404FEA300018BF41F00041EE
:101450005FEA6C5C00F02980BCF1FF3F08BF40F000
:1014600080407047130C06BF12044FF0100C4FF071
:10147000000C130E04BF12020CF1080C130F04BF72
:1014800012010CF1040C930F04BF92000CF1020C3A
:10149000D30F04BF52000CF1010C11464FF00002B3
:1014A000A0F11F00A0EB0C00704711F0004F08BF27
:1014B000704731F000413FF4D5AF0B0C06BF090473
:1014C0004FF0100C4FF0000C0B0E04BF09020CF192
:1014D000080C0B0F04BF09010CF1040C8B0F04BFA7
:1014E00089000CF1020CCB0F04BF49000CF1010C78
:1014F000CCF12003A0EB0C0022FA03F302FA0CF269
:1015000041EA030100F10100704720F07F4C80EABE
:10151000030023F07F47ACEB070303F57C5300F097
:10152000004003F1FF032DE980494FEA154B09B450
:101530004FEA144325EA0B4E24EA03480FF204262F
:1015400006EB132749083E785FEA320203FB066781
:10155000C7F5000707FB06F64FEA54374FEAD646B1
:1015600006F1020607FB066CCCF1005C4FEA1C4753
:101570002CEA074C07FB06F40CFB06F504EB1546BA
:101580004FEA961634BF00204FF000404FEAD137A3
:1015900006FB07FC4FEA1C4C0CFB0BF7D21B03FBB2
:1015A0000CF761EB07010CFB0EF7B0EB074072EB99
:1015B00017420CFB08F734BFA2EB0742B2EB07421D
:1015C00061EB17414FEA0C444FEA910706FB07FC19
:1015D0004FEA1C4C0CFB0BF7B0EBC74072EB5732D9
:1015E00003FB0CF734BFA2EBC742B2EBC74261EB7F
:1015F00057310CFB0EF7B0EBC70072EB57720CFBC8
:1016000008F734BFA2EBC702B2EBC70261EB577118
:10161000039F4FEA816141EA921104EBCC044FEA47
:10162000D1374FEA826206FB07FC42EA90124FEA8A
:1016300080604FEA1C4C0CFB0BF7D21B03FB0CF732
:1016400061EB07010CFB0EF7B0EB074072EB1742A2
:101650000CFB08F734BFA2EB0742B2EB074261EB89
:1016600017414FEA8C554FEA910704EB9C2406FB87
:1016700007FC4FEA1C4C0CFB0BF7B0EBC74072EBBE
:10168000573203FB0CF734BFA2EBC742B2EBC742A1
:1016900061EB57310CFB0EF7B0EBC70072EB5772E2
:1016A0000CFB08F734BFA2EBC702B2EBC70261EB39
:1016B000577115EB4C254FEA816141EA92114FEACF
:1016C00082624FEAD13742EA901206FB07FC44F1EE
:1016D00000044FEA80604FEA1C4C0CFB0BF7D21B56
:1016E00003FB0CF761EB07010CFB0EF7B0EB0740B7
:1016F00072EB17420CFB08F734BFA2EB0742B2EBC8
:10170000074261EB174115EB1C154FEA813141EAA5
:1017100092414FEA823242EA90424FEA80304FEAE9
:101720000C7644F1000448EA03434EEA0B484FF0BC
:10173000000EB2EB080C71EB030724BF624639467A
:101740004EEB0E0E4FF0000B0018524149414BEB8F
:101750000B0BB2EB080C71EB03077BF1000B24BF02
:10176000624639464EEB0E0E4FF0000B0018524108
:1017700049414BEB0B0BB2EB080C71EB03077BF110
:10178000000B24BF624639464EEB0E0E51EA0207AB
:1017900018BF46F0010616EB0E7655F1000254F123
:1017A000000103D5BDE88901BDE80088BDE88901D5
:1017B000BDE80048B619524141EB0101A3F1010314
:1017C000704780807F7E7D7C7B7A797877767675AE
:1017D0007473727171706F6E6E6D6C6C6B6A6A6926
:1017E0006868676666656464636362616160605FC0
:1017F0005F5E5E5D5D5C5C5B5B5A5A595958585739
:1018000057565655555554545353525252515150A0
:1018100050504F4F4F4E4E4D4D4D4C4C4C4B4B4BF3
:101820004A4A4A4949494848484747474746464639
:101830004545454444444443434343424242424174
:101840004141002B9C4630D477002BD01CB54FEA89
:10185000370703B44FF010004FF01001BAF1000F3A
:1018600006D0BCF1000FDCBF40F0080040F00801DA
:101870004FF000000FBCBDE810400BF1010BBBF1B5
:10188000010F08BF5FEA170722BF12F1010211F131
:1018900001014FF0004143F1000300F0004043EA32
:1018A00000007047F9D35708D0E746EA064613F11F
:1018B000400F4FEA16461FDD13F1200FDFBF16431E
:1018C0000A46002120335B42BED0C3F1200746EA1E
:1018D000064602FA07F74FEA164646EA0706C3F13C
:1018E000200722FA03F201FA07F721FA03F14FF079
:1018F000000342EA0702A7E746EA020646EA06466E
:101900004FEA164646EA0106BCBF46EA0646360CD2
:101910004FF000034FF000024FF0000194E72DE973
:10192000804C9A46934670B491E8380007C831EA73
:10193000400C48BF34EA430C03D5FFF7E6FDFFF740
:1019400080FFF0BCBDE8008C2DE9804C9A469346A0
:1019500070B491E8380007C810F0804F08BF13F04A
:10196000804F03D100F005F8FFF76BFFF0BCBDE836
:10197000008C20F07F4780EA030023F07F4C07EBC8
:101980000C03A3F57C5300F00040A3F1FE0392F09A
:10199000000F00F0B38095F0000F00F077802DE984
:1019A00001494FEA11404FEA144621EA004800FB82
:1019B00006FC24EA064708FB06F607FB08F800FBCE
:1019C00007F718EB06484CEB164C4FEA124B18EB96
:1019D00007484FEA15464CEB174022EA0B4E0BFB2B
:1019E00006FC25EA06470EFB06F607FB0EFE0BFB80
:1019F00007F71EEB064E4CEB164C4FF000061EEBA5
:101A0000074E4CEB174B18EB0B0840F1000018EB9E
:101A10000E0B58EB000840F100008F1A4FF0000148
:101A20003CBFC943661B14BFB5EB040C00213CBF8F
:101A3000C943F61B4FEA17444EEA8E0E27EA0445C7
:101A40004FEA1C4704FB07622CEA074C05FB07F72B
:101A50000CFB05F604FB0CFC16EB074642EB1742A9
:101A600016EB0C4642EB1C421BEB060658EB02023F
:101A7000414146EA9E0601D5BDE80189B6195241A9
:101A800041EB0101A3F10103BDE801894FEA1445CF
:101A90004FEA114724EA054621EA074C05FB07F403
:101AA00006FB07F70CFB06F105FB0CFC11EB0741ED
:101AB00044EB17444FEA124711EB0C4144EB1C4432
:101AC00022EA074C05FB07F206FB07F70CFB06F6BC
:101AD00005FB0CFC16EB074642EB174216EB0C46D7
:101AE00042EB1C456A1854F1000148BF7047B61913
:101AF000524141EB0101A3F10103704795F0000F42
:101B000037D04FEA11424FEA144721EA024624EA4D
:101B1000074C02FB07F106FB07F70CFB06F402FB80
:101B20000CFC14EB074441EB17414FEA154714EB4B
:101B30000C4441EB1C4125EA074C02FB07F506FB70
:101B400007F70CFB06F602FB0CFC16EB074645EB11
:101B5000174516EB0C4645EB1C42121951F10001DA
:101B600048BF7047B619524141EB0101A3F101038F
:101B700070474FEA14454FEA114724EA054621EA27
:101B8000074C05FB07F106FB07F70CFB06F24FF0CD
:101B9000000605FB0CFC12EB074241EB174112EB70
:101BA0000C4251EB1C4148BF7047921841EB0101B8
:101BB000A3F10103704710B504460021204602F04E
:101BC000C3F810BD10B502F0A1FF0221034803F0D5
:101BD0002FFF0421014803F02BFF10BD002401401A
:101BE00000BFFEE7704700BFFEE700BFFEE770479B
:101BF0007047704710B504480068401C02490860EF
:101C000000F09CF810BD00000800002008B5264830
:101C1000006840F47000244908602448006840F0DF
:101C200001002249086000BF2048006800F002005F
:101C30000028F9D000BF1D48406840F080001B49D3
:101C400048600020009002E00098401C009000983E
:101C50005028F9D31548406840F090001349486077
:101C60000020009002E00098401C0090009850284E
:101C7000F9D300BF0D48406820F003000B494860CD
:101C8000084600680A490840084908604FF41F00E8
:101C900088600846006820F48020086000204860C2
:101CA000C86200F06BF808BD88ED00E0001002404B
:101CB000FFFFF6FE10B507490748006804F045FF2E
:101CC00038B10548006804F0BBFEC4B2204600F0FD
:101CD00009FF10BD05030500A86E000800BFFEE760
:101CE00010B501F00BFC044600BF10BD10B5124842
:101CF00000684FF47A71B0FBF1F4601EB0F1807FA0
:101D000001D301200FE0601E4FF0E02148610F2158
:101D10004FF0FF3000F01EF800204FF0E021886106
:101D200007200861002008B100BFFEE70021481E1F
:101D300000F010F810BD00000C00002004480068FE
:101D400020B103480068401E014908607047000048
:101D50008801002010B5002807DA0A07140E054A8A
:101D600000F00F031B1FD45403E00A07130E024AAE
:101D7000135410BD18ED00E000E400E010B500F0D1
:101D800001F810BD002000213E4A126842F4803262
:101D90003C4B1A6000BF401C3A4A126802F4003102
:101DA00019B94FF6FF729042F5D1364A126802F423
:101DB00000320AB900BFFEE7324AD26942F08052CF
:101DC000304BDA61304A126842F440422E4B1A60BE
:101DD0002C4A52682B4B5A601A4652685A601A466F
:101DE000526842F480625A601A46526822F44032C5
:101DF0005A601A46526842F440325A601A46526893
:101E0000224B1A401F4B5A601A46526842F0006239
:101E10005A601A46126842F080721A6000BF194A6E
:101E2000126802F00072002AF9D0174A126842F4D0
:101E30008032154B1A6000BF134A526802F4803298
:101E4000002AF9D0104A126842F400320E4B1A6090
:101E500000BF0D4A526802F40032002AF9D0094A44
:101E6000526822F00302074B5A601A46526842F049
:101E700002025A6000BF034A526802F00802002AB8
:101E8000F9D070470010024000700040FFFFC3B758
:101E900002460120034B9A4202D1042900DD0020B2
:101EA00070470000000402400349086000BF024977
:101EB00009680029FBD170478801002070B500F047
:101EC0002FFF064D2846446801460868FEF7F8F9DA
:101ED0000021284604F0D0F9A04770BD0060020838
:101EE00070B505460C4622460249284600F0BCF86B
:101EF00070BD00009808002070B505460C462246CB
:101F00000249284600F0B0F870BD00004C080020DF
:101F10002DE9F04FADF6447DADF5805D05462846D0
:101F200003F0F6F9019001240CE005EB440003F006
:101F3000EFF9611E01AA52F82110084401A941F8E5
:101F40002400641CB4F5FA6FEFDB40F2355640F222
:101F5000C2674FF0FF384FF00009304620E04FF0E5
:101F6000FF344FF0000C002110E001EB000A0DF1EE
:101F7000040B5BF82AA05BF821B0AAEB0B02A2428B
:101F800000D21446624500D99446491CB1F5857FBC
:101F9000EBDBACEB0403434501D298468146401C81
:101FA000B842DCDB48460DF6447D0DF5805DBDE8AA
:101FB000F08F10B5024600202DE001F118031B5CE4
:101FC00043B3131D03EBC00393ED000A01EBC00301
:101FD000D3ED000A30EE200A131D03EBC00383ED9E
:101FE000000A131D03EBC00393ED010A01EBC003CC
:101FF000D3ED010A30EE200A131D03EBC00383ED7D
:10200000010A02F13C0353F820305B1C02F13C044E
:1020100044F82030401C0328CFDB10BD10B5044627
:10202000002016E0002204F13C0141F820209FED41
:102030000D0A211D01EBC00181ED000A9FED090A87
:10204000211D01EBC00181ED010A04F138010A54A0
:10205000401C0328E6DB01F051FA21680844A06423
:1020600010BD00000000000070B588B006460C46A8
:10207000154629462046FFF79CFF1C2204F120014B
:1020800001A8FEF765FC01F039FAA16C884247D33C
:1020900000203AE004F13C0151F8201049B3211D21
:1020A00001EBC001D1ED000A04F13C0151F8201010
:1020B00000EE101AB8EEC00A80EE801A04F120017A
:1020C00001EBC00181ED001A211D01EBC001D1ED32
:1020D000010A04F13C0151F8201000EE101AB8EE8C
:1020E000C00A80EE801A04F1200101EBC00181EDED
:1020F000011A04F13C0151F8201009B1012200E05D
:10210000002204F138010A54401C0328C2DB1B22C0
:1021100004F1200101A8FEF71BFC2046FFF77EFF1B
:102120001C2201A93046FEF713FC08B070BD70B543
:1021300004460D462560201D00F09CFB041F04F1A1
:10214000200000F097FBA0F120042046FFF766FF77
:10215000204670BD00B50246092A03D2002000F0D7
:1021600019FB00BD122A03D2012000F013FBF8E78F
:10217000022000F00FFBF4E72DE9F0412DED028B7A
:1021800004460D461746F748007800F0010060B994
:10219000F44803F0EAF840B103230822F249F34877
:1021A00003F0D1F8EF48AFF30080F148005D0F284D
:1021B0000AD2DFE800F0088493A2B1C2D1FBFAF999
:1021C000F8F7F6F5F40007B9F9E1002695ED000AF5
:1021D000E84850F8240000EE900AF8EEE00AB2EE6B
:1021E000041A00EE810AF0EE408A9FEDE30AF4EE55
:1021F000C08AF1EE10FA00D24FE09FEDE00AB0EE97
:10220000408A4FF0000895ED000ADFEDDD0AB4EEDC
:10221000E00AF1EE10FA16D295ED000ADFEDD80AC9
:1022200030EEC00AB0EE408AF2EE040A88EE200AD0
:10223000F7EE000A30EE200ABDEEC00A10EE100ADA
:10224000C0F100081EE095ED000ADFEDCE0AB4EE05
:10225000E00AF1EE10FA14DD95ED000ADFEDC90A8F
:1022600030EE600AB0EE408AF2EE040A88EE200AF0
:10227000F7EE000A30EE200ABDEEC00A10EE108A1A
:1022800000E09CE1BB4951F8241001EB0800042256
:10229000514204F0CFFC064600BFB64850F8240077
:1022A000B04200D18BE1B34840F82460AF4800EB66
:1022B000C40301222146022000F050FA7FE1AB491D
:1022C00001EBC40002F0C0FF38B1A84800EBC40322
:1022D00002222146032000F041FA70E1A34901EBFC
:1022E000C40002F0B1FF38B1A04800EBC4030322E0
:1022F0002146012000F068FA61E19C4901EBC4002D
:1023000002F0A2FF38B1994800EBC4030422214631
:10231000022000F059FA52E1944901EBC40002F0A6
:1023200093FF48B1914901EBC40041F2883100F0BC
:10233000E9FA05208E49085541E18C4901EBC400BA
:1023400002F082FF38B1894800EBC403062221461F
:10235000032000F039FA32E1844901EBC40002F0B5
:1023600073FF00287DD0834850F82400002803DD47
:10237000804850F8240003E07E4850F82400404292
:10238000064606EB86008049085C80B1774800EB82
:10239000C40307222146012000F0E0F90FE004E128
:1023A000F4E0CDE0BDE0ADE09DE08DE067E06F489A
:1023B00000EBC40307222146012000F005FA06EBDA
:1023C000860071490844807840B1684800EBC40336
:1023D00007222146052000F0C1F907E0634800EB21
:1023E000C40307222146052000F0EEF906EB860023
:1023F00065490844C07840B15C4800EBC40307223B
:102400002146062000F0AAF907E0584800EBC40373
:1024100007222146062000F0D7F906EB86005A492C
:102420000844007940B1514800EBC403072221461B
:10243000104600F093F907E04C4800EBC403072274
:102440002146104600F0C0F906EB86004E490844CC
:10245000007950B1454800EBC4030722214608200B
:1024600000E00BE000F07AF907E0404800EBC4031D
:1024700007222146082000F0A7F900BF9FE03B4952
:1024800001EBC40002F0E0FEE8B13A4850F8240045
:1024900018B900203649085515E0364850F8240090
:1024A000002808DD314800EBC4030822214609203A
:1024B00000F054F907E02D4800EBC4030822214640
:1024C000092000F081F97AE0284901EBC40002F00C
:1024D000BBFE38B1254800EBC40309222146022087
:1024E00000F03CF96BE0214901EBC40002F0ACFEC6
:1024F00038B11E4800EBC4030A222146032000F035
:102500002DF95CE0194901EBC40002F09DFE38B1E1
:10251000164800EBC4030B222146012000F01EF9EF
:102520004DE0124901EBC40002F08EFE38B10F48B5
:1025300000EBC4030C222146022000F045F93EE0E6
:102540000A4901EBC40002F07FFE48B1074901EBE4
:10255000C40041F2883100F0D5F90D200449085536
:102560002DE00000A802002029290008F008002022
:10257000A0010020E40800200080204300000000AB
:1025800000005C430000704324760008104901EB12
:10259000C40002F059FE38B10D4800EBC4030E220E
:1025A0002146032000F010F909E0094901EBC400BD
:1025B00002F04AFE10B100200649085500BF00BFD6
:1025C000054801F00FFDBDEC028BBDE8F081000075
:1025D000F0080020A0010020E408002010B5044607
:1025E00004F001010C4801F08BF8C4F340010B48E2
:1025F00001F086F8C4F38001094801F081F8C4F3C2
:10260000C001084801F07CF8012020EA14110648B6
:1026100001F076F810BD0000580000206000002096
:1026200068000020700000207800002010B52848C5
:10263000007800F0010048B9254802F096FE28B164
:10264000244800F071F92248AFF30080214800F0DF
:1026500051F900B910BD1F4800F05CF91E48007820
:1026600038B11E480068FFF7B9FF00201A4908700A
:102670002BE01A4800681B2808D1194800F01BFFFE
:1026800080F00104204601F04BFD0CE01348006887
:10269000FFF760FD38B900F0D3F8044621460F4833
:1026A000006801F04DFD1C2200210C48006804F078
:1026B000CCFA0A49086009681B2901D11F2101E0F1
:1026C000064909680846FFF789FF00BFC2E7000016
:1026D0009402002098020020A0020020A402002002
:1026E0008800002070B500240EE0012509E004EB0D
:1026F0008401124A02EB011101EBC50000F080F8E1
:102700006D1C0A2DF3DB641C032CEEDB0C4800F07F
:10271000EAFF0C4800F0E7FF0B4800F0E4FF0B482D
:1027200000F0E1FF0A4800F0DEFF4821094800F010
:10273000B8FE4821084800F0B4FE70BDA401002096
:102740005800002060000020680000207000002079
:102750007800002080000020880000202DE9F04152
:1027600005460C4616461F4604EB8401074A02EB59
:10277000011101EBC50000F04EF805480655642133
:10278000384600F0BFF8BDE8F0810000A401002049
:10279000A001002001460348405C08B101207047B9
:1027A0000020FCE7A001002070B50546002408E0E9
:1027B00005F118031A5D05EBC401E0B2FFF7DCFC7C
:1027C000641C032CF4DB70BD2DE9F04105460C467A
:1027D00016461F4604EB8401074A02EB011101EB88
:1027E000C50000F022F8054806556421384600F07F
:1027F00089F8BDE8F0810000A4010020A0010020BC
:1028000010B50446206800F06EFF0020207120689B
:1028100000F072FF10BD10B50446207920B90120E8
:102820002071206800F05BFF10BD10B504462079D0
:1028300020B100202071206800F05EFF10BD000074
:1028400070B50A4800F037FE0446094800F033FE30
:10285000054604B10DB91CB915B94FF0FF3070BD74
:102860000CB10020FBE70120F9E700008000002008
:102870008800002010B504460323082202492046A0
:1028800002F061FD044610BD212A0008017A417260
:10289000704710B50446207A6072204600F00BFEA7
:1028A0002072207A10BD70B504460D461646324699
:1028B0002946204600F01EFE0446002020722046D5
:1028C00070BD10B5044603220421D4E9000303F0CF
:1028D000B1FA10BD01604260704710B50446032292
:1028E0001821D4E9000303F0A5FA10BD016042608D
:1028F000704700000146024A08681268101A7047C3
:1029000008000020024A12680A4442607047000032
:102910000800002003490968016002490968416014
:10292000704700000800002010B504462046FFF75D
:10293000F1FF204610BD00002DE9F0412DED068B82
:1029400005460E4690463046FFF7E2FA04469FEDF4
:10295000300AB0EE409A00270CE008EB470002F086
:10296000AFFCB0EE408AB0EE490A08EE080AB0EEBD
:10297000409A7F1CA742F0DB00EE104AB8EEC00A76
:10298000C9EE000AB0EE608AB0EE480A02F0F5FC2B
:10299000F0EE40AA1F4802F009FC2AEE800A85EDFD
:1029A000010ADFED1B8ADFED1C9A9FED1CAA0027B0
:1029B0001AE006EB470002F097FCB0EE408AB4EE56
:1029C000CA8AF1EE10FA01D2B0EE48AAB4EEE98A52
:1029D000F1EE10FA01DDF0EE489AB0EE680A08EE6A
:1029E000080AF0EE408A7F1CA742E2DB00EE104AA4
:1029F000B8EEC00AC8EE800AB0EE608AB0EE480AAF
:102A000002F0BBFC85ED000ABDEC068BBDE8F08151
:102A100000000000A2030020CAF249F1CAF2497185
:102A20009FED040A80ED000A9FED020A80ED010A85
:102A3000704700000000000010B50F48FFF74DFF81
:102A40000E48FFF73EFF0121082003F059FA0C4819
:102A5000006803F0FFFF4FF4E1310948006803F01C
:102A6000A7FF08210648006804F0A5F8044800689C
:102A700004F03DF810BD00003000002038000020B8
:102A8000AC6E000870B505462846FDF7BBFE06464D
:102A900000240DE0295D1148006803F0D6FF00BF57
:102AA00007210E48006804F027F80028F8D0641CBD
:102AB000B442EFDB00240EE00948015D07480068DE
:102AC00003F0C3FF00BF07210448006804F014F8B6
:102AD0000028F8D0641C022CEEDB70BDAC6E000840
:102AE000B46E000810B50446204600F0F7FA10BD99
:102AF00010B52548FFF7F1FE2448FFF7E2FE00225B
:102B00001146342003F04CFB34200021002807DA62
:102B10000A07140E1E4A00F00F031B1FD45403E0D3
:102B20000A07130E1B4A135400BF1B48006803F02A
:102B300091FF4FF4E1311848006803F039FF00219C
:102B40001548006804F01DF800211348006804F0DF
:102B50003CF800211048006804F025F804210E48D4
:102B6000006804F016F808210B48006804F023F808
:102B700040F205310848006803F0DAFF06480068B3
:102B800003F0B5FF10BD0000200000202800002049
:102B900018ED00E000E400E0A86E000810B513484E
:102BA000006803F09FFF40F205311048006803F011
:102BB000B2FF0E48006803F04DFF342003F0E4FA42
:102BC0004FF4806304221021094803F033F94FF4D5
:102BD000006304221021064803F02CF94FF48060B2
:102BE000034948614000486110BD0000A86E00081C
:102BF0000010014070B504462046FDF703FE05466F
:102C00002946204600F002F870BD00002DE9F04191
:102C100004460D46264600270EE016F8011B08481C
:102C2000006803F012FF00BF07210548006803F0A9
:102C300063FF0028F8D07F1CAF42EEDBBDE8F081D7
:102C4000A86E000810B5FFF751F84FF4C06003F00C
:102C500009FB40F2026003F01BFC40F2036003F04A
:102C600017FC40F2046003F013FC40F2056003F02F
:102C70000FFC40F2066003F00BFC40F2076003F02B
:102C800007FC40F2096003F003FC4FF4A06003F07E
:102C9000FFFB40F2157003F0FBFB40F2167003F0EF
:102CA000F7FB40F20F7003F0F3FB40F20B6003F010
:102CB000EFFB40F2117003F0EBFB40F2137003F0F6
:102CC000E7FB4FF4C06003F0E3FB4FF4E06003F078
:102CD000DFFB40F2047003F0DBFB0F48406A0F4952
:102CE000086040F61D1003F0C1FB08B103F006FBBD
:102CF00040F20B7003F0CCFB01F040FF01F0C0FD8F
:102D0000FFF7F6FE01F0D0FF02F06AF802F092FA47
:102D1000FFF792FE10BD00000010024004000020EA
:102D200010B5FFF73BFF01F0D3FE10BD2DE9FE43C8
:102D30000746104A07CA8DE807006A460C230020A0
:102D4000154600260AE0014615F801CB0CEB811868
:102D500008EB0148A8EB01084046761C9E42F2DBD6
:102D60000446224604A13846FDF7E0FA3846BDE89D
:102D7000FE830000E8F7FF1F2558000070470000A1
:102D800010B54FF400510348FDF714FE002002492E
:102D9000086010BDBC6B0020A40300200FB410B568
:102DA000B4B037A81A901BA81A9A3699FDF7ACFA56
:102DB00000201A901BA8FDF725FD441C0D48006853
:102DC000204441F69C71884201DBFFF7D9FF0A4895
:102DD00002680068401C084B18601BAB07A101A8E3
:102DE000FDF7A4FA01A8FFF74DFE34B010BC5DF862
:102DF00014FB0000A4030020A80300202564203A4F
:102E000020257300034600207047014600207047CC
:102E10000948007830B1012806D0022806D00328DE
:102E200007D105E0052070470720FCE70A20FAE7F4
:102E300000BF00BF0A20F6E79C010020034800788D
:102E400008B9012070470020FCE7000000030020C3
:102E500003480078022801D1012070470020FCE7D8
:102E60000003002010B504460148FFF753FD10BDD4
:102E70000C03002000200149087070470003002067
:102E80002DE9F04105460C46302000F03BFF284676
:102E9000FDF7B8FC07462046FDF7B4FC3844801C1B
:102EA000C6B2304600F02EFF002000F02BFF28466F
:102EB000FDF7A8FCC6B2304600F024FF284600F01B
:102EC0001BFF204600F018FFBDE8F08130B589B047
:102ED00005460C46224605A101A8FDF727FA01A9DF
:102EE0002846FFF7CDFF09B030BD00002564000083
:102EF00010B52DED048B88B00446B0EE408AB2EEDA
:102F0000040AB4EEC08AF1EE10FA0CD218EE100AE0
:102F100003F050FF41EC190B53EC192B0CA1684640
:102F2000FDF704FA0BE0B6EE000A38EE000ABDEE3B
:102F3000C00A10EE102A08A16846FDF7F7F96946A5
:102F40002046FFF79DFF08B0BDEC048B10BD0000CC
:102F500025322E316600000025640000F0B593B0E4
:102F600004464A48007800F0010048B9474802F09A
:102F7000FCF928B14648FFF7D7FC4448AFF300807E
:102F80004448007820B101280FD002287BD168E0A6
:102F900041A0FFF703FF45A000F0BAFE3C48FFF751
:102FA000B9FC01203B4908706DE043A12046FDF7C4
:102FB00023FD002854D141A50BA8FFF7B7FE064614
:102FC0000420034602463FA1CDE9000603A8FDF711
:102FD000ADF9102000F096FE2846FDF713FC0746D9
:102FE00003A8FDF70FFC38440830C6B2304600F0A5
:102FF00089FE002000F086FE2846FDF703FCC6B2DD
:10300000304600F07FFE284600F076FE042000F0F7
:1030100079FE022000F076FE002000F073FE3C20D6
:1030200000F070FE002000F06DFE03A8FDF7EAFB43
:10303000C6B2304600F066FE03A800F05DFE1A201E
:1030400000F060FE0220134908702248FFF762FC7E
:103050002148FFF75FFC01F01DFF01F0D3F800BF2E
:1030600011E0204601F00EFA60B91A48FFF742FC61
:103070001948FFF73FFC44F62061884202D9164800
:10308000FFF748FC00BF00BF13B0F0BD14030020E1
:1030900018030020000300202B2B2B204D515454EB
:1030A0003A3A49444C45202B2B2B000041542B43EA
:1030B000495053454E4400003E0000004D515454C9
:1030C00000000000706B732D2564256425642D2598
:1030D000730000000C0300200403002070B50446B8
:1030E00004B970BD00BF16480078F8B9154803F060
:1030F00057FE90B1134803F053FE0646114800F105
:1031000008010D4632460E4803F0BAFD10B90C48CE
:1031100003F0B2FD0B4803F0AFFD2146084803F071
:10312000CFFD58B9064803F0A7FD07E02146054842
:1031300003F0C6FD10B9034803F09EFD00BFD0E7C1
:10314000186800202069002010B5094800F0CBFA6B
:10315000074800F0C4FA074800F0C5FA054800F037
:10316000CBFA054800F0BAF9FFF718FD10BD0000D2
:1031700040000020480000205000002000BF04480C
:103180000078062801D1012070470020FCE70000EC
:10319000F002002010B5002000F002F810BD000081
:1031A0000149087070470000F002002010B50423A8
:1031B00003222821014802F03DFE10BD0018014005
:1031C00010B5042303221021034802F033FE04202B
:1031D00001491431086010BD0018014010B50421E8
:1031E000034802F085FE012800D110BD0020FCE755
:1031F0000018014070B592B000BF0120444908702A
:1032000000BF084603F0CCFD10B3002408E02146BF
:103210003F4803F075FD05782846FFF7AFFD641CB5
:103220003B4803F0BDFDA042F1DC394803F0B8FD96
:103230000546374800F108010C462A46354803F098
:103240001FFD10B9334803F017FD314803F014FD9A
:1032500000BF00202E49087000BF2E4803F0A0FDDB
:1032600018B92DA000F018FB50E06C46204600F085
:1032700015F904460020606000BF002600BF00BFB3
:103280000020019000BF002600242DE021462148A7
:1032900003F036FD05780A2D00D124E00D2D0DD167
:1032A00000BF019800B91EE00021684603F03AFD16
:1032B0000126611C174803F0D1FC1AE03E2D0DD108
:1032C0003E21684603F02EFD0021684603F02AFDEA
:1032D0000126611C0F4803F0C1FC0AE0294668463C
:1032E00003F020FD00BF641C0A4803F059FDA04212
:1032F000CCDC1EB1684600F1080100E006A10C46D6
:10330000204600F0C9FA002EB9D100BF12B070BD3E
:1033100018680020286A00200000000010B54C4802
:10332000007800F0010058B9494802F01EF838B1A1
:10333000484C2046FFF7EEFA00BF4548AFF3008047
:1033400000BF4548007807287FD2DFE800F0041767
:103350002D4555667B0041A0FFF720FD00F08AFA5D
:10336000FFF788FD424800F0BAF9FFF729FF012076
:10337000FFF716FF3748FFF7CDFA66E03548FFF74D
:10338000B9FA40F6B83188420DD93AA0FFF706FDE8
:10339000FFF70CFF364800F0AFF90220FFF700FFFF
:1033A0002C48FFF7B7FA50E0FFF718FF58B129484B
:1033B000FFF7B0FA0320FFF7F3FE2821354800F0AD
:1033C00070F8FFF795FB2348FFF794FA642802D9B9
:1033D0000020FFF7E5FE38E01E48FFF78BFAB0F556
:1033E000FA7F08D92C4800F087F91A48FFF792FABB
:1033F0000420FFF7D5FE28E01648FFF77BFA40F2DD
:10340000E241884208D9244800F069F91148FFF7E1
:1034100081FA0520FFF7C4FE17E01E4800F04BF8C4
:1034200028B10620FFF7BCFE0A48FFF773FA0948E7
:10343000FFF760FA41F28831884202D90020FFF795
:10344000AFFE02E0FFF7D6FE00BF00BF10BD0000D8
:10345000F4020020F8020020F00200202B2B2B2089
:103460004D4F44454D3A3A49444C45202B2B2B00B7
:1034700040000020204D4F44454D3A3A57414954B1
:103480005F4449534348415247455F4341505320AD
:103490002020000050000020480000200021017082
:1034A000704770B504460D4603222946D4E900034F
:1034B00002F0C0FC70BD10B50446204600F003F8D1
:1034C00080F0010010BD10B50446D4E9000102F0FF
:1034D0000FFD08B9012010BD0020FCE710B504461F
:1034E00004221021D4E9000302F0A4FCD4E9001066
:1034F000486110BD016042607047000001480068EB
:10350000704700000800002010B5FFF739FC09A043
:10351000FFF744FCFFF796FBFFF7E4F801F080F8B3
:10352000FFF712FE00F032F800F031F808B900F0B1
:103530002EF810BD2020204465766963653A3A492B
:103540006E697428292020200000000000B595B085
:1035500001F076FE01F088FD01F066F8684601F0A2
:10356000D3FC1C22694607A8FDF7F2F91B2207A924
:103570000EA8FDF7EDF90EA8FFF716F9FFF7CEFE3E
:1035800001F058FCFFF752F815B000BD704700205D
:10359000704700002DE9F04705460E46174600200B
:1035A000387081468046012E02D14FF0FF3937E056
:1035B00029460122087820280AD008782C2807D02C
:1035C00008783A2804D008783D2801D0012000E08E
:1035D0000020034618E00878202808D008782C2816
:1035E00005D008783A2802D008783D2802D153B196
:1035F000002308E03BB9521C0123B24203D1481B0F
:10360000A0F1010905E0491CB24202DA087800285D
:10361000E1D100BFB24202D010A0BDE8F08700BFE8
:1036200009F1010805EB080402E008F10108641C37
:10363000207858B12078202808D020782C2805D070
:1036400020783A2802D020783D28EED13B464246E9
:103650004946284600F004F8DFE7000000000000BB
:103660002DE9F04107460D4616461C46701B002802
:1036700005DC0AA0FFF792FB002020700BE020463B
:10368000691C03E07A5C00F8012B491CB142F9DBAC
:103690000021017000BF2046BDE8F08157726F6EB7
:1036A0006720617267756D656E74730010B50446AE
:1036B00004220021D4E9000302F0BCFB10BD01602C
:1036C00042600372704710B5044603221C21D4E9FE
:1036D000000302F0AFFB10BD016042607047D0E90B
:1036E00000211161704710B5044603221021D4E96E
:1036F000000302F09FFB10BDD0E90021516170472B
:1037000010B504460B461BB12046FFF7E8FF02E068
:103710002046FFF7F1FF10BD0160426070470000D6
:1037200000487047E002002003480078062801DBCB
:10373000012070470020FCE7CC02002010B50446B1
:103740000548FFF7D7F8A04201D8012010BDFFF7C8
:1037500021FD0020FAE70000D002002030B591B032
:103760000446207818B121462EA0FFF717FB09AABE
:1037700001212046FFF70EFF2CA12046FDF73CF962
:1037800020B9FFF707FD012011B030BD29A1204667
:10379000FDF732F918B9FFF7FDFC0120F4E728A185
:1037A00009A8FDF729F930B9274A02212046FFF779
:1037B000F1FE0120E8E71FA12046FDF71DF908B939
:1037C0000120E1E721A12046FDF716F908B9012003
:1037D000DAE720A109A8FDF70FF908BB01AA022129
:1037E0002046FFF7D7FE05461CA1FDF705F998B95D
:1037F000A07C012810D1607C65280DD1207C742824
:103800000AD1E07B612807D101F00DFD012114A050
:1038100000F0D6FAFEF752FB2046FFF723FB00BF6D
:103820000020B1E73C3C3C2025730000434C4F5343
:103830004544000053454E44204641494C00000099
:103840002B43535100000000E002002053454E443A
:10385000204F4B002B495044000000003133000042
:103860005570677261646520736F66747761726505
:10387000000000000020014908707047CC020020C1
:1038800010B504460248FFF745F80248047010BD21
:10389000D0020020CC02002070B588B00546284632
:1038A000FFF75CFF08B108B070BD42F21076C54862
:1038B000007820B10020C3490870C3490870C2488D
:1038C0000078102816D2DFE800F00816273849578C
:1038D0007A90B3C9DFFAF8F7F6F5BCA0FFF75EFA05
:1038E000C0A000F015FA0120FFF7CAFFBF48C0A131
:1038F0000988018062E142F21070FFF71FFF50B1AA
:10390000BCA12846FDF778F828B90220FFF7B8FFD8
:10391000B9A000F0FDF951E142F21070FFF70EFF7F
:1039200050B1B9A12846FDF767F828B90320FFF781
:10393000A7FFB6A000F0ECF940E142F21070FFF7EB
:10394000FDFE50B1ABA12846FDF756F828B904207A
:10395000FFF796FFB1A000F0DBF92FE142F2107003
:10396000FFF7ECFE38B1A3A12846FDF745F810B9E2
:103970000520FFF785FF21E14EF66020FFF7DEFE10
:10398000E0B16A4601212846FFF704FE0446A6A1DD
:10399000FDF732F890B96A4602212846FFF7FAFD92
:1039A000007800F00F04012C01D0052C05D1062071
:1039B000FFF766FF9EA000F0ABF900BFFEE042F209
:1039C0001070FFF7BBFE78B16A4603212846FFF767
:1039D000E1FD04469AA1FDF70FF828B90720FFF78B
:1039E0004FFF99A000F094F9E8E042F21070FFF761
:1039F000A5FEE0B16A4601212846FFF7CBFD04464B
:103A00007CA1FCF7F9FF30B90820FFF739FF88A047
:103A100000F07EF90BE06A4601212846FFF7BAFD67
:103A2000044690A1FCF7E8FF08B9FFF7B3FBC5E037
:103A300042F21070FFF782FE78B16A4603212846F1
:103A4000FFF7A8FD044689A1FCF7D6FF28B9092095
:103A5000FFF716FF87A000F05BF9AFE042F21070AD
:103A6000FFF76CFE78B16A4601212846FFF792FD08
:103A7000044660A1FCF7C0FF28B90A20FFF700FF49
:103A80006BA000F045F999E042F21070FFF756FE86
:103A900078B16A4603212846FFF77CFD044678A1E9
:103AA000FCF7AAFF28B90B20FFF7EAFE76A000F08A
:103AB0002FF983E071E05AE02DE016E0FFE742F2D3
:103AC0001070FFF73BFE78B16A4601212846FFF7E8
:103AD00061FD044647A1FCF78FFF28B10C20FFF7DA
:103AE000CFFE53A000F014F968E042F21070FFF727
:103AF00025FE78B16A4603212846FFF74BFD0446B0
:103B000064A1FCF779FF28B90D20FFF7B9FE63A087
:103B100000F0FEF852E06C48FFF710FE30B36A4642
:103B200001212846FFF736FD044668A1FCF764FF33
:103B300048B16A4602212846FFF72CFD04462DA114
:103B4000FCF75AFF30B90E20FFF79AFE61A000F093
:103B5000DFF80BE06A4602212846FFF71BFD04460A
:103B600060A1FCF749FF08B9FFF714FB26E042F219
:103B70001070FFF7E3FD78B11EA12846FCF73CFF6B
:103B800018B90F20FFF77CFE06E036A12846FCF7A7
:103B900033FF08B9FFF7FEFA10E02846FFF7DEF919
:103BA0005248FEF7A7FE41F28831884205D94F48B6
:103BB000FEF7B0FE4EA000F0ABF800BF00BF00BFA4
:103BC00071E60000CD020020CC0200202B2B2B2020
:103BD00053494D3830303A3A49444C45202B2B2B31
:103BE000000000004154453000000000E0020020C9
:103BF000300000004F4B000041542B4950523D31E2
:103C000031353230300000005244590041542B47C6
:103C1000534D425553593D310000000041542B4350
:103C20005245473D310000002B43524547000000FC
:103C300041542B4349505354415455530000000004
:103C4000494E495449414C0041542B435354543D2F
:103C500022696E7465726E6574222C22222C2222D7
:103C6000000000004552524F520000005354415290
:103C70005400000041542B434949435200000000C6
:103C8000475052534143540041542B4349465352E9
:103C900000000000535441545553000041542B433D
:103CA000495053544152543D22544350222C2264D3
:103CB00065762E72696768746563682E696F222C59
:103CC000223138383322000000710200414C524545
:103CD0004144590041542B434950484541443D31EA
:103CE000000000004641494C00000000D8020020BE
:103CF00041542B435351000010B504462046FEF7B3
:103D000079FF10BD01B501216846FEF77FFF08BDB0
:103D100010B504462046FCF775FD022806D9FFF7CA
:103D20008DF818B1214605A0FFF738F82046FEF7B8
:103D300061FF0448FEF75EFF10BD00003E3E3E20DE
:103D400025730000427600080180704710B50021FD
:103D50000148FEF7D7FD10BD5803002010B51248EA
:103D6000007800F0010048B90F4801F0FEFA28B1D0
:103D70000E48FEF7D9FD0C48AFF300800B48FEF764
:103D8000B9FDB0F57A7F0CD90948007848B1002018
:103D9000074908700748016807A0FFF771F801207C
:103DA00010BD0020FCE70000740300207803002011
:103DB000700300206C0300202F7374617465000091
:103DC0007CB504460D460B48046095B1FFF7BEFF75
:103DD0006846FEF7A9FD01E0FFF7A0FA0648007863
:103DE00030B16846FEF786FD42F210718842F3D387
:103DF00000BF7CBD6C03002070030020012001493E
:103E0000087070477003002010B588B01B48007818
:103E100000F0010048B9194801F0A7FA28B1184884
:103E2000FEF782FD1548AFF300801548FEF762FDEE
:103E3000B0F57A7F20D913480078E0B90120114904
:103E4000087004236A2210A16846FCF76FFA6946DD
:103E500010A0FFF715F801200A4908706846FEF720
:103E600065FF044621460EA0FFF70AF800F01CF893
:103E7000012008B010BD00BF0020FAE76003002059
:103E800064030020540300202564203A2025647335
:103E9000740000002F76657273696F6E53570000CF
:103EA000626173652F69640010B51EA11EA0FEF744
:103EB000E7FF20480068C0F3007018B11EA11AA0E7
:103EC000FEF7DEFF1B480068012101EAD07018B13F
:103ED0001CA115A0FEF7D4FF16480068C0F380703F
:103EE00018B11BA110A0FEF7CBFF12480068C0F369
:103EF000407018B119A10CA0FEF7C2FF0D48006870
:103F0000C0F3C06018B119A107A0FEF7B9FF0948B6
:103F10000068C0F3806018B116A103A0FEF7B0FFDF
:103F200010BD00002D0000002F6C6173742F7265AE
:103F30007365740004000020536F667477617265C6
:103F4000000000004C6F7720706F776572000000F2
:103F50005761746368646F670000000046726565AE
:103F6000207761746368646F67000000506F776545
:103F70007200000045787465726E616C2070696E25
:103F80000000000030B589B00025002415E00D4880
:103F9000005D88B100200B4908550B4850F82420DB
:103FA0000AA101A8FCF7C2F90D4850F824004142CB
:103FB00001A8FEF78BFF0125641C032CE7DB2846D4
:103FC00009B030BD44030020587600086261736573
:103FD0002F636F6E742F6C6576656C25730000001F
:103FE00038030020014600200FE051F82020084B44
:103FF00053F820309A4207D051F82020044B43F860
:1040000020200122034B1A54401C0328EDDB70478B
:10401000380300204403002070B59AB00026012523
:10402000002429E02648005D00281ED01B2C0BD15F
:104030002448C06E08B924A000E024A0014624A0B2
:10404000FEF71EFF01260DE0264850F8242026A189
:1040500001A8FCF76BF91B4850F8241001A8FEF7E3
:1040600035FF0126002016490855164850F824004F
:10407000401C00B90025641C1C2CD3DBEEB11E488B
:10408000007800F0010050B91B4801F06EF930B122
:1040900085F00100194908701748AFF300801748F0
:1040A0000078A84209D00DB108A000E006A00146A2
:1040B00013A0FEF7E5FE1148057030461AB070BD3A
:1040C000800300204C6B0020300000003100000015
:1040D0002F626173652F73746174652F646331306F
:1040E0003076000064760008626173652F636F6E3E
:1040F000742F4B4D257300009C030020A00300206B
:104100002F626173652F73746174652F73746174AA
:10411000655F636F6E746163746F7273000000009B
:104120000146054AD26E8A4204D00122034BDA7658
:10413000014AD166704700004C6B002080030020CC
:10414000054A52F820208A4205D00122034B1A5416
:10415000014A42F8201070474C6B00208003002079
:1041600030B585B01848007828B91748407810B99C
:104170001548807808B1012000E00020054605B30D
:10418000142212496846FCF7E3FB002416E00E48AF
:10419000005D90B1601CC0B240F030008DF80E00A0
:1041A0000B48005D08B10BA000E00BA0014668467B
:1041B000FEF766FE002004490855641C032CE6DB6C
:1041C00000BF284605B030BD330300204476000808
:1041D00030030020310000003000000070B50446BC
:1041E0000D46FEF735FE00B970BD601E03490D5443
:1041F0000121034A115400BFF6E7000030030020FC
:104200003303002010B500F047F8FFF7F7FD00205A
:104210000349087000210348FEF774FB10BD00003D
:10422000540300205803002010B51348007800F014
:10423000010058B9104801F098F838B10F4C2046E9
:10424000FEF768FB00BF0C48AFF300800B4800F09E
:10425000FBFF78B14EF660210848FEF753FB084893
:1042600001680068401C064B186006A0FEF72EFE91
:10427000012010BD0020FCE72403002028030020BB
:1042800020030020626173652F73746174652F636E
:104290006F756E74657200000020014908607047F8
:1042A0002003002010B52DED028B384804780078EB
:1042B000002867D03648007EE8B13548D0ED000AC6
:1042C000B0EE600A33A0FEF713FE3148D0ED010ACC
:1042D000B0EE600A35A0FEF70BFE2D4800F0C0FFDF
:1042E000DFED380A80EE201AB0EE418AB0EE480ABF
:1042F00035A0FEF7FDFD2648407EF0B12448D0ED04
:10430000020AB0EE600A33A0FEF7F2FD2048D0EDBD
:10431000030AB0EE600A35A0FEF7EAFD1C4808303B
:1043200000F09EFFDFED270A80EE201AB0EE418AF2
:10433000B0EE480A33A0FEF7DBFD1548807EF0B1F1
:104340001348D0ED040AB0EE600A31A0FEF7D0FDAC
:104350000F48D0ED050AB0EE600A33A0FEF7C8FDA5
:104360000B48103000F07CFFDFED160A80EE201ABB
:10437000B0EE418AB0EE480A31A0FEF7B9FD002048
:10438000024908702046BDEC028B10BD4803002096
:10439000306B0020626173652F73746174652F76D2
:1043A0006F6C746167655F61000000006261736536
:1043B0002F73746174652F63757272656E745F61BB
:1043C0000000000000007A442F706F7765725F6113
:1043D00000000000626173652F73746174652F764D
:1043E0006F6C746167655F620000000062617365F5
:1043F0002F73746174652F63757272656E745F627A
:10440000000000002F706F7765725F62000000008F
:10441000626173652F73746174652F766F6C74615C
:1044200067655F6300000000626173652F737461EC
:1044300074652F63757272656E745F6300000000AF
:104440002F706F7765725F630000000010B504463F
:10445000094800F0F9FE00B910BD4EF6602106488B
:10446000FEF750FA1B2221460448FCF771FA01209E
:104470000349087000BFEFE74C030020306B0020B9
:104480004803002070B5054621A12846FCF7B4FA80
:1044900000282FD10024FFF7B7FC08B101241CE04D
:1044A000FFF75CFC08B1012417E0FFF7FBFE08B141
:1044B000012412E0FFF766FD08B101240DE0FFF7CB
:1044C000ABFD08B1012408E0FFF74AFE08B1012462
:1044D00003E0FFF7A9FE00B101240CB11A2100E0AE
:1044E0001B210846FFF70EFC14B10AA0FFF710FCD1
:1044F000012070BD0A4800F0A7FE38B105A0FFF703
:1045000007FC4FF47A710648FEF7FCF90020F0E74B
:104510003E00000041542B43495053454E44000097
:104520005803002010B54FF480610248FCF742FAAE
:1045300010BD00004C04002010B52DED028B90B092
:10454000044609A800F0D6FC09A800EBC40090EDD1
:10455000010A10EE101A084602F02CFC41EC180B70
:1045600053EC182B08A101A8FBF7E0FE04EB440074
:1045700000EBC40000F1110101AA502000F008F87E
:1045800010B0BDEC028B10BD25312E33660000004B
:1045900070B505460E461446094805600948066090
:1045A00008E0207800F0DEF82178884201D02078F9
:1045B00070BD641C20780028F3D12078F8E7000053
:1045C0008C0100209001002010B52DED028B90B0E1
:1045D000044609A800F08EFC09A800EBC40090ED89
:1045E000000A10EE101A084602F0E4FB41EC180B2A
:1045F00053EC182B08A101A8FBF798FE04EB44002C
:1046000000EBC40000F1110101AA0A20FFF7C0FF6E
:1046100010B0BDEC028B10BD25342E3166000000B9
:1046200010B500F093FB10BD10B590B009A800F0D4
:1046300061FCFFF777FF002406E02046FFF7C4FF88
:104640002046FFF779FF641C032CF6DB01A8FEF778
:104650006DFB0446224633214620FFF799FF0422D2
:1046600016A101A8FBF762FE01AA33210520FFF77E
:104670008FFFFEF783FD20B112A205210846FFF748
:1046800087FFFFF751F820B10FA205212320FFF784
:104690007FFFFEF7DDFB60B10CA205214120FFF793
:1046A00077FFFFF73DF80446224605216420FFF717
:1046B0006FFF084800F02BFB10B010BD7374203A58
:1046C00020256400504F5700524547004D51545427
:1046D000000000004C040020F0B503461446802B77
:1046E00001DA402900DBF0BDE4B1CD1701EB5575CF
:1046F000ED1003EBC5151A4E755D0A46CE1701EB9A
:104700005676F610A1EBC6070126BE403543EEB241
:104710000846CD1701EB5575ED1003EBC515104F8D
:104720007E551AE0CD1701EB5575ED1003EBC5155D
:104730000B4E755D0A46CE1701EB5676F610A1EBCF
:10474000C6070126BE40B5430846CE1701EB567694
:10475000F61003EBC616024FBD5500BFC3E70000BD
:104760004C0400202DE9F04704464148007818B178
:104770003F480078012827D1A046FEF749FB814633
:104780004046FEF742FB0746002514E000260FE0F6
:10479000324629464046FEF735FB40B1354A12689D
:1047A0005119354A126890190122FFF795FF761CBE
:1047B000BE42EDDB6D1C4D45E8DB2F480168781CDF
:1047C00008442D49086051E02948007802284DD15D
:1047D000202C01DB7E2C02DD0020BDE8F08727487D
:1047E0000078254909680844802806DC2348407879
:1047F000204909680844402801DD0020EDE7002534
:1048000029E0A4F120001D49497800FB01501B4913
:10481000496831F81070002618E007FA06F000F435
:10482000004048B1134A12685119134A126890198E
:104830000122FFF751FF08E00E4A126851190E4A93
:10484000126890190022FFF747FF761C0B4800788A
:10485000B042E2DC6D1C09484078A842D1DC074830
:104860000078054909680844034908602046B4E710
:104870009C010020900100208C0100209401002068
:1048800010B58EB0022001F003FD00221146122067
:1048900001F086FC8448FEF709FF8448FEF706FF16
:1048A0008348FEF703FF8348FEF700FF8248FEF7C8
:1048B000FDFE8248FEF7FAFE0021814801F08EF9E4
:1048C0008048079000208DF834007F48099001202F
:1048D0008DF835000002089080000A9000208DF8C5
:1048E000360006200B904FF400500C9007AA0021D0
:1048F000734801F0ABF90021714801F056F902222A
:1049000000216F4801F039FA00216D4801F034F9B7
:1049100047F23050ADF800001020ADF80200ADF8BD
:10492000040040F6FF7002904FF40070ADF80600EE
:1049300000208DF80C006946644801F0E1FF04A8EE
:1049400001F05DFF0020ADF814000120ADF810006B
:1049500004AA00215D4801F0EFFD40F6FE7200213F
:104960005A4801F00CFF70220021584801F0DAFE8D
:1049700000221146554801F015FF0121534802F06D
:104980000BF8524801F0D2FD504801F0B4FF00206E
:1049900001F052F8012202214A484C3801F0BFF8D8
:1049A0000122110247484C3801F0B9F8002145486E
:1049B0004C3800F0BCFF0622012142484C3800F080
:1049C00093FF394800F053FC044607232246002198
:1049D0003C484C3801F03EF8344800F048FC0446AE
:1049E00007232246012137484C3801F033F830487C
:1049F00000F03DFC044607232246022131484C3892
:104A000001F028F82B4800F032FC04460723224628
:104A100003212C484C3801F01DF8274800F027FCF2
:104A2000044607232246042126484C3801F012F898
:104A3000224800F01CFC0446072322460521214899
:104A40004C3801F007F8012211461E484C3800F09E
:104A50008CFF002201211B484C3800F0A5FF0221E9
:104A600018484C3800F0E4FF042116484C3800F098
:104A7000DFFF022113484C3800F0C4FF11484C38C6
:104A800000F06AFF0120FDF70FFA0E484C3800F0E5
:104A900016FF0C484C3800F05AFF012109484C38E9
:104AA00001F02EF80EB010BDB0030020BC030020B2
:104AB000C8030020D4030020E0030020EC03002002
:104AC000000002404C24014040040020002C014022
:104AD00010B50B4800F036FF0221094800F07CFFBA
:104AE000084801F003FF074801F092FE0021064844
:104AF00001F074F800221146122001F051FB10BDA4
:104B000000240140002C01400000024010B5024882
:104B100000F004FA10BD0000400400201CB504465B
:104B20006846FDF701FF06E06846FDF7E3FE6428EE
:104B300001D900201CBD21460348006801F0ECFAB1
:104B40000028F1D00120F5E7A46E00081CB504464A
:104B50006846FDF7E9FE06E06846FDF7CBFE6428EF
:104B600001D900201CBD21460348006801F0D4FA99
:104B70000028F1D10120F5E7A46E000810B50F4818
:104B8000FEF7A1FD0E48FEF79EFD00220D490E48DE
:104B9000006801F005FA7823002211460A480068EF
:104BA00001F0D3FA0848006801F09DFA4FF48061E3
:104BB0000548006801F0ECF910BD0000100000206D
:104BC00018000020801A0600A46E00082DE9FC41A0
:104BD00005460C4616466846FDF7A6FE40F2016003
:104BE000FFF7B4FF10B90020BDE8FC812D48006834
:104BF00001F0B9FA4FF4A060FFF790FF08B9002068
:104C0000F2E76FF0010278212648006801F093FA7C
:104C100040F20150FFF782FF00212248006801F0B6
:104C2000B7F940F201511F48006801F061FA2946C6
:104C30001C48006801F054FA40F20750FFF76EFF7D
:104C400001274FF000080EE014F8011B154800681A
:104C500001F046FA40F20750FFF760FF08B900275D
:104C600003E008F10108B045EEDB0E48006801F0F2
:104C70007FFA06E06846FDF73DFE642801D900276B
:104C800006E008480068006800F400700028F1D1D0
:104C900000BF4FF480610348006801F079F938469D
:104CA000A2E70000A46E000800B587B02823032205
:104CB0001821114801F0BEF81023032204210E48E8
:104CC00001F0B8F8002001904FF4827000900020AD
:104CD000029005904FF40070039038200690002059
:104CE000049069460548006801F007FC0348006825
:104CF00001F0FEFB07B000BD000C0140B06E0008E3
:104D000001B5012269460020FFF760FF08BD70B5BC
:104D10000546002417E004F1B001C8B2FFF7F0FF28
:104D200000B912E00020FFF7EBFF1020FFF7E8FFCB
:104D3000802000FB045102464020FFF747FF00B9E6
:104D400003E0601CC4B2082CE5DB70BD10B5AE20DA
:104D5000FFF7D6FF00B910BDD420FFF7D1FF8020A8
:104D6000FFF7CEFFA820FFF7CBFF3F20FFF7C8FFDC
:104D7000D320FFF7C5FF0020FFF7C2FF4020FFF759
:104D8000BFFF8D20FFF7BCFF1420FFF7B9FFA12064
:104D9000FFF7B6FFC820FFF7B3FFDA20FFF7B0FF39
:104DA0001220FFF7ADFF8120FFF7AAFFCF20FFF70A
:104DB000A7FFD920FFF7A4FFF120FFF7A1FFDB2019
:104DC000FFF79EFF4020FFF79BFFA420FFF798FF0F
:104DD000A620FFF795FFAF20FFF792FF00BFBAE7CD
:104DE00010B5002408E004EB44010D4A02EB8100F9
:104DF0004821FEF756FB641C032CF4DB48210948CC
:104E0000FEF74FFB48210848FEF74BFB48210748B7
:104E1000FEF747FB48210648FEF743FB10BD0000A4
:104E20001C0400206801002070010020780100208F
:104E30008001002070B5002427E004EB4401144AEF
:104E400002EB8100FDF725FD04EB4401104A02EB63
:104E50008100017A427A914201D0012100E00021D3
:104E600091B104EB44010A4A02EB8100017A81F01E
:104E700001052946601CFFF7B1F904EB4401044A1F
:104E800002EB8100FDF702FD641C032CD5DB70BD35
:104E90001C04002070B500241AE004EB44010E4A03
:104EA00002EB8100FDF7F5FC04EB44010A4A02EB3A
:104EB0008100017A81F001052946601CFFF78EF917
:104EC00004EB4401044A02EB8100FDF7DFFC641CA3
:104ED000032CE2DB70BD00001C0400200448B0F984
:104EE0000000B0F5FA6F01DB012070470020FCE7FD
:104EF000BC02002010B504461C2202492046FBF7E4
:104F000027FD10BD0809002010B504461C220249E7
:104F10002046FBF71DFD10BD2409002038B50446CE
:104F20004748007800F0010058B9454800F01DFAE4
:104F300038B1444D2846FDF7EDFC00BF4048AFF3C3
:104F400000804148008810B93E48FDF7E3FC3E4828
:104F5000B0F90000B0F5FA6F71DA21883B4801F032
:104F6000F7FE054629466846FEF7EEFE3849364A02
:104F7000B2F9002001EB42010088088061883348C3
:104F8000183001F0E5FE054629466846FEF7DCFECE
:104F900030492D4AB2F9002001EB42010088088017
:104FA000A1882A48303001F0D3FE054629466846DC
:104FB000FEF7CAFE2849244AB2F9002001EB42015B
:104FC00000880880E1882148483001F0C1FE05468C
:104FD00029466846FEF7B8FE20491B4AB2F9002070
:104FE00001EB42010088088021891848603001F0F7
:104FF000AFFE054629466846FEF7A6FE1849124A46
:10500000B2F9002001EB42010088088061890F4855
:10501000783001F09DFE054629466846FEF794FE6D
:105020001049094AB2F9002001EB420100880880CA
:1050300005480088401C00B20349088000BF38BD05
:10504000C0020020C4020020BC0200201C67002017
:105050005C090020FC1800209C2800203C3800201F
:10506000DC4700207C57002010B59CB0FFF736FFCE
:10507000002839D0684600F043F81C22694615A87C
:10508000FBF766FC1B2215A91848FBF761FC1748C3
:10509000FFF7DCF915496846FCF72EFF1C2269462C
:1050A0000EA8FBF755FC1B220EA91148FBF750FC7C
:1050B0000E496846FCF714FF1C22694607A8FBF757
:1050C00047FC1B2207A90B48FBF742FC002405E024
:1050D000E0B2FDF75FFB08490855641C032CF7DBC1
:1050E00000200649088000BF1CB010BD0809002040
:1050F0002409002040090020B8020020BC02002042
:1051000010B588B004460020FDF744FB8DF81C0064
:105110000120FDF73FFB8DF81D000220FDF73AFB53
:105120008DF81E006846FDF7A5FB184A1849684629
:10513000FDF702FC174A184902A8FDF7FDFB174AC4
:10514000174904A8FDF7F8FB002015E007A9095C42
:1051500021B91449095C09B9012200E0002206A91D
:105160000A54095C39B9694601EBC0010E4A02EBE9
:10517000C0030CCB0CC1401C0328E7DB1C22694692
:105180002046FBF7E5FB08B010BD00003C380020CE
:105190005C090020DC470020FC1800207C57002020
:1051A0009C280020B8020020080900202DE9F041C9
:1051B00007461448FEF77FF904461348FEF77BF9CB
:1051C00005461248FEF777F906462CB125B11EB107
:1051D000B3EE0E0ABDE8F08124B91DB116B1B3EEED
:1051E000040AF7E724B91DB916B1B3EE000AF1E7D6
:1051F00024B11DB916B99FED060AEBE79FED050A2C
:10520000E8E700006801002070010020780100201C
:10521000000020420000484210B5002140F6FF7017
:1052200000F0C4FD10BD10B5062140F6FF7000F07F
:10523000BDFD10BD10B5FFF7EFFF00F0F3FD10BD91
:1052400010B500F0E7FD10BD0146044A4868126839
:10525000904201D8012070470020FCE708000020A0
:1052600090ED000AD0ED010A20EE200A70470146B9
:10527000087A704700B50146084600F01BF89FED1C
:10528000031AC0EE010AB0EE600A00BD00E07F45DF
:1052900000B50146084600F009F89FED031AC0EE7C
:1052A000010AB0EE600A00BD00E07F45B2EE040ADC
:1052B000704700009FED010A7047000000E880443D
:1052C00010B504462046FFF7E3FF208800EE900A61
:1052D000F8EE600A9FED031A70EEC10A20EE200A74
:1052E00010BD000000E0FF4410B504462046FFF763
:1052F000C1FF208800EE900AF8EE600A9FED031AC5
:1053000070EEC10A20EE200A10BD000000E0FF444C
:1053100001460888704703B401984100009850EA9C
:10532000C12018BF04204A0D18BF40F0010040F210
:10533000FF72B2EB515F08BF40F00200012808BFC6
:10534000052002B070472DE9F0411C4617460E00BB
:10535000804607D0054602E02846B0473D44204637
:10536000641EF9D24046BDE8F081016809B1002011
:105370007047012101600846704710B52DED028B82
:10538000B1EEC08A18EE100A20F00040C0F1FF40D4
:10539000C00F0AD010EE100A20F00040C0F1FF400C
:1053A000C00F04BF0120FBF782FBB0EE480ABDEC42
:1053B000028B10BD10B50348FDF7B6FA0248FDF7A1
:1053C000B3FA10BDD0020020D802002010B5024868
:1053D000FDF7AAFA10BD00005803002010B5074CD5
:1053E0000323082206492046FFF7ADFF0446054C7B
:1053F0002046FDF78FFA00BF10BD0000306B002083
:10540000212A00084C03002010B500230122A849DE
:10541000A848FEF754F901230222A549A648FEF741
:105420004EF902230422A249A448FEF748F90323B7
:1054300008229F49A248FEF742F9052320229C49F1
:10544000A048FEF73CF90723802299499E48FEF7C1
:1054500036F90423102296499C48FEF730F90623BA
:10546000402293499A48FEF72AF90E2310229949BF
:105470009948FEF724F9402298499948FEF72CF9FB
:10548000802296499748FEF727F94FF480629149A8
:105490009548FDF72BFA4FF400628E499348FDF7CB
:1054A00019FA202292499348FDF720FA40229049A8
:1054B0009148FDF70FFA04228D499048FEF72CF928
:1054C00001228B498E48FEF727F9022288498D4830
:1054D000FEF710F84FF4807275498B48FEF71CF9FF
:1054E0004FF4007272498948FEF716F94FF4806252
:1054F0006F498748FEF710F94FF400626C49854800
:10550000FEF70AF94FF4805269498348FEF704F91F
:10551000102282498248FDF7EDFF08227F49814829
:10552000FDF7E8FF4FF400727C497F48FEF7F4F87E
:105530004FF4807279497D48FEF7EEF88022774972
:105540007B48FEF7E9F8042264497A48FEF7E4F85C
:10555000022262497848FEF7DFF801225F49774866
:10556000FEF7DAF820225B497548FEF7D5F84FF4CC
:1055700080626A497348FEF7CFF84FF400626749CA
:105580007148FEF7C9F84FF4805264496F48FEF73E
:10559000C3F84FF4005261496D48FEF7BDF84FF46F
:1055A00080425E496B48FEF7B7F84FF400425B4912
:1055B0006948FEF7B1F84FF4806248496748FEF742
:1055C000ABF84FF4006245496548FEF7A5F84FF483
:1055D000805242496348FEF79FF84FF400523F491A
:1055E0006148FEF799F84FF480423C495F48FEF766
:1055F00093F84FF4004239495D48FEF78DF84FF4B7
:1056000080723B495B48FEF787F84FF400723849D7
:105610005948FEF781F84FF4806235495748FEF744
:105620007BF84FF4006232495548FEF775F84FF4A5
:1056300080522F495348FEF76FF84FF400522C491F
:105640005148FEF769F84FF4804229494F48FEF768
:1056500063F84FF4004226494D48FEF75DF84022BA
:105660001C494C48FDF746FF80221A494A48FDF77D
:1056700041FF4FF4807217494848FDF73BFF4FF454
:10568000007214494648FDF735FF04221149454888
:10569000FDF709F902220F4942480C30FDF703F9E2
:1056A00001220C493F481830FDF7FDF810BD0000FD
:1056B00000080140B0030020BC030020C803002004
:1056C000D4030020E0030020EC030020F8030020B6
:1056D000040400200010014010040020000C0140D0
:1056E00010000020180000202000002028000020CA
:1056F000001401403000002038000020400000204D
:1057000048000020500000205800002060000020C9
:105710006800002070000020780000200018014080
:1057200080000020880000209000002098000020C9
:10573000A0000020A8000020B0000020B800002039
:10574000C0000020C8000020D0000020D8000020A9
:10575000E0000020E8000020F0000020F800002019
:105760000001002008010020100100201801002085
:1057700020010020280100203001002038010020F5
:105780004001002048010020500100205801002065
:1057900060010020680100207001002078010020D5
:1057A000800100201C04002010B51D48FDF762F8A0
:1057B0001C48FDF75FF81C48FDF75CF84FF4FA63EE
:1057C00002221A491A48FFF7BEFD4FF4FA6302227B
:1057D00016491848FFF7B7FD4FF4FA630222134940
:1057E0001548FFF7B0FD4FF4FA6302220F49134842
:1057F000FFF7A9FD4FF4FA6302220C491048FFF7A6
:10580000A2FD4FF4FA63022208490E48FFF79BFD00
:10581000062318220C490D48FFF795FD10BD000026
:10582000080900202409002040090020B71B0008B7
:105830005C090020FC1800209C2800203C38002037
:10584000DC4700207C5700209B6D00081C6700206F
:105850007047000010B541F288310448FCF767FC3E
:105860004EF660210248FCF762FC10BD4C08002097
:105870009808002010B50348FDF756F80248FDF7D8
:1058800053F810BD040300200C03002010B5054898
:1058900001F02CFA044801F029FA044801F026FA34
:1058A00010BD00001868002020690020286A002030
:1058B00030380A2801D201207047002070478168E3
:1058C00041F00801816000BF816801F008010029F2
:1058D000FAD1816841F00401816000BF816801F064
:1058E00004010029FAD1704730B5012902D00229FC
:1058F0001AD10CE0C36A23F47003C362C36A541E56
:105900004FF4700505EA04542343C3620DE0836B32
:1059100023F440138363836B541E4FF4401505EA50
:1059200004542343836300E000BF00BF30BD21B1B6
:10593000826842F40062826003E0826822F40062BE
:1059400082607047816821F0010181607047816841
:1059500041F4807181607047816801F0010119B9DB
:10596000816841F001018160704772B101F001036B
:105970001BB1836843F48013836001F0020393B189
:10598000836843F4004383600DE001F001031BB121
:10599000836823F48013836001F002031BB18368E2
:1059A00023F4004383607047012902D0022910D1FB
:1059B00007E0836823F46023836083681343836074
:1059C00008E0836823F4E0438360836813438360C3
:1059D00000E000BF00BF704701F001021AB1426849
:1059E00022F04002426001F002021AB1426822F045
:1059F0002002426001F004021AB1426822F08002E3
:105A00004260704701F001021AB1426842F0400260
:105A1000426001F002021AB1426842F02002426084
:105A200001F004021AB1426842F0800242607047FD
:105A3000CA430260704700000549096821F47021DB
:105A4000034A116011460968014311607047000064
:105A500004240140F0B51D4606290CD2436B01EB2E
:105A600081071F26BE40B34301EB810602FA06F60A
:105A70003343436322E00C290ED2036B8E1F06EBE7
:105A800086071F26BE40B3438E1F06EB860602FA2A
:105A900006F63343036311E010290FD2C36AA1F164
:105AA0000C0606EB86071F26BE40B343A1F10C0689
:105AB00006EB860602FA06F63343C3620A2A0CD2C4
:105AC000046902EB42070726BE40B44302EB4206DC
:105AD00005FA06F63443046111E0122A0FD2C468B5
