:020000040800F2
:1000000020B00020C9020008EF1B0008E71B000811
:10001000EB1B0008E11B0008DD1C000800000000CD
:10002000000000000000000000000000F31B0008BA
:10003000E51B000800000000F11B0008F51B00088C
:10004000E11C0008E3020008E3020008E3020008E4
:10005000E3020008E3020008E3020008E3020008EC
:10006000E3020008E3020008E3020008E3020008DC
:10007000E3020008E3020008E3020008E3020008CC
:10008000E3020008E3020008C51B0008E3020008C1
:10009000E3020008E3020008E3020008E3020008AC
:1000A000E3020008E3020008E3020008E30200089C
:1000B000E3020008E3020008E3020008E30200088C
:1000C000E3020008E3020008E3020008E30200087C
:1000D000E3020008E3020008E3020008E30200086C
:1000E000E3020008E3020008E3020008E30200085C
:1000F000E3020008E3020008E3020008E30200084C
:10010000E3020008E3020008E3020008E30200083B
:10011000B51C0008E3020008E3020008E30200083F
:10012000E3020008E3020008E3020008E30200081B
:1001300000F002F800F0B4F80AA090E8000C824445
:100140008344AAF10107DA4501D100F0A9F8AFF222
:10015000090EBAE80F0013F0010F18BFFB1A43F0A5
:100160000103184750770000707700000A444FF0F1
:10017000000C10F8013B13F0070408BF10F8014B06
:100180001D1108BF10F8015B641E05D010F8016B4B
:10019000641E01F8016BF9D113F0080F1EBF10F8AF
:1001A000014BAD1C0C1B09D16D1E58BF01F801CBD2
:1001B000FAD505E014F8016B01F8016B6D1EF9D555
:1001C0009142D6D37047000000230024002500266A
:1001D000103A28BF78C1FBD8520728BF30C148BFAA
:1001E0000B6070476E2900F05581702900F03B824A
:1001F000662906F07986652906F07686672906F075
:1002000073866129AFF3008003681B0A28BF41F0A1
:100210008001692900F00281642900F0FF807529BE
:1002200000F0FC806F2900F0C881782900F0078277
:10023000E92900F0F586E42900F0F286F52900F0BE
:10024000EF86EF2900F0C581F82900F006820368E7
:10025000DB0928BF41F08001632900F0BE867329C5
:1002600000F0C386E32900F0CE86F32900F0D386A0
:10027000002070471FB506F032FE00F09BFF04001F
:100280000020002106F0E4FC401C606000200021FA
:1002900006F0C8FCE06000F0F3FB1FBD10B510BD18
:1002A00001F08CF81146FFF7E5FF05F08AFF01F039
:1002B000AAF803B4FFF7F2FF03BC01F0ADF80000A9
:1002C00080F30888704700000948804709480047C4
:1002D000FEE7FEE7FEE7FEE7FEE7FEE7FEE7FEE7F6
:1002E000FEE7FEE704480549054A064B7047000053
:1002F0000D1C000831010008208C002020B00020D7
:1003000020900020209000201CB50C46064B7B441A
:1003100069460090204600F03EFE044600206946F3
:1003200000F04CFE20461CBDAB0C00000FB41CB509
:10033000084B06AA7B4469460090059800F02BFE06
:1003400004460020694600F039FE20461CBC5DF8DA
:1003500014FB0000850C000070B504468569006838
:10036000C10601D5302600E02026C00707D070BDA9
:10037000D4E9012130469047206A401C20626D1E5E
:10038000F6D570BD70B5044685690078C00707D101
:1003900070BDD4E9012120209047206A401C2062D2
:1003A0006D1EF6D570BD09684A0501D540B270478B
:1003B000C905FCD500B2704709684A0501D5C0B22D
:1003C0007047C905FCD580B2704770B50C4605462C
:1003D000012A05D02878800600D5EA69002302E0CA
:1003E000012305E05B1C934202D2E05C0028F9D1B6
:1003F000A869E618C01AA861286A18442862284625
:10040000FFF7AAFF04E0D5E9012114F8010B90479A
:10041000B442F8D32846FFF7B5FF70BD2DE9F0418F
:100420000646002410687529314616A510D0FFF73E
:10043000BAFF002802DA404213A507E031688A07B4
:1004400001D512A502E0490704D511A5012401E058
:10045000FFF7B2FF00210A2206F1240709E0B0FBF2
:10046000F2FCB0FBF2F302FB1C003030785418466B
:10047000491C0028F3D123462A463046BDE8F04106
:1004800000F01BBB000000002D0000002B0000004E
:100490002000000011680268006A530501D5087049
:1004A0000AE0D30501D5088006E0130603D5C2177C
:1004B000C1E9000200E00860012070472DE9FF5FFC
:1004C00015468A460446DFF8AC80F8440027D8E990
:1004D00000103E46CDE9001010E03AF816106A46CA
:1004E00002A800F0DBFD411C07D02178890603D566
:1004F000E269391891420DD80744761C20788006AD
:1005000002D5E069B84205DDAE42E6DB3AF81600F6
:100510000028E2D1A069C01BA0612046FFF71CFFA4
:10052000D8E90010CDE90010002017E03AF81810C3
:100530006A4602A800F0B2FDB0F1FF3F81460BD041
:1005400000250DF1080B05E0D4E901211BF8050099
:1005500090476D1C4D45F7D308F10100B04280462D
:10056000E4DB206A384420622046FFF70BFFBDE839
:10057000FF9F00004E72000030B4002100F12404FF
:1005800008E002F00705D208303542EA4372DB0882
:100590006554491C52EA0305F3D10468002310A2F4
:1005A000250707D5A40600D421B1C46901230DA2F3
:1005B000641EC46130BC00F080BA10B50446214608
:1005C0001068FFF7F9FE02462046BDE81040002300
:1005D000D2E7D21D22F00701D1E90023CCE70000C9
:1005E0000000000030000000F0B40D46018809054D
:1005F00002D5214C7C4402E01F4C7C440E34002187
:1006000000F1240608E002F00F071209E75D42EA54
:1006100003721B097754491C52EA0307F3D102788D
:100620000023120704D5702D06D009B1022311341E
:100630002246F0BC00F041BA01231034F8E770B54F
:1006400004460D4621461068FFF7B6FE02462946CD
:100650002046BDE870400023C6E7D21D22F0070304
:10066000D3E90023C0E70368126843F02003036066
:100670000823C3610023B7E72C7100002DE9F05F68
:10068000894604464FF0000ADFF874B1FB44C0F815
:1006900020A02046E1688847002874D0252806D08D
:1006A000D4E901219047206A401C2062F1E700262E
:1006B0005F462046E16888472028054607DB312D44
:1006C00005D2781910F8200C08B10643F1E7B007FD
:1006D00001D526F00406C4F81CA00027C4F818A011
:1006E0002A2D09D0284605F007F938B304EB87080E
:1006F000303DC8F8185019E059F8041B204604EBA7
:1007000087029161E1688847012F054618D1E069A9
:10071000002820DA26F020061DE0D8F8180000EBAB
:10072000800005EB40003038C8F818002046E1682A
:100730008847054605F0E0F80028EED1012F0AD0E1
:100740002E2D08D12046E16888477F1C0546022FE0
:1007500046F02006C4DBA069002803DA404246F0D8
:100760000106A061F00701D026F010066C2D0BD019
:10077000682D09D04C2D39D06A2D35D0742D35D047
:100780007A2D33D016E038E0E1682F4620468847BE
:10079000B842054609D16C2F26D04FF48060E1683D
:1007A000064320468847054604E06C2F1AD04FF4D4
:1007B000807006430DB3A5F14100192802D82035F9
:1007C00046F400664A462946204626604E46FFF714
:1007D00009FD80B101280BD0F61D26F0070000F1BD
:1007E000080956E74020E4E78020D8E70020D6E754
:1007F00006F104094DE7284652E7206ABDE8F09F5C
:10080000BC70000010B5431C02E010F8011B71B170
:100810008107FAD14FF0013202C88C1A8C4314EAD6
:10082000C211F9D0C01A0A0603D0C01E10BDC01AEA
:1008300010BD0A0401D0801E10BD0902FCD0401E6C
:1008400010BD032A40F2308010F0030C00F0158038
:1008500011F8013BBCF1020F624498BF11F801CBC3
:1008600000F8013B38BF11F8013BA2F1040298BF28
:1008700000F801CB38BF00F8013B11F0030300F092
:100880006780083AC0F0088051F8043B083A51F8F4
:1008900004CBA0E80810F5E7121D5CBF51F8043B3B
:1008A00040F8043BAFF30080D20724BF11F8013BAE
:1008B00011F801CB48BF11F8012B24BF00F8013B10
:1008C00000F801CB48BF00F8012B7047431A28BF3E
:1008D0009A427FF6B6AF032A1044114440F22680B4
:1008E00010F0030F1EBF11F8013D521E00F8013D2C
:1008F00010F0030F7FF4F6AF11F0030300F0018452
:10090000083AC0F00B8051F8043D083A51F804CD84
:1009100040F8043D40F804CDFFF7F3BF121D5CBF63
:1009200051F8043D40F8043DAFF30080D20724BFE6
:1009300011F8013D11F801CD48BF11F8012C24BF79
:1009400000F8013D00F801CD48BF00F8012C7047C8
:1009500010B5203AC0F00B80B1E81850203AA0E85A
:100960001850B1E81850A0E81850BFF4F5AF5FEA8E
:10097000027C24BFB1E81850A0E8185044BF18C941
:1009800018C0BDE810405FEA827C24BF51F8043BE8
:1009900040F8043B08BF7047D20728BF31F8023B3C
:1009A00048BF11F8012B28BF20F8023B48BF00F8D0
:1009B000012B70474FF000020429C0F0128010F0A4
:1009C000030C00F0CA83CCF1040CBCF1020F18BF79
:1009D00000F8012BA8BF20F8022BA1EB0C0100F0BE
:1009E000BCBB5FEAC17C24BF00F8012B00F8012BDF
:1009F00048BF00F8012B70474FF0013C50F8042B22
:100A000051F8043B9A4221D1A2EB0C03934313EA21
:100A1000CC1317D150F8042B51F8043B9A4215D14E
:100A2000A2EB0C03934313EACC130BD150F8042B25
:100A300051F8043B9A4209D1A2EB0C03934313EA09
:100A4000CC13DBD04FF00000704700BFD01A01BAC2
:100A5000B1FA81F101F0180122FA01F0CB40C1F1A5
:100A60002001DBB2C0B2C01A2CFA01F3D11A9143B3
:100A700011EAC311E6D17047704770477047000014
:100A800070B5064C7C44064D7D4403E0206820444C
:100A90008047241DAC42F9D170BD0000786F000082
:100AA000986F000010B500F089FB006810BD10B50C
:100AB000044600F083FB046010BD2DE9F0470D46AD
:100AC00099469246044600F124080168880604D538
:100AD000E06921F01001216000E00120A84201DD61
:100AE000471B00E00027A1697A1902EB0900081AE8
:100AF000A0612078C00602D42046FFF72DFC002616
:100B000008E0D4E901211AF806009047206A401C49
:100B1000761C20624E45F4DB2078C0060AD52046BC
:100B2000FFF71AFC06E0D4E9012130209047206A43
:100B3000401C2062381EA7F10107F4DC07E0D4E96D
:100B4000012118F805009047206A401C2062281EE9
:100B5000A5F10105F3DC2046FFF714FC2078000620
:100B600002D50220BDE8F0870120FBE770472DE9A0
:100B7000FF4F0C461E464FF0FF378BB0D2E9000105
:100B8000DDF860800A908A46C1F30A5505B93D46F2
:100B9000002108464FF00000BAF1000F00F44000B9
:100BA00005DA00EB80004FF4400101EA50004FEA03
:100BB0009059B9F1010F00DDB9460A9850EA4A0090
:100BC0000ED044F61050A5F2FF3545432F14B8F16E
:100BD000000F1ED07542291E1EDDC9F100021CE067
:100BE000B8F1010F4FF0000001D0302103E0F243D3
:100BF00005E02154401CB042FBDB304600220021BE
:100C000021540B99C1F80880C1E900200FB0BDE85C
:100C1000F08FBD1B6D1CDEE74A4600DA694206A86C
:100C200000F056FB06AB93E8070003AB83E8070030
:100C300050460A9900F0F7FB8DE80700A0F5005038
:100C40001F3800900398002D0ADD42F21F014A462A
:100C50000844002303A90390684600F060FE09E001
:100C6000A0F500504A461F38002303A903906846A8
:100C700000F06AFE8DE807000004000C03D04FF07E
:100C8000FF30410800E01046B8F1000F03D0002209
:100C9000009215461EE0751E05D400F093FA30321E
:100CA00062556D1EF9D5B3460122084302D00022D9
:100CB0007F1C04E02078302801D100227F1E002A0A
:100CC000099784D01DE0112D07DA00F07BFA30324D
:100CD00062556D1C50EA0102F5D1084302D000981C
:100CE000C8B10EE00021681E05E0235C625C63541D
:100CF0002254401E491C8142F7DBAB46A81B401E14
:100D00000990002004F80B000B98099AC0F808809D
:100D1000C0E9002B7AE711264FF0000857E72DE9CC
:100D2000F04F88460446D21D22F0070191B0D1E968
:100D30000001CDE90A0104F012FB02460B98C00F36
:100D400001D02D2007E02068810701D52B2002E08B
:100D5000202101EAC000032A099001D0072A05DBFF
:100D600003464146204600F073FA0BE120788006E6
:100D700001D5E06900E00620B8F1650F814606D094
:100D8000B8F1660F18D0B8F1670F70D131E00020CC
:100D9000B9F1110F009001DB112301E009F101030A
:100DA0000AAA01A90CA8FFF7E2FEDDE90C700026F3
:100DB00009F10105834647E001204B4600904FF0C2
:100DC00000470AAA01A90CA8FFF7D1FEDDE90DB082
:100DD0000C995D46002610B909F101000D18B9EB18
:100DE000050003D4C0F1FF3609F10105A5EB0900A8
:100DF0002BE0B9F1010F01DA4FF001090020B9F140
:100E0000110F0090484601DD112300E003460AAAB5
:100E100001A90CA8FFF7ABFEDDE90C704D460026DA
:100E20008346207800070AD4AB4500DA5D4601A866
:100E3000012D04DD411911F8011C302907D04F455F
:100E400002DA17F1040F04DA012082460FE06D1E6A
:100E5000EEE7002F02DCED1B3E4403E0781CA842C5
:100E600000DD7D1CB81B00F1010A4FF0004720781F
:100E7000000703D4AA4501DB4FF0FF3A0021B7F188
:100E8000004F0DF143088DF8431024D002202B238E
:100E9000002F01DA7F422D230A21021EA0F101005A
:100EA00000DC5FB197FBF1FC97FBF1F201FB1C7CCE
:100EB00017460CF1300C08F801CDEEE7A8F101005F
:100EC00003702188090501D5452100E06521A0F1C5
:100ED000010800F8011C09980FA9A1EB0807FF1DE4
:100EE00000B10120411901EBEA70A1693844081AE8
:100EF000401EA0612078C00602D42046FFF72CFADD
:100F0000099828B1D4E901219047206A401C206249
:100F10002078C00622D52046FFF71EFA1EE0002EDC
:100F200004DBB34502DD01A8805D00E03020D4E998
:100F300001219047206A401C2062761CAAF1010022
:100F40005FEA000A0AD100F035F9C0680168405C28
:100F5000D4E901219047206A401C2062281EA5F197
:100F60000105DCDC07E0D4E9012118F8010B90470A
:100F7000206A401C2062381EA7F10107F3DC2046DE
:100F8000FFF700FA032011B041E6000001694A1C96
:100F900002610878704700B58FB0CDE901310021BA
:100FA000059105497944CDE9031011466846FFF7DC
:100FB00065FB0FB000BD0000E5FFFFFF0A6802F807
:100FC000010B0A60704710B5436913B1AFF300809D
:100FD00001E0FFF7FAF9012010BD127800F12401B9
:100FE0000A7000224A700122EDE711684FF0FF32CB
:100FF000E9E710B5436913B1AFF3008001E0FFF7F3
:101000005DFA012010BD128800F1240182840022C3
:10101000C2840122EDE711684FF0FF32E9E70000DA
:101020002DE9F0418046D21D22F007020025D2E9C9
:101030000002F52915A614D0011E72F1000106DA8E
:101040000023D0EB030063EB020211A608E0D8F8FE
:1010500000108B0701D50FA602E0490701D50EA6A7
:1010600001251146002408F1240704E000F0AAF845
:1010700030323A55641C50EA0102F7D12B46324611
:1010800021464046BDE8F041FFF717BD00000000D3
:101090002D0000002B0000002000000070B5164657
:1010A0000C46054600F07EF8036893F8010101281C
:1010B00006D0FF2C0FD8185D68B101202C7070BDD0
:1010C000D3F807013246214603F2071303442846AA
:1010D000BDE8704018474FF0FF3070BD431A28BF7D
:1010E0009A427FF635AC104410F0030F11441EBF36
:1010F00011F8013D521E00F8013D10F0030F7FF47E
:10110000F6AF103AC0F00A8010B531E91850103A25
:1011100020E91850BFF4F9AFBDE81040530724BFD1
:1011200031E9081020E9081044BF51F8043D40F8A7
:10113000043D12F0030F08BF7047D20728BF31F8F3
:10114000023D48BF11F8012C28BF20F8023D48BFDE
:1011500000F8012C70474FF0000200B5134694468A
:101160009646203922BFA0E80C50A0E80C50B1F1FF
:101170002001BFF4F7AF090728BFA0E80C5048BF13
:101180000CC05DF804EB890028BF40F8042B08BFB1
:10119000704748BF20F8022B11F0804F18BF00F8AD
:1011A000012B704710B500F005F8001D10BD00BF01
:1011B000A15A000000487047DC8B002000487047AF
:1011C000BC8B002030B5B0F10A024FEA900E71F1ED
:1011D00000034EEA817EB0EB0E0061EB91014FEA15
:1011E000101E4EEA017E10EB0E0041EB11114FEA8A
:1011F000102E4EEA016E10EB0E0041EB11214FEA6A
:10120000104E4EEA014E10EB0E0041EB114140181A
:1012100041F100014FEAD00040EA41704FEAD101AC
:1012200010EB80054FEA810444EA907444EB01041A
:101230006D1944EB0404521BA3414FF0000348BF57
:101240000A3200D530BD401C41F1000130BD000024
:101250002DE9F0411F46044603260168072A01F4E0
:10126000006004DB08B116A505E016A503E008B18F
:1012700015A500E015A521F010002060A069C01E92
:10128000A0610FB1401EA0612046FFF765F84FB185
:10129000D4E9012138469047206A401C2062C01CD6
:1012A000206206E0206AFAE7D4E9012115F8010B73
:1012B0009047761EF8D22046FFF764F8BDE8F0812B
:1012C0004E414E006E616E00494E4600696E6600EA
:1012D0002DE9F047814616468AB0354878440DC856
:1012E0008DE80D0032487844801C03AC0DC884E8BA
:1012F0000D0041F69B300844372190FBF1F290FB42
:10130000F1F5A5F1800501FB12041B3C02D56442F6
:10131000012000E00020DFF898A080460027FA4472
:10132000AAF1BE0A0EE0E0070AD03246684607EB93
:10133000470101230AEB810100F006FB8DE807005D
:1013400064107F1C002CEED1194F7F44AE3F19E092
:10135000E80715D007EB04100DF1180A90E80E000D
:101360008AE80E00C068F04201D198190890324610
:10137000012306A903A800F0E7FA03AB83E80700FE
:101380006D10641C002DE3D14FF001033246694615
:10139000B8F1000F03A802D000F0C1FA01E000F09C
:1013A000D3FAC9E90001C9F808200AB0BDE8F087FE
:1013B000FC64000000487047BC8B00207546FFF7B6
:1013C000F9FFAE4605006946534620F00700854602
:1013D00018B020B5FEF786FFBDE820404FF00006AC
:1013E0004FF000074FF000084FF0000B21F007010D
:1013F000AC46ACE8C009ACE8C009ACE8C009ACE850
:10140000C0098D46704710B50446AFF300802046F2
:10141000BDE81040FEF74DBF01491820ABBEFEE706
:101420002600020070475FEA400C08BF91F0000FF1
:101430004FEA8C234FEAC12243EA51514FEA1C5034
:1014400018BF00F5F0404FEA300018BF41F00041EE
:101450005FEA6C5C00F02980BCF1FF3F08BF40F000
:1014600080407047130C06BF12044FF0100C4FF071
:10147000000C130E04BF12020CF1080C130F04BF72
:1014800012010CF1040C930F04BF92000CF1020C3A
:10149000D30F04BF52000CF1010C11464FF00002B3
:1014A000A0F11F00A0EB0C00704711F0004F08BF27
:1014B000704731F000413FF4D5AF0B0C06BF090473
:1014C0004FF0100C4FF0000C0B0E04BF09020CF192
:1014D000080C0B0F04BF09010CF1040C8B0F04BFA7
:1014E00089000CF1020CCB0F04BF49000CF1010C78
:1014F000CCF12003A0EB0C0022FA03F302FA0CF269
:1015000041EA030100F10100704720F07F4C80EABE
:10151000030023F07F47ACEB070303F57C5300F097
:10152000004003F1FF032DE980494FEA154B09B450
:101530004FEA144325EA0B4E24EA03480FF204262F
:1015400006EB132749083E785FEA320203FB066781
:10155000C7F5000707FB06F64FEA54374FEAD646B1
:1015600006F1020607FB066CCCF1005C4FEA1C4753
:101570002CEA074C07FB06F40CFB06F504EB1546BA
:101580004FEA961634BF00204FF000404FEAD137A3
:1015900006FB07FC4FEA1C4C0CFB0BF7D21B03FBB2
:1015A0000CF761EB07010CFB0EF7B0EB074072EB99
:1015B00017420CFB08F734BFA2EB0742B2EB07421D
:1015C00061EB17414FEA0C444FEA910706FB07FC19
:1015D0004FEA1C4C0CFB0BF7B0EBC74072EB5732D9
:1015E00003FB0CF734BFA2EBC742B2EBC74261EB7F
:1015F00057310CFB0EF7B0EBC70072EB57720CFBC8
:1016000008F734BFA2EBC702B2EBC70261EB577118
:10161000039F4FEA816141EA921104EBCC044FEA47
:10162000D1374FEA826206FB07FC42EA90124FEA8A
:1016300080604FEA1C4C0CFB0BF7D21B03FB0CF732
:1016400061EB07010CFB0EF7B0EB074072EB1742A2
:101650000CFB08F734BFA2EB0742B2EB074261EB89
:1016600017414FEA8C554FEA910704EB9C2406FB87
:1016700007FC4FEA1C4C0CFB0BF7B0EBC74072EBBE
:10168000573203FB0CF734BFA2EBC742B2EBC742A1
:1016900061EB57310CFB0EF7B0EBC70072EB5772E2
:1016A0000CFB08F734BFA2EBC702B2EBC70261EB39
:1016B000577115EB4C254FEA816141EA92114FEACF
:1016C00082624FEAD13742EA901206FB07FC44F1EE
:1016D00000044FEA80604FEA1C4C0CFB0BF7D21B56
:1016E00003FB0CF761EB07010CFB0EF7B0EB0740B7
:1016F00072EB17420CFB08F734BFA2EB0742B2EBC8
:10170000074261EB174115EB1C154FEA813141EAA5
:1017100092414FEA823242EA90424FEA80304FEAE9
:101720000C7644F1000448EA03434EEA0B484FF0BC
:10173000000EB2EB080C71EB030724BF624639467A
:101740004EEB0E0E4FF0000B0018524149414BEB8F
:101750000B0BB2EB080C71EB03077BF1000B24BF02
:10176000624639464EEB0E0E4FF0000B0018524108
:1017700049414BEB0B0BB2EB080C71EB03077BF110
:10178000000B24BF624639464EEB0E0E51EA0207AB
:1017900018BF46F0010616EB0E7655F1000254F123
:1017A000000103D5BDE88901BDE80088BDE88901D5
:1017B000BDE80048B619524141EB0101A3F1010314
:1017C000704780807F7E7D7C7B7A797877767675AE
:1017D0007473727171706F6E6E6D6C6C6B6A6A6926
:1017E0006868676666656464636362616160605FC0
:1017F0005F5E5E5D5D5C5C5B5B5A5A595958585739
:1018000057565655555554545353525252515150A0
:1018100050504F4F4F4E4E4D4D4D4C4C4C4B4B4BF3
:101820004A4A4A4949494848484747474746464639
:101830004545454444444443434343424242424174
:101840004141002B9C4630D477002BD01CB54FEA89
:10185000370703B44FF010004FF01001BAF1000F3A
:1018600006D0BCF1000FDCBF40F0080040F00801DA
:101870004FF000000FBCBDE810400BF1010BBBF1B5
:10188000010F08BF5FEA170722BF12F1010211F131
:1018900001014FF0004143F1000300F0004043EA32
:1018A00000007047F9D35708D0E746EA064613F11F
:1018B000400F4FEA16461FDD13F1200FDFBF16431E
:1018C0000A46002120335B42BED0C3F1200746EA1E
:1018D000064602FA07F74FEA164646EA0706C3F13C
:1018E000200722FA03F201FA07F721FA03F14FF079
:1018F000000342EA0702A7E746EA020646EA06466E
:101900004FEA164646EA0106BCBF46EA0646360CD2
:101910004FF000034FF000024FF0000194E72DE973
:10192000804C9A46934670B491E8380007C831EA73
:10193000400C48BF34EA430C03D5FFF7E6FDFFF740
:1019400080FFF0BCBDE8008C2DE9804C9A469346A0
:1019500070B491E8380007C810F0804F08BF13F04A
:10196000804F03D100F005F8FFF76BFFF0BCBDE836
:10197000008C20F07F4780EA030023F07F4C07EBC8
:101980000C03A3F57C5300F00040A3F1FE0392F09A
:10199000000F00F0B38095F0000F00F077802DE984
:1019A00001494FEA11404FEA144621EA004800FB82
:1019B00006FC24EA064708FB06F607FB08F800FBCE
:1019C00007F718EB06484CEB164C4FEA124B18EB96
:1019D00007484FEA15464CEB174022EA0B4E0BFB2B
:1019E00006FC25EA06470EFB06F607FB0EFE0BFB80
:1019F00007F71EEB064E4CEB164C4FF000061EEBA5
:101A0000074E4CEB174B18EB0B0840F1000018EB9E
:101A10000E0B58EB000840F100008F1A4FF0000148
:101A20003CBFC943661B14BFB5EB040C00213CBF8F
:101A3000C943F61B4FEA17444EEA8E0E27EA0445C7
:101A40004FEA1C4704FB07622CEA074C05FB07F72B
:101A50000CFB05F604FB0CFC16EB074642EB1742A9
:101A600016EB0C4642EB1C421BEB060658EB02023F
:101A7000414146EA9E0601D5BDE80189B6195241A9
:101A800041EB0101A3F10103BDE801894FEA1445CF
:101A90004FEA114724EA054621EA074C05FB07F403
:101AA00006FB07F70CFB06F105FB0CFC11EB0741ED
:101AB00044EB17444FEA124711EB0C4144EB1C4432
:101AC00022EA074C05FB07F206FB07F70CFB06F6BC
:101AD00005FB0CFC16EB074642EB174216EB0C46D7
:101AE00042EB1C456A1854F1000148BF7047B61913
:101AF000524141EB0101A3F10103704795F0000F42
:101B000037D04FEA11424FEA144721EA024624EA4D
:101B1000074C02FB07F106FB07F70CFB06F402FB80
:101B20000CFC14EB074441EB17414FEA154714EB4B
:101B30000C4441EB1C4125EA074C02FB07F506FB70
:101B400007F70CFB06F602FB0CFC16EB074645EB11
:101B5000174516EB0C4645EB1C42121951F10001DA
:101B600048BF7047B619524141EB0101A3F101038F
:101B700070474FEA14454FEA114724EA054621EA27
:101B8000074C05FB07F106FB07F70CFB06F24FF0CD
:101B9000000605FB0CFC12EB074241EB174112EB70
:101BA0000C4251EB1C4148BF7047921841EB0101B8
:101BB000A3F10103704710B504460021204602F04E
:101BC000BBF810BD10B502F0BBFF0221034803F0C3
:101BD00053FF0421014803F04FFF10BD00240140D2
:101BE00000BFFEE7704700BFFEE700BFFEE770479B
:101BF0007047704710B504480068401C02490860EF
:101C000000F09CF810BD00000800002008B5264830
:101C1000006840F47000244908602448006840F0DF
:101C200001002249086000BF2048006800F002005F
:101C30000028F9D000BF1D48406840F080001B49D3
:101C400048600020009002E00098401C009000983E
:101C50005028F9D31548406840F090001349486077
:101C60000020009002E00098401C0090009850284E
:101C7000F9D300BF0D48406820F003000B494860CD
:101C8000084600680A490840084908604FF41F00E8
:101C900088600846006820F48020086000204860C2
:101CA000C86200F06BF808BD88ED00E0001002404B
:101CB000FFFFF6FE10B507490748006804F069FF0A
:101CC00038B10548006804F0DFFEC4B2204600F0D9
:101CD0000FFF10BD05030500F06E000800BFFEE712
:101CE00010B501F00BFC044600BF10BD10B5124842
:101CF00000684FF47A71B0FBF1F4601EB0F1807FA0
:101D000001D301200FE0601E4FF0E02148610F2158
:101D10004FF0FF3000F01EF800204FF0E021886106
:101D200007200861002008B100BFFEE70021481E1F
:101D300000F010F810BD00000C00002004480068FE
:101D400020B103480068401E014908607047000048
:101D50008801002010B5002807DA0A07140E054A8A
:101D600000F00F031B1FD45403E00A07130E024AAE
:101D7000135410BD18ED00E000E400E010B500F0D1
:101D800001F810BD002000213E4A126842F4803262
:101D90003C4B1A6000BF401C3A4A126802F4003102
:101DA00019B94FF6FF729042F5D1364A126802F423
:101DB00000320AB900BFFEE7324AD26942F08052CF
:101DC000304BDA61304A126842F440422E4B1A60BE
:101DD0002C4A52682B4B5A601A4652685A601A466F
:101DE000526842F480625A601A46526822F44032C5
:101DF0005A601A46526842F440325A601A46526893
:101E0000224B1A401F4B5A601A46526842F0006239
:101E10005A601A46126842F080721A6000BF194A6E
:101E2000126802F00072002AF9D0174A126842F4D0
:101E30008032154B1A6000BF134A526802F4803298
:101E4000002AF9D0104A126842F400320E4B1A6090
:101E500000BF0D4A526802F40032002AF9D0094A44
:101E6000526822F00302074B5A601A46526842F049
:101E700002025A6000BF034A526802F00802002AB8
:101E8000F9D070470010024000700040FFFFC3B758
:101E900002460120034B9A4202D1042900DD0020B2
:101EA00070470000000402400349086000BF024977
:101EB00009680029FBD170478801002070B500F047
:101EC00035FF064D2846446801460868FEF7F8F9D4
:101ED0000021284604F0F4F9A04770BD0060020814
:101EE00070B505460C4622460249284600F0BCF86B
:101EF00070BD00009808002070B505460C462246CB
:101F00000249284600F0B0F870BD00004C080020DF
:101F10002DE9F04FADF6447DADF5805D05462846D0
:101F200003F01AFA019001240CE005EB440003F0E1
:101F300013FA611E01AA52F82110084401A941F8C0
:101F40002400641CB4F5FA6FEFDB40F2355640F222
:101F5000C2674FF0FF384FF00009304620E04FF0E5
:101F6000FF344FF0000C002110E001EB000A0DF1EE
:101F7000040B5BF82AA05BF821B0AAEB0B02A2428B
:101F800000D21446624500D99446491CB1F5857FBC
:101F9000EBDBACEB0403434501D298468146401C81
:101FA000B842DCDB48460DF6447D0DF5805DBDE8AA
:101FB000F08F10B5024600202DE001F118031B5CE4
:101FC00043B3131D03EBC00393ED000A01EBC00301
:101FD000D3ED000A30EE200A131D03EBC00383ED9E
:101FE000000A131D03EBC00393ED010A01EBC003CC
:101FF000D3ED010A30EE200A131D03EBC00383ED7D
:10200000010A02F13C0353F820305B1C02F13C044E
:1020100044F82030401C0328CFDB10BD10B5044627
:10202000002016E0002204F13C0141F820209FED41
:102030000D0A211D01EBC00181ED000A9FED090A87
:10204000211D01EBC00181ED010A04F138010A54A0
:10205000401C0328E6DB01F051FA21680844A06423
:1020600010BD00000000000070B588B006460C46A8
:10207000154629462046FFF79CFF1C2204F120014B
:1020800001A8FEF765FC01F039FAA16C884247D33C
:1020900000203AE004F13C0151F8201049B3211D21
:1020A00001EBC001D1ED000A04F13C0151F8201010
:1020B00000EE101AB8EEC00A80EE801A04F120017A
:1020C00001EBC00181ED001A211D01EBC001D1ED32
:1020D000010A04F13C0151F8201000EE101AB8EE8C
:1020E000C00A80EE801A04F1200101EBC00181EDED
:1020F000011A04F13C0151F8201009B1012200E05D
:10210000002204F138010A54401C0328C2DB1B22C0
:1021100004F1200101A8FEF71BFC2046FFF77EFF1B
:102120001C2201A93046FEF713FC08B070BD70B543
:1021300004460D462560201D00F0A2FB041F04F19B
:10214000200000F09DFBA0F120042046FFF766FF71
:10215000204670BD00B50246092A03D2002000F0D7
:102160001FFB00BD122A03D2012000F019FBF8E783
:10217000022000F015FBF4E72DE9F0412DED028B74
:1021800004460D461746FA48007800F0010060B991
:10219000F74803F00EF940B103230822F549F64849
:1021A00003F0F5F8F248AFF30080F448005D0F2823
:1021B0000AD2DFE800F0088B9AA9B8C9D8EFEEED93
:1021C000ECEBEAE9E80007B9FFE10026204601F060
:1021D0009FFF00B968E095ED000AE94850F8240037
:1021E00000EE900AF8EEE00AB2EE041A00EE810A60
:1021F000F0EE408A9FEDE30AF4EEC08AF1EE10FAA9
:1022000001D200264FE09FEDE00AB0EE408A4FF089
:10221000000895ED000ADFEDDD0AB4EEE00AF1EE0C
:1022200010FA16D295ED000ADFEDD80A30EEC00A9A
:10223000B0EE408AF2EE040A88EE200AF7EE000AB9
:1022400030EE200ABDEEC00A10EE100AC0F1000800
:102250001EE095ED000ADFEDCE0AB4EEE00AF1EEE5
:1022600010FA14DD95ED000ADFEDC90A30EE600AC0
:10227000B0EE408AB2EE040AC8EE000AB7EE000AD9
:1022800030EE800ABDEEC00A10EE108A00E09CE13C
:10229000BB4951F8241001EB08000422514204F01C
:1022A000EDFC064600BF00BFB54850F82400B04220
:1022B00000D18AE1B24840F82460AF4800EBC40383
:1022C00001222146022000F04FFA7EE1AA4901EBEB
:1022D000C40002F0DDFF38B1A74800EBC4030222BE
:1022E0002146032000F040FA6FE1A34901EBC4004E
:1022F00002F0CEFF38B1A04800EBC4030322214610
:10230000012000F067FA60E19B4901EBC40002F094
:10231000BFFF38B1984800EBC403042221460220D5
:1023200000F058FA51E1944901EBC40002F0B0FF0B
:1023300048B1914901EBC40041F2883100F0E8FA5C
:1023400005208E49085540E18B4901EBC40002F09D
:102350009FFF38B1884800EBC403062221460320C2
:1023600000F038FA31E1844901EBC40002F090FF3B
:1023700000287DD0824850F8240000280BDD8048DA
:1023800050F824000BE016E106E1E0E0D0E0C0E008
:10239000B0E0A0E07AE07A4850F8240040420646D7
:1023A00006EB86007B49085C40B1734800EBC40330
:1023B00007222146012000F0D7F907E06E4800EB24
:1023C000C40307222146012000F004FA06EB860030
:1023D00070490844807840B1674800EBC403072285
:1023E0002146052000F0C0F907E0634800EBC40374
:1023F00007222146052000F0EDF906EB860065492D
:102400000844C07840B15C4800EBC4030722214671
:10241000062000F0A9F907E0574800EBC4030722A3
:102420002146062000F0D6F906EB860059490844FB
:10243000007940B1504800EBC40307222146104602
:1024400000F092F907E04C4800EBC4030722214654
:10245000104600F0BFF906EB86004E4908440079AB
:1024600050B1454800EBC40307222146082000E094
:102470000BE000F079F907E03F4800EBC4030722C6
:102480002146082000F0A6F900BF9EE03A4901EB82
:10249000C40002F0FDFEE8B1394850F8240018B934
:1024A00000203649085515E0354850F8240000282A
:1024B00008DD314800EBC40308222146092000F062
:1024C00053F907E02C4800EBC403082221460920F9
:1024D00000F080F979E0284901EBC40002F0D8FE51
:1024E00038B1254800EBC40309222146022000F040
:1024F0003BF96AE0204901EBC40002F0C9FE38B1A3
:102500001D4800EBC4030A222146032000F02CF9E9
:102510005BE0194901EBC40002F0BAFE38B116487D
:1025200000EBC4030B222146012000F01DF94CE012
:10253000114901EBC40002F0ABFE38B10E4800EBCC
:10254000C4030C222146022000F044F93DE00A4970
:1025500001EBC40002F09CFE48B1074901EBC40046
:1025600041F2883100F0D4F90D20044908552CE0DF
:10257000A802002035290008F0080020A001002052
:10258000E4080020008020430000000000005C43BD
:10259000000070436C760008104901EBC40002F0A3
:1025A00077FE38B10D4800EBC4030E22214603200C
:1025B00000F010F909E0094901EBC40002F068FEDF
:1025C00010B100200649085500BF00BF054801F0C2
:1025D00001FDBDEC028BBDE8F0810000F008002099
:1025E000A0010020E408002010B5044604F0010119
:1025F0000C4801F07DF8C4F340010B4801F078F875
:10260000C4F38001094801F073F8C4F3C00108481D
:1026100001F06EF8012020EA1411064801F068F874
:1026200010BD00005800002060000020680000205D
:10263000700000207800002010B52848007800F0D5
:10264000010048B9254802F0B4FE28B1244800F042
:1026500071F92248AFF30080214800F051F900B928
:1026600010BD1F4800F05CF91E48007838B11E48C4
:102670000068FFF7B9FF00201A4908702BE01A48DC
:1026800000681B2808D1194800F015FF80F00104EC
:10269000204601F05FFD0CE013480068FFF75AFD8B
:1026A00038B900F0D3F8044621460F48006801F01D
:1026B00061FD1C2200210C48006804F0EAFA0A4976
:1026C000086009681B2901D11F2101E0064909683A
:1026D0000846FFF789FF00BFC2E700009402002010
:1026E00098020020A0020020A40200208800002000
:1026F00070B500240EE0012509E004EB8401124AC4
:1027000002EB011101EBC50000F080F86D1C0A2DF1
:10271000F3DB641C032CEEDB0C4800F0DCFF0C4800
:1027200000F0D9FF0B4800F0D6FF0B4800F0D3FFB4
:102730000A4800F0D0FF4821094800F0B2FE4821C5
:10274000084800F0AEFE70BDA40100205800002033
:102750006000002068000020700000207800002049
:1027600080000020880000202DE9F04105460C463D
:1027700016461F4604EB8401074A02EB011101EBE8
:10278000C50000F04EF8054806556421384600F0B3
:10279000BFF8BDE8F0810000A4010020A0010020E6
:1027A00001460348405C08B1012070470020FCE767
:1027B000A001002070B50546002408E005F11803CB
:1027C0001A5D05EBC401E0B2FFF7D6FC641C032CD4
:1027D000F4DB70BD2DE9F04105460C4616461F4658
:1027E00004EB8401074A02EB011101EBC50000F084
:1027F00022F8054806556421384600F089F8BDE8FE
:10280000F0810000A4010020A001002010B50446C2
:10281000206800F060FF00202071206800F064FF55
:1028200010BD10B50446207920B901202071206820
:1028300000F04DFF10BD10B50446207920B10020F6
:102840002071206800F050FF10BD000070B50A48EC
:1028500000F031FE0446094800F02DFE054604B1A3
:102860000DB91CB915B94FF0FF3070BD0CB1002087
:10287000FBE70120F9E7000080000020880000202D
:1028800010B50446032308220249204602F07FFDCA
:10289000044610BD2D2A0008017A4172704710B518
:1028A0000446207A6072204600F005FE2072207AED
:1028B00010BD70B504460D461646324629462046E0
:1028C00000F018FE044600202072204670BD10B5AE
:1028D000044603220421D4E9000303F0CFFA10BD1B
:1028E00001604260704710B5044603221821D4E904
:1028F000000303F0C3FA10BD01604260704700009E
:102900000146024A08681268101A70470800002041
:10291000024A12680A444260704700000800002022
:102920000349096801600249096841607047000075
:102930000800002010B504462046FFF7F1FF2046AE
:1029400010BD00002DE9F0412DED068B05460E4629
:1029500090463046FFF7DCFA04469FED300AB0EEB1
:10296000409A00270CE008EB470002F0CDFCB0EEE7
:10297000408AB0EE490A08EE080AB0EE409A7F1C81
:10298000A742F0DB00EE104AB8EEC00AC9EE000A1A
:10299000B0EE608AB0EE480A02F013FDF0EE40AAF5
:1029A0001F4802F01DFC2AEE800A85ED010ADFEDCA
:1029B0001B8ADFED1C9A9FED1CAA00271AE006EB8C
:1029C000470002F0B5FCB0EE408AB4EECA8AF1EEE0
:1029D00010FA01D2B0EE48AAB4EEE98AF1EE10FA8C
:1029E00001DDF0EE489AB0EE680A08EE080AF0EE53
:1029F000408A7F1CA742E2DB00EE104AB8EEC00A14
:102A0000C8EE800AB0EE608AB0EE480A02F0D9FC47
:102A100085ED000ABDEC068BBDE8F08100000000EA
:102A2000A2030020CAF249F1CAF249719FED040ADB
:102A300080ED000A9FED020A80ED010A7047000058
:102A40000000000010B50F48FFF74DFF0E48FFF7DC
:102A50003EFF0121082003F077FA0C48006804F0DB
:102A60001DF84FF4E1310948006803F0C5FF082163
:102A70000648006804F0C3F80448006804F05BF8F6
:102A800010BD00003000002038000020F46E000867
:102A900070B505462846FDF7B5FE064600240DE054
:102AA000295D1148006803F0F4FF00BF07210E48BC
:102AB000006804F045F80028F8D0641CB442EFDB4D
:102AC00000240EE00948015D0748006803F0E1FFBB
:102AD00000BF07210448006804F032F80028F8D04D
:102AE000641C022CEEDB70BDF46E0008FC6E000866
:102AF00010B50446204600F0F1FA10BD10B5254887
:102B0000FFF7F1FE2448FFF7E2FE002211463420D1
:102B100003F06AFB34200021002807DA0A07140EAC
:102B20001E4A00F00F031B1FD45403E00A07130EC4
:102B30001B4A135400BF1B48006803F0AFFF4FF45B
:102B4000E1311848006803F057FF0021154800687C
:102B500004F03BF800211348006804F05AF8002103
:102B60001048006804F043F804210E48006804F09F
:102B700034F808210B48006804F041F840F20531B0
:102B80000848006803F0F8FF0648006803F0D3FF28
:102B900010BD0000200000202800002018ED00E0FB
:102BA00000E400E0F06E000810B51348006803F080
:102BB000BDFF40F205311048006803F0D0FF0E4819
:102BC000006803F06BFF342003F002FB4FF48063D6
:102BD00004221021094803F051F94FF40063042244
:102BE0001021064803F04AF94FF480600349486118
:102BF0004000486110BD0000F06E00080010014068
:102C000070B504462046FDF7FDFD054629462046E1
:102C100000F002F870BD00002DE9F04104460D46B9
:102C2000264600270EE016F8011B0848006803F04E
:102C300030FF00BF07210548006803F081FF00282E
:102C4000F8D07F1CAF42EEDBBDE8F081F06E0008EB
:102C500010B5FFF74BF84FF4C06003F027FB40F2CC
:102C6000026003F039FC40F2036003F035FC40F2EF
:102C7000046003F031FC40F2056003F02DFC40F2EB
:102C8000066003F029FC40F2076003F025FC40F2E7
:102C9000096003F021FC4FF4A06003F01DFC40F23A
:102CA000157003F019FC40F2167003F015FC40F2A9
:102CB0000F7003F011FC40F20B6003F00DFC40F2CA
:102CC000117003F009FC40F2137003F005FC4FF49F
:102CD000C06003F001FC4FF4E06003F0FDFB40F244
:102CE000047003F0F9FB0F48406A0F49086040F692
:102CF0001D1003F0DFFB08B103F024FB40F20B7062
:102D000003F0EAFB01F054FF01F0D4FDFFF7F6FEFB
:102D100001F0E4FF02F07EF802F0AFFAFFF792FE56
:102D200010BD0000001002400400002010B5FFF7A5
:102D30003BFF01F0E7FE10BD2DE9FE430746104AB8
:102D400007CA8DE807006A460C23002015460026B6
:102D50000AE0014615F801CB0CEB811808EB01489D
:102D6000A8EB01084046761C9E42F2DB0446224650
:102D700004A13846FDF7DAFA3846BDE8FE830000C4
:102D8000E8F7FF1F255800007047000010B54FF40A
:102D900000510348FDF70EFE00200249086010BDF7
:102DA000BC6B0020A40300200FB410B5B4B037A84A
:102DB0001A901BA81A9A3699FDF7A6FA00201A90C5
:102DC0001BA8FDF71FFD441C0D480068204441F678
:102DD0009C71884201DBFFF7D9FF0A48026800684E
:102DE000401C084B18601BAB07A101A8FDF79EFA19
:102DF00001A8FFF74DFE34B010BC5DF814FB0000D5
:102E0000A4030020A80300202564203A2025730095
:102E100003460020704701460020704709480078AB
:102E200030B1012806D0022806D0032807D105E0DA
:102E3000052070470720FCE70A20FAE700BF00BF23
:102E40000A20F6E79C0100200348007808B9012019
:102E500070470020FCE700000003002003480078D2
:102E6000022801D1012070470020FCE70003002068
:102E700010B504460148FFF753FD10BD0C030020B8
:102E80000020014908707047000300202DE9F0413F
:102E900005460C46302000F02DFF2846FDF7B2FC19
:102EA00007462046FDF7AEFC3844801CC6B23046CB
:102EB00000F020FF002000F01DFF2846FDF7A2FCD7
:102EC000C6B2304600F016FF284600F00DFF20463F
:102ED00000F00AFFBDE8F08130B589B005460C4628
:102EE000224605A101A8FDF721FA01A92846FFF70E
:102EF000CDFF09B030BD00002564000010B52DEDF8
:102F0000048B88B00446B0EE408AB2EE040AB4EEF8
:102F1000C08AF1EE10FA0CD218EE100A03F06EFF20
:102F200041EC190B53EC192B0CA16846FDF7FEF987
:102F30000BE0B6EE000A38EE000ABDEEC00A10EE55
:102F4000102A08A16846FDF7F1F969462046FFF707
:102F50009DFF08B0BDEC048B10BD000025322E3162
:102F60006600000025640000F0B591B004464848B2
:102F7000007800F0010048B9454802F01AFA28B17B
:102F80004448FFF7D7FC4248AFF30080424800783E
:102F900020B101280FD0022877D164E03FA0FFF7CD
:102FA00003FF43A000F0ACFE3A48FFF7B9FC012054
:102FB0003949087069E041A12046FDF71DFD002850
:102FC00050D13FA509A8FFF7B7FE064632463EA1FD
:102FD00001A8FDF7ABF9102000F08CFE2846FDF7A4
:102FE00011FC074601A8FDF70DFC38440830C6B2B5
:102FF000304600F07FFE002000F07CFE2846FDF702
:1030000001FCC6B2304600F075FE284600F06CFEAA
:10301000042000F06FFE022000F06CFE002000F0A3
:1030200069FE3C2000F066FE002000F063FE01A86F
:10303000FDF7E8FBC6B2304600F05CFE01A800F0E8
:1030400053FE1A2000F056FE022013490870214852
:10305000FFF766FC2048FFF763FC01F035FF01F045
:10306000EBF800BF11E0204601F026FA60B91948DC
:10307000FFF746FC1848FFF743FC44F620618842FE
:1030800002D91548FFF74CFC00BF00BF11B0F0BDDE
:103090001403002018030020000300202B2B2B20FA
:1030A0004D5154543A3A49444C45202B2B2B0000A7
:1030B00041542B43495053454E4400003E0000000C
:1030C0004D515454000000006D717474706B732D79
:1030D000257300000C0300200403002070B5044693
:1030E00004B970BD00BF16480078F8B9154803F060
:1030F0007BFE90B1134803F077FE0646114800F1BD
:1031000008010D4632460E4803F0DEFD10B90C48AA
:1031100003F0D6FD0B4803F0D3FD2146084803F029
:10312000F3FD58B9064803F0CBFD07E021460548FA
:1031300003F0EAFD10B9034803F0C2FD00BFD0E779
:10314000186800202069002010B5094800F0C3FA73
:10315000074800F0BCFA074800F0BDFA054800F047
:10316000C3FA054800F0BAF9FFF71EFD10BD0000D4
:1031700040000020480000205000002000BF04480C
:103180000078062801D1012070470020FCE70000EC
:10319000F002002010B5002000F002F810BD000081
:1031A0000149087070470000F002002010B50423A8
:1031B00003222821014802F061FE10BD00180140E1
:1031C00010B5042303221021034802F057FE042007
:1031D00001491431086010BD0018014010B50421E8
:1031E000034802F0A9FE012800D110BD0020FCE731
:1031F0000018014070B592B000BF0120444908702A
:1032000000BF084603F0F0FD10B3002408E021469B
:103210003F4803F099FD05782846FFF7B5FD641C8B
:103220003B4803F0E1FDA042F1DC394803F0DCFD4E
:103230000546374800F108010C462A46354803F098
:1032400043FD10B9334803F03BFD314803F038FD2E
:1032500000BF00202E49087000BF2E4803F0C4FDB7
:1032600018B92DA000F010FB50E06C46204600F08D
:1032700015F904460020606000BF002600BF00BFB3
:103280000020019000BF002600242DE021462148A7
:1032900003F05AFD05780A2D00D124E00D2D0DD143
:1032A00000BF019800B91EE00021684603F05EFDF2
:1032B0000126611C174803F0F5FC1AE03E2D0DD1E4
:1032C0003E21684603F052FD0021684603F04EFDA2
:1032D0000126611C0F4803F0E5FC0AE02946684618
:1032E00003F044FD00BF641C0A4803F07DFDA042CA
:1032F000CCDC1EB1684600F1080100E006A10C46D6
:10330000204600F0C1FA002EB9D100BF12B070BD46
:1033100018680020286A00200000000010B54C4802
:10332000007800F0010058B9494802F042F838B17D
:10333000484C2046FFF7F4FA00BF4548AFF3008041
:1033400000BF4548007807287FD2DFE800F0041767
:103350002D4555667B0041A0FFF726FD00F082FA5F
:10336000FFF78EFD424800F0B2F9FFF729FF012078
:10337000FFF716FF3748FFF7D3FA66E03548FFF747
:10338000BFFA40F6B83188420DD93AA0FFF70CFDDC
:10339000FFF70CFF364800F0A7F90220FFF700FF07
:1033A0002C48FFF7BDFA50E0FFF718FF58B1294845
:1033B000FFF7B6FA0320FFF7F3FE2821354800F0A7
:1033C00070F8FFF79BFB2348FFF79AFA642802D9AD
:1033D0000020FFF7E5FE38E01E48FFF791FAB0F550
:1033E000FA7F08D92C4800F07FF91A48FFF798FABD
:1033F0000420FFF7D5FE28E01648FFF781FA40F2D7
:10340000E241884208D9244800F061F91148FFF7E9
:1034100087FA0520FFF7C4FE17E01E4800F04BF8BE
:1034200028B10620FFF7BCFE0A48FFF779FA0948E1
:10343000FFF766FA41F28831884202D90020FFF78F
:10344000AFFE02E0FFF7D6FE00BF00BF10BD0000D8
:10345000F4020020F8020020F00200202B2B2B2089
:103460004D4F44454D3A3A49444C45202B2B2B00B7
:1034700040000020204D4F44454D3A3A57414954B1
:103480005F4449534348415247455F4341505320AD
:103490002020000050000020480000200021017082
:1034A000704770B504460D4603222946D4E900034F
:1034B00002F0E4FC70BD10B50446204600F003F8AD
:1034C00080F0010010BD10B50446D4E9000102F0FF
:1034D00033FD08B9012010BD0020FCE710B50446FB
:1034E00004221021D4E9000302F0C8FCD4E9001042
:1034F000486110BD016042607047000001480068EB
:10350000704700000800002010B5FFF73FFC07A03F
:10351000FFF74AFCFFF79CFBFFF7EAF801F09EFE7D
:1035200001F098F8FFF710FE10BD000020202044A5
:1035300065766963653A3A496E69742829202020C6
:103540000000000000B595B001F09DFE01F0A6FD61
:1035500001F084F8684601F0F1FC1C22694607A8D6
:10356000FDF7F6F91B2207A90EA8FDF7F1F90EA841
:10357000FFF720F9FFF7D2FE01F076FCFFF75CF8C9
:1035800015B000BD2DE9F04705460E461746002050
:10359000387081468046012E02D14FF0FF3937E066
:1035A00029460122087820280AD008782C2807D03C
:1035B00008783A2804D008783D2801D0012000E09E
:1035C0000020034618E00878202808D008782C2826
:1035D00005D008783A2802D008783D2802D153B1A6
:1035E000002308E03BB9521C0123B24203D1481B1F
:1035F000A0F1010905E0491CB24202DA087800286E
:10360000E1D100BFB24202D010A0BDE8F08700BFF8
:1036100009F1010805EB080402E008F10108641C47
:10362000207858B12078202808D020782C2805D080
:1036300020783A2802D020783D28EED13B464246F9
:103640004946284600F004F8DFE7000000000000CB
:103650002DE9F04107460D4616461C46701B002812
:1036600005DC0AA0FFF7A0FB002020700BE020463D
:10367000691C03E07A5C00F8012B491CB142F9DBBC
:103680000021017000BF2046BDE8F08157726F6EC7
:103690006720617267756D656E74730010B50446BE
:1036A00004220021D4E9000302F0E8FB10BD016010
:1036B00042600372704710B5044603221C21D4E90E
:1036C000000302F0DBFB10BD016042607047D0E9EF
:1036D00000211161704710B5044603221021D4E97E
:1036E000000302F0CBFB10BDD0E90021516170470F
:1036F00010B504460B461BB12046FFF7E8FF02E079
:103700002046FFF7F1FF10BD0160426070470000E6
:1037100000487047E002002003480078062801DBDB
:10372000012070470020FCE7CC02002010B50446C1
:103730000548FFF7E5F8A04201D8012010BDFFF7CA
:1037400029FD0020FAE70000D002002030B591B03A
:103750000446207818B121462EA0FFF725FB09AAC0
:1037600001212046FFF70EFF2CA12046FDF744F96A
:1037700020B9FFF70FFD012011B030BD29A120466F
:10378000FDF73AF918B9FFF705FD0120F4E728A184
:1037900009A8FDF731F930B9274A02212046FFF781
:1037A000F1FE0120E8E71FA12046FDF725F908B941
:1037B0000120E1E721A12046FDF71EF908B901200B
:1037C000DAE720A109A8FDF717F908BB01AA022131
:1037D0002046FFF7D7FE05461CA1FDF70DF998B965
:1037E000A07C012810D1607C65280DD1207C742834
:1037F0000AD1E07B612807D101F038FD012114A036
:1038000000F0D6FAFEF75AFB2046FFF731FB00BF67
:103810000020B1E73C3C3C2025730000434C4F5353
:103820004544000053454E44204641494C000000A9
:103830002B43535100000000E002002053454E444A
:10384000204F4B002B495044000000003133000052
:103850005570677261646520736F66747761726515
:10386000000000000020014908707047CC020020D1
:1038700010B504460248FFF753F80248047010BD23
:10388000D0020020CC02002070B588B00546284642
:10389000FFF75CFF08B108B070BD42F21076C54872
:1038A000007820B10020C3490870C3490870C2489D
:1038B0000078102816D2DFE800F00816273849579C
:1038C0007A90B3C9DFFAF8F7F6F5BCA0FFF76CFA07
:1038D000C0A000F015FA0120FFF7CAFFBF48C0A141
:1038E0000988018062E142F21070FFF71FFF50B1BA
:1038F000BCA12846FDF780F828B90220FFF7B8FFE1
:10390000B9A000F0FDF951E142F21070FFF70EFF8F
:1039100050B1B9A12846FDF76FF828B90320FFF789
:10392000A7FFB6A000F0ECF940E142F21070FFF7FB
:10393000FDFE50B1ABA12846FDF75EF828B9042082
:10394000FFF796FFB1A000F0DBF92FE142F2107013
:10395000FFF7ECFE38B1A3A12846FDF74DF810B9EA
:103960000520FFF785FF21E14EF66020FFF7DEFE20
:10397000E0B16A4601212846FFF704FE0446A6A1ED
:10398000FDF73AF890B96A4602212846FFF7FAFD9A
:10399000007800F00F04012C01D0052C05D1062081
:1039A000FFF766FF9EA000F0ABF900BFFEE042F219
:1039B0001070FFF7BBFE78B16A4603212846FFF777
:1039C000E1FD04469AA1FDF717F828B90720FFF793
:1039D0004FFF99A000F094F9E8E042F21070FFF771
:1039E000A5FEE0B16A4601212846FFF7CBFD04465B
:1039F0007CA1FDF701F830B90820FFF739FF88A056
:103A000000F07EF90BE06A4601212846FFF7BAFD77
:103A1000044690A1FCF7F0FF08B9FFF7BBFBC5E037
:103A200042F21070FFF782FE78B16A460321284601
:103A3000FFF7A8FD044689A1FCF7DEFF28B909209D
:103A4000FFF716FF87A000F05BF9AFE042F21070BD
:103A5000FFF76CFE78B16A4601212846FFF792FD18
:103A6000044660A1FCF7C8FF28B90A20FFF700FF51
:103A70006BA000F045F999E042F21070FFF756FE96
:103A800078B16A4603212846FFF77CFD044678A1F9
:103A9000FCF7B2FF28B90B20FFF7EAFE76A000F092
:103AA0002FF983E071E05AE02DE016E0FFE742F2E3
:103AB0001070FFF73BFE78B16A4601212846FFF7F8
:103AC00061FD044647A1FCF797FF28B10C20FFF7E2
:103AD000CFFE53A000F014F968E042F21070FFF737
:103AE00025FE78B16A4603212846FFF74BFD0446C0
:103AF00064A1FCF781FF28B90D20FFF7B9FE63A090
:103B000000F0FEF852E06C48FFF710FE30B36A4652
:103B100001212846FFF736FD044668A1FCF76CFF3B
:103B200048B16A4602212846FFF72CFD04462DA124
:103B3000FCF762FF30B90E20FFF79AFE61A000F09B
:103B4000DFF80BE06A4602212846FFF71BFD04461A
:103B500060A1FCF751FF08B9FFF71CFB26E042F219
:103B60001070FFF7E3FD78B11EA12846FCF744FF73
:103B700018B90F20FFF77CFE06E036A12846FCF7B7
:103B80003BFF08B9FFF706FB10E02846FFF7ECF90A
:103B90005248FEF7B5FE41F28831884205D94F48B8
:103BA000FEF7BEFE4EA000F0ABF800BF00BF00BFA6
:103BB00071E60000CD020020CC0200202B2B2B2030
:103BC00053494D3830303A3A49444C45202B2B2B41
:103BD000000000004154453000000000E0020020D9
:103BE000300000004F4B000041542B4950523D31F2
:103BF00031353230300000005244590041542B47D7
:103C0000534D425553593D310000000041542B4360
:103C10005245473D310000002B435245470000000C
:103C200041542B4349505354415455530000000014
:103C3000494E495449414C0041542B435354543D3F
:103C400022696E7465726E6574222C22222C2222E7
:103C5000000000004552524F5200000053544152A0
:103C60005400000041542B434949435200000000D6
:103C7000475052534143540041542B4349465352F9
:103C800000000000535441545553000041542B434D
:103C9000495053544152543D22544350222C2264E3
:103CA00065762E72696768746563682E696F222C69
:103CB000223138383322000000710200414C524555
:103CC0004144590041542B434950484541443D31FA
:103CD000000000004641494C00000000D8020020CE
:103CE00041542B435351000010B504462046FEF7C3
:103CF00087FF10BD01B501216846FEF78DFF08BDA5
:103D000010B504462046FCF77DFD022806D9FFF7D2
:103D10009BF818B1214605A0FFF746F82046FEF7AC
:103D20006FFF0448FEF76CFF10BD00003E3E3E20D2
:103D3000257300008A7600080180704710B50021C5
:103D40000148FEF7E5FD10BD5803002010B51248EC
:103D5000007800F0010048B90F4801F02AFB28B1B3
:103D60000E48FEF7E7FD0C48AFF300800B48FEF766
:103D7000C7FDB0F57A7F0CD90948007848B100201A
:103D8000074908700748016807A0FFF77FF801207E
:103D900010BD0020FCE70000740300207803002021
:103DA000700300206C0300202F73746174650000A1
:103DB0007CB504460D460B48046095B1FFF7BEFF85
:103DC0006846FEF7B7FD01E0FFF7A8FA064800785D
:103DD00030B16846FEF794FD42F210718842F3D389
:103DE00000BF7CBD6C03002070030020012001494E
:103DF000087070477003002010B588B01B48007829
:103E000000F0010048B9194801F0D3FA28B1184868
:103E1000FEF790FD1548AFF300801548FEF770FDE2
:103E2000B0F57A7F20D913480078E0B90120114914
:103E300008700423642210A16846FCF777FA6946EB
:103E400010A0FFF723F801200A4908706846FEF722
:103E500073FF044621460EA0FFF718F800F01CF887
:103E6000012008B010BD00BF0020FAE76003002069
:103E700064030020540300202564203A2025647345
:103E8000740000002F76657273696F6E53570000DF
:103E9000626173652F69640010B51EA11EA0FEF754
:103EA000F5FF20480068C0F3007018B11EA11AA0E9
:103EB000FEF7ECFF1B480068012101EAD07018B141
:103EC0001CA115A0FEF7E2FF16480068C0F3807041
:103ED00018B11BA110A0FEF7D9FF12480068C0F36B
:103EE000407018B119A10CA0FEF7D0FF0D48006872
:103EF000C0F3C06018B119A107A0FEF7C7FF0948B9
:103F00000068C0F3806018B116A103A0FEF7BEFFE1
:103F100010BD00002D0000002F6C6173742F7265BE
:103F20007365740004000020536F667477617265D6
:103F3000000000004C6F7720706F77657200000002
:103F40005761746368646F670000000046726565BE
:103F5000207761746368646F67000000506F776555
:103F60007200000045787465726E616C2070696E35
:103F70000000000030B589B00025002415E00D4890
:103F8000005D88B100200B4908550B4850F82420EB
:103F90000AA101A8FCF7CAF90D4850F824004142D3
:103FA00001A8FEF799FF0125641C032CE7DB2846D6
:103FB00009B030BD44030020A0760008626173653B
:103FC0002F636F6E742F6C6576656C25730000002F
:103FD00038030020014600200FE051F82020084B54
:103FE00053F820309A4207D051F82020044B43F870
:103FF00020200122034B1A54401C0328EDDB70479C
:10400000380300204403002070B59AB00026012533
:10401000002429E02648005D00281ED01B2C0BD16F
:104020002448C06E08B924A000E024A0014624A0C2
:10403000FEF72CFF01260DE0264850F8242026A18B
:1040400001A8FCF773F91B4850F8241001A8FEF7EB
:1040500043FF0126002016490855164850F8240051
:10406000401C00B90025641C1C2CD3DBEEB11E489B
:10407000007800F0010050B91B4801F09AF930B106
:1040800085F00100194908701748AFF30080174800
:104090000078A84209D00DB108A000E006A00146B2
:1040A00013A0FEF7F3FE1148057030461AB070BD3C
:1040B000800300204C6B0020300000003100000025
:1040C0002F626173652F73746174652F646331307F
:1040D00030760000AC760008626173652F636F6E06
:1040E000742F4B4D257300009C030020A00300207B
:1040F0002F626173652F73746174652F73746174BB
:10410000655F636F6E746163746F727300000000AB
:1041100070B504460D4801F099F808B9012070BD4A
:1041200004EBC40500210CE0032900D108E0481984
:10413000074A52F82000401C08B90020EFE700BFF2
:10414000491C0929F0DB0120E9E70000A203002057
:104150004C6B00200146054AD26E8A4204D00122EF
:10416000034BDA76014AD166704700004C6B0020A1
:1041700080030020054A52F820208A4205D00122FF
:10418000034B1A54014A42F8201070474C6B002030
:104190008003002030B585B01848007828B917484A
:1041A000407810B91548807808B1012000E000205F
:1041B000054605B3142212496846FCF7C9FB0024E2
:1041C00016E00E48005D90B1601CC0B240F03000B7
:1041D0008DF80E000B48005D08B10BA000E00BA0AD
:1041E00001466846FEF752FE002004490855641C4B
:1041F000032CE6DB00BF284605B030BD33030020AA
:104200008C760008300300203100000030000000F0
:1042100070B504460D46FEF721FE00B970BD601E64
:1042200003490D540121034A115400BFF6E7000071
:10423000300300203303002010B500F047F8FFF7EB
:10424000D5FD00200349087000210348FEF760FBFC
:1042500010BD0000540300205803002010B513487F
:10426000007800F0010058B9104801F0A2F838B108
:104270000F4C2046FEF754FB00BF0C48AFF3008004
:104280000B4801F005F878B14EF660210848FEF7BA
:104290003FFB084801680068401C064B186006A0F8
:1042A000FEF71AFE012010BD0020FCE724030020C9
:1042B0002803002020030020626173652F7374615E
:1042C00074652F636F756E7465720000002001497C
:1042D000086070472003002010B52DED028B384890
:1042E00004780078002867D03648007EE8B1354869
:1042F000D0ED000AB0EE600A33A0FEF7FFFD3148B2
:10430000D0ED010AB0EE600A35A0FEF7F7FD2D48AA
:1043100000F0CAFFDFED380A80EE201AB0EE418AC5
:10432000B0EE480A35A0FEF7E9FD2648407EF0B120
:104330002448D0ED020AB0EE600A33A0FEF7DEFD9D
:104340002048D0ED030AB0EE600A35A0FEF7D6FD96
:104350001C48083000F0A8FFDFED270A80EE201A85
:10436000B0EE418AB0EE480A33A0FEF7C7FD15480B
:10437000807EF0B11348D0ED040AB0EE600A31A09F
:10438000FEF7BCFD0F48D0ED050AB0EE600A33A081
:10439000FEF7B4FD0B48103000F086FFDFED160A83
:1043A00080EE201AB0EE418AB0EE480A31A0FEF746
:1043B000A5FD0020024908702046BDEC028B10BD0F
:1043C00048030020306B0020626173652F737461B5
:1043D00074652F766F6C746167655F610000000023
:1043E000626173652F73746174652F637572726592
:1043F0006E745F610000000000007A442F706F77D8
:1044000065725F6100000000626173652F73746103
:1044100074652F766F6C746167655F6200000000E1
:10442000626173652F73746174652F637572726551
:104430006E745F62000000002F706F7765725F62BC
:1044400000000000626173652F73746174652F76DC
:104450006F6C746167655F63000000006261736583
:104460002F73746174652F63757272656E745F6308
:10447000000000002F706F7765725F63000000001E
:1044800010B50446094800F003FF00B910BD4EF610
:1044900060210648FEF73CFA1B2221460448FCF73F
:1044A00057FA01200349087000BFEFE74C030020D2
:1044B000306B00204803002070B5054621A1284636
:1044C000FCF79AFA00282FD10024FFF795FC08B1D9
:1044D00001241CE0FFF73AFC08B1012417E0FFF7C4
:1044E000FBFE08B1012412E0FFF744FD08B10124EE
:1044F0000DE0FFF789FD08B1012408E0FFF74AFE4F
:1045000008B1012403E0FFF7A9FE00B101240CB1BA
:104510001A2100E01B210846FFF7ECFB14B10AA0AA
:10452000FFF7EEFB012070BD0A4800F0B1FE38B184
:1045300005A0FFF7E5FB4FF47A710648FEF7E8F9AE
:104540000020F0E73E00000041542B434950534502
:104550004E4400005803002010B54FF4806102481B
:10456000FCF728FA10BD00004C04002010B52DED1A
:10457000028B90B0044609A800F0D6FC09A800EB15
:10458000C40090ED010A10EE101A084602F036FC45
:1045900041EC180B53EC182B08A101A8FBF7C6FE41
:1045A00004EB440000EBC40000F1110101AA50200B
:1045B00000F008F810B0BDEC028B10BD25312E3391
:1045C0006600000070B505460E46144609480560B1
:1045D0000948066008E0207800F0DEF8217888427B
:1045E00001D0207870BD641C20780028F3D1207899
:1045F000F8E700008C0100209001002010B52DED9F
:10460000028B90B0044609A800F08EFC09A800EBCC
:10461000C40090ED000A10EE101A084602F0EEFBFE
:1046200041EC180B53EC182B08A101A8FBF77EFEF8
:1046300004EB440000EBC40000F1110101AA0A20C0
:10464000FFF7C0FF10B0BDEC028B10BD25342E313A
:104650006600000010B500F093FB10BD10B590B0DF
:1046600009A800F061FCFFF777FF002406E0204670
:10467000FFF7C4FF2046FFF779FF641C032CF6DB2D
:1046800001A8FEF759FB0446224633214620FFF7D6
:1046900099FF042216A101A8FBF748FE01AA3321C5
:1046A0000520FFF78FFFFEF769FD20B112A205215B
:1046B0000846FFF787FFFFF72FF820B10FA205216B
:1046C0002320FFF77FFFFEF7C9FB60B10CA2052195
:1046D0004120FFF777FFFFF71BF80446224605212C
:1046E0006420FFF76FFF084800F02BFB10B010BDEF
:1046F0007374203A20256400504F570052454700FC
:104700004D515454000000004C040020F0B5034605
:104710001446802B01DA402900DBF0BDE4B1CD174F
:1047200001EB5575ED1003EBC5151A4E755D0A4684
:10473000CE1701EB5676F610A1EBC6070126BE4058
:104740003543EEB20846CD1701EB5575ED1003EB7E
:10475000C515104F7E551AE0CD1701EB5575ED10BC
:1047600003EBC5150B4E755D0A46CE1701EB567669
:10477000F610A1EBC6070126BE40B5430846CE178A
:1047800001EB5676F61003EBC616024FBD5500BF7F
:10479000C3E700004C0400202DE9F04704464148DF
:1047A000007818B13F480078012827D1A046FEF7CD
:1047B00035FB81464046FEF72EFB0746002514E0F8
:1047C00000260FE0324629464046FEF721FB40B165
:1047D000354A12685119354A126890190122FFF7BB
:1047E00095FF761CBE42EDDB6D1C4D45E8DB2F4886
:1047F0000168781C08442D49086051E02948007878
:1048000002284DD1202C01DB7E2C02DD0020BDE8EA
:10481000F08727480078254909680844802806DC85
:1048200023484078204909680844402801DD0020D9
:10483000EDE7002529E0A4F120001D49497800FB9F
:1048400001501B49496831F81070002618E007FA3A
:1048500006F000F4004048B1134A12685119134A97
:10486000126890190122FFF751FF08E00E4A126802
:1048700051190E4A126890190022FFF747FF761C63
:104880000B480078B042E2DC6D1C09484078A84231
:10489000D1DC0748007805490968084403490860E5
:1048A0002046B4E79C010020900100208C010020EC
:1048B0009401002010B58EB0022001F00DFD002201
:1048C0001146122001F090FC8448FEF7E7FE844870
:1048D000FEF7E4FE8348FEF7E1FE8348FEF7DEFEC6
:1048E0008248FEF7DBFE8248FEF7D8FE00218148B1
:1048F00001F098F98048079000208DF834007F4837
:10490000099001208DF835000002089080000A907F
:1049100000208DF8360006200B904FF400500C90CC
:1049200007AA0021734801F0B5F90021714801F090
:1049300060F9022200216F4801F043FA00216D481E
:1049400001F03EF947F23050ADF800001020ADF80C
:104950000200ADF8040040F6FF7002904FF40070C2
:10496000ADF8060000208DF80C006946644801F09F
:10497000EBFF04A801F067FF0020ADF81400012050
:10498000ADF8100004AA00215D4801F0F9FD40F6E1
:10499000FE7200215A4801F016FF7022002158488B
:1049A00001F0E4FE00221146554801F01FFF0121ED
:1049B000534802F015F8524801F0DCFD504801F070
:1049C000BEFF002001F05CF8012202214A484C3869
:1049D00001F0C9F80122110247484C3801F0C3F830
:1049E000002145484C3800F0C6FF0622012142480C
:1049F0004C3800F09DFF394800F05DFC0446072369
:104A0000224600213C484C3801F048F8344800F078
:104A100052FC044607232246012137484C3801F056
:104A20003DF8304800F047FC0446072322460221A7
:104A300031484C3801F032F82B4800F03CFC044679
:104A40000723224603212C484C3801F027F8274839
:104A500000F031FC044607232246042126484C3846
:104A600001F01CF8224800F026FC044607232246E9
:104A7000052121484C3801F011F8012211461E4849
:104A80004C3800F096FF002201211B484C3800F002
:104A9000AFFF022118484C3800F0EEFF0421164801
:104AA0004C3800F0E9FF022113484C3800F0CEFFEB
:104AB00011484C3800F074FF0120FDF7F5F90E485D
:104AC0004C3800F020FF0C484C3800F064FF012106
:104AD00009484C3801F038F80EB010BDB003002082
:104AE000BC030020C8030020D4030020E003002002
:104AF000EC030020000002404C2401404004002050
:104B0000002C014010B50B4800F040FF022109487D
:104B100000F086FF084801F00DFF074801F09CFEF9
:104B20000021064801F07EF800221146122001F013
:104B30005BFB10BD00240140002C0140000002403E
:104B400010B5024800F004FA10BD00004004002037
:104B50001CB504466846FDF7EDFE06E06846FDF725
:104B6000CFFE642801D900201CBD214603480068FF
:104B700001F0F6FA0028F1D00120F5E7EC6E00080C
:104B80001CB504466846FDF7D5FE06E06846FDF70D
:104B9000B7FE642801D900201CBD214603480068E7
:104BA00001F0DEFA0028F1D10120F5E7EC6E0008F3
:104BB00010B50F48FEF77FFD0E48FEF77CFD002282
:104BC0000D490E48006801F00FFA782300221146C3
:104BD0000A48006801F0DDFA0848006801F0A7FA09
:104BE0004FF480610548006801F0F6F910BD00003F
:104BF0001000002018000020801A0600EC6E00084B
:104C00002DE9FC4105460C4616466846FDF792FE26
:104C100040F20160FFF7B4FF10B90020BDE8FC814D
:104C20002D48006801F0C3FA4FF4A060FFF790FF31
:104C300008B90020F2E76FF00102782126480068E9
:104C400001F09DFA40F20150FFF782FF0021224857
:104C5000006801F0C1F940F201511F48006801F0FD
:104C60006BFA29461C48006801F05EFA40F20750D2
:104C7000FFF76EFF01274FF000080EE014F8011B4C
:104C80001548006801F050FA40F20750FFF760FF46
:104C900008B9002703E008F10108B045EEDB0E4833
:104CA000006801F089FA06E06846FDF729FE6428ED
:104CB00001D9002706E008480068006800F4007089
:104CC0000028F1D100BF4FF480610348006801F073
:104CD00083F93846A2E70000EC6E000800B587B003
:104CE000282303221821114801F0C8F810230322B9
:104CF00004210E4801F0C2F8002001904FF48270A8
:104D000000900020029005904FF40070039038202E
:104D100006900020049069460548006801F011FCE7
:104D20000348006801F008FC07B000BD000C01401A
:104D3000F86E000801B5012269460020FFF760FF08
:104D400008BD70B50546002417E004F1B001C8B2F3
:104D5000FFF7F0FF00B912E00020FFF7EBFF102093
:104D6000FFF7E8FF802000FB045102464020FFF7D8
:104D700047FF00B903E0601CC4B2082CE5DB70BD3E
:104D800010B5AE20FFF7D6FF00B910BDD420FFF755
:104D9000D1FF8020FFF7CEFFA820FFF7CBFF3F20F9
:104DA000FFF7C8FFD320FFF7C5FF0020FFF7C2FFC2
:104DB0004020FFF7BFFF8D20FFF7BCFF1420FFF757
:104DC000B9FFA120FFF7B6FFC820FFF7B3FFDA2035
:104DD000FFF7B0FF1220FFF7ADFF8120FFF7AAFF1A
:104DE000CF20FFF7A7FFD920FFF7A4FFF120FFF79F
:104DF000A1FFDB20FFF79EFF4020FFF79BFFA420D1
:104E0000FFF798FFA620FFF795FFAF20FFF792FF6F
:104E100000BFBAE710B5002408E004EB44010D4AD6
:104E200002EB81004821FEF73CFB641C032CF4DB01
:104E300048210948FEF735FB48210848FEF731FBB9
:104E400048210748FEF72DFB48210648FEF729FBBD
:104E500010BD00001C04002068010020700100202B
:104E6000780100208001002070B5002427E004EBC9
:104E70004401144A02EB8100FDF711FD04EB4401EB
:104E8000104A02EB8100017A427A914201D001215D
:104E900000E0002191B104EB44010A4A02EB8100D9
:104EA000017A81F001052946601CFFF7B1F904EB96
:104EB0004401044A02EB8100FDF7EEFC641C032C64
:104EC000D5DB70BD1C04002070B500241AE004EB93
:104ED00044010E4A02EB8100FDF7E1FC04EB4401C2
:104EE0000A4A02EB8100017A81F001052946601C23
:104EF000FFF78EF904EB4401044A02EB8100FDF751
:104F0000CBFC641C032CE2DB70BD00001C04002001
:104F10000448B0F90000B0F5FA6F01DB01207047DA
:104F20000020FCE7BC02002010B504461C22024908
:104F30002046FBF70DFD10BD0809002010B5044602
:104F40001C2202492046FBF703FD10BD2409002066
:104F500038B504464748007800F0010058B9454884
:104F600000F027FA38B1444D2846FDF7D9FC00BFC0
:104F70004048AFF300804148008810B93E48FDF733
:104F8000CFFC3E48B0F90000B0F5FA6F71DA218825
:104F90003B4801F001FF054629466846FEF7CCFE76
:104FA0003849364AB2F9002001EB420100880880F6
:104FB00061883348183001F0EFFE054629466846FF
:104FC000FEF7BAFE30492D4AB2F9002001EB42014A
:104FD00000880880A1882A48303001F0DDFE0546AF
:104FE00029466846FEF7A8FE2849244AB2F900205F
:104FF00001EB420100880880E1882148483001F037
:10500000CBFE054629466846FEF796FE20491B4A18
:10501000B2F9002001EB420100880880218918487C
:10502000603001F0B9FE054629466846FEF784FE69
:105030001849124AB2F9002001EB420100880880A9
:1050400061890F48783001F0A7FE05462946684679
:10505000FEF772FE1049094AB2F9002001EB420145
:105060000088088005480088401C00B20349088079
:1050700000BF38BDC0020020C4020020BC020020D6
:105080001C6700205C090020FC1800209C280020E0
:105090003C380020DC4700207C57002010B59CB035
:1050A000FFF736FF002839D0684600F043F81C228D
:1050B000694615A8FBF74CFC1B2215A91848FBF7FD
:1050C00047FC1748FFF7DCF915496846FCF714FF61
:1050D0001C2269460EA8FBF73BFC1B220EA91148B7
:1050E000FBF736FC0E496846FCF7FAFE1C226946BF
:1050F00007A8FBF72DFC1B2207A90B48FBF728FC90
:10510000002405E0E0B2FDF74BFB08490855641C9C
:10511000032CF7DB00200649088000BF1CB010BD3F
:10512000080900202409002040090020B8020020BE
:10513000BC02002010B588B004460020FDF730FB0B
:105140008DF81C000120FDF72BFB8DF81D000220BF
:10515000FDF726FB8DF81E006846FDF791FB184A07
:1051600018496846FDF7EEFB174A184902A8FDF7F3
:10517000E9FB174A174904A8FDF7E4FB002015E0F6
:1051800007A9095C21B91449095C09B9012200E0A9
:10519000002206A90A54095C39B9694601EBC0012D
:1051A0000E4A02EBC0030CCB0CC1401C0328E7DB0A
:1051B0001C2269462046FBF7CBFB08B010BD00005F
:1051C0003C3800205C090020DC470020FC1800204F
:1051D0007C5700209C280020B802002008090020ED
:1051E0002DE9F04107461448FEF765F904461348D7
:1051F000FEF761F905461248FEF75DF906462CB147
:1052000025B11EB1B3EE0E0ABDE8F08124B91DB17F
:1052100016B1B3EE040AF7E724B91DB916B1B3EE1F
:10522000000AF1E724B11DB916B99FED060AEBE7B4
:105230009FED050AE8E700006801002070010020EA
:1052400078010020000020420000484210B50446CA
:105250000148FEF730F910BD80010020704710B5FD
:10526000002140F6FF7000F0C5FD10BD10B506210D
:1052700040F6FF7000F0BEFD10BD10B5FFF7EFFF68
:1052800000F0F4FD10BD10B500F0E8FD10BD000009
:105290000146044A48681268904201D801207047CC
:1052A0000020FCE70800002090ED000AD0ED010A84
:1052B00020EE200A70470146087A704700B5014683
:1052C000084600F01BF89FED031AC0EE010AB0EE8D
:1052D000600A00BD00E07F4500B50146084600F0C9
:1052E00009F89FED031AC0EE010AB0EE600A00BD96
:1052F00000E07F45B2EE040A704700009FED010A0E
:105300007047000000E8804410B504462046FFF7CF
:10531000E3FF208800EE900AF8EE600A9FED031A82
:1053200070EEC10A20EE200A10BD000000E0FF442C
:1053300010B504462046FFF7C1FF208800EE900A12
:10534000F8EE600A9FED031A70EEC10A20EE200A03
:1053500010BD000000E0FF4401460888704703B418
:1053600001984100009850EAC12018BF04204A0D5E
:1053700018BF40F0010040F2FF72B2EB515F08BF6E
:1053800040F00200012808BF052002B070472DE957
:10539000F0411C4617460E00804607D0054602E045
:1053A0002846B0473D442046641EF9D24046BDE839
:1053B000F081016809B100207047012101600846B1
:1053C000704710B52DED028BB1EEC08A18EE100AB1
:1053D00020F00040C0F1FF40C00F0AD010EE100ACC
:1053E00020F00040C0F1FF40C00F04BF0120FBF7D8
:1053F0005EFBB0EE480ABDEC028B10BD10B5034851
:10540000FDF798FA0248FDF795FA10BDD00200208A
:10541000D802002010B50248FDF78CFA10BD00003C
:105420005803002010B5074C0323082206492046E4
:10543000FFF7ADFF0446054C2046FDF771FA00BFAB
:1054400010BD0000306B00202D2A00084C03002006
:1054500010B500230122A849A848FEF728F9012326
:105460000222A549A648FEF722F902230422A249F6
:10547000A448FEF71CF9032308229F49A248FEF71F
:1054800016F9052320229C49A048FEF710F90723AE
:10549000802299499E48FEF70AF904231022964972
:1054A0009C48FEF704F90623402293499A48FEF7E8
:1054B000FEF80E23102299499948FEF7F8F8402289
:1054C00098499948FEF700F9802296499748FEF7D7
:1054D000FBF84FF4806291499548FDF70DFA4FF4BF
:1054E00000628E499348FDF7FBF9202292499348C8
:1054F000FDF702FA402290499148FDF7F1F90422A4
:105500008D499048FEF700F901228B498E48FEF73D
:10551000FBF8022288498D48FDF7ECFF4FF48072BA
:1055200075498B48FEF7F0F84FF4007272498948CC
:10553000FEF7EAF84FF480626F498748FEF7E4F817
:105540004FF400626C498548FEF7DEF84FF4805254
:1055500069498348FEF7D8F8102282498248FDF74E
:10556000C9FF08227F498148FDF7C4FF4FF400724C
:105570007C497F48FEF7C8F84FF4807279497D482E
:10558000FEF7C2F8802277497B48FEF7BDF8042277
:1055900064497A48FEF7B8F8022262497848FEF773
:1055A000B3F801225F497748FEF7AEF820225B4945
:1055B0007548FEF7A9F84FF480626A497348FEF710
:1055C000A3F84FF4006267497148FEF79DF84FF465
:1055D000805264496F48FEF797F84FF400526149D2
:1055E0006D48FEF791F84FF480425E496B48FEF734
:1055F0008BF84FF400425B496948FEF785F84FF499
:10560000806248496748FEF77FF84FF400624549D9
:105610006548FEF779F84FF4805242496348FEF737
:1056200073F84FF400523F496148FEF76DF84FF4AC
:1056300080423C495F48FEF767F84FF40042394921
:105640005D48FEF761F84FF480723B495B48FEF716
:105650005BF84FF4007238495948FEF755F84FF49B
:10566000806235495748FEF74FF84FF400623249DF
:105670005548FEF749F84FF480522F495348FEF73A
:1056800043F84FF400522C495148FEF73DF84FF4CF
:10569000804229494F48FEF737F84FF40042264927
:1056A0004D48FEF731F840221C494C48FDF722FFD7
:1056B00080221A494A48FDF71DFF4FF480721749AE
:1056C0004848FDF717FF4FF4007214494648FDF7AC
:1056D00011FF042211494548FDF7EBF802220F495A
:1056E00042480C30FDF7E5F801220C493F481830DC
:1056F000FDF7DFF810BD000000080140B0030020F6
:10570000BC030020C8030020D4030020E0030020D5
:10571000EC030020F80300200404002000100140E6
:1057200010040020000C0140100000201800002090
:10573000200000202800002000140140300000203C
:1057400038000020400000204800002050000020C9
:105750005800002060000020680000207000002039
:105760007800002000180140800000208800002000
:105770009000002098000020A0000020A800002039
:10578000B0000020B8000020C0000020C8000020A9
:10579000D0000020D8000020E0000020E800002019
:1057A000F0000020F8000020000100200801002087
:1057B00010010020180100202001002028010020F5
:1057C0003001002038010020400100204801002065
:1057D00050010020580100206001002068010020D5
:1057E0007001002078010020800100201C040020AE
:1057F00010B51D48FDF744F81C48FDF741F81C485A
:10580000FDF73EF84FF4FA6302221A491A48FFF7EF
:10581000BEFD4FF4FA63022216491848FFF7B7FDA0
:105820004FF4FA63022213491548FFF7B0FD4FF415
:10583000FA6302220F491348FFF7A9FD4FF4FA63F8
:1058400002220C491048FFF7A2FD4FF4FA6302222E
:1058500008490E48FFF79BFD062318220C490D4806
:10586000FFF795FD10BD0000080900202409002065
:1058700040090020B71B00085C090020FC1800202C
:105880009C2800203C380020DC4700207C5700206A
:10589000E36D00081C6700207047000010B541F25E
:1058A00088310448FCF743FC4EF660210248FCF7BF
:1058B0003EFC10BD4C0800209808002010B503489D
:1058C000FDF738F80248FDF735F810BD0403002055
:1058D0000C03002010B5054801F02CFA044801F033
:1058E00029FA044801F026FA10BD000018680020CB
:1058F00020690020286A002030380A2801D20120BF
:10590000704700207047816841F00801816000BF46
:10591000816801F008010029FAD1816841F0040191
:10592000816000BF816801F004010029FAD170474D
:1059300030B5012902D002291AD10CE0C36A23F440
:105940007003C362C36A541E4FF4700505EA045421
:105950002343C3620DE0836B23F440138363836BA3
:10596000541E4FF4401505EA04542343836300E0BA
:1059700000BF00BF30BD21B1826842F40062826086
:1059800003E0826822F4006282607047816821F03F
:10599000010181607047816841F4807181607047C6
:1059A000816801F0010119B9816841F0010181604C
:1059B000704772B101F001031BB1836843F4801397
:1059C000836001F0020393B1836843F40043836072
:1059D0000DE001F001031BB1836823F480138360A1
:1059E00001F002031BB1836823F400438360704716
:1059F000012902D0022910D107E0836823F4602333
:105A0000836083681343836008E0836823F4E04382
:105A1000836083681343836000E000BF00BF70476A
:105A200001F001021AB1426822F04002426001F026
:105A300002021AB1426822F02002426001F0040220
:105A40001AB1426822F080024260704701F0010200
:105A50001AB1426842F04002426001F002021AB1FB
:105A6000426842F02002426001F004021AB142682A
:105A700042F0800242607047CA43026070470000F3
:105A80000549096821F47021034A1160114609682B
:105A9000014311607047000004240140F0B51D4629
:105AA00006290CD2436B01EB81071F26BE40B3438E
:105AB00001EB810602FA06F63343436322E00C2928
:105AC0000ED2036B8E1F06EB86071F26BE40B34324
:105AD0008E1F06EB860602FA06F63343036311E0D7
