:020000040800F2
:10400000C02900207942000825D9000865B90008B8
:104010009DD60008B17900083904010800000000AD
:1040200000000000000000000000000061EE000839
:1040300061850008000000007DDC000865EE0008D6
:1040400093420008934200089342000893420008FC
:1040500093420008934200089342000893420008EC
:1040600093420008934200089342000855850008D7
:1040700093420008934200089342000893420008CC
:1040800093420008934200089342000893420008BC
:1040900093420008934200089342000893420008AC
:1040A000934200086DEE0008934200089342000816
:1040B0009342000879EE00089342000893420008FA
:1040C000934200089342000893420008934200087C
:1040D00093420008210401082D04010893420008BE
:1040E000934200089342000893420008934200085C
:1040F000934200089342000893420008934200084C
:10410000934200089342000893420008934200083B
:10411000934200089342000893420008934200082B
:10412000934200089342000893420008934200081B
:1041300000F002F800F090F80AA090E8000C824429
:104140008344AAF10107DA4501D100F085F8AFF206
:10415000090EBAE80F0013F0010F18BFFB1A43F065
:1041600001031847E4F5010004F601000A444FF08A
:10417000000C10F8013B13F0070408BF10F8014BC6
:104180001D1108BF10F8015B641E05D010F8016B0B
:10419000641E01F8016BF9D113F0080F1EBF10F86F
:1041A000014BAD1C0C1B09D16D1E58BF01F801CB92
:1041B000FAD505E014F8016B01F8016B6D1EF9D515
:1041C0009142D6D37047000000230024002500262A
:1041D000103A28BF78C1FBD8520728BF30C148BF6A
:1041E0000B6070476E2900F02381702900F0F08188
:1041F00066291EF06986692900F0DE80642900F0D6
:10420000DB80752900F0D8806F2900F08381782940
:1042100000F0D1810368DB0928BF41F080016329E8
:1042200000F0D987732900F0DE87E32900F0E987E1
:10423000002070471FB500F031FD04000020002170
:104240001DF0C2FE401C6060002000211DF0D2FE67
:10425000E0601FBD10B510BD01F062FB1146FFF715
:10426000E9FF19F019F901F0FDFD03B4FFF7F2FFC2
:1042700003BC02F03DF800000948804709480047A8
:10428000FEE7FEE7FEE7FEE7FEE7FEE7FEE7FEE706
:10429000FEE7FEE704480549054A064B7047000063
:1042A00069EE000831410008C0230020C029002029
:1042B000C0250020C025002010B500F0EFFC001D37
:1042C00010BD00BF05DD01000FB41CB5084B06AAE8
:1042D0007B4469460090059800F05BFF044600208F
:1042E000694600F069FF20461CBC5DF814FB000025
:1042F000E50E000070B5044685690068C10601D569
:10430000302600E02026C00707D070BDD4E9012187
:1043100030469047206A401C20626D1EF6D570BD65
:1043200070B5044685690078C00707D170BDD4E92F
:10433000012120209047206A401C20626D1EF6D586
:1043400070BD09684A0501D540B27047C905FCD562
:1043500000B2704709684A0501D5C0B27047C90567
:10436000FCD580B2704770B50C460546012A05D0D1
:104370002878800600D5EA69002302E0012305E0E1
:104380005B1C934202D2E05C0028F9D1A869E618D0
:10439000C01AA861286A184428622846FFF7AAFFB5
:1043A00004E0D5E9012114F8010B9047B442F8D399
:1043B0002846FFF7B5FF70BD2DE9F0410646002401
:1043C00010687529314616A510D0FFF7BAFF0028EE
:1043D00002DA404213A507E031688A0701D512A529
:1043E00002E0490704D511A5012401E0FFF7B2FF5F
:1043F00000210A2206F1240709E0B0FBF2FCB0FB21
:10440000F2F302FB1C00303078541846491C002897
:10441000F3D123462A463046BDE8F04100F04DBCBA
:10442000000000002D0000002B0000002000000014
:1044300011680268006A530501D508700AE0D305C7
:1044400001D5088006E0130603D5C217C1E90002B2
:1044500000E00860012070472DE9FF5F15468A469D
:104460000446DFF8AC80F8440027D8E900103E4647
:10447000CDE9001010E03AF816106A4602A800F0E4
:1044800069FF411C07D02178890603D5E2693918F4
:1044900091420DD80744761C2078800602D5E06949
:1044A000B84205DDAE42E6DB3AF816000028E2D15C
:1044B000A069C01BA0612046FFF71CFFD8E90010CF
:1044C000CDE90010002017E03AF818106A4602A85B
:1044D00000F040FFB0F1FF3F81460BD000250DF109
:1044E000080B05E0D4E901211BF8050090476D1C7D
:1044F0004D45F7D308F10100B0428046E4DB206A65
:10450000384420622046FFF70BFFBDE8FF9F000004
:104510005EEB010070B5044621461068FFF71AFFF4
:10452000002104F1240505E000F007023032C00844
:104530006A54491C0028F7D12068002308A2050707
:1045400008D500F02000084304D0E069012305A24B
:10455000401EE0612046BDE8704000F0AEBB0000A8
:104560000000000030000000F0B40D46018809058D
:1045700002D51B4C7C4402E0194C7C440E340021D3
:1045800000F1240305E002F00F061209A65D5E5457
:10459000491C002AF7D102780023120704D5702D98
:1045A00006D009B1022311342246F0BC00F085BBCD
:1045B00001231034F8E770B504460D462146106813
:1045C000FFF7C8FE024629462046BDE87040CBE70B
:1045D0000368126843F0200303600823C361C3E744
:1045E00058EA01002DE9F05F894604464FF0000AC1
:1045F000DFF874B1FB44C0F820A02046E16888478A
:10460000002874D0252806D0D4E901219047206ADB
:10461000401C2062F1E700265F462046E16888479B
:104620002028054607DB312D05D2781910F8200C1B
:1046300008B10643F1E7B00701D526F00406C4F837
:104640001CA00027C4F818A02A2D09D028461DF068
:10465000FEFB38B304EB8708303DC8F8185019E06A
:1046600059F8041B204604EB87029161E1688847F2
:10467000012F054618D1E069002820DA26F020062F
:104680001DE0D8F8180000EB800005EB4000303842
:10469000C8F818002046E168884705461DF0D7FB9A
:1046A0000028EED1012F0AD02E2D08D12046E16836
:1046B00088477F1C0546022F46F02006C4DBA06910
:1046C000002803DA404246F00106A061F00701D05D
:1046D00026F010066C2D0BD0682D09D04C2D39D04A
:1046E0006A2D35D0742D35D07A2D33D016E038E0D0
:1046F000E1682F4620468847B842054609D16C2F0D
:1047000026D04FF48060E16806432046884705467E
:1047100004E06C2F1AD04FF4807006430DB3A5F15E
:104720004100192802D8203546F400664A46294639
:10473000204626604E46FFF755FD80B101280BD07C
:10474000F61D26F0070000F1080956E74020E4E7CF
:104750008020D8E70020D6E706F104094DE7284677
:1047600052E7206ABDE8F09F00EA01000FB400B5EF
:104770008DB010A9099000910B904FF0FF300A9076
:1047800000200C90064878440690064878446A4613
:1047900007900F9909A800F055FD0DB05DF814FBC6
:1047A000DB0A0000F30A00002DE9FF5F1D464FF011
:1047B000FF3B91464FF000085F46D5E90146A969E5
:1047C00001987F1C8847296A824688470028F6D1CD
:1047D000BAF1FF3F0CD0002E24F4C06419DD60064E
:1047E00014D5BAF12B0F09D0BAF12D0F0ED103E079
:1047F000584604B0BDE8F09F44F48064A96901986C
:104800007F1C8847761E8246002E02DDBAF1300FEB
:1048100003D0B9F1000F26D032E0A969761E0198C5
:104820007F1C44F400748847002E824605DDBAF1EF
:10483000780F06D0BAF1580F03D0B9F1000F10D09D
:104840001EE0B9F1000F02D0B9F1100F18D1A9691B
:10485000761E01987F1C24F400748847824610203D
:1048600002E0082000E00A20814609E0A96908FB6F
:104870000908761E01987F1C44F40074884782461C
:10488000002E05DD4946504600F0C7FC0028EDDA51
:10489000E96901988847A00502D46FF00100A8E7F4
:1048A000E00725D1600613D5600502D5C8F10000E8
:1048B00000E0404629680A1D2A600968220501D5E2
:1048C000087015E0220701D5088011E008600FE0AC
:1048D0002868011D29600068210502D580F8008044
:1048E00006E0210702D5A0F8008001E0C0F80080B2
:1048F00038467EE7401ECAB210F8011F8A4202D035
:104900000029F9D10020704730B505460B462A46EC
:1049100013F8014B12F8010B08B1A042F8D01CB1FA
:10492000002802D06D1CF1E7284630BD40EA0103A3
:1049300010B59B070FD1042A0DD310C808C9121F48
:104940009C42F8D020BA19BA884201D9012010BD82
:104950004FF0FF3010BD1AB1D30703D0521C07E04F
:10496000002010BD10F8013B11F8014B1B1B07D1B3
:1049700010F8013B11F8014B1B1B01D1921EF1D124
:10498000184610BD40EA0103024630B59B0710D11E
:104990004FF0013400E008C208C91D1B9D4315EA11
:1049A000C41FF8D013F0FF0102F8011B0DD01B0A41
:1049B000F8E711F8013B002B02F8013B05D011F894
:1049C000013B002B02F8013BF3D130BD10B5431C75
:1049D00002E010F8011B71B18107FAD14FF00132EA
:1049E00002C88C1A8C4314EAC211F9D0C01A0A0604
:1049F00003D0C01E10BDC01A10BD0A0401D0801E15
:104A000010BD0902FCD0401E10BD40EA010370B584
:104A10009B072ED14FF00136042A2AD308C810C9AB
:104A20009D1B9D43121F15EAC61517D0D8B2E1B2DF
:104A3000401A50EA056110D198B2A1B2401A50EA6A
:104A400005410AD123F07F4024F07F41401A50EA0B
:104A5000052102D1180EA0EB146070BDA342DBD07B
:104A600018BA21BA884201D9012070BD4FF0FF3039
:104A700070BD0AB9002070BD10F8013B11F8014B60
:104A800063B1A3420AD1521E08D010F8013B11F8BD
:104A9000014B1BB1A34201D1521EEDD1181B70BDB9
:104AA000421E12F8013F002BFBD111F8013B002BF5
:104AB00002F8013BF9D1704710B5203AC0F00B80E5
:104AC000B1E81850A0E81850B1E81850A0E8185004
:104AD000203ABFF4F5AF5FEA027C24BFB1E818507A
:104AE000A0E8185044BF18C918C0BDE810405FEADC
:104AF000827C24BF51F8043B40F8043B08BF704758
:104B0000D20728BF31F8023B48BF11F8012B28BF5C
:104B100020F8023B48BF00F8012B704702F0FF036A
:104B200043EA032242EA024200F024B84FF00002B6
:104B30000429C0F0128010F0030C00F01B80CCF1AF
:104B4000040CBCF1020F18BF00F8012BA8BF20F81D
:104B5000022BA1EB0C0100F00DB85FEAC17C24BF71
:104B600000F8012B00F8012B48BF00F8012B70471B
:104B70004FF0000200B5134694469646203922BFF6
:104B8000A0E80C50A0E80C50B1F12001BFF4F7AF41
:104B9000090728BFA0E80C5048BF0CC05DF804EB23
:104BA000890028BF40F8042B08BF704748BF20F891
:104BB000022B11F0804F18BF00F8012B704710B581
:104BC000044610F0030F08BF11F0030F40F01580EA
:104BD0004FF0013E121FC0F20E8051F8043BA3EBD0
:104BE0000E0C2CEA030C1CEACE1C08BF40F8043B58
:104BF000F0D0A1F1040102F10402521E08DB11F809
:104C0000013B00F8013B002BF7D11146FFF78EFF67
:104C1000204610BD4FF0013C50F8042B51F8043BE6
:104C20009A4221D1A2EB0C03934313EACC1317D180
:104C300050F8042B51F8043B9A4215D1A2EB0C0317
:104C4000934313EACC130BD150F8042B51F8043BD7
:104C50009A4209D1A2EB0C03934313EACC13DBD0A5
:104C60004FF00000704700BFD01A01BAB1FA81F1CD
:104C700001F0180122FA01F0CB40DBB2C0B2C01A39
:104C8000C1F120012CFA01F3D11A914311EAC311A9
:104C9000E6D1704770477047704700000048704782
:104CA000F80F002010B500F07DFB006810BD10B5B6
:104CB000044600F077FB046010BD2DE9F0470D4677
:104CC00099469246044600F124080168880604D5F6
:104CD000E06921F01001216000E00120A84201DD1F
:104CE000471B00E00027A1697A1902EB0900081AA6
:104CF000A0612078C00602D42046FFF7FBFA002608
:104D000008E0D4E901211AF806009047206A401C07
:104D1000761C20624E45F4DB2078C0060AD520467A
:104D2000FFF7E8FA06E0D4E9012130209047206A35
:104D3000401C2062381EA7F10107F4DC07E0D4E92B
:104D4000012118F805009047206A401C2062281EA7
:104D5000A5F10105F3DC2046FFF7E2FA2078000612
:104D600002D50220BDE8F0870120FBE72DE9FF4FC7
:104D70000C461E464FF0FF378BB0D2E90001DDF83C
:104D800060800A908A46C1F30A5505B93D46002164
:104D900008464FF00000BAF1000F00F4400005DAB9
:104DA00000EB80004FF4400101EA50004FEA9059B7
:104DB000B9F1010F00DDB9460A9850EA4A000ED059
:104DC00044F61050A5F2FF3545432F14B8F1000FFB
:104DD0001ED07542291E1EDDC9F100021CE0B8F18B
:104DE000010F4FF0000001D0302103E0F24305E055
:104DF0002154401CB042FBDB3046002200212154EC
:104E00000B99C1F80880C1E900200FB0BDE8F08F10
:104E1000BD1B6D1CDEE74A4600DA694206A800F0B9
:104E20000DFD06AB93E8070003AB83E8070050468F
:104E30000A991CF043FB8DE80700A0F500501F38CD
:104E400000900398002D0ADD42F21F014A460844F3
:104E5000002303A9039068461CF0EEFD09E0A0F5CD
:104E600000504A461F38002303A9039068461CF0EF
:104E70000DFE8DE807000004000C03D04FF0FF305A
:104E8000410800E01046B8F1000F03D00022009264
:104E900015461EE0751E05D400F088FA30326255C2
:104EA0006D1EF9D5B3460122084302D000227F1CB3
:104EB00004E02078302801D100227F1E002A0997C3
:104EC00084D01DE0112D07DA00F070FA30326255FF
:104ED0006D1C50EA0102F5D1084302D00098C8B118
:104EE0000EE00021681E05E0235C625C63542254DE
:104EF000401E491C8142F7DBAB46A81B401E0990AF
:104F0000002004F80B000B98099AC0F80880C0E94B
:104F1000002B7AE711264FF0000857E72DE9F04FF4
:104F200088460446D21D22F0070191B0D1E9000164
:104F3000CDE90A011CF0F6FE02460B98C00F01D025
:104F40002D2007E02068810701D52B2002E02021D9
:104F500001EAC000032A099001D0072A05DB0346B5
:104F60004146204600F070FA0BE12078800601D51A
:104F7000E06900E00620B8F1650F814606D0B8F17F
:104F8000660F18D0B8F1670F70D131E00020B9F189
:104F9000110F009001DB112301E009F101030AAABE
:104FA00001A90CA8FFF7E2FEDDE90C70002609F16B
:104FB0000105834647E001204B4600904FF0004733
:104FC0000AAA01A90CA8FFF7D1FEDDE90DB00C99E2
:104FD0005D46002610B909F101000D18B9EB050076
:104FE00003D4C0F1FF3609F10105A5EB09002BE060
:104FF000B9F1010F01DA4FF001090020B9F1110FE9
:105000000090484601DD112300E003460AAA01A9E9
:105010000CA8FFF7ABFEDDE90C704D460026834679
:10502000207800070AD4AB4500DA5D4601A8012DBF
:1050300004DD411911F8011C302907D04F4502DA6F
:1050400017F1040F04DA012082460FE06D1EEEE72F
:10505000002F02DCED1B3E4403E0781CA84200DD7B
:105060007D1CB81B00F1010A4FF0004720780007B3
:1050700003D4AA4501DB4FF0FF3A0021B7F1004FFE
:105080000DF143088DF8431024D002202B23002F6C
:1050900001DA7F422D230A21021EA0F1010000DC6B
:1050A0005FB197FBF1FC97FBF1F201FB1C7C17460B
:1050B0000CF1300C08F801CDEEE7A8F10100037007
:1050C0002188090501D5452100E06521A0F10108ED
:1050D00000F8011C09980FA9A1EB0807FF1D00B1FA
:1050E0000120411901EBEA70A1693844081A401EF9
:1050F000A0612078C00602D42046FFF7FBF809988B
:1051000028B1D4E901219047206A401C2062207810
:10511000C00622D52046FFF7EDF81EE0002E04DB86
:10512000B34502DD01A8805D00E03020D4E9012113
:105130009047206A401C2062761CAAF101005FEAB9
:10514000000A0AD1FFF7AAFDC0680168405CD4E9F3
:1051500001219047206A401C2062281EA5F101050C
:10516000DCDC07E0D4E9012118F8010B9047206A44
:10517000401C2062381EA7F10107F3DC2046FFF730
:10518000CFF8032011B041E601694A1C026108789A
:10519000704700B58FB0CDE9013100210591054977
:1051A0007944CDE9031011466846FFF71BFA0FB0AA
:1051B00000BD0000E5FFFFFF0A6802F8010B0A606E
:1051C000704710B5436913B1AFF3008001E0FFF7FA
:1051D000CAF8012010BD127800F124010A700022E3
:1051E0004A700122EDE711684FF0FF32E9E710B590
:1051F000436913B1AFF3008001E0FFF72DF90120FF
:1052000010BD128800F1240182840022C284012290
:10521000EDE711684FF0FF32E9E73A2800D2303865
:1052200020F02002412A01D3A2F13700884201D3A5
:105230004FF0FF307047000002681144137801609E
:1052400018467047D1600549794451610449794451
:10525000116200211161114600F036B9EDFFFFFF28
:10526000E5010000426842B1016811F8013B23B139
:10527000521EC0E90012184670470121C160881E05
:10528000704742685AB1C368016843B983688B426A
:1052900005D0491E521CC0E90012002070474FF093
:1052A000FF3070470FB40B0010B54FF000048AB008
:1052B0000FA900910E99CC60234C7C44234A7A4478
:1052C000CDE9064200D004236FF00042CDE901325F
:1052D0001F4A7A446B460892024600201DF056FE93
:1052E0000AB010BC5DF814FBF0B507464FF0FF3074
:1052F0001E4615460C463B4685B06A460091CDE9F0
:10530000010131460020049004A8FFF7CBFF049967
:105310000346601825B109B1024600E022462A6022
:1053200000290ED0002B02DD0099814209D03B46B6
:105330006A463146001B0094CDE9010404A8FFF73A
:10534000B1FF05B0F0BD0000A7FFFFFFC1FFFFFFE9
:10535000610100002DE9F04116460C460546FEF7B6
:10536000ABFF036893F80101012807D0FF2C12D886
:10537000185D80B101202C70BDE8F081D3F80701E1
:105380003246214603F20713C7182846BC46BDE83B
:10539000F041002360474FF0FF30EDE700487047D1
:1053A000D80F002000487047D80F002030B5B0F16A
:1053B0000A0271F100034FEA900E4EEA817EB0EBD3
:1053C0000E0061EB91014FEA101E4EEA017E10EBD8
:1053D0000E0041EB11114FEA102E4EEA016E10EB58
:1053E0000E0041EB11214FEA104E4EEA014E10EB38
:1053F0000E0041EB1141401841F100014FEAD0008D
:1054000040EA41704FEAD1014FEA810444EA9074C6
:1054100010EB800544EB01046D1944EB0404521BAE
:10542000A3414FF0000348BF0A3200D530BD401CF5
:1054300041F1000130BD10B50446FEF73DFF0068A4
:10544000005D00F0010010BD2DE9F0411F4604464B
:1054500003260168072A01F4006004DB08B116A5E1
:1054600005E016A503E008B115A500E015A521F09B
:1054700010002060A069C01EA0610FB1401EA06195
:105480002046FEF737FF4FB1D4E901213846904757
:10549000206A401C2062C01C206206E0206AFAE7F5
:1054A000D4E9012115F8010B9047761EF8D2204669
:1054B000FEF736FFBDE8F0814E414E006E616E0092
:1054C000494E4600696E66002DE9F34F4FF0000A21
:1054D0000C4656468DB001200C9001F10C000B904B
:1054E00062690B9801219047051E2DD0252D2CD0E7
:1054F000216A8847C0B162690B9801219047216AEF
:1055000088470028F7D16269411E0B98904700E058
:10551000761CA1690D988847216A88470028F7D131
:10552000E1690D988847DBE7A1690D988847A84293
:10553000074601D1761CD3E7E1690D9888477F1CA7
:1055400002D1BAF1000F6FD06BE162690B980027AE
:105550003D46394690472A2804D162690B980121BB
:1055600090470125DFF8D08262690B9801219047AE
:10557000A0F130010A290AD24745E5DC07EB870193
:1055800000EB4107303FDFD445F01005ECE7E906BA
:1055900001D46FF000476C280AD04C2814D068283A
:1055A00015D06A280DD074281CD07A281AD01DE096
:1055B00062690B98012190476C2802D045F00405E0
:1055C00014E045F002050DE045F020050AE06269AF
:1055D0000B9801219047682802D045F0080505E0A6
:1055E00045F4006562690B9801219047C4E90157B1
:1055F00065283DD019DC58287AD00CDC452837D0F6
:1056000004DC252826D041289ED131E046282FD021
:10561000472899D12CE05B2877D0612828D06328CF
:105620007CD0642823D15AE0F6E06F2848D008DC0B
:1056300066281DD067281BD0692821D06E2816D176
:1056400027E0702845D0732868D0752847D078287F
:105650000DD14DE0A1690D988847252805463FF4F6
:1056600069AFE1690D9888476D1C3FF46AAFD8E0D7
:105670000D9923466A466FF001001DF087FCC5E0D6
:1056800045F0400023464FF000026060A80736D482
:105690003EE0E8077FF447AF2068011D2160006805
:1056A000290501D506701BE7290701D5068017E7F4
:1056B000A90703D5F117C0E9006111E706600FE7FC
:1056C00045F0400023464FF008026060A80716D45A
:1056D0001EE040F60E0125EA0100606016E045F08C
:1056E000400023464FF00A026060A80707D40FE08D
:1056F00045F040006060A80708D5234610220D99A8
:105700006FF00100AFF3008080E007E01022234635
:105710000D996FF00100FFF747F877E04FF00009AF
:1057200063284F46C8464B46CB4602D05B2806D07E
:1057300038E0E80601D40120A060012732E0626968
:10574000D4F80CB00B98012190475E2807D14FF098
:10575000010949466269D4F80CB00B989047216959
:1057600039B900210A4603AB43F82120491C082916
:10577000FADBD8B3216949B308F1010862690B98D3
:10578000012190475D28F4D1B9F1000F09D0002024
:1057900003A951F82020D24341F82020401C0828BA
:1057A000F7DB03AB2069002820794FEA40701ED058
:1057B0005B462246CDF80080CDE901970D9900287F
:1057C0006FF0010020DAAFF300801FE0C11703AAD9
:1057D00000EBD1614B1121F01F0102EB8302411A52
:1057E00013680120884003431360C7E719E00D994F
:1057F000224600286FF00100009702DAAFF3008024
:1058000004E0AFF3008001E0AFF3008000280ADA83
:10581000401C06D10C9820B14FF0FF300FB0BDE80E
:10582000F08F5046FAE7E90701D10AF1010A064470
:1058300000200C9054E60000CCCCCC0C2DE9F047B5
:10584000814616468AB0354878440DC88DE80D006B
:1058500032487844801C03AC0DC884E80D0041F642
:105860009B300844372190FBF1F290FBF1F5A5F154
:10587000800501FB12041B3C02D56442012000E0BC
:105880000020DFF898A080460027FA44AAF1BE0A5B
:105890000EE0E0070AD03246684607EB47010123D5
:1058A0000AEB81011CF0F2F88DE8070064107F1C00
:1058B000002CEED1194F7F44AE3F19E0E80715D018
:1058C00007EB04100DF1180A90E80E008AE80E00AC
:1058D000C068F04201D1981908903246012306A908
:1058E00003A81CF0D3F803AB83E807006D10641C19
:1058F000002DE3D14FF0010332466946B8F1000FA5
:1059000003A802D01CF098F801E01CF0BFF8C9E928
:105910000001C9F808200AB0BDE8F0873CD80100B2
:105920007546FFF73BFDAE4605006946534620F03D
:105930000700854618B020B5FEF7ACFCBDE8204056
:105940004FF000064FF000074FF000084FF0000B3B
:10595000AC46ACE8C009ACE8C009ACE8C009ACE8AA
:10596000C00921F007018D46704700002DE9FF4F67
:1059700006468BB00878FF2806D0491C2D2805D094
:1059800000244FF0000908E000200CE00124F8E7B3
:1059900009EB8903491C00EB43090878FF28F7D17C
:1059A00014B1C9F100008146107800252C46AA46A2
:1059B00029462D2801D02B2804D1521C2D2813D084
:1059C000002082468B461078FF280FD04FF0000C45
:1059D0000A21521CA5FB017804FB018105FB0C1177
:1059E000C5194BEB0104EEE70120EAE70021084668
:1059F0004FF00000BAF1000F02D000EB8000400829
:105A0000C0F38157012F01DD4FF0FF370E9955EAA2
:105A1000040009EB01080BD04FF0020918F5FA7FDA
:105A200016DA4FEACA70002F706008DD012007E027
:105A30004FEACA70C6E900B00FB0BDE8F08F002091
:105A40003060FFF7AFFCC0F800901821084616E060
:105A5000B8F5FA7F18DD002F02DAF748784401E044
:105A6000F6487844D0E90010C6E9001040EACA7050
:105A70007060FFF797FCC0F80090142108460FB043
:105A8000BDE8F04F1DF01DBA002108464FF00000A0
:105A9000B8F10001099002DAC7F1000200E03A46CD
:105AA00001DAC8F1000106A8FFF7C8FE06AB93E8CB
:105AB000070003AB83E8070044F23E005BEA040101
:105AC0000090584604D144F21E012C465D460091D8
:105AD000210C0904014306D10099240444EA154429
:105AE0002D041039009104F07F41014306D1009943
:105AF000240244EA15642D020839009104F0704133
:105B0000014306D10099240144EA15742D01091FAF
:105B1000009104F04041014306D10099A40044EAF9
:105B20009574AD00891E009104F00041084304D132
:105B300000986D196441401E00904FF001033A46F1
:105B40006846B8F1000FCDE9014503A902DD1BF05D
:105B5000B2FF01E01BF085FFBAF1000F04460D46CD
:105B600001D084F00044002108464FF0000009995C
:105B700040F2FF77484010F00C0F07D124F00040AE
:105B8000284303D0C4F30A50B84212D1FFF70AFCED
:105B9000C0F80090C4F30A50B8420AD1A84878442B
:105BA000D0E90010C6E9001004F00041084370601D
:105BB00042E7C6E900543FE72DE9FF4F1F464FF08B
:105BC000000A4FF0FF38454691B0D7E90146CDF8BD
:105BD0003CA0FFF763F8C0680168405C1090B969A9
:105BE00012986D1C8847396A814688470028F6D18B
:105BF000B9F1FF3F0AD0002E24F4D06411DDB9F1D1
:105C00002B0F08D0B9F12D0F0BD102E0404615B093
:105C100013E744F48064B96912986D1C8847761EB6
:105C20008146600504A901D52D2000E02B20002E1F
:105C300001F1010B0DF130088DF810003FDDB9F1D5
:105C4000690F08D0B9F1490F05D0B9F16E0F02D034
:105C5000B9F14E0F1CD13B4601A8009580E85002D7
:105C6000DDE912126FF002001DF094F9C11CCED1D3
:105C70000EE0B96912986D1C884781461398761E0C
:105C800044F4007405600F98401C002E0F9016DD40
:105C9000B9F1300FEDD0B9F1780F02D0B9F1580F4A
:105CA0000DD10F9801280AD13B46CDE90054DDE91A
:105CB0001212001F02961DF06BF9C11CA7D110999A
:105CC00089453ED144F0800406E01399681CAAF18E
:105CD000010A44F400740860B9696D1C1298761EBC
:105CE000884730288146F0D02BE01099894505D1AE
:105CF000200603D4761E44F0800418E048461CF0C9
:105D0000A6F808B3761E0DF123029345A9F13000E1
:105D100044F4007406D20BF8010B200607D5AAF153
:105D2000010003E0200602D40AF101008246A0052A
:105D300002D51399681C0860B96912986D1C8847D0
:105D40008146002ED1DC53E0002E51DDB9F1650F04
:105D500002D0B9F1450F4BD1A00549D5B9696D1CE9
:105D60001298761E24F440748847002E81460CDD7C
:105D70002B2804D0B9F12D0F07D144F48074B969F0
:105D800012986D1C8847761E8146E00501D52D21AD
:105D900000E02B2108F8011BCDF8008021E0761EE1
:105DA0000DF13901884544F400740CD2A9F130009A
:105DB00010F0FF0088F8000002D10099884509D949
:105DC00008F1010806E0E00501D51E4801E042F2B5
:105DD0000F708246B96912986D1C884781461398E6
:105DE0000560002E04DD48461CF031F80028D6D1AD
:105DF000F96912988847FF2053468BF8000088F80D
:105E0000000000200A900B9004AA0CA90AA8FFF732
:105E1000ADFDA00502D46FF00100F8E614F0240FE8
:105E200012D0E0071CD13868DDE90A12031D3B607F
:105E30000068C0E9001213E010DD010002DD01007E
:105E4000C6DB0100F1D8FFFF0AA968461BF08EFFF0
:105E5000E00705D13868009A011D396000680260CA
:105E60002846D4E610B50446AFF300802046BDE8CE
:105E70001040FEF7FAB9B2F120030AD5C2F12003AF
:105E800001FA02F120FA03F341EA030100FA02F0F9
:105E9000704700FA03F14FF0000070472DE9FF4F03
:105EA0001F464FF03C0987B04FF00042DDE9141067
:105EB00001F10108DDF858A002EA405003900020EB
:105EC00005908346054604460490B969461E089825
:105ED0008847AAF1010A0290BAF1000F3BDD02984F
:105EE0002E2815D01021FFF798F900282EDB4FF04F
:105EF000010B0599014317D0B9F1000F0BDB4A469E
:105F0000C117FFF7B8FF05430C43A9F1040905E0E9
:105F1000012004900BE008B145F001050120059037
:105F2000049820B9361D02E0049800B1361FB96903
:105F3000089808F101088847BBF1000FAAF1010A8F
:105F40000290C9D00999C1F80080C5E7029870286D
:105F500008D0502806D0F96908988847BBF1000F8F
:105F600014D04FE0002002900120BBF1000F0490FC
:105F700009D0B969089808F101088847AAF1010910
:105F8000B9F1000F07DCF969089888476FF0010044
:105F90000BB0BDE8F08F2B2804D02D280CD14FF08A
:105FA000FF300490B969089808F101088847A9F101
:105FB0000109B9F1000FE6DD411CE4D00A21FFF729
:105FC0002CF90028DFDB029908F1010801EB8101BF
:105FD00000EB41000290B969089888470A21FFF751
:105FE0001CF9099AA9F10109B9F1000FC2F8008062
:105FF00001DD0028E7DAF9690898884704990298D2
:1060000000FB016655EA040004D004F04041090099
:1060100002D006E0039898E0A40044EA9574AD002D
:10602000B61E04F00041080002D16D196441761ECD
:10603000159810F0240F03D04FF00B095C4803E0D3
:106040004FF028096FF07D008246564507DAAAEB2B
:1060500006018944B9F1410F01DD4FF041090120EA
:106060000021A9F10102FFF706FF024628400B4676
:106070002140084301D0012100E00021501E02917F
:1060800043F1FF3128402140084301D0012000E0C6
:1060900000200299834651EA0B014FD000210846A7
:1060A0004FF00000039900F4400039B100EB80008C
:1060B0004FF4400100EBD07001EA60008015012828
:1060C00002DD4FF0FF3000E013D0401C36D00298C4
:1060D00060B3BBF1000F0CD14A4601200021FFF74D
:1060E000CAFE28402140084301D0012000E00020E2
:1060F000E0B101204A460021FFF7BDFE03464019EA
:106100000A4661412D1A8C4111D3B9F1400F09DDC6
:10611000159810F0240F02D0AAF1340603E0AAF17A
:10612000170600E0761C00254FF0004406E05B1ED9
:1061300042F1FF3220EA030521EA0204CAF101001C
:10614000B04206DA1B4903980843019000200090F2
:106150000EE0039AC4F3D321E80A0A43164940EA41
:1061600044500A433146CDE9000268461BF064FE04
:10617000159810F0240F0BD01598C00715D138686A
:10618000DDE90012031D3B600068C0E900120CE06D
:1061900002A869461BF0EAFD1598C00705D13868CA
:1061A000029A011D3960006802604046F0E6000076
:1061B00002FCFFFF0000F07F0000F03F2DE9FF4FE1
:1061C00092461D4685B04FF00041DDE9124BDDE9F6
:1061D00014727F1E01EA4B50414940F0FF4940EAEA
:1061E0000108002122F020004928049102D04E2805
:1061F00028D04CE03BA0012607C88DE80700A9691C
:106200000698641C88477F1E014606D41DF80600C8
:1062100018B121F0200181420BD0E9690698884726
:10622000032E34D0082E32D06FF0010009B0BDE843
:10623000F08F761C032E01D0082EE0D1601CCAF826
:106240000000DCE7A9690698641C88477F1E2AD4F1
:1062500020F02000412826D1A9690698641C8847AF
:106260007F1E20D420F020004E281CD1A96906985A
:10627000641C88477F1E48F4002849F48009CAF846
:10628000004001D4282806D0E969069888475FEACB
:10629000CB7012D022E0A9690698641C88477F1E43
:1062A00001D4002803DAE96906988847BCE7292861
:1062B000F1D1641CCAF80040E9E71BF0240F07D0B5
:1062C00028680499031D2B600068C0E9001805E0E8
:1062D0002868021D2A600068C0F800902046A5E7E3
:1062E0000000F07F494E46494E49545900000000D5
:1062F00001491820ABBEFEE72600020070470000EF
:106300000146406A826A12F0500F03D0006A026BA5
:10631000084610470168826A42F400728262896806
:1063200001F46021B1F5602F01D1017B11B102F0C0
:106330001DBA00BF816A21F480718162816AC9043B
:1063400048BF02F013BA816A41F00101816202F094
:106350000DBA0000406A816A41F040018162C16A61
:1063600041F00401C16202F013BA0000406A02F079
:106370000DBA0000B0B582B004460020019021683B
:106380008A68D2074FD1886840F00100886040F2E7
:10639000C800C2F2000000684DF68361C4F21B31F0
:1063A000A0FB0101880C01900198A0B1019801386F
:1063B0000190019878B1019801380190019850B18D
:1063C000019801380190019828B101980138019095
:1063D00001980028EAD102F00BFF21688968C907FB
:1063E0001CD1054603E000BF8068C0071AD102F047
:1063F000FFFE411B20680329F6D38168C907F3D14A
:10640000A06A40F01000A062E06A40F00100E06283
:10641000002084F82400012002B0B0BD002002B0AA
:10642000B0BD00BF002002B0B0BD000003280BD0FB
:1064300002280FD0012811BF002041F6AC50C2F253
:1064400000008069704700BF41F6AC50C2F2000006
:10645000006A704741F6AC50C2F20000C069704754
:10646000F0B583B041F22450C2F20000C16940F699
:1064700000043829C4F201041AD004F520514FF465
:106480008272002302274FF40076382580E80E0040
:106490000A21C0E90337C0E90536C561C0E9083300
:1064A000C0E90A3104F01AF8002818BF02F08EF88B
:1064B000204602210022002702F094FE032014F05F
:1064C000DBFA1020ADF8090041F224504FF0FF36FE
:1064D000C2F200000DF109010DF1060203238DF84F
:1064E0000B70009604F078F9BDF80710054608BA5D
:1064F000000C1BF088FF0023C3F6B07300221BF0D2
:10650000D1FF1BF08DFD0646204602210122002D01
:1065100018BF3E4602F066FE032014F0ADFA304686
:1065200003B0F0BD70B584B041F22450C2F2000057
:10653000C16940F600063829C4F201061CD006F5F0
:1065400020514FF48272002380E80E0000F1140104
:1065500002254FF4007C4FF0380E81E808500A21E4
:10656000C0E90335C0E90833C0E90A3103F0B6FFDA
:10657000002818BF02F02AF8304602210022002528
:1065800002F030FE032014F077FA1820039041F255
:1065900024504FF0FF34C2F2000003A902AA0423E2
:1065A000009404F019F948B99DF80A109DF8090003
:1065B0009DF80B20090241EA00408518304602216F
:1065C000012202F00FFE032014F056FA284604B010
:1065D00070BD000080B584B01920039041F22450B2
:1065E0004FF0FF3CC2F2000003A902AA0423CDF839
:1065F00000C004F0F1F818B1002004B080BD00BF65
:106600009DF80A109DF809009DF80B20090241EA47
:106610000040104404B080BD2DE9F04184B041F247
:106620002451C2F20001CA6940F600080546382A22
:10663000C4F201081BD008F520504FF482720023E9
:1066400081E80D0001F114004FF40074382798C060
:106650000A200226C1E90A300846C1E90336C1E929
:10666000083303F03BFF002818BF01F0AFFF40469E
:1066700002210022002602F0B5FD032014F0FCF9EF
:10668000032D1FD0022D37D0012D4FD10720ADF89B
:106690000D0041F2245000264FF0FF37C2F20000F7
:1066A0000DF10D010DF10A0203238DF80F60009723
:1066B00004F092F8BDF80B10002809BA08BF0E0CC0
:1066C00034E000BF0920ADF80D0041F224504FF036
:1066D000FF37C2F200000DF10D010DF10A02032394
:1066E0008DF80F60009704F077F8BDF80B100028C4
:1066F00009BA08BF0E0C19E00820ADF80D0041F2F0
:10670000245000264FF0FF37C2F200000DF10D01BA
:106710000DF10A0203238DF80F60009704F05CF876
:10672000BDF80B10002809BA08BF0E0C4046022124
:10673000012202F057FD032014F09EF930B204B09C
:10674000BDE8F0812DE9F04184B041F22451C2F25C
:106750000001CA6940F600080546382AC4F201085B
:106760001BD008F520504FF48272002381E80D0001
:1067700001F114004FF40074382798C00A20022653
:10678000C1E90A300846C1E90336C1E9083303F01C
:10679000A5FE002818BF01F019FF40460221002283
:1067A000002602F01FFD032014F066F9032D1FD010
:1067B000022D37D0012D4FD10420ADF80D0041F24C
:1067C000245000264FF0FF37C2F200000DF10D01FA
:1067D0000DF10A0203238DF80F60009703F0FCFF10
:1067E000BDF80B10002809BA08BF0E0C34E000BF3A
:1067F0000620ADF80D0041F224504FF0FF37C2F2F1
:1068000000000DF10D010DF10A0203238DF80F6058
:10681000009703F0E1FFBDF80B10002809BA08BF8C
:106820000E0C19E00520ADF80D0041F224500026B1
:106830004FF0FF37C2F200000DF10D010DF10A0219
:1068400003238DF80F60009703F0C6FFBDF80B100F
:10685000002809BA08BF0E0C40460221012202F0AE
:10686000C1FC032014F008F930B204B0BDE8F08197
:1068700070B582B041F22450C2F20000C16940F606
:1068800000063829C4F201061BD006F520514FF44A
:10689000827200234FF0020C4FF4007E382580E80E
:1068A0000E000A21C0E9033CC0E9053EC561C0E90C
:1068B0000833C0E90A3103F011FE002818BF01F0C7
:1068C00085FE304602210022002502F08BFC0320C9
:1068D00014F0D2F87F20ADF8060041F224504FF0BA
:1068E000FF34C2F200000DF1060101AA0223009458
:1068F00003F072FF9DF80540002830464FF002017A
:106900004FF0010218BF2C4602F06CFC032014F07B
:10691000B3F8E0B202B070BD2DE9F04184B041F2AD
:106920002451C2F20001CA6940F600080546382A1F
:10693000C4F201081BD008F520504FF482720023E6
:1069400081E80D000A2002274FF400763824C1E9BF
:106950000A300846C1E90337C1E90536CC61C1E90F
:10696000083303F0BBFD002818BF01F02FFE40469E
:1069700002210022002602F035FC0320032714F038
:106980007BF8032D1ED0022D36D0012D4ED10120D3
:10699000ADF80D0041F2245000264FF0FF37C2F24F
:1069A00000000DF10D010DF10A0203238DF80F60B7
:1069B000009703F011FFBDF80B10002809BA08BFBB
:1069C0000E0C33E041F22450ADF80D704FF0FF375C
:1069D000C2F200000DF10D010DF10A0203238DF842
:1069E0000F60009703F0F8FEBDF80B10002809BAFD
:1069F00008BF0E0C1AE000BF0220ADF80D0041F2F6
:106A0000245000264FF0FF37C2F200000DF10D01B7
:106A10000DF10A0203238DF80F60009703F0DCFEEE
:106A2000BDF80B10002809BA08BF0E0C4046022121
:106A3000012202F0D7FB032014F01EF830B204B09C
:106A4000BDE8F081F0B585B040F60004C4F2010461
:106A500000250226204602210122029503960127E5
:106A600002F0C0FB69462046CDE9006702F0AAFAB1
:106A700041F22450C2F20000C169382918D004F54F
:106A800020514FF482724FF40073382780E82600BB
:106A90000A21C0E90356C0E90553C761C0E908559A
:106AA000C0E90A5103F01AFD002818BF01F08EFD5D
:106AB00020460221002202F095FB032013F0DCFFA8
:106AC00041F224559720C2F20005ADF8100004A948
:106AD000284602224FF0FF3303F092FD40F6A30058
:106AE000ADF8100004A9284602224FF0FF3303F04E
:106AF00087FD40F2C220ADF8100004A9284602220A
:106B00004FF0FF3303F07CFD40F2C320ADF81000DE
:106B100004A9284602224FF0FF3303F071FD4FF421
:106B20003170ADF8100004A9284602224FF0FF335F
:106B300003F066FD9820CCF20F00049004A92846CB
:106B400004224FF0FF3303F05BFD204602210122B7
:106B500002F048FB032013F08FFF05B0F0BD0000EA
:106B600080B584B01A20039041F224504FF0FF3CCE
:106B7000C2F2000003A902AA0423CDF800C003F06A
:106B80002BFE18B1002004B080BD00BF9DF80A1094
:106B90009DF809009DF80B20090241EA00401044CD
:106BA00004B080BDB0B584B0032815D0022825D02C
:106BB000012840F0BD800D20039041F224504FF099
:106BC000FF34C2F2000003A902AA0423009403F0D8
:106BD00003FE28B300202DE00F20039041F2245043
:106BE0004FF0FF34C2F2000003A902AA042300946C
:106BF00003F0F2FDB0B300203EE000BF0E20039092
:106C000041F224504FF0FF34C2F2000003A902AA5F
:106C10000423009403F0E0FD002843D000204BE063
:106C20009DF80A109DF809009DF80B20090241EA21
:106C30000040104441F6AC55C2F20005296802AA92
:106C4000084428600A20039041F22450C2F2000058
:106C500003A90423009403F0BFFD002842D00020C4
:106C60004AE000BF9DF80A109DF809009DF80B202E
:106C7000090241EA0040104441F6AC55C2F2000559
:106C8000A96802AA0844A8600C20039041F224508D
:106C9000C2F2000003A90423009403F09DFDA8B3F1
:106CA00000203DE09DF80A109DF809009DF80B209A
:106CB000090241EA0040104441F6AC55C2F2000519
:106CC000696802AA084468600B20039041F22450CE
:106CD000C2F2000003A90423009403F07DFD48B331
:106CE000002031E09DF80A109DF809009DF80B2066
:106CF000090241EA00401044E968084495F824106C
:106D0000E860481C85F8240004B0B0BD9DF80A1066
:106D10009DF809009DF80B20090241EA004010444B
:106D20006969084495F826106861481C85F82600B2
:106D300004B0B0BD9DF80A109DF809009DF80B2025
:106D4000090241EA004010442969084495F82510D9
:106D50002861481C85F8250004B0B0BD41F6AC5050
:106D6000C2F2000000214FF07E52C0E90011C0E9DC
:106D70000211C0E90411C0E906220262818480F890
:106D8000261070472DE9F04F83B041F22450C2F233
:106D90000000C16940F600043829C4F201041AD089
:106DA00004F520514FF48272002302274FF400763D
:106DB000382580E80E000A21C0E90337C0E905360E
:106DC000C561C0E90833C0E90A3103F087FB002838
:106DD00018BF01F0FBFB2046022100224FF0000B00
:106DE00002F000FA032013F047FE41F224561A2065
:106DF000C2F2000602AC01AD02904FF0FF393046FE
:106E000021462A460423CDF8009003F0E5FC16F055
:106E10008FFE07464FF000084FF0000A192002903D
:106E2000304621462A460423CDF8009003F0D4FCD6
:106E300020BB9DF806905FEA897007D5BBF1000F73
:106E400004D101204FF0010BFFF7ACFE5FEA49705F
:106E500007D5B8F1000F04D10220FFF7A3FE4FF0D1
:106E600001085FEA097019D5BAF1000F4FF0FF3938
:106E700004D10320FFF796FE4FF0010A16F058FEEA
:106E8000C01B142811D8BBF1000F18BFB8F1000FB8
:106E9000C4D0BAF1000FC1D007E000BF4FF0FF39F6
:106EA00016F046FEC01B1428EDD940F60000C4F2CF
:106EB00001000221012202F095F9032013F0DCFD0C
:106EC00003B0BDE8F08F0000013805284ED8DFE898
:106ED00000F003111D29354141F6AC51C2F2000109
:106EE00091F82400002804BF002070470968B1FB16
:106EF000F0F0704741F6AC51C2F2000191F8250064
:106F0000A0B304310968B1FBF0F0704741F6AC5111
:106F1000C2F2000191F8260040B308310968B1FBC4
:106F2000F0F0704741F6AC51C2F2000191F8240034
:106F3000E0B10C310968B1FBF0F0704741F6AC519B
:106F4000C2F2000191F8250080B110310968B1FB4F
:106F5000F0F0704741F6AC51C2F2000191F8260002
:106F600020B114310968B1FBF0F070470020704780
:106F700070B50446FFF7D0FC05462046FFF74CFBF2
:106F8000611ECEB2022E88BF70BD044628461BF09B
:106F900093FD054620461BF08FFD014628461BF059
:106FA00079FC04A151F82610092CD8BF4FF07E506F
:106FB000086070BDC41D0020C81D0020CC1D00202D
:106FC0002DE9F04F83B0894641F22451C2F200010D
:106FD000CA6940F600050446382AC4F201051DD0EE
:106FE00005F520504FF48272002381E80D0001F175
:106FF00014004FF400764FF0380C80E848100A2057
:107000000227C1E90A300846C1E90337C1E908335C
:1070100003F064FA002818BF01F0D8FA28460221CC
:107020000022002502F0DEF8032013F025FD601E8B
:10703000C0B241F20F7241F22458C100C0F22702DF
:1070400003284FF09700C2F200080DF1080A38BF7C
:1070500022FA01F58DF808004046514602224FF011
:10706000FF338DF809504FF0FF3B03F0C9FA1A20A7
:1070700001AC029002A9404622460423CDF800B09C
:1070800003F0AAFB9C20ADF8080002A940460322A9
:107090004FF0FF338DF80A9003F0B2FA16F048FD76
:1070A0000546C9EB0917192605E000BF16F040FD9B
:1070B000401BB84210D8404651462246042302964F
:1070C000CDF800B003F088FB0028EFD19DF8060052
:1070D000C006EBD5012400E0002440F60000C4F215
:1070E00001000221012202F07DF8032013F0C4FC0C
:1070F000204603B0BDE8F08F70B586B00138C0B24D
:1071000041F20F72002341F224550C46C100C0F237
:107110002702032838BF22FA01F39720C2F20005A4
:107120008DF80B008DF80C300DF10B012846022272
:107130004FF0FF334FF0FF3603F062FA1A20CDF81C
:1071400011000DF111010DF10D02284604230096E6
:1071500003F042FB9C20ADF815000DF11501284607
:1071600003224FF0FF338DF8174003F049FA06B0C1
:1071700070BD0000012119F0BBBD000002210522F5
:1071800000F000B90321052200F0B6B80421052261
:1071900000F0B2B80421052200F0F4B80521052260
:1071A00000F0AAB80521052200F0ECB8062105225E
:1071B00000F0A2B80621052200F0E4B8072105225C
:1071C00000F09AB80721052200F0DCB8082105225A
:1071D00000F092B80821052200F0D4B8B0B50446FA
:1071E000012006F0B3FF05460078214618F0B0FAFA
:1071F000287A68B941F23E00C2F20000007838B146
:1072000095F90300B0F1FF3F04DD204600F008F8D7
:107210000120B0BD204600F035F80120B0BD0000CF
:1072200070B50446012006F091FF0546007A08B1CA
:10723000012070BDE089C8B941F24100C2F20000EE
:10724000007878B141F294666A78C2F2000643F29F
:107250008261C0F6020130460923FDF735F8304659
:1072600018F0D4FD2878214618F072FA2878092100
:1072700007F09AF807F0DCFB4FF47A7020820120C7
:1072800070BD000070B50446012006F05FFF0546A2
:10729000007A08B1012070BDE089C8B941F241000F
:1072A000C2F20000007878B141F294666A78C2F2C6
:1072B000000643F29461C0F6020130460923FDF74F
:1072C00003F8304618F0A2FD2878214618F040FA5D
:1072D0002878092107F0B6F807F0AAFB4FF47A7076
:1072E0002082012070BD0000012104F085BF000054
:1072F000012105F04DB80000F0B581B00446012031
:1073000017460D4606F022FF0646007A10B101200E
:1073100001B0F0BD41F24300C2F20000007838B382
:10732000E089C8B941F24100C2F20000007878B1AA
:1073300041F294677278C2F2000743F28261C0F6AC
:10734000020138462B46FCF7BFFF384618F05EFDB9
:107350003078214618F0FCF93078E9B207F024F8CB
:1073600007F066FB4FF47A702082012001B0F0BD77
:10737000304621462A463B4601B0BDE8F04000F0C9
:10738000E3BC0000F0B581B00446012017460D466D
:1073900006F0DCFE0646007A30B11FA018F036FD7C
:1073A000012001B0F0BD00BF41F24300C2F2000075
:1073B000007838B3E089C8B941F24100C2F2000058
:1073C000007878B141F294677278C2F2000743F214
:1073D0009461C0F6020138462B46FCF775FF38462B
:1073E00018F014FD3078214618F0B2F93078E9B27F
:1073F00007F028F807F01CFB4FF47A702082012078
:1074000001B0F0BD304621462A463B4601B0BDE8FA
:10741000F04000F099BE00BF50686173652065724E
:10742000726F7200012118F049BF0000012118F0AD
:107430008FBF000080B5012119F0DAFD012080BD69
:10744000B0B50446012006F081FE054600782146CD
:1074500018F07EF9287A08B10120B0BD41F2410050
:10746000C2F20000007808B1E08928B141F288300A
:1074700020820120B0BD00BF6A7841F29465C2F25B
:10748000000543F26261C0F602012846FCF71CFFCA
:10749000284618F0BBFC41F2883020820120B0BDA4
:1074A00080B5012119F0EEFD012080BDF0B581B05D
:1074B0000446012006F04AFEB4F8483033B30546CE
:1074C00041F24100C2F20000007888B141F29467B5
:1074D0006A78B4F84A60C2F2000743F2C561C0F6A8
:1074E000020138460096FCF7EFFE384618F08EFC95
:1074F000B4F84A0020B1284606F014FD02E000BFAF
:10750000012028722878214618F022F9012001B0C4
:10751000F0BD0000012119F07FBC000010B5044649
:10752000C0890121218258B1FFF754F8C0040FD45B
:10753000E089810800204A2988BF012010BD00BFD2
:1075400094F848001421FFF7D7FD002010BD00BFBC
:1075500094F84800FFF70CFD012010BDB0B50446BB
:10756000C08901210028218250D0FFF733F8054659
:1075700080050CD5B4F84800012808D80120FFF791
:1075800011FBB4F8480040F00200A4F84800680578
:107590000CD5B4F84800032808D80220FFF702FBF6
:1075A000B4F8480040F00400A4F84800B4F84800DB
:1075B00029050AD5072808D80320FFF7F3FAB4F8FD
:1075C000480040F00800A4F848000E2804BF01203D
:1075D000B0BDE18915293CBF0020B0BD012804D809
:1075E0000120FFF7DFFAB4F84800032804D802208E
:1075F000FFF7D8FAB4F84800072884BF0120B0BDCF
:107600000320FFF7CFFA0120B0BD00BF0025A4F88A
:107610004850FFF7A5FA2846B0BD0000022119F036
:1076200067BB00000221052200F000B903210522FA
:1076300000F0B6B80421052200F0B2B804210522FA
:1076400000F0F4B80521052200F0AAB805210522B2
:1076500000F0ECB80621052200F0A2B806210522B0
:1076600000F0E4B80721052200F09AB807210522AE
:1076700000F0DCB80821052200F092B808210522AC
:1076800000F0D4B8B0B50446022006F05FFD054610
:107690000078214618F05CF8287A68B941F23E007B
:1076A000C2F20000007838B195F90300B0F1FF3F55
:1076B00004DD204600F008F80120B0BD204600F0AF
:1076C00035F80120B0BD000070B50446022006F078
:1076D0003DFD0546007A08B1012070BDE089C8B9BA
:1076E00041F24100C2F20000007878B141F29466A4
:1076F0006A78C2F2000643F28261C0F602013046A7
:107700000923FCF7E1FD304618F080FB287821467C
:1077100018F01EF82878092106F046FE07F088F9CF
:107720004FF47A702082012070BD000070B50446CD
:10773000022006F00BFD0546007A08B1012070BD5D
:10774000E089C8B941F24100C2F20000007878B186
:1077500041F294666A78C2F2000643F29461C0F680
:10776000020130460923FCF7AFFD304618F04EFB0E
:107770002878214617F0ECFF2878092106F062FEF0
:1077800007F056F94FF47A702082012070BD000096
:10779000022104F031BD0000022104F0F9BD000017
:1077A000F0B581B00446022017460D4606F0CEFC27
:1077B0000646007A10B1012001B0F0BD41F243004D
:1077C000C2F20000007838B3E089C8B941F2410044
:1077D000C2F20000007878B141F294677278C2F288
:1077E000000743F28261C0F6020138462B46FCF7DF
:1077F0006BFD384618F00AFB3078214617F0A8FFD9
:107800003078E9B206F0D0FD07F012F94FF47A7043
:107810002082012001B0F0BD304621462A463B4679
:1078200001B0BDE8F04000F08FBA0000F0B581B0C3
:107830000446022017460D4606F088FC0646007AEC
:1078400010B1012001B0F0BD41F24300C2F20000CE
:10785000007838B3E089C8B941F24100C2F20000B3
:10786000007878B141F294677278C2F2000743F26F
:107870009461C0F6020138462B46FCF725FD3846D8
:1078800018F0C4FA3078214617F062FF3078E9B278
:1078900006F0D8FD07F0CCF84FF47A702082012072
:1078A00001B0F0BD304621462A463B4601B0BDE856
:1078B000F04000F049BC0000022118F0FFBC0000BD
:1078C000022118F045BD000080B5022119F090FB9F
:1078D000012080BDB0B50446022006F037FC054605
:1078E0000078214617F034FF287A08B10120B0BD96
:1078F00041F24100C2F20000007808B1E08928B1ED
:1079000041F2883020820120B0BD00BF6A7841F288
:107910009465C2F2000543F26261C0F60201284696
:10792000FCF7D2FC284618F071FA41F28830208228
:107930000120B0BD80B5022119F0A4FB012080BD5B
:10794000F0B581B00446022006F000FCB4F84830DF
:1079500033B3054641F24100C2F20000007888B11D
:1079600041F294676A78B4F84A60C2F2000743F2C1
:10797000C561C0F6020138460096FCF7A5FC384602
:1079800018F044FAB4F84A0020B1284606F0CAFAC2
:1079900002E000BF012028722878214617F0D8FEA7
:1079A000012001B0F0BD0000022119F035BA00003D
:1079B000FEE70000032119F09BB900000221052217
:1079C00000F000B90321052200F0B6B80421052219
:1079D00000F0B2B80421052200F0F4B80521052218
:1079E00000F0AAB80521052200F0ECB80621052216
:1079F00000F0A2B80621052200F0E4B80721052214
:107A000000F09AB80721052200F0DCB80821052211
:107A100000F092B80821052200F0D4B8B0B50446B1
:107A2000032006F093FB05460078214617F090FEF0
:107A3000287A68B941F23E00C2F20000007838B1FD
:107A400095F90300B0F1FF3F04DD204600F008F88F
:107A50000120B0BD204600F035F80120B0BD000087
:107A600070B50446032006F071FB0546007A08B1A4
:107A7000012070BDE089C8B941F24100C2F20000A6
:107A8000007878B141F294666A78C2F2000643F257
:107A90008261C0F6020130460923FCF715FC30462E
:107AA00018F0B4F92878214617F052FE28780921F9
:107AB00006F07AFC06F0BCFF4FF47A7020820120B9
:107AC00070BD000070B50446032006F03FFB05467C
:107AD000007A08B1012070BDE089C8B941F24100C7
:107AE000C2F20000007878B141F294666A78C2F27E
:107AF000000643F29461C0F6020130460923FCF708
:107B0000E3FB304618F082F92878214617F020FE72
:107B10002878092106F096FC06F08AFF4FF47A7067
:107B20002082012070BD0000032104F065BB00002D
:107B3000032104F02DBC0000F0B581B00446032001
:107B400017460D4606F002FB0646007A10B10120EA
:107B500001B0F0BD41F24300C2F20000007838B33A
:107B6000E089C8B941F24100C2F20000007878B162
:107B700041F294677278C2F2000743F28261C0F664
:107B8000020138462B46FCF79FFB384618F03EF9B9
:107B90003078214617F0DCFD3078E9B206F004FCBD
:107BA00006F046FF4FF47A702082012001B0F0BD4C
:107BB000304621462A463B4601B0BDE8F04000F081
:107BC000C3B80000F0B581B00446032017460D4647
:107BD00006F0BCFA0646007A10B1012001B0F0BDF3
:107BE00041F24300C2F20000007838B3E089C8B91E
:107BF00041F24100C2F20000007878B141F294678E
:107C00007278C2F2000743F29461C0F6020138466E
:107C10002B46FCF759FB384618F0F8F83078214627
:107C200017F096FD3078E9B206F00CFC06F000FF84
:107C30004FF47A702082012001B0F0BD3046214619
:107C40002A463B4601B0BDE8F04000F07DBA000096
:107C5000032118F033BB0000032118F079BB0000AA
:107C600080B5032119F0C4F9012080BDB0B50446E8
:107C7000032006F06BFA05460078214617F068FDF0
:107C8000287A08B10120B0BD41F24100C2F20000E3
:107C9000007808B1E08928B141F2883020820120C3
:107CA000B0BD00BF6A7841F29465C2F2000543F2AC
:107CB0006261C0F602012846FCF706FB284618F070
:107CC000A5F841F2883020820120B0BD80B50321A3
:107CD00019F0D8F9012080BDF0B581B00446032029
:107CE00006F034FAB4F8483033B3054641F24100A7
:107CF000C2F20000007888B141F294676A78B4F863
:107D00004A60C2F2000743F2C561C0F6020138467C
:107D10000096FCF7D9FA384618F078F8B4F84A001B
:107D200020B1284606F0FEF802E000BF01202872CC
:107D30002878214617F00CFD012001B0F0BD0000AD
:107D4000032119F069B800002DE9F04182B0064620
:107D500000781F4690460C4606F064FAE189012936
:107D60000CD0C9BB41F24000C2F200000078B8F16B
:107D7000040F4DD105284BD2012773E141F22C109D
:107D8000C2F200000021C0E90111C16006F060FFED
:107D9000002865D0002006F085FF002006F072FF65
:107DA00006F076FC41F24100C2F2000000780028A3
:107DB00000F0808141F294647278C2F20004DEA186
:107DC00020464346FCF780FA204618F01FF80127AA
:107DD000384602B0BDE8F081C72953D806F044FF09
:107DE000002800F09D8012F057FC30785FFA88F18F
:107DF00006F0DAFA06F01CFE12F05CFC41F22C11DF
:107E0000C2F20001486012F047FCC820E08187E020
:107E1000B8F1050F02D10428C0F04C81B8F1060F6B
:107E200002D10328C0F0468130785FFA88F52946F0
:107E300006F0D4FA002800F03D813078294606F09B
:107E4000A5FD002800F03C813046414606F08CF943
:107E5000322020820127384602B0BDE8F08100BF01
:107E600030785FFA88F106F0EDFA06F0E1FD0220C5
:107E7000022506F017FF25820027384602B0BDE82C
:107E8000F08100BFC82943D1002006F00BFF00207D
:107E900006F0F8FE06F0FCFB41F24200C2F20000E0
:107EA000007888B141F294657278C2F2000543F21D
:107EB0009E610127C0F60201284643460097FCF761
:107EC00003FA284617F0A2FF30785FFA88F106F02F
:107ED000B9FA06F0ADFD0A2020822046052107F000
:107EE000CFFD0746204607F08DF9002800F0BA8044
:107EF000012030721520A4F84A0020460021A4F881
:107F0000488007F035F8384602B0BDE8F08100BF80
:107F10000546080918280BD806F0A6FE002847D009
:107F2000012020820027384602B0BDE8F08100BF62
:107F3000B1F5C87F50D1002006F0B4FE002006F055
:107F4000A1FE06F0A5FB41F24200C2F2000000785B
:107F500098B141F294657278C2F2000543F29E61D5
:107F60004FF0020CC0F6020128464346CDF800C08F
:107F7000FCF7AAF9284617F049FF002F00F0C68049
:107F800030785FFA88F106F05DFA06F051FD0A20BC
:107F90002082F9B2204607F073FD0746204607F01D
:107FA00031F900285ED0012030721620A3E700BF0F
:107FB00012F080FB41F22C11C2F20001886005EB47
:107FC0000811C8604FF4C870E08112F065FB012011
:107FD00006F068FE0220A4E7C8084A2804D806F084
:107FE00037FE00289CD041E0B1F5167F3ED100203D
:107FF00006F058FE002006F045FE06F049FB41F26F
:108000004200C2F20000007898B141F294657278A3
:10801000C2F2000543F29E614FF0030CC0F602016C
:1080200028464346CDF800C0FCF74EF9284617F025
:10803000EDFE002F74D030785FFA88F106F002FA76
:1080400006F0F6FC0A202082F9B2204607F018FD5F
:108050000746204607F0D6F820B1012030721720DD
:1080600049E700BF384602B0BDE8F08112F022FBBC
:1080700041F22C14C2F2000405EB0811E060086123
:10808000002006F00FFE002006F0FCFD06F000FBCD
:1080900041F24100C2F20000007858B1D4E9022355
:1080A00041F29464C2F2000443F21171C0F602017D
:1080B000204687E60127384602B0BDE8F08100BFC0
:1080C000307806F0DFFD28B33078214617F040FB0A
:1080D00041F24100C2F20000007878B141F29467A9
:1080E0007278C2F2000743F28261C0F6020138469C
:1080F0004346FCF7E9F8384617F088FE012006F001
:10810000D1FD3078294606F083F907E001271620D3
:1081100008E000BF2046012107F082F8052000E7B3
:10812000012717203772A4F84880A4F84A0038467F
:1081300002B0BDE8F08100BF4B4D25632575206F6F
:10814000666620736B6970002DE9F04182B00646C7
:1081500000781F4690460C4606F064F8E189012934
:108160000CD0C9BB41F24000C2F200000078B8F167
:10817000040F53D1052851D20127A3E141F22C105D
:10818000C2F200000021C0E90111C16006F06CFDDF
:1081900000285BD0002006F085FD002006F072FD6F
:1081A00006F076FA41F24100C2F2000000780028A1
:1081B00047D041F294647278C2F20004E1A12046F3
:1081C0004346FCF781F8204617F020FE0127384689
:1081D00002B0BDE8F08100BFC72949D80120208244
:1081E00006F036FD002800F0898012F055FA30784C
:1081F0005FFA88F106F026F906F01AFC12F05AFA36
:1082000041F22C11C2F20001486012F045FAC82078
:10821000E0810027384602B0BDE8F081B8F1050FD3
:1082200001D104280DD3B8F1060F01D1032808D3DA
:1082300030785FFA88F7394606F0D0F8002800F069
:10824000F5800127384602B0BDE8F08130785FFA4A
:1082500088F106F0A9F806F0EBFB012006F022FDFC
:10826000022020820027384602B0BDE8F08100BF1E
:10827000C82949D1002006F015FD002006F002FDB6
:1082800006F006FA41F24200C2F20000007888B11E
:1082900041F294657278C2F2000543F2B26101279F
:1082A000C0F60201284643460097FCF70DF8284621
:1082B00017F0ACFD30785FFA88F106F075F806F03B
:1082C000B7FB0A2020822046052107F0D9FB07468C
:1082D000204606F097FF002800F0F480012030725D
:1082E0000B20A4F84A0020460021A4F8488006F09C
:1082F0003FFE384602B0BDE8F08100BF0027384697
:1083000002B0BDE8F08100BF05460809182805D86D
:1083100006F09EFC002841D00120A2E7B1F5C87FFD
:1083200056D1002006F0BEFC002006F0ABFC06F0A3
:10833000AFF941F24200C2F20000007898B141F278
:1083400094657278C2F2000543F2B2614FF0020CFC
:10835000C0F6020128464346CDF800C0FBF7B4FF43
:10836000284617F053FD002F00F0B08030785FFAF8
:1083700088F106F019F806F05BFB0A202082F9B2BA
:10838000204607F07DFB0746204606F03BFF00280D
:1083900000F09880012030720C20A2E712F08AF9D8
:1083A00041F22C11C2F20001886005EB081148600F
:1083B0004FF4C870E08112F06FF90220022506F038
:1083C00071FC25820027384602B0BDE8F08100BF6D
:1083D000C8084A283CD806F047FC00289CD012F078
:1083E00069F941F22C14C2F2000405EB0811E060B7
:1083F0008860002006F056FC002006F043FC06F0E2
:1084000047F941F24100C2F20000007800283FF431
:1084100018AFD4E9022341F29464C2F2000443F29B
:108420001171C0F602012046CBE600BF3078394614
:1084300006F0ACFA00284DD03046414605F0B2FEB9
:10844000322020820127384602B0BDE8F08100BF0B
:10845000002006F027FC002006F014FC06F018F9B6
:1084600041F24200C2F20000007898B141F29465F6
:108470007278C2F2000543F2B2614FF0030CC0F60D
:10848000020128464346CDF800C0FBF71DFF2846F1
:1084900017F0BCFC002F43D030785FFA88F105F06C
:1084A00083FF06F0C5FA0A202082F9B2204607F0C1
:1084B000E7FA0746204606F0A5FE18B10120307203
:1084C0000D200EE7384602B0BDE8F08101270C20F0
:1084D00028E000BF307806F0D5FB68B3307821463D
:1084E00017F036F941F24100C2F20000007878B18D
:1084F00041F294657278C2F2000543F29461C0F6CD
:10850000020128464346FBF7DFFE284617F07EFCB3
:10851000022006F0C7FB3078394605F079FF0FE0FE
:1085200001270D203772A4F84880A4F84A00384685
:1085300002B0BDE8F08100BF2046012106F070FEC8
:1085400005208EE64B4D25632575206F6E20736BDD
:108550006970000041F28C40C2F2000000F050BB94
:108560007047000010B5C48944B3052007F0F6FC3D
:10857000062007F0F3FC16F0C1FE0146372012F08A
:1085800005FC522012F0F2FA12281AD116F0B6FEAB
:108590000146482012F0FAFB5220FF2112F092FB14
:1085A000502012F029FB013081B281424FF050007F
:1085B00018BF012112F0C8FB03E000BF41F288316F
:1085C0000182002C18BF0124204610BDEFF310805B
:1085D00072B600BFFEE7000010B581B00022009225
:1085E00090F82420012A03D10221084601B010BDD1
:1085F0004B680122062B80F8242015D8026803EB73
:108600008303A3F1050E1F23D2F834C003FA0EF43E
:108610000B682CEA040C03FA0EF444EA0C045463CD
:10862000092B17D937E000BF02680C2B20D803EBC9
:108630008303A3F123041F23D2F830C003FA04FEFE
:108640000B682CEA0E0C03FA04F444EA0C041463DD
:10865000092B20D8D2F810C003EB43030724896804
:108660009C402CEA0404994021431161002136E02A
:1086700003EB8303A3F141041F23D2F82CC003FAB8
:1086800004FE0B682CEA0E0C03FA04F444EA0C0412
:10869000D462092BDED903EB4304D2F80CC0A4F159
:1086A0001E0E0724896804FA0EF42CEA040401FA69
:1086B0000EF1214323F00104102CD1600ED142F2BF
:1086C0000841C4F20101A1F10804A2420ED0816A5E
:1086D00041F020018162012101E000BF0021002260
:1086E00080F82420084601B010BD00BF0A681202BD
:1086F00030D40A68102B42F400020A602CD140F2F8
:10870000C801C2F2000109684DF68362C4F21B324F
:10871000A1FB0212910C01EB81014900009100992B
:10872000E1B10099013900910099C9B1009901396D
:1087300000910099B1B1009901390091009999B166
:10874000009901390091009900294FF00001E8D10A
:10875000C5E700BF0021C2E70021C0E70021BEE756
:108760000021BCE70021BAE70021B8E7006842F227
:108770000041C4F20101884218BF704741F28430C1
:10878000C2F2000001210170704700007047000034
:1087900070470000B0B5002800F0B2800446806A3F
:1087A00020B121688868C0070BD114E00020E06286
:1087B00084F82400204600F0A5F821688868C007E6
:1087C00009D0886820F00100886000F011FD216860
:1087D0008A68D20730D1A06AC00644D4A06A41F2A8
:1087E000021290430230A062E36981F0804080F47D
:1087F0009E3083F44022104308BF4FF40023D4E995
:10880000010243EA000C531EB3FA83F35D091346D9
:10881000B2F5807F18BF2B02207D257B01284CEA12
:10882000450030D135B3A56A45F02005A562E56A5B
:1088300045F00105E56226E0054602E08868C007CC
:10884000C9D000F0D5FC401B21680328F6D3886806
:10885000C007F3D0A06A40F01000A062E06A40F0C8
:108860000100E062A06AA06A40F01000A06201204E
:10887000B0BD00BFD4F818C04EF60005CFF6FF75A6
:1088800005EB4C352B434D68B2F5807F25F46945E7
:1088900043EA05034B608B684FF2FD75CFF6E17537
:1088A00003EA050343EA00038B6001D0012A07D1E4
:1088B00022690023CFF6F07303EB025201E000BF00
:1088C0000022CB6A23F470031A43CA62896840F617
:1088D000FE62CFF61F721140814207D10020E06294
:1088E000A16A012262F30101A162B0BDA06A40F059
:1088F000100020F00200A062E06A40F00100E06297
:108900000120B0BDB0B582B00446006842F200411B
:10891000C4F20101884201D002B0B0BD41F218009A
:10892000C4F20200016841F28C4541F4007101601B
:108930000068C2F2000500F4007001900198082060
:10894000C4F202000021C5E9000105F108008022FF
:108950004FF480734FF4806C80E80E102846C5E910
:10896000061100F099FA002818BFFFF72FFE2562C4
:108970006C6202B0B0BD000070B5154604460068D8
:1089800042F60002C4F2010290420E4605D042F2C5
:108990000041C4F20101884209D142F20440C4F20C
:1089A0000100006810F4702F1CBF012070BD94F806
:1089B0002400012804BF022070BD012084F8240097
:1089C0002046FDF7D7FC18B1002184F8241070BDB3
:1089D00042F204402168A26AC4F2010040F6017329
:1089E0009A4300F57F7302F580729942A26243D0E8
:1089F000A06A20F48010A0624868400504D5A06AEF
:108A0000012262F30D30A062A26A0020D2044FF06E
:108A1000000244BFE26A22F00602E26284F8240007
:108A2000206A46F20132C0F6000246F26D3346F289
:108A3000553C00F1280EC0F60003C0F6000C8EE88D
:108A40000C106FF002020A608A682B4642F48072B2
:108A50008A604C31324600F067FA2068816801F480
:108A600060228168B2F5602F0CBF41F4A00141F48F
:108A700080118160002070BD026812F4702FB7D0A1
:108A8000A26A42F48012A26200684005BCD5B6E733
:108A9000014690F82100022816D10868D1E90FC3D9
:108AA000026822F00E020260026822F001020260F7
:108AB000012000FA03F2CCF8042081F82100002004
:108AC000002281F8202070470420886301200022C2
:108AD00081F820207047000080B590F8211002290D
:108AE00028D1026840F2040C1368C4F2020C23F08F
:108AF0000E03136013680CF17C018A4223F001011C
:108B000011601BD940F20841C4F202018A4249D0E7
:108B100040F21C41C4F202018A4247D040F2304187
:108B2000C4F202018A4245D14FF48073CCF800347C
:108B30005DE000BF04218163012080BD4321C4F2B8
:108B400002018A420EDD6B21C4F202018A421BDC63
:108B50004421C4F202018A423CD05821C4F20201ED
:108B60008A4233E00821C4F202018A4236D01C2135
:108B7000C4F202018A4237D03021C4F202018A4293
:108B800024D14FF4807230E06C21C4F202018A4299
:108B900026D08021C4F202018A4217D14FF08072A0
:108BA00023E000BF0123CCF8003420E01023CCF8F0
:108BB00000341CE00CF588614FF480338A4208BF12
:108BC0004FF48053CCF8003411E000BF4FF48032F2
:108BD0000BE000BF4FF4805207E000BF012204E029
:108BE0004FF4801201E000BF1022CCF80020416B4E
:108BF0004FF48072028401B18847002080BD0000DC
:108C000010B5D0E90FE3D0F800C0DEF80020DCF8A2
:108C10000010DA4054072DD511F004042AD0DCF8F6
:108C20000010890605D4DCF8001021F00401CCF80E
:108C300000100422C4F2020202F17C018C454DD9DD
:108C400040F20841C4F202018C4500F0AF8040F2CE
:108C50001C41C4F202018C4500F0AC8040F230416E
:108C6000C4F202018C4540F0A9804FF48061C2F843
:108C70000014F7E0940747D511F0020444D0DCF863
:108C80000010890608D4DCF8001021F00A01CCF8A5
:108C90000010012180F821100422C4F2020202F126
:108CA0007C018C454CD940F20841C4F202018C454C
:108CB00000F0B48040F21C41C4F202018C4500F087
:108CC000B18040F23041C4F202018C4540F0AE80E8
:108CD0004FF40071C2F80014D6E000BF4321C4F283
:108CE00002018C4542DD6B21C4F202018C454FDC50
:108CF0004421C4F202018C4500F0A4805821C4F242
:108D000002018C4566E000BF120740F1C38011F0FC
:108D1000080108BF10BDDCF8001021F00E01CCF8EE
:108D20000010012101FA03F2CEF804208163016BE7
:108D30004FF480720029028440F09680AAE000BFC0
:108D40004321C4F202018C4548DD6B21C4F20201CB
:108D50008C4555DC4421C4F202018C4500F088802A
:108D60005821C4F202018C4576E000BF0821C4F20C
:108D700002018C456AD01C21C4F202018C456FD0DF
:108D80003021C4F202018C4524D14FF4806168E0A7
:108D90006C21C4F202018C455AD08021C4F2020138
:108DA0008C4517D14FF080615BE000BF0421C2F811
:108DB000001457E04021C2F8001453E002F5886324
:108DC0004FF480219C4508BF4FF48041C2F8001445
:108DD00048E000BF4FF4802143E000BF0821C4F207
:108DE00002018C4548D01C21C4F202018C4549D0B7
:108DF0003021C4F202018C452ED14FF4007142E0C3
:108E00006C21C4F202018C4538D08021C4F20201E9
:108E10008C4521D14FF0007135E000BF0221C2F82E
:108E2000001431E02021C2F800142DE002F588631F
:108E30004FF400319C4508BF4FF40051C2F80014B4
:108E400022E000BF4FF480410BE000BF042108E0A6
:108E50004FF4800105E000BF4FF4003113E000BF84
:108E600040211160C16AA9B1BDE81040084700BFA8
:108E70004FF4005107E000BF022104E04FF400115D
:108E800001E000BF20211160816A0022002980F8E2
:108E90002020E9D110BD0000002804BF0120704748
:108EA0002DE9F04140F2000CC4F2020C01684FF6CB
:108EB000F8320CF58163CBF6FD72994238BF02F5AA
:108EC00080624CF6CD430A44CCF6CC43A2FB03238C
:108ED0006FF003050CF5806405EA9303D0E9012ED9
:108EE000D0F80C803CBF0024C4F20204C0E90F4358
:108EF0000B6843F6F075AB431A43D0E9045442EAD9
:108F00000E0242EA0802D0E906672A4322433243AE
:108F10003A430A6000214FF4807281630284BDE805
:108F2000F041084670470000F0B590F820C0BCF151
:108F3000010F32D090F821C04FF0010EBCF1010FAB
:108F400080F820E026D14FF0020C80F821C04FF0CD
:108F5000000CC0F838C0D0E900C4C56AC66BDCF8A4
:108F60000070102C27F00107CCF80070006C0EFA8E
:108F700000F070600846CCF8043004BF10460A4682
:108F8000CCF80800CCF80C20DCF8000045B140F02B
:108F90000E000DE0002180F820100220F0BD00BF7F
:108FA00020F00400CCF80000DCF8000040F00A00DB
:108FB000CCF80000DCF8000040F00100CCF8000024
:108FC0000020F0BD2DE9F04F83B041F60043C4F21C
:108FD00001030E6806229842019008BF0522002E68
:108FE000009200F0ED80019840F20C45A0F1804322
:108FF000A3F584334FEAB32740F200404FF6FF73E6
:10900000C4F20105C4F20100009A4FF0000E4FF0C7
:10901000010CC1F210034FF0000A4FF0000B4FF0AB
:109020000F08052F38BF3A46009208E00E680AF193
:10903000010A36FA0AF20EF1040E00F0C1800CFAB1
:109040000AF916EA090FF1D04E689E4212DC122E80
:1090500056D8DFE806F0350B454955555555555559
:10906000555555555555554D510000BFD1F80CB0CB
:1090700046E000BF4FF6FF72C1F2210296420FDCBC
:109080000022C1F2110296421AD00022C1F212024D
:10909000964215D00022C1F22102964210D02FE054
:1090A0000022C1F2220296420AD00022C1F231020D
:1090B000964205D00022C1F23202964220D100BF72
:1090C0008E684EB1012E019A14BFC2F81490C2F8F6
:1090D00010904FF0080B13E04FF0040B10E000BFAE
:1090E000CF6807F1080B0BE04FF0000B08E000BF62
:1090F000CF6807F1040B03E0CF6807F10C0B00BF4A
:109100007446BAF1080F28BF203C019F28BF0437DE
:109110003E6808FA04F226EA02020BFA04F6324329
:109120003A60CA79D2067FF581AF41F21807C4F2DE
:1091300002073A684FF6084C42F001023A603A687A
:10914000CFF6FF7C02F001020292029A2AF003029B
:10915000024452F80C700EF00C0608FA06F4A7430D
:10916000009C04FA06F6374342F80C70D1F804C0AC
:109170005FEACC32026854BF22EA090642EA0906D5
:109180005FEA8C320660426854BF22EA090642EA6E
:1091900009065FEACC224660826854BF22EA0906CB
:1091A00042EA09065FEA8C2286604FF0010C2A68C9
:1091B00054BF22EA090642EA09062E6036E700BFDC
:1091C00003B0BDE8F08F00008068084018BF0120A0
:1091D00070470000C26802EA0103914341EA03417B
:1091E00001617047002A08BF09040161704700004F
:1091F00042F25420C2F200000068704770B5B8B364
:10920000044690F83D0028B9002084F83C00204630
:1092100000F0BAFB242084F83D002068016821F0AA
:1092200001010160016841F400410160016821F41D
:109230000041016000F082FE48F28041C0F21E0150
:1092400040F60013D4F804E088424FF00001C0F269
:109250003D0348F2A16C4FF0000238BF0121984253
:10926000C0F2010C38BF0122E64538BF0A460AB1F8
:10927000012070BD4DF68361C4F21B31A0FB0112C9
:109280002168950C4B684FF4967623F03F0343EA30
:109290009243754344F6D3564B60C1F262060B6AA3
:1092A000A5FB0656B50923F03F03E64538BF950CEC
:1092B0006A1C1A430A62CA6948F2A0664CF6FF7338
:1092C000C0F20106B64522EA03020BD801384FEA84
:1092D0004E03B0FBF3F001306FF31F30042898BF4A
:1092E00004201EE0A368013863B119230EFB03F3C9
:1092F000B0FBF3F001306FF31F3078B100F5804020
:1093000008E000BF0EEB4E03B0FBF3F001306FF34B
:109310001F3028B100F5004003E000BF012000E04D
:1093200001201043C8610868D4E9072320F0C00079
:10933000104318430860886848F2FF3204F10C06B5
:1093400090434CCE18431043A5698860C86820F04C
:10935000FF0030432843C860086840F001000860FF
:1093600000202021206484F83D10206384F83E0012
:1093700070BD00002DE9F04F85B0044600201E4668
:1093800017460D460490FFF733FF94F83D1020294F
:1093900023D1804620688169890719D5FFF728FF06
:1093A000A0EB08001928F5D900202021206384F8BB
:1093B0003D1084F83E00206C04F13C0940F0200090
:1093C00020640220002189F8001005B0BDE8F08F6C
:1093D000A14619F83C1F012904D1022005B0BDE8BF
:1093E000F08F00BF012289F800200368DDE90F1A21
:1093F0000E9ADB0703D1036843F00103036003689F
:1094000023F400630360222084F83D00402084F8A8
:109410003E000020206462626185608D29462085BF
:109420000020CFF6FF70E06220463A463346CDF882
:1094300000A0CDF8048002F0BDFA18B1012005B0FB
:10944000BDE8F08F208D022810D0012824D00028FC
:1094500038D100200390206841690391816903910C
:109460000399016841F40071016037E020680168E8
:1094700041F400610160EFF3108072B600200390A8
:10948000206841690391816903910399016821F47E
:109490008061016062B621E02068016821F480618A
:1094A0000160EFF3108072B60020039020684169DC
:1094B0000391816903910399016841F4007101608E
:1094C00062B60BE02068016841F480610160002110
:1094D000039141690391806903900398208D0028CE
:1094E00000F0238140F2C80B4BF289570AF10105C5
:1094F000C2F2000BC1F2F847232680B2032819D824
:10950000022845D001286FD1BAF1000F00F0FA808F
:109510002068014651F8142F520600F1F7800868C0
:10952000C00600F12F81FFF763FEA0EB0800504555
:10953000EED91CE1BAF1000F12D000BF206801463D
:1095400051F8142F520610D40868C00600F11A8191
:10955000FFF74EFEA0EB08005045EFD907E100BF32
:1095600020684169490640F1FB800069616A087022
:10957000606A2268411C208D616201382085638DFC
:10958000013B638553695B0740F1CC801069BFE004
:1095900020684169490711D4002D00F09380BAF189
:1095A000000F00F0E280FFF723FEA0EB080050451B
:1095B00000F2DD80206840694007F4D5EFF31080A9
:1095C00072B62068616A026842F400720260006943
:1095D0000870606A218D01306062481E2085608DB0
:1095E0000138608562B668E020684169490710D497
:1095F000002D77D0BAF1000F00F0B780FFF7F8FD2B
:10960000A0EB0800504500F2B2802068416949078C
:10961000F4D5016821F480610160EFF3108072B627
:109620002068616A00690870606A218D0130013923
:1096300060622185618D01396185DBF80010C90800
:10964000A1FB0712110A7143049104990139049195
:109650000499002976D021684A6952071DD40499DB
:1096600001390491049900296CD021684A69520794
:1096700013D40499013904910499002962D0216816
:109680004A69520709D404990139049104990029BF
:1096900058D021684A695207D7D50A6842F4007247
:1096A0000A6009690170606A218D01306062481E9C
:1096B0002085608D0138608562B62068616A006926
:1096C00026E000BF416949073FF578AF4169490786
:1096D0005CBF41695FEA41713FF570AF416949077D
:1096E000F0D56BE74169490793D4416949075CBFED
:1096F00041695FEA41713FF58CAF41694907F1D596
:1097000087E700BF20684169490629D50069616A79
:109710000870606A218D01306062481E2085618D6D
:109720000139618501047FF4E8AE202084F83D0012
:10973000002084F83E00002189F8001005B0BDE843
:10974000F08F00BF00202021206384F83D1084F8B2
:109750003E00206C40F02000206462B61EE000BF96
:1097600050F8141FC90601460CD4FFF741FD002034
:109770002021206384F83D1084F83E00206C40F0E6
:1097800020000AE06FF01000086000202021206314
:1097900084F83D1084F83E00206C206401200021F4
:1097A00089F8001005B0BDE8F08F00002DE9F04306
:1097B00083B0994616460F460446FFF719FD94F804
:1097C0003D1020291CD1054620688169890713D5E1
:1097D000FFF70EFD401B1928F6D900202021206339
:1097E00084F83D1084F83E00216C41F02001216492
:1097F00084F83C0004E000BF94F83C10012903D138
:10980000022003B0BDE8F083012284F83C20036805
:10981000DDE90B180A9ADB0703D1036843F0010363
:109820000360036823F400630360212084F83D0093
:10983000402084F83E000020206462626185608DD3
:10984000394620850020CFF6FF70E0622046324680
:109850004B46CDF80080019502F03CFA20B1012082
:1098600003B0BDE8F08300BF208D002850D02068F1
:1098700008F10106014651F8142F12062CD49EB1AE
:10988000B8F1000F5AD000BF086840055ED4FFF75A
:10989000AFFC401B404556D82068014651F8142FB4
:1098A0001206F1D518E000BF0A6852054ED40A68C6
:1098B000120611D40A68520548D40A6812060BD45D
:1098C0000A68520542D40A68120605D40A6852058D
:1098D0003CD40A681206E7D5626A114611F8013BCA
:1098E0000361238D6162591E2185678D013F678564
:1098F00047697F070AD50F0408D051780161911C90
:109900006162991E2185628D013A62850904B1D197
:10991000204641462A4602F017FB38BB2068016802
:1099200041F400710160202084F83D00002084F89B
:109930003E0084F83C0003B0BDE8F08308684005B1
:1099400004D4FFF755FC202004E000BF6FF48060D2
:109950000860042000212022216384F83D2084F83F
:109960003E10226C1043206484F83C10206C0428C4
:109970007FF475AF2068016841F400710160012037
:1099800003B0BDE8F083000010B586B045F60001D5
:109990000068C4F2000100228842049202D006B09E
:1099A00010BD00BF41F21804C4F20204206840F068
:1099B00008002060206800F00800019001984FF432
:1099C00040600290122003900320059001F534407E
:1099D00002A9FFF7F7FA606840F4800060606068F1
:1099E00000F480000190019806B010BD40F27C00A8
:1099F00042F25421C2F20000C2F2000100780A686B
:109A0000104408607047000080B542F20000C4F2C4
:109A10000200016841F010010160032000F08AF8A3
:109A20000F2000F005F800F027F8002080BD0000AE
:109A300070B540F27C06C2F2000640F2C8013278EE
:109A4000C2F200014FF47A730968B3FBF2F20446E4
:109A5000B1FBF2F1084601F011F80F2C4FF00105AF
:109A600008D838B94FF0FF3021460022002500F019
:109A700035F87460284670BD82B041F21800C4F217
:109A800002000168022241F001010160016801F059
:109A9000010101910199416841F0805141604068A4
:109AA00000F08050009000980420C4F2010001688A
:109AB00062F31A61016002B070470000002848BFDD
:109AC000704700F01F01012202FA01F14EF200126C
:109AD0004009CEF2000242F82010704710B54EF651
