:020000040800F2
:1000000050070020CD01000811270008351E000808
:100010000D270008910300083127000800000000A8
:100020000000000000000000000000001927000888
:100030009503000800000000152700081D27000890
:10004000E7010008E7010008E7010008E7010008F0
:10005000E7010008E7010008E7010008E7010008E0
:10006000E7010008E7010008E7010008E7010008D0
:10007000E7010008E7010008E7010008E7010008C0
:10008000E7010008E7010008E7010008E7010008B0
:10009000E7010008E7010008E7010008E7010008A0
:1000A000E701000825270008E7010008E70100082C
:1000B000E7010008E7010008E7010008E701000880
:1000C000E7010008E7010008E7010008E701000870
:1000D000E7010008E7010008E7010008E701000860
:1000E000E7010008E7010008E7010008E701000850
:1000F000E7010008E7010008E7010008E701000840
:10010000E7010008E7010008E7010008E70100082F
:10011000E7010008E7010008E7010008E70100081F
:10012000E7010008E7010008E7010008E70100080F
:1001300000F002F800F03AF80AA090E8000C8244BF
:100140008344AAF10107DA4501D100F02FF8AFF29C
:10015000090EBAE80F0013F0010F18BFFB1A43F0A5
:10016000010318478C370000AC370000103A24BF59
:1001700078C878C1FAD8520724BF30C830C144BF0C
:1001800004680C607047000000230024002500264E
:10019000103A28BF78C1FBD8520728BF30C148BFEA
:1001A0000B6070471FB51FBD10B510BD00F036F8CD
:1001B0001146FFF7F7FF02F0F1FB00F054F803B42B
:1001C000FFF7F2FF03BC00F057F800000948804732
:1001D00009480047FEE7FEE7FEE7FEE7FEE7FEE729
:1001E000FEE7FEE7FEE7FEE704480549054A064B41
:1001F000704700002127000831010008500100204D
:100200005007002050030020500300207047704723
:100210007047000000487047100000207546FFF747
:10022000F9FFAE4605006946534620F007008546B3
:1002300018B020B5FFF7D8FFBDE820404FF000060A
:100240004FF000074FF000084FF0000BAC46ACE851
:10025000C009ACE8C009ACE8C009ACE8C00921F0AD
:1002600007018D46704710B50446AFF30080204665
:10027000BDE81040FFF7A3BF01491820ABBEFEE761
:100280002600020070470000EFF31480C00700D082
:1002900000DF40F27000C2F200004EF2100600F1E2
:1002A00014044EF60455CEF200064FF0FF372046F8
:1002B000CEF20005C6F87071C6F87471C6F8787190
:1002C000C6F87C71C6F88071C6F88471C6F888716A
:1002D000C6F88C7101F0F6FB204601F08BFA40F273
:1002E000D400C2F2000000F057FB40F60044C4F214
:1002F000010420464FF4004100F0BEF920460421DD
:1003000000F0BAF941F21800C4F20200016821F0CD
:1003100008010160016821F004010160016821F019
:100320002001016000F0A8F80020C6F87072C6F83D
:100330007472C6F87872C6F87C72C6F88072C6F815
:100340008472C6F88872C6F88C723060286840F0F3
:1003500000702860286A20F4E0202862EFF31480FF
:10036000800709D5EFF3098080F30888EFF3148044
:1003700020F0020080F3148844F20000C0F6000070
:10038000686003C800F000F880F3088808470000A0
:10039000FEE700007047000070B542F20C0604460C
:1003A000C4F2020600F0F2FA3168C90718D13068C9
:1003B000800644BF202030603068C00607D4306912
:1003C000C00704D1306840075CBF002070BD3068B2
:1003D000C00623D40020316849072BD434E000BF85
:1003E000002C47D00546601C0ED13068C007DED017
:1003F0003068C0071CBF30685FEAC070D7D0306873
:10040000C007F2D1D3E700BF00F0C0FA401BA04202
:1004100030D83068C007F7D1C9E700BF40F22810D4
:10042000C2F20000C16941F00201C16110203168CF
:10043000490709D540F22811C2F20001CA6940F00B
:10044000040042F00102CA613169C90702D130607B
:10045000012070BD40F22811C2F20001CA6942F0C9
:100460000402CA61316921F001013161306001206B
:1004700070BD00BF032070BD80B541F20C00C4F216
:1004800002004FF0FF310022016042600160026013
:1004900000F00EFE002080BD2DE9F04381B040F257
:1004A0002816C2F20006327E012A03D1022001B0D2
:1004B000BDE8F083054601202C6830764CF25030C0
:1004C0008846FFF769FF022C1CD100284ED100207E
:1004D00042F21004F061C4F20204206840F004000B
:1004E0002060206840F0400020604CF25030FFF760
:1004F00053FF216821F0040121600021317601B011
:10050000BDE8F08390BB4FF0FF30C8F80000D5E99C
:10051000027007EBC020874228D242F21004C4F2D6
:1005200002044FF0000900BFC6F81C90206840F09C
:10053000020020606760206840F0400020604CF2BC
:100540005030FFF729FF216821F00201216098B99E
:10055000D5E9020107F5006700EBC1208742E3D32C
:1005600000200021317601B0BDE8F0830120002198
:10057000317601B0BDE8F083C8F800700021317613
:1005800001B0BDE8F083000042F21001C4F20201A4
:10059000086840F0800200200A6070472DE9F04FA3
:1005A00081B040F22819C2F20009924699F8182049
:1005B000012A03D1022001B0BDE8F08F804601205E
:1005C00089F818004CF250309B460E46FFF7E4FEC7
:1005D000A0BB404642F21007B8F1020F18BF04203A
:1005E000C4F20207B8F1010F08BF404645424FF080
:1005F00000080024C4F12001C9F81C802AFA04F084
:100600000BFA01F13A680843B4F1200158BF2BFA04
:1006100001F042F00101396026F8020B4CF2503033
:10062000FFF7BAFE3968013521F0010248F10001F7
:100630003A6018B9002904F11004DBD0002189F8D0
:10064000181001B0BDE8F08F42F20400C4F20200BD
:10065000C16809065CBF0020704740F22311C4F254
:100660006751016048F6AB11CCF6EF510160C068EC
:10067000C0B2C009704700002DE9F04F41F60042BA
:10068000C4F201024FF0060A904208BF4FF0050A7B
:10069000002908BFBDE8F08FA0F18042A2F58432A6
:1006A00040F2004B4FEAB222C4F2010B6FF01F047C
:1006B0000127052A38BF924639E000BF53F82920A8
:1006C00022EA0C0243F82920DBF800206FEA050C2F
:1006D000AA43CBF80020DBF80420AA43CBF804207F
:1006E000DBF80820AA43CBF8082040F20C42C4F201
:1006F00001021368AB4313600346B5F5807F24BF46
:10070000264604331D680F22B24025EA0202042562
:1007100005FA06F632431A60C26802EA0C02C260A9
:1007200031FA07F207F1010704F104041CD07A1E24
:100730000123934013EA0105F2D04FEA9209ABF589
:100740007E7304F1200653F8298006F00C0E0F2268
:1007500002FA0EFC08EA0C080AFA0EF29045ADD037
:100760006FEA050CC8E700BFBDE8F08F2DE9F04F38
:1007700083B041F60043C4F201030E68062298429A
:10078000019008BF0522002E009200F0ED80019834
:1007900040F20C45A0F18043A3F584334FEAB32720
:1007A00040F200404FF6FF73C4F20105C4F20100AD
:1007B000009A4FF0000E4FF0010CC1F210034FF001
:1007C000000A4FF0000B4FF00F08052F38BF3A46D4
:1007D000009208E00E680AF1010A36FA0AF20EF1F8
:1007E000040E00F0C1800CFA0AF916EA090FF1D0E4
:1007F0004E689E4212DC122E56D8DFE806F0350B0A
:100800004549555555555555555555555555554DBC
:10081000510000BFD1F80CB046E000BF4FF6FF72A8
:10082000C1F2210296420FDC0022C1F2110296426F
:100830001AD00022C1F21202964215D00022C1F253
:100840002102964210D02FE00022C1F222029642ED
:100850000AD00022C1F23102964205D00022C1F234
:100860003202964220D100BF8E684EB1012E019A0D
:1008700014BFC2F81490C2F810904FF0080B13E0A8
:100880004FF0040B10E000BFCF6807F1080B0BE03E
:100890004FF0000B08E000BFCF6807F1040B03E046
:1008A000CF6807F10C0B00BF7446BAF1080F28BFE0
:1008B000203C019F28BF04373E6808FA04F226EA6C
:1008C00002020BFA04F632433A60CA79D2067FF587
:1008D00081AF41F21807C4F202073A684FF6084C9C
:1008E00042F001023A603A68CFF6FF7C02F0010262
:1008F0000292029A2AF00302024452F80C700EF09F
:100900000C0608FA06F4A743009C04FA06F63743DF
:1009100042F80C70D1F804C05FEACC32026854BFD0
:1009200022EA090642EA09065FEA8C32066042685A
:1009300054BF22EA090642EA09065FEACC22466071
:10094000826854BF22EA090642EA09065FEA8C225D
:1009500086604FF0010C2A6854BF22EA090642EA79
:1009600009062E6036E700BF03B0BDE8F08F000037
:10097000C26802EA0103914341EA03410161704701
:10098000002A08BF090401617047000040F24810C6
:10099000C2F2000000687047002804BF01207047C1
:1009A00010B50446242084F83D002068016821F039
:1009B00001010160204600F015FB0020206484F84E
:1009C0003D00206384F83E0084F83C0010BD000028
:1009D0002DE9F04F85B0044600201E4617460D460F
:1009E0000490FFF7D3FF94F83D10202923D18046CF
:1009F00020688169890719D5FFF7C8FFA0EB0800B7
:100A00001928F5D900202021206384F83D1084F8AE
:100A10003E00206C04F13C0940F0200020640220DC
:100A2000002189F8001005B0BDE8F08FA14619F843
:100A30003C1F012904D1022005B0BDE8F08F00BFA2
:100A4000012289F800200368DDE90F1A0E9ADB07FE
:100A500003D1036843F001030360036823F40063D8
:100A60000360222084F83D00402084F83E000020EE
:100A7000206462626185608D294620850020CFF662
:100A8000FF70E06220463A463346CDF800A0CDF82C
:100A9000048001F0D1F918B1012005B0BDE8F08F54
:100AA000208D022810D0012824D0002838D1002021
:100AB000039020684169039181690391039901685A
:100AC00041F40071016037E02068016841F4006181
:100AD0000160EFF3108072B6002003902068416936
:100AE0000391816903910399016821F48061016098
:100AF00062B621E02068016821F480610160EFF3B3
:100B0000108072B6002003902068416903918169CA
:100B100003910399016841F40071016062B60BE032
:100B20002068016841F480610160002103914169FE
:100B30000391806903900398208D002800F02381A1
:100B400040F2080B4BF289570AF10105C2F2000B83
:100B5000C1F2F847232680B2032819D8022845D0CD
:100B600001286FD1BAF1000F00F0FA802068014629
:100B700051F8142F520600F1F7800868C00600F102
:100B80002F81FFF703FFA0EB08005045EED91CE1D1
:100B9000BAF1000F12D000BF2068014651F8142F9F
:100BA000520610D40868C00600F11A81FFF7EEFE65
:100BB000A0EB08005045EFD907E100BF206841696C
:100BC000490640F1FB800069616A0870606A22682A
:100BD000411C208D616201382085638D013B638556
:100BE00053695B0740F1CC801069BFE02068416920
:100BF000490711D4002D00F09380BAF1000F00F0E6
:100C0000E280FFF7C3FEA0EB0800504500F2DD8054
:100C1000206840694007F4D5EFF3108072B6206871
:100C2000616A026842F40072026000690870606ADA
:100C3000218D01306062481E2085608D01386085FD
:100C400062B668E020684169490710D4002D77D06A
:100C5000BAF1000F00F0B780FFF798FEA0EB080094
:100C6000504500F2B280206841694907F4D5016817
:100C700021F480610160EFF3108072B62068616A30
:100C800000690870606A218D013001396062218538
:100C9000618D01396185DBF80010C908A1FB0712DD
:100CA000110A7143049104990139049104990029AE
:100CB00076D021684A6952071DD4049901390491FC
:100CC000049900296CD021684A69520713D4049909
:100CD000013904910499002962D021684A695207B8
:100CE00009D40499013904910499002958D0216844
:100CF0004A695207D7D50A6842F400720A60096946
:100D00000170606A218D01306062481E2085608D0F
:100D10000138608562B62068616A006926E000BF1C
:100D2000416949073FF578AF416949075CBF4169AF
:100D30005FEA41713FF570AF41694907F0D56BE754
:100D40004169490793D4416949075CBF41695FEA3A
:100D500041713FF58CAF41694907F1D587E700BF85
:100D600020684169490629D50069616A0870606A8E
:100D7000218D01306062481E2085618D01396185B9
:100D800001047FF4E8AE202084F83D00002084F8C0
:100D90003E00002189F8001005B0BDE8F08F00BFCB
:100DA00000202021206384F83D1084F83E00206C50
:100DB00040F02000206462B61EE000BF50F8141F0F
:100DC000C90601460CD4FFF7E1FD00202021206375
:100DD00084F83D1084F83E00206C40F020000AE0CA
:100DE0006FF01000086000202021206384F83D107F
:100DF00084F83E00206C20640120002189F8001056
:100E000005B0BDE8F08F00002DE9F04383B09946AE
:100E100016460F460446FFF7B9FD94F83D10202909
:100E20001CD1054620688169890713D5FFF7AEFDFF
:100E3000401B1928F6D900202021206384F83D109A
:100E400084F83E00216C41F02001216484F83C00CC
:100E500004E000BF94F83C10012903D1022003B044
:100E6000BDE8F083012284F83C200368DDE90B181B
:100E70000A9ADB0703D1036843F0010303600368A8
:100E800023F400630360212084F83D00402084F8AF
:100E90003E000020206462626185608D39462085B5
:100EA0000020CFF6FF70E062204632464B46CDF878
:100EB0000080019501F050F920B1012003B0BDE898
:100EC000F08300BF208D002850D0206808F1010673
:100ED000014651F8142F12062CD49EB1B8F1000F20
:100EE0005AD000BF086840055ED4FFF74FFD401B95
:100EF000404556D82068014651F8142F1206F1D506
:100F000018E000BF0A6852054ED40A68120611D4D0
:100F10000A68520548D40A6812060BD40A685205BA
:100F200042D40A68120605D40A6852053CD40A68FD
:100F30001206E7D5626A114611F8013B0361238D61
:100F40006162591E2185678D013F678547697F076B
:100F50000AD50F0408D051780161911C6162991E75
:100F60002185628D013A62850904B1D1204641464E
:100F70002A4601F02BFA38BB2068016841F4007161
:100F80000160202084F83D00002084F83E0084F8B1
:100F90003C0003B0BDE8F0830868400504D4FFF7C7
:100FA000F5FC202004E000BF6FF48060086004209E
:100FB00000212022216384F83D2084F83E10226C19
:100FC0001043206484F83C10206C04287FF475AF33
:100FD0002068016841F400710160012003B0BDE8A0
:100FE000F083000010B540F60044C4F2010400682C
:100FF000A4F53441884218BF10BD41F21C00C4F270
:101000000200016821F48001016020464FF48061F4
:10101000FFF732FB20464FF40061BDE81040FFF7B8
:101020002BBB000040F2000040F24811C2F2000069
:10103000C2F2000100780A6810440860704700009E
:1010400080B542F20000C4F20200016841F01001D4
:101050000160032000F0A0F80F2000F005F800F078
:1010600029F8002080BD000070B540F20006C2F2F1
:10107000000640F208013278C2F200014FF47A73A0
:101080000968B3FBF2F20446B1FBF2F1084600F046
:101090004DFB0F2C4FF0010508D838B94FF0FF3049
:1010A00021460022002500F04BF87460284670BDF0
:1010B0007047000082B041F21800C4F202000168DB
:1010C000022241F001010160016801F0010101917A
:1010D0000199416841F080514160406800F08050C2
:1010E000009000980420C4F20100016862F31A61C4
:1010F000016002B070470000002848BF704700F050
:101100001F01012202FA01F14EF280124009CEF2D3
:10111000000242F82010BFF34F8FBFF36F8F70476C
:10112000002848BF704700F01F01012202FA01F1B8
:101130004EF200124009CEF2000242F82010704731
:1011400010B54EF60C5CCEF2000CDCF80030C3F3A8
:10115000022E8EF00704042C28BF0424BEF10303E2
:101160004FF0FF3E0EFA04F438BF0023A14399402C
:101170000EFA03F39A43114300F00F02043A62445B
:1011800009010C3200F16043B0F1FF3FC8BF03F525
:101190006442117010BD00004EF60C51CEF20001F9
:1011A0000A684FF6FF031A4060F30A2242F080609B
:1011B00040F0FD70086070472DE9F04381B00028D1
:1011C00000F0858042F20008C4F202080446D8F814
:1011D00000000D4600F0070088420CD2D8F800004D
:1011E00020F007002843C8F80000D8F8000000F0FD
:1011F0000700A8426BD1206841F204098107C4F2BC
:10120000020917D5410705D5D9F8001041F4E0616E
:10121000C9F80010010705D5D9F8001041F4605154
:10122000C9F80010D9F80010A26821F0F0011143AC
:10123000C9F80010C00741D1D8F8000000F007003D
:10124000A8420CD9D8F8000020F007002843C8F8BD
:101250000000D8F8000000F00700A84237D120684D
:10126000410707D5D9F80010E26821F4E061114385
:10127000C9F80010000708D5D9F80000216920F44A
:10128000605040EAC100C9F80000D9F8002002F01F
:101290000C00082841F20020C0F27A0050D143F639
:1012A000DE03C2F38341C0F60003595CD2033BD492
:1012B00040F60010C0F23D00484341E0606802285B
:1012C0000AD001282AD159F8041C890308D4012026
:1012D00001B0BDE8F08300BF59F8041C8901F6D5C0
:1012E000D9F8001021F003010843C9F80000FFF706
:1012F0004DFB064641F28837D9F80000616800F0DE
:101300000C00B0EB810F97D0FFF740FB801BB84279
:10131000F2D9032001B0BDE8F08300BF59F8041CE6
:101320008907D4D5DCE700BFD9F8002043F6CC0309
:10133000C2F34042C0F600039A5C4843B0FBF2F0AF
:10134000D9F8001043F6CE02C1F30311C0F6000233
:10135000515C40F2080220FA01F140F20400C2F2AE
:1013600000000068C2F200021160FFF77DFE00205D
:1013700001B0BDE8F08300002DE9F04182B0002803
:1013800068D00446007841F20006C007C4F20206A5
:1013900025D0706800F00C0004281BD0706800F0A5
:1013A0000C00082802D17068C00313D460680028BC
:1013B00000F06881B0F5A02F00F07C81B0F5803F8F
:1013C00000F07C81306820F480303060306820F498
:1013D000802076E13068800301D56068D0B3207842
:1013E000800718D5706810F00C0F07D0706800F0F7
:1013F0000C0008286ED17068C0036BD43068800779
:1014000002D52069012825D13068616920F0F800F3
:1014100040EAC1003060207800071FD420784007E0
:1014200032D4E56995B1706800F00C00082840F0EE
:101430008F80012D0ED07068216A00F480328A42BC
:1014400008D1616A00F47010884203D1002002B014
:10145000BDE8F081012002B0BDE8F081A06900285C
:1014600062D00020C4F242200121C0F88014FFF7AE
:101470008DFA0546706A800700F18C80FFF786FAC6
:10148000401B0228F6D92AE1F06910F0805808D1F3
:10149000F06940F08050F061F06900F080500090F9
:1014A000009847F20007C4F200073868C00529D445
:1014B000386840F480703860FFF768FA054600BF6E
:1014C0003868C0051ED4FFF761FA401B6428F7D9BD
:1014D00005E100BF2069002840F20000C4F242206C
:1014E00000F0828001210160FFF750FA054600BF3D
:1014F000306880073FF588AFFFF748FA401B0228A5
:10150000F6D9ECE0E068002800F08080052800F0C3
:101510009780012800F09880306A20F00100306246
:10152000306A20F0040092E00020C4F24220002142
:10153000C0F88014FFF72AFA054600BF706A8007DA
:101540007FF56CAFFFF722FA401B0228F6D9C6E000
:101550000027C4F2422700203866FFF717FA022D51
:1015600005460BD13068800140F1BE80FFF70EFACE
:10157000401B02284FF00300F4D968E7306880016F
:101580007FF564AFFFF702FA401B02284FF003001B
:10159000F4D95CE740F20800C2F20000006844F6AB
:1015A000D351C1F26201A0FB0101480A019000BFC2
:1015B00000BF0198411E002801913FF42FAF00BFEA
:1015C0000198411E002801913FF428AF00BF019807
:1015D000411E002801913FF421AF00BF0198411E38
:1015E00000280191E4D119E700210160FFF7CEF94D
:1015F000054600BF306880077FF50DAFFFF7C6F9DD
:10160000401B02284FF00300F4D920E7306A20F095
:1016100001003062306A20F004003062FFF7B6F952
:10162000054641F2883700BF306A800720D5FFF7B2
:10163000ADF9401BB8424FF00300F5D907E700BFF2
:10164000306A40F004003062306A40F001003062DD
:10165000FFF79CF9054641F2883700BF306A8007E2
:1016600006D4FFF793F9401BB842F7D937E000BF23
:10167000B8F1000F7FF4D5AEF06920F08050F06132
:10168000CFE600BF306820F480303060306820F44E
:1016900080203060FFF77AF9054600BF306880038C
:1016A0007FF59DAEFFF772F9401B64284FF00300F1
:1016B000F4D9CCE6306840F480203060306840F4E3
:1016C00080303060FFF762F9054600BF3068800364
:1016D0003FF585AEFFF75AF9401B6428F6D9032081
:1016E00002B0BDE8F08100BF206AB0F5803F05D1AF
:1016F0007168A26821F40031114371607168626AF7
:1017000021F4741110430843706001203866FFF71C
:101710003DF90446306880013FF598AEFFF736F991
:10172000001B02284FF00300F4D990E6411E002070
:10173000B0EB116F1CBF012070474EF21002CEF2C9
:10174000000251604EF62351CEF20001F0230B70DF
:1017500007219060116070477047000070470000DB
:1017600010B590F83C20012A4FF002023FD080F8DB
:101770003D200268D2F804E0D2F808C00C682EF0D0
:101780007003234340F6FF34C4F20004A2425360C6
:1017900010DCB2F1804F1FD040F20043C4F20003CE
:1017A0009A4219D040F60003C4F200039A4213D0C3
:1017B00017E000BF40F60043C4F200039A420BD08A
:1017C00043F20043C4F201039A4205D042F60043BB
:1017D000C4F201039A4204D149682CF080031943F2
:1017E00091600121002280F83D1080F83C201046D5
:1017F00010BD000010B50446022084F83D002068AA
:1018000041F21112016A114208D1016A40F24442C8
:10181000114203D1016821F001010160204600F06E
:10182000ADF80021002084F8461084F83E1084F8BA
:101830003F1084F8401084F8411084F8421084F876
:10184000431084F8441084F8451084F83D1084F85F
:101850003C1010BD002804BF0120704710B504469D
:1018600090F83D0028B9002084F83C00204600F0A4
:10187000ABF8022084F83D00206840F6FF33026890
:10188000C4F2000343F2004C9842C4F2010C21DC84
:10189000B0F1804F2CD040F20041C4F200018842E8
:1018A00026D040F60001C4F20001884220D09842C0
:1018B00024DCB0F1804F2FD040F20041C4F200018F
:1018C000884229D040F60001C4F20001884223D0AA
:1018D00026E000BF40F60041C4F20001884207D074
:1018E000604505D042F60041C4F201018842DED1D4
:1018F000A16822F070020A439842DADD40F6004106
:10190000C4F20001884207D0604505D042F600418C
:10191000C4F20101884203D1216922F440720A43D2
:10192000A36922F08001D4F804E0E268194360451D
:101930000160C262C0F828E005D042F60041C4F25E
:101940000101884201D161690163012141610020E7
:1019500084F8461084F83E1084F83F1084F8401054
:1019600084F8411084F8421084F8431084F844103D
:1019700084F8451084F83D1010BD0000006840F266
:101980000041C4F20001884212D042F60041C4F284
:101990000101884218BF704741F21800C4F20200EA
:1019A000016821F4006101601920FFF7A5BB00BFA9
:1019B00041F21800C4F20200416821F002014160C6
:1019C0001D20FFF799BB000010B582B0006840F2FF
:1019D0000041C4F20001884214D042F60041C4F232
:1019E0000101884228D141F21800C4F202000168C6
:1019F000192441F400610160006800F40060019066
:101A000001980DE041F21800C4F2020041681D2463
:101A100041F002014160406800F00200009000982F
:101A2000204600210022FFF78BFB204602B0BDE8D4
:101A30001040FFF775BB00BF02B010BD90F83D101D
:101A400001291CBF01207047022180F83D10006869
:101A500040F6FF32C168C4F20002904241F0010139
:101A6000C1600FDCB0F1804F1ED040F20041C4F2E3
:101A70000001884218D040F60001C4F200018842FB
:101A800012D018E040F60041C4F2000188420BD0A9
:101A900043F20041C4F20101884205D042F6004100
:101AA000C4F20101884206D1816801F007010629CC
:101AB00004BF00207047016841F00101016000206F
:101AC000704700000146006841F21113C26822F01D
:101AD0000102C260026A1A4204D00122002081F889
:101AE0003D207047026A40F244431A42F5D1026831
:101AF00022F0010202600122002081F83D2070479F
:101B000080B590F83C20012A4FF0020200F0BF801F
:101B100080F83D20D0F800C04FF67772DCF808302E
:101B200023EA0202CCF808200B683F2B1CDD5F2B58
:101B300020DD602B50D0B3F5005F6DD0702B40F0EE
:101B4000A080D1E901E3C968DCF8082043EA0E036C
:101B500022F47F4243EA01211143CCF80810DCF85B
:101B6000081041F077018AE01F2B29DC63B3102BAA
:101B70002AD086E0402B63D0502B40F08280D1F8F1
:101B800004E0C968DCF82030DCF8202022F00102F3
:101B9000CCF82020DCF8182022F0F00242EA0111F3
:101BA00023F00A0242EA0E02CCF81810CCF82020EA
:101BB000DCF8081041F0570121F020015FE000BF80
:101BC000202B01D0302B5CD1DCF8081021F0700103
:101BD000194341F0070152E0D1F804E0C968DCF88C
:101BE000203023F01003CCF82030DCF81830DCF87B
:101BF000202023F4704322F0A00243EA013142EA9C
:101C00000E12CCF81810CCF82020DCF8081041F0A7
:101C1000670121F0100132E0D1E901E3C968DCF885
:101C2000082043EA0E0322F47F4243EA01211143D4
:101C3000CCF80810DCF8081041F480411FE000BF28
:101C4000D1F804E0C968DCF82030DCF8202022F06C
:101C50000102CCF82020DCF8182022F0F00242EA41
:101C6000011123F00A0242EA0E02CCF81810CCF857
:101C70002020DCF8081041F0470121F03001CCF8B9
:101C800008100121002280F83D1080F83C20104609
:101C900080BD00007047000010B501680446086967
:101CA000800744BFC8685FEA807039D4086940077C
:101CB00044BFC8685FEA40703ED40869000744BF6B
:101CC000C8685FEA007045D40869C00644BFC868A8
:101CD0005FEAC0604AD40869C0071CBFC8685FEAF1
:101CE000C07051D10869000644BFC8685FEA00604F
:101CF00052D40869400644BFC8685FEA406053D4C4
:101D00000869800646BFC8685FEA806010BD6FF052
:101D1000200220460A61BDE81040FFF71FBD00BF4A
:101D20006FF002000861012020778869800743D0A6
:101D30002046FFF7AFFF45E06FF004000861022086
:101D40002077886910F4407F40D02046FFF7A2FF3B
:101D500042E000BF6FF00800086104202077C869E6
:101D600080073DD02046FFF795FF3FE06FF0100061
:101D7000086108202077C86910F4407F3AD02046D7
:101D8000FFF788FF3CE000BF6FF0010008612046CC
:101D900000F03EF82168A5E76FF08000086120465A
:101DA000FFF7DAFC2168A4E76FF0400008612046E5
:101DB00000F03EF82168A3E7204600F025F8204611
:101DC00000F024F82168002020776FE7204600F01B
:101DD0001BF8204600F01AF82168002020776CE7F5
:101DE000204600F011F8204600F010F8216800208D
:101DF000207769E7204600F007F8204600F006F853
:101E000021680020207766E77047000070470000D7
:101E1000006842F60041C4F20101884218BF7047D1
:101E200040F2CC00C2F2000001680131016070474D
:101E300070470000FEE700002DE9F04383B0044640
:101E4000006899460368904643F480620260026825
:101E50000B9D42F48072026042690A9ED2070F46CF
:101E60001DD1711C11D0002E00F03681FEF78EFDC1
:101E7000401BB04200F2328120684169C907F5D0A9
:101E80000DE000BF4169C90709D14169C90706D101
:101E90004169C90704BF41695FEAC171F2D007F027
:101EA000FE0707614169890738D44169721C01F452
:101EB000806111D049BB002E00F03A81FEF766FD2B
:101EC000401BB04200F2368120684169890725D461
:101ED00041694905F2D518E0B9B9416989071DD4AE
:101EE0004169490511D44169890717D441694905F8
:101EF0000BD44169890711D44169490505D4416969
:101F000089070BD441694905E7D5016841F400719F
:101F100001606FF48061416104200CE100210291B5
:101F2000014651F8142F02924A680292029A0A68F6
:101F3000120620D4002E00F0AB80721C51D10A682A
:101F4000520500F1AD800A68120614D40A685205E1
:101F500000F1A6800A6812060DD40A68520500F145
:101F60009F800A68120606D40A68520500F198801C
:101F70000A681206E3D5B9F1010F45D04FEA1821DE
:101F80000161014651F8142F12063DD4002E00F0D5
:101F90007F80721C2AD10A68520500F181800A688C
:101FA000120631D40A6852057AD40A6812062BD474
:101FB0000A68520574D40A68120625D40A685205C4
:101FC0006ED40A681206E6D51EE000BFFEF7DEFCFE
:101FD000401BB04261D82068014651F8142F120608
:101FE000C9D408684005F1D55AE000BF086840052B
:101FF00056D4FEF7CBFC401BB0424ED820680146B9
:1020000051F8142F1206F1D55FFA88F101610146EB
:1020100051F8142F12061AD4D6B3721C33D10A68A1
:1020200052053DD40A68120611D40A68520537D405
:102030000A6812060BD40A68520531D40A681206DF
:1020400005D40A6852052BD40A681206E7D5016840
:10205000002241F48071016020464FF001113346A7
:10206000009500F007FA002850D02068006844E08E
:10207000FEF78CFC401BB0420FD82068014651F897
:10208000142F1206E3D408684005F1D508E000BF1C
:102090000868400504D4FEF779FC202004E000BF66
:1020A0006FF480600860042000212022216384F8FE
:1020B0003D2084F83E10226C1043206484F83C10CC
:1020C000206C042843D12068016841F4007101604C
:1020D000012003B0BDE8F083FEF758FC002020216A
:1020E000206384F83D1084F83E00216C41F020010B
:1020F0002164216884F83C000868C00544BF4FF49F
:1021000000702064032003B0BDE8F083206847F02E
:10211000010101610221C0F20101204632462B4635
:1021200000F050FA002818BF012003B0BDE8F0838A
:10213000FEF72CFC202000212022216384F83D2082
:1021400084F83E10226C1043206484F83C10012077
:1021500003B0BDE8F08300002DE9F04381B00446F0
:10216000006890460268099D42F4807202604269EC
:10217000089E9946D2070F461DD1711C11D0002E22
:1021800000F0D280FEF702FC401BB04200F2CE808D
:1021900020684169C907F5D00DE000BF4169C90752
:1021A00009D14169C90706D14169C90704BF41691D
:1021B0005FEAC171F2D007F0FE0101614169890750
:1021C00038D44169721C01F4806111D049BB002EE2
:1021D00000F0E880FEF7DAFB401BB04200F2E4803A
:1021E00020684169890725D441694905F2D518E07D
:1021F000B9B9416989071DD44169490511D44169BB
:10220000890717D4416949050BD44169890711D45D
:102210004169490505D4416989070BD441694905DC
:10222000E7D5016841F4007101606FF4806141619C
:102230000420BAE000210091014651F8142F0092C9
:102240004A680092009A0A6812061ED4002E00F016
:102250008580721C4DD10A68520500F187800A689A
:10226000120612D40A68520500F180800A6812062C
:102270000BD40A68520579D40A68120605D40A6894
:10228000520573D40A681206E5D5B9F1010F43D09F
:102290004FEA18210161014651F8142F12063BD470
:1022A000002E5BD0721C29D10A6852055ED40A68E0
:1022B000120631D40A68520558D40A6812062BD483
:1022C0000A68520552D40A68120625D40A685205D3
:1022D0004CD40A681206E7D51EE000BFFEF756FB95
:1022E000401BB0423FD82068014651F8142F120617
:1022F000CBD408684005F1D538E000BF0868400538
:1023000034D4FEF743FB401BB0422CD82068014672
:1023100051F8142F1206F1D55FFA88F101610020FF
:1023200001B0BDE8F08300BFFEF730FB00202021A4
:10233000206384F83D1084F83E00216C41F02001B8
:102340002164216884F83C000868C00544BF4FF44C
:1023500000702064032001B0BDE8F08308684005E8
:1023600004D4FEF713FB202004E000BF6FF480606C
:102370000860042000212022216384F83D2084F895
:102380003E10226C1043206484F83C10206C04281A
:1023900017D12068016841F400710160012001B08B
:1023A000BDE8F083FEF7F2FA20200021202221630D
:1023B00084F83D2084F83E10226C1043206484F899
:1023C0003C10012001B0BDE8F083000070B5036847
:1023D000044653F8140F400737D40E46F1B1701C71
:1023E00024D100BF1868400532D4186840072CD4A7
:1023F000186840052CD41868400726D41868400592
:1024000026D41868400720D41868400520D41868DE
:1024100040074FF0000048BF70BDE3E71868400573
:1024200016D4FEF7B3FA202016E000BF154600BF11
:10243000186840050CD4FEF7A9FA401BB042F2D848
:10244000236853F8140F4007F2D5002070BD00BF79
:102450006FF480601860042000212022216384F83A
:102460003D2084F83E10226C10432064012084F843
:102470003C1070BD2DE9F04105461446DDF818808A
:1024800001F47F002A681E46B0F5803F8FB241D12B
:1024900050693840C01BB0FA80F04009A0427BD19F
:1024A000701C2DD0002E7BD0FEF770FAA0EB080038
:1024B000B04277D8286840693840C01BB0FA80F035
:1024C0004009A042F0D00020BDE8F08150693840BA
:1024D000C01BB0FA80F04009A0425DD1506938407D
:1024E000C01BB0FA80F04009A04255D15069384075
:1024F000C01BB0FA80F04009A0424FF000005FD14D
:1025000050693840C01BB0FA80F04009A042DDD0CD
:1025100042E000BF90693840C01BB0FA80F040092B
:10252000A04239D1701C1FD0D6B300BFFEF72EFADF
:10253000A0EB0800B04235D8286880693840C01B3D
:10254000B0FA80F04009A042F0D00020BDE8F08150
:1025500090693840C01BB0FA80F04009A0424FF0AB
:10256000000018BFBDE8F08190693840C01BB0FA88
:1025700080F04009A0420FD190693840C01BB0FAEA
:1025800080F04009A04207D190693840C01BB0FAE2
:1025900080F04009A042DBD00020BDE8F08100BF00
:1025A000FEF7F4F900202021286385F83D1085F816
:1025B0003E00296C41F02001296485F83C0001208F
:1025C000BDE8F081F0B581B0044600681D4643695E
:1025D0008FB203EA0701B94202D1002001B0F0BD79
:1025E00041691646013201F480610FD059BB9EB398
:1025F000FEF7CCF9401BB04230D820684169394021
:10260000B942EAD041694905F2D51CE0D9B941691E
:102610003940B942E1D04169490514D44169394092
:10262000B942DAD0416949050DD441693940B9420E
:10263000D3D04169490506D441693940B942CCD06B
:1026400041694905E3D5016841F4007101606FF407
:1026500080614161042002E0FEF798F9202000210A
:102660002022216384F83D2084F83E10226C104320
:10267000206484F83C10012001B0F0BD80B584B026
:102680009C466FF05D0300F00300B1F5803F38BF5A
:102690006FF05F0343EA80004FF0FF330293C3B251
:1026A00040F2D40000928AB2C2F200001946102310
:1026B000CDF804C0FEF78CF9B0FA80F0400904B000
:1026C00080BD000080B584B09C466FF05D0300F0D3
:1026D0000300B1F5803F38BF6FF05F0343EA80002D
:1026E0004FF0FF330293C3B240F2D40000928AB29B
:1026F000C2F2000019461023CDF804C0FEF784FB97
:10270000B0FA80F0400904B080BD0000FEE7000090
:10271000FEE700007047000070470000FEF782BC33
:102720007047000040F28400C2F20000FFF7B4BA24
:10273000FEE70000B0B5002900F0CE80CB0705D140
:102740000D46012900F0C88049E000BF10F801CB18
:102750004D1E82EA0C2241F2210C0FFA82FE8CEA15
:102760004204BEF1FF3FC8BF54000FFA84FE8CEA5A
:102770004402BEF1FF3FC8BF62000FFA82FE8CEA3E
:102780004204BEF1FF3FC8BF54000FFA84FE8CEA3A
:102790004402BEF1FF3FC8BF62000FFA82FE8CEA1E
:1027A0004204BEF1FF3FC8BF54000FFA84FE8CEA1A
:1027B0004402BEF1FF3FC8BF62000FFA82FE8CEAFE
:1027C0004204BEF1FF3FC8BF54000FFA84FE8CEAFA
:1027D0004402BEF1FF3FC8BF620001297CD002382D
:1027E00041F2210110F8024F023D82EA042214B2A4
:1027F00081EA4203B4F1FF3FC8BF53001AB281EA35
:102800004304B2F1FF3FC8BF5C0022B281EA440337
:10281000B2F1FF3FC8BF63001AB281EA4304B2F1CC
:10282000FF3FC8BF5C0022B281EA4403B2F1FF3F20
:10283000C8BF63001AB281EA4304B2F1FF3FC8BFC8
:102840005C0022B281EA4403B2F1FF3FC8BF6300DB
:102850001AB281EA4304B2F1FF3FC8BF5C0042787C
:1028600084EA022213B281EA4204B3F1FF3FC8BFF7
:10287000540022B281EA4403B2F1FF3FC8BF6300B3
:102880001AB281EA4304B2F1FF3FC8BF5C0022B232
:1028900081EA4403B2F1FF3FC8BF63001AB281EA84
:1028A0004304B2F1FF3FC8BF5C0022B281EA440397
:1028B000B2F1FF3FC8BF63001AB281EA4304B2F12C
:1028C000FF3FC8BF5C0023B281EA4402B3F1FF3F7F
:1028D000C8BF62002B0485D190B2B0BD2DE9F04194
:1028E00040F2CC06C2F20006376840F600480446C3
:1028F000C4F20108384604E0E91BA14228BFBDE844
:10290000F0813568291A6529F6D340464FF4004115
:10291000FEF72EF82846EFE7F0B581B040F2D00779
:10292000C2F2000714463A680D4606462AB100F086
:10293000C7FF3968401A042802D80520FFF7CEFFE8
:1029400006F5FC3101202A462346FFF797FE00F0EA
:10295000B7FF386001B0F0BDB0B582B040F2D0052D
:10296000C2F200052A6804468DF807102AB100F06B
:10297000A7FF2968401A042802D80520FFF7AEFFF8
:1029800004F5FC310DF1070201200123FFF79AFE47
:1029900000F096FF286002B0B0BD0000B8B0FEF7AE
:1029A0004FFB00240120CDE91544CDE913441090DC
:1029B00014904FF4E0104FF480310225199010A8C4
:1029C000CDE91114CDE91751FEF7D6FC20B1EFF394
:1029D000108072B6FEE700BF0F20CDE932054FF43C
:1029E0008060CDE9350432A802213494FEF7E4FB7F
:1029F00020B1EFF3108072B6FEE700BF41F218007D
:102A0000C4F20200016840F6004741F02001016075
:102A10000168C4F2010701F02001109110990168CA
:102A2000002241F00401016001684FF4004501F00B
:102A30000401109110990168002441F0080101601F
:102A400000684FF4004100F00800109010983846DC
:102A5000FDF796FF3846042100220426FDF790FF7B
:102A6000012011900220109510ADCDE912003846DA
:102A70002946FDF77BFE384629461096FDF776FE7F
:102A800040F27005C2F2000507F50051284640F8F3
:102A9000141F47214FF47A721394CDE91144CDE904
:102AA0003244C0E90114C0E90324C0E90544FEF73B
:102AB000D1FE28B1EFF3108072B600BFFEE700BF71
:102AC0004FF4805005F114060DF140081090304687
:102AD0004146FFF715F828B1EFF3108072B600BF3A
:102AE000FEE700BF32A93046FEF73AFE20B1EFF311
:102AF000108072B6FEE700BF284650F8141F6FF032
:102B000001020A61FEF79AFF00203290ADF8C6007C
:102B1000309032A941200422FFF7FEFE0DF1C601DC
:102B200045200222FFF7F8FE30A94C200422FFF7CF
:102B3000F3FE329806460138C00A762800F2C985AD
:102B400030984CF6DD41CAF6BB21884240F0C18581
:102B500044F2000AC0F6000A4FF6FF704FF6FF7706
:102B60000D9003E0761BAA4400F0B681802E344617
:102B700028BF802414F0030B584618BF012000EB37
:102B80009405002D00F08181BBF1000F0E9707D056
:102B9000A5F10109B9F1030F0AD20022A1E000BF9B
:102BA000A10808440138032880F0E4800020FDE0FB
:102BB00005F07C0E002008270C96CDE90A5410E0A1
:102BC000280A7071280CB07103231820391D25FACA
:102BD00000F0194308F80100601C704507F1100768
:102BE0007AD00AEB070454F8083C024608EB0706C3
:102BF000814506F8083C0BD1BBF1010F17D0180A2C
:102C0000BBF1020F06F8070C11D00225102007E0D7
:102C1000180A06F8070C180C06F8060C03251820ED
:102C2000A7F1080123FA00F0294308F8010054F83D
:102C300004CC531C994506F804CC0DD1BBF1010F0F
:102C40001AD04FEA1C20BBF1020F06F8030C13D078
:102C5000022510200AE000BF4FEA1C2006F8030CF2
:102C60004FEA1C4006F8020C03251820391F2CFAE5
:102C700000F0294308F801005AF80750013399453C
:102C800008F807500AD1BBF1010F12D0280ABBF196
:102C9000020F70700DD00220102105E0280A70701C
:102CA000280CB0700320182125FA01F1384308F8E8
:102CB000001065685C1CA14535717FF481AFBBF1E4
:102CC000010F3FF489AF280ABBF1020F70713FF486
:102CD00083AF0223102079E70C9E0E9FDDE90A5492
:102CE000043215F0030300F0D080B4465AF8226095
:102CF0009700914508F822600ED1BBF1010F1DD05D
:102D0000300A47F00101BBF1020F08F8010015D0AD
:102D1000022510200CE000BF300A47F0010108F83E
:102D20000100300C47F0020108F8010003251820CB
:102D300026FA00F047EA050108F801000E9F012B72
:102D4000664600F0A280501C5AF82060870081453A
:102D500008F820605CD1BBF1010F6BD0300A47F05E
:102D60000101BBF1020F08F8010063D00225102019
:102D70005AE000BF25F00300B44641420020002283
:102D80005AF802300AEB020748F802307B6808EB79
:102D900002067360BB680438B360FB68814202F1CD
:102DA0001002F360ECD10E9F4042664615F003011D
:102DB0006BD05AF8202008EB8003170A5F70170CBD
:102DC0009F700E9F08F82020120E0129DA705CD047
:102DD000421C5AF8223008EB820708F822301A0AFF
:102DE0007A701A0CBA701A0EFA700E9F02294CD023
:102DF000811C5AF8212008EB810308F82120110AD0
:102E00005970110C9970110E0B2202EB80003AE000
:102E1000300A47F0010108F80100300C47F00201C8
:102E200008F801000325182026FA00F047EA0501FA
:102E300008F801000E9F022B664626D0901C5AF817
:102E400020308200814508F820300FD1BBF1010FFE
:102E50001BD0180A42F00101BBF1020F08F8010073
:102E600013D0190C42F002000DE000BF180A42F026
:102E7000010108F80100180C42F0020108F80100F5
:102E8000190E42F0030008F80010A1B2BAB2404691
:102E90002546FFF74FFC074600F012FD40F2700197
:102EA000C2F200010968401A6428FFF45BAE00F02A
:102EB00007FD40F2700140F60044C2F20001C4F286
:102EC0000104086020464FF40041FDF751FD204603
:102ED0000421FDF74DFD45E6BDF8C600874200F030
:102EE000F8834FF6FF79DDF8C8B040F60048C0F22D
:102EF00001094FF0000A10AC0027C4F2010804E0F9
:102F0000BBEB050B2F4410AC36D05D46BBF1800FF8
:102F100028BF8025AEB24F4584BF4FF0010AA7F508
:102F200000375FFA8AF0394622463346FFF7A6FBA0
:102F300010B30D98314682B22046FFF7FBFB0D908F
:102F400000F0BEFC40F27001C2F200010968401AB4
:102F50006428D5D300F0B4FC40F27001C2F2000145
:102F6000086040464FF40041FDF702FD4046042151
:102F7000FDF7FEFCC4E700BFBDF8C6000D99814215
:102F800040F0A783329D40F27004E80A0121C2F2AA
:102F900000046A0518BF01EBD5200021274644F242
:102FA000000847F8041FC0B2C0F60008D346C7E9BE
:102FB00002800F91FDF748FB0FA93846FDF76CFA28
:102FC000FDF7E2FA4FF6FF7A00212846C0F2010A27
:102FD00007E000BF0A980999801BB044314400F013
:102FE0007582064680280A9028BF8026B7B210ADA9
:102FF000514584BF4FF0010BA1F500315FFA8BF012
:103000002A463B460991FFF739FB002800F062820F
:10301000284639464FF6FF72FFF78CFB16F003097E
:103020000890CDF8349018BF4FF0010909EB9605D0
:10303000FDF70AFB002D79D0681E84000390601C08
:10304000B1080B90A01C0C908800CDE9067600EB2F
:1030500089000D9FCDF810B0CDF8388004F1030A37
:10306000A0F1040B0595AE004FF00008002501917A
:10307000CDF8089010E000BF10A850F80820A80074
:103080000E99002301440220FDF788FA08F1040894
:10309000464505F101052FD03806EDD0C345EBD1EB
:1030A00010AA115DF8B2012806D10C98105C41EA13
:1030B000004000F57F4016E013460B9A02289A5C08
:1030C00041EA022104D101F57F001A460BE000BF5E
:1030D0000C9A03289A5C41EA024003D14FF07F41E9
:1030E00004E000BF10AA12F80A10090641EA000223
:1030F000043F4046C4E700BFFDF746FA059940F299
:103100007004DDF838804FF6FF7ADDE90676DDE9F8
:10311000039BC2F20004C0F2010A49B10D9848B302
:10312000B9F1030F30D20020C3E000BFFDF72CFA45
:1031300010A839464FF6FF72FFF7FCFA089988424B
:1031400040F0CA8100F0BCFB2168401A6428FFF4FB
:1031500041AF00F0B5FB40F60045C4F20105206028
:1031600028464FF40041FDF703FC28460421FDF7F3
:10317000FFFB2FE7DDE9012010440138032880F030
:10318000DF800020F4E000BF0D9C01F07C0C0023E8
:10319000082110AA12E000BF280A5871280C987163
:1031A000032318200A1D25FA00F01A4310AB985487
:1031B0001A467B1C634501F1100171D008EB010731
:1031C0009E4657F8086C5318F14503F8086C09D16E
:1031D000012C15D0300A022C03F8070C10D0022560
:1031E000102407E0300A03F8070C300C03251824DC
:1031F00003F8060CA1F10800E6400D9C2843165484
:1032000057F8045C0EF10106B14503F8045C09D1DE
:10321000012C17D0280A022C03F8030C12D0022428
:10322000102007E0280A03F8030C280C03F8020C0E
:10323000032418200A1F25FA00F0224310ACA054E2
:1032400022460D9C58F801500136B145555409D11C
:10325000012C15D0280A022C587011D002241020FD
:1032600006E000BF280A5870280C98700324182024
:1032700025FA00F041EA040210ACA05422460D9C4D
:103280007D68771CB9451D717FF486AF012C90D005
:10329000280A022C58713FF48CAF0223102081E7DA
:1032A00040F27004079EDDE905170EF10400C2F23A
:1032B000000411F003013FF43BAF58F820308200C6
:1032C000814510AF07F820300ED10D9F012F1AD085
:1032D0000D9D1F0A42F00106022D10ADAF5512D010
:1032E000022710260BE000BF1F0A42F0010610ADB6
:1032F000AF551F0C42F00206AF5503271826F340C6
:103300003A4310AFBB54DDE9067601293FF410AF14
:10331000471C58F82730BA00B94510AE06F82730D8
:103320006CD10D9F012F78D00D9D1F0A42F0010630
:10333000022D10ADAF5570D00227102669E000BFF6
:1033400021F0030041420020002210AD58F8023065
:1033500008EB0207AB507B68AE187360BB6804389B
:10336000B360FB68814202F11002F360EED140428B
:10337000059940F270044FF6FF7ADDF810B0DDE9F0
:10338000067611F00301C2F20004C0F2010A3FF414
:10339000CFAE58F8202010AF07EB800307F82020AD
:1033A000170A5F70170C9F70DDE90676120E01296F
:1033B000DA703FF4BDAE421C58F8223010AE06EB76
:1033C000820706F822301A0A7A701A0CBA701A0E9E
:1033D000FA70DDE9067602293FF4AAAE023058F809
:1033E000201010AB03EB800203F82010080A507085
:1033F000080C9070080ED0709AE600BF1F0A42F0C9
:10340000010610ADAF551F0C42F00206AF55032761
:103410001826F3403A4310AFBB5440F27004DDF875
:1034200038804FF6FF7ADDE90676DDE9033B0229B5
:10343000C2F20004C0F2010A3FF47AAE821C58F8CE
:1034400022109000934210AB03F8221022D10D9A63
:1034500040F27004DDF838804FF6FF7ADDF810B0E6
:10346000DDE90676012AC2F20004C0F2010A3FF447
:103470005FAE0D9F0A0A40F00103022F10AFFA540D
:10348000DDE906763FF454AE090C40F0020010AAC4
:1034900011544DE60A0A40F0010310AFFA540A0C29
:1034A00040F00203090E40F00300FA54395440F290
:1034B0007004DDF838804FF6FF7ADDF810B0DDE9F2
:1034C0000676C2F20004C0F2010A31E6002132257C
:1034D00004E000BF012100E0022196254720FFF70C
:1034E0003BFA52201221FFF737FA40F60044C4F2AB
:1034F000010420464FF40041FDF73AFA204604212A
:10350000FDF736FA2846FFF7E9F920464FF4004167
:10351000FDF72EFA20460421FDF72AFA2846FFF788
:10352000DDF920464FF40041FDF722FA2046042140
:10353000FDF71EFA2846FFF7D1F920464FF4004167
:10354000FDF716FA20460421FDF712FA2846FFF788
:10355000C5F920464FF40041FDF70AFA2046042140
:10356000FDF706FA2846FFF7B9F920464FF4004167
:10357000FDF7FEF920460421FDF7FAF92846FFF78A
:10358000ADF920464FF40041FDF7F2F92046042141
:10359000FDF7EEF92846FFF7A1F920464FF4004168
:1035A000FDF7E6F920460421FDF7E2F92846FFF78A
:1035B00095F920464FF40041FDF7DAF92046042141
:1035C000FDF7D6F92846FFF789F920464FF4004168
:1035D000FDF7CEF920460421FDF7CAF92846FFF78A
:1035E0007DF920464FF40041FDF7C2F92046042141
:1035F000FDF7BEF92846FFF771F920464FF4004168
:10360000FDF7B6F920460421FDF7B2F92846FFF789
:1036100065F920464FF40041FDF7AAF92046042140
:10362000FDF7A6F92846FFF759F920464FF4004167
:10363000FDF79EF920460421FDF79AF92846FFF789
:103640004DF920464FF40041FDF792F92046042140
:10365000FDF78EF92846FFF741F920464FF4004167
:10366000FDF786F920460421FDF782F92846FFF789
:1036700035F920464FF40041FDF77AF92046042140
:10368000FDF776F92846FFF729F920464FF4004167
:10369000FDF76EF920460421FDF76AF92846FFF789
:1036A0001DF920464FF40041FDF762F92046042140
:1036B000FDF75EF92846FFF711F920464FF4004167
:1036C000FDF756F920460421FDF752F92846FFF789
:1036D00005F940F60044C4F2010420464FF40041CD
:1036E000FDF746F920460421FDF742F93220FFF7A5
:1036F000F5F820464FF40041FDF73AF92046042141
:10370000FDF736F93220FFF7E9F820464FF4004183
:10371000FDF72EF920460421FDF72AF93220FFF7A4
:10372000DDF820464FF40041FDF722F92046042140
:10373000FDF71EF93220FFF7D1F820464FF4004183
:10374000FDF716F920460421FDF712F93220FFF7A4
:10375000C5F820464FF40041FDF70AF92046042140
:10376000FDF706F93220FFF7B9F820464FF4004183
:10377000FDF7FEF820460421FDF7FAF83220FFF7A6
:10378000ADF820464FF40041FDF7F2F82046042141
:10379000FDF7EEF83220FFF7A1F820464FF4004184
:1037A000FDF7E6F820460421FDF7E2F83220FFF7A6
:1037B00095F820464FF40041FDF7DAF82046042141
:1037C000FDF7D6F83220FFF789F820464FF4004184
:1037D000FDF7CEF820460421FDF7CAF83220FFF7A6
:1037E0007DF820464FF40041FDF7C2F82046042141
:1037F000FDF7BEF83220FFF771F820464FF4004184
:10380000FDF7B6F820460421FDF7B2F83220FFF7A5
:1038100065F820464FF40041FDF7AAF82046042140
:10382000FDF7A6F83220FFF759F820464FF4004183
:10383000FDF79EF820460421FDF79AF83220FFF7A5
:103840004DF820464FF40041FDF792F82046042140
:10385000FDF78EF83220FFF741F820464FF4004183
:10386000FDF786F820460421FDF782F83220FFF7A5
:1038700035F820464FF40041FDF77AF82046042140
:10388000FDF776F83220FFF729F820464FF4004183
:10389000FDF76EF820460421FDF76AF83220FFF7A5
:1038A0001DF820464FF40041FDF762F82046042140
:1038B000FDF75EF83220FFF711F8FCF7E5FC000099
:1038C00040F2CC00C2F20000006870470102000024
:1038D00000000000000001020304060708090203BB
:1038E0000405060708090A0B0C0D0E0F1010000046
:1038F0001039000800000020100000006C010008D2
:10390000203900081000002040070000880100084E
:1039100001000000100000000024F400000000007E
:0400000508000131BD
:00000001FF
