:020000040800F2
:1000000050070020CD0100081529000839200008FC
:10001000112900089103000835290008000000009C
:100020000000000000000000000000001D29000882
:100030009503000800000000192900082129000884
:10004000E7010008E7010008E7010008E7010008F0
:10005000E7010008E7010008E7010008E7010008E0
:10006000E7010008E7010008E7010008E7010008D0
:10007000E7010008E7010008E7010008E7010008C0
:10008000E7010008E7010008E7010008E7010008B0
:10009000E7010008E7010008E7010008E7010008A0
:1000A000E701000829290008E7010008E701000826
:1000B000E7010008E7010008E7010008E701000880
:1000C000E7010008E7010008E7010008E701000870
:1000D000E7010008E7010008E7010008E701000860
:1000E000E7010008E7010008E7010008E701000850
:1000F000E7010008E7010008E7010008E701000840
:10010000E7010008E7010008E7010008E70100082F
:10011000E7010008E7010008E7010008E70100081F
:10012000E7010008E7010008E7010008E70100080F
:1001300000F002F800F03AF80AA090E8000C8244BF
:100140008344AAF10107DA4501D100F02FF8AFF29C
:10015000090EBAE80F0013F0010F18BFFB1A43F0A5
:1001600001031847C0370000E0370000103A24BFF1
:1001700078C878C1FAD8520724BF30C830C144BF0C
:1001800004680C607047000000230024002500264E
:10019000103A28BF78C1FBD8520728BF30C148BFEA
:1001A0000B6070471FB51FBD10B510BD00F036F8CD
:1001B0001146FFF7F7FF02F019FD00F054F803B401
:1001C000FFF7F2FF03BC00F057F800000948804732
:1001D00009480047FEE7FEE7FEE7FEE7FEE7FEE729
:1001E000FEE7FEE7FEE7FEE704480549054A064B41
:1001F0007047000025290008310100085001002047
:100200005007002050030020500300207047704723
:100210007047000000487047100000207546FFF747
:10022000F9FFAE4605006946534620F007008546B3
:1002300018B020B5FFF7D8FFBDE820404FF000060A
:100240004FF000074FF000084FF0000BAC46ACE851
:10025000C009ACE8C009ACE8C009ACE8C00921F0AD
:1002600007018D46704710B50446AFF30080204665
:10027000BDE81040FFF7A3BF01491820ABBEFEE761
:100280002600020070470000EFF31480C00700D082
:1002900000DF40F27000C2F200004EF2100600F1E2
:1002A00014044EF60455CEF200064FF0FF372046F8
:1002B000CEF20005C6F87071C6F87471C6F8787190
:1002C000C6F87C71C6F88071C6F88471C6F888716A
:1002D000C6F88C7101F0F8FC204601F08DFB40F26D
:1002E000D400C2F2000000F057FB40F60044C4F214
:1002F000010420464FF4004100F0BEF920460421DD
:1003000000F0BAF941F21800C4F20200016821F0CD
:1003100008010160016821F004010160016821F019
:100320002001016000F0A8F80020C6F87072C6F83D
:100330007472C6F87872C6F87C72C6F88072C6F815
:100340008472C6F88872C6F88C723060286840F0F3
:1003500000702860286A20F4E0202862EFF31480FF
:10036000800709D5EFF3098080F30888EFF3148044
:1003700020F0020080F3148844F20000C0F6000070
:10038000686003C800F000F880F3088808470000A0
:10039000FEE700007047000070B542F20C0604460C
:1003A000C4F2020600F0F2FA3168C90718D13068C9
:1003B000800644BF202030603068C00607D4306912
:1003C000C00704D1306840075CBF002070BD3068B2
:1003D000C00623D40020316849072BD434E000BF85
:1003E000002C47D00546601C0ED13068C007DED017
:1003F0003068C0071CBF30685FEAC070D7D0306873
:10040000C007F2D1D3E700BF00F0C0FA401BA04202
:1004100030D83068C007F7D1C9E700BF40F22810D4
:10042000C2F20000C16941F00201C16110203168CF
:10043000490709D540F22811C2F20001CA6940F00B
:10044000040042F00102CA613169C90702D130607B
:10045000012070BD40F22811C2F20001CA6942F0C9
:100460000402CA61316921F001013161306001206B
:1004700070BD00BF032070BD80B541F20C00C4F216
:1004800002004FF0FF310022016042600160026013
:1004900000F0FCFE002080BD2DE9F04381B040F269
:1004A0002816C2F20006327E012A03D1022001B0D2
:1004B000BDE8F083054601202C6830764CF25030C0
:1004C0008846FFF769FF022C1CD100284ED100207E
:1004D00042F21004F061C4F20204206840F004000B
:1004E0002060206840F0400020604CF25030FFF760
:1004F00053FF216821F0040121600021317601B011
:10050000BDE8F08390BB4FF0FF30C8F80000D5E99C
:10051000027007EBC020874228D242F21004C4F2D6
:1005200002044FF0000900BFC6F81C90206840F09C
:10053000020020606760206840F0400020604CF2BC
:100540005030FFF729FF216821F00201216098B99E
:10055000D5E9020107F5006700EBC1208742E3D32C
:1005600000200021317601B0BDE8F0830120002198
:10057000317601B0BDE8F083C8F800700021317613
:1005800001B0BDE8F083000042F21001C4F20201A4
:10059000086840F0800200200A6070472DE9F04FA3
:1005A00081B040F22819C2F20009924699F8182049
:1005B000012A03D1022001B0BDE8F08F804601205E
:1005C00089F818004CF250309B460E46FFF7E4FEC7
:1005D000A0BB404642F21007B8F1020F18BF04203A
:1005E000C4F20207B8F1010F08BF404645424FF080
:1005F00000080024C4F12001C9F81C802AFA04F084
:100600000BFA01F13A680843B4F1200158BF2BFA04
:1006100001F042F00101396026F8020B4CF2503033
:10062000FFF7BAFE3968013521F0010248F10001F7
:100630003A6018B9002904F11004DBD0002189F8D0
:10064000181001B0BDE8F08F42F20400C4F20200BD
:10065000C16809065CBF0020704740F22311C4F254
:100660006751016048F6AB11CCF6EF510160C068EC
:10067000C0B2C009704700002DE9F04F41F60042BA
:10068000C4F201024FF0060A904208BF4FF0050A7B
:10069000002908BFBDE8F08FA0F18042A2F58432A6
:1006A00040F2004B4FEAB222C4F2010B6FF01F047C
:1006B0000127052A38BF924639E000BF53F82920A8
:1006C00022EA0C0243F82920DBF800206FEA050C2F
:1006D000AA43CBF80020DBF80420AA43CBF804207F
:1006E000DBF80820AA43CBF8082040F20C42C4F201
:1006F00001021368AB4313600346B5F5807F24BF46
:10070000264604331D680F22B24025EA0202042562
:1007100005FA06F632431A60C26802EA0C02C260A9
:1007200031FA07F207F1010704F104041CD07A1E24
:100730000123934013EA0105F2D04FEA9209ABF589
:100740007E7304F1200653F8298006F00C0E0F2268
:1007500002FA0EFC08EA0C080AFA0EF29045ADD037
:100760006FEA050CC8E700BFBDE8F08F2DE9F04F38
:1007700083B041F60043C4F201030E68062298429A
:10078000019008BF0522002E009200F0ED80019834
:1007900040F20C45A0F18043A3F584334FEAB32720
:1007A00040F200404FF6FF73C4F20105C4F20100AD
:1007B000009A4FF0000E4FF0010CC1F210034FF001
:1007C000000A4FF0000B4FF00F08052F38BF3A46D4
:1007D000009208E00E680AF1010A36FA0AF20EF1F8
:1007E000040E00F0C1800CFA0AF916EA090FF1D0E4
:1007F0004E689E4212DC122E56D8DFE806F0350B0A
:100800004549555555555555555555555555554DBC
:10081000510000BFD1F80CB046E000BF4FF6FF72A8
:10082000C1F2210296420FDC0022C1F2110296426F
:100830001AD00022C1F21202964215D00022C1F253
:100840002102964210D02FE00022C1F222029642ED
:100850000AD00022C1F23102964205D00022C1F234
:100860003202964220D100BF8E684EB1012E019A0D
:1008700014BFC2F81490C2F810904FF0080B13E0A8
:100880004FF0040B10E000BFCF6807F1080B0BE03E
:100890004FF0000B08E000BFCF6807F1040B03E046
:1008A000CF6807F10C0B00BF7446BAF1080F28BFE0
:1008B000203C019F28BF04373E6808FA04F226EA6C
:1008C00002020BFA04F632433A60CA79D2067FF587
:1008D00081AF41F21807C4F202073A684FF6084C9C
:1008E00042F001023A603A68CFF6FF7C02F0010262
:1008F0000292029A2AF00302024452F80C700EF09F
:100900000C0608FA06F4A743009C04FA06F63743DF
:1009100042F80C70D1F804C05FEACC32026854BFD0
:1009200022EA090642EA09065FEA8C32066042685A
:1009300054BF22EA090642EA09065FEACC22466071
:10094000826854BF22EA090642EA09065FEA8C225D
:1009500086604FF0010C2A6854BF22EA090642EA79
:1009600009062E6036E700BF03B0BDE8F08F000037
:10097000C26802EA0103914341EA03410161704701
:10098000002A08BF090401617047000040F24810C6
:10099000C2F2000000687047002804BF01207047C1
:1009A00010B50446242084F83D002068016821F039
:1009B00001010160204600F0D1FB0020206484F892
:1009C0003D00206384F83E0084F83C0010BD000028
:1009D00070B5B8B3044690F83D0028B9002084F8FB
:1009E0003C00204600F0DAFB242084F83D0020681B
:1009F000016821F001010160016841F400410160DA
:100A0000016821F40041016000F0A4FD48F280413A
:100A1000C0F21E0140F60013D4F804E088424FF003
:100A20000001C0F23D0348F2A16C4FF0000238BF54
:100A300001219842C0F2010C38BF0122E64538BFBF
:100A40000A460AB1012070BD4DF68361C4F21B3124
:100A5000A0FB01122168950C4B684FF4967623F0A9
:100A60003F0343EA9243754344F6D3564B60C1F2C9
:100A700062060B6AA5FB0656B50923F03F03E6455F
:100A800038BF950C6A1C1A430A62CA6948F2A0660C
:100A90004CF6FF73C0F20106B64522EA03020BD8FA
:100AA00001384FEA4E03B0FBF3F001306FF31F3013
:100AB000042898BF04201EE0A368013863B11923FD
:100AC0000EFB03F3B0FBF3F001306FF31F3078B18E
:100AD00000F5804008E000BF0EEB4E03B0FBF3F0E2
:100AE00001306FF31F3028B100F5004003E000BF74
:100AF000012000E001201043C8610868D4E9072301
:100B000020F0C000104318430860886848F2FF32A4
:100B100004F10C0690434CCE18431043A56988603D
:100B2000C86820F0FF0030432843C860086840F0E0
:100B30000100086000202021206484F83D1020631B
:100B400084F83E0070BD00002DE9F04F85B00446EA
:100B500000201E4617460D460490FFF717FF94F835
:100B60003D10202923D1804620688169890719D545
:100B7000FFF70CFFA0EB08001928F5D90020202171
:100B8000206384F83D1084F83E00206C04F13C0999
:100B900040F0200020640220002189F8001005B0F8
:100BA000BDE8F08FA14619F83C1F012904D10220AD
:100BB00005B0BDE8F08F00BF012289F8002003686E
:100BC000DDE90F1A0E9ADB0703D1036843F0010336
:100BD0000360036823F400630360222084F83D006F
:100BE000402084F83E000020206462626185608DB0
:100BF000294620850020CFF6FF70E06220463A4665
:100C00003346CDF800A0CDF8048001F017FA18B1F2
:100C1000012005B0BDE8F08F208D022810D00128FA
:100C200024D0002838D10020039020684169039126
:100C3000816903910399016841F40071016037E013
:100C40002068016841F400610160EFF3108072B622
:100C50000020039020684169039181690391039901
:100C6000016821F48061016062B621E020680168BA
:100C700021F480610160EFF3108072B600200390D0
:100C8000206841690391816903910399016841F4E6
:100C90000071016062B60BE02068016841F4806178
:100CA00001600021039141690391806903900398D9
:100CB000208D002800F0238140F2080B4BF2895769
:100CC0000AF10105C2F2000BC1F2F847232680B2F7
:100CD000032819D8022845D001286FD1BAF1000F96
:100CE00000F0FA802068014651F8142F520600F1F6
:100CF000F7800868C00600F12F81FFF747FEA0EBE0
:100D000008005045EED91CE1BAF1000F12D000BF27
:100D10002068014651F8142F520610D40868C00606
:100D200000F11A81FFF732FEA0EB08005045EFD921
:100D300007E100BF20684169490640F1FB80006976
:100D4000616A0870606A2268411C208D6162013806
:100D50002085638D013B638553695B0740F1CC803F
:100D60001069BFE020684169490711D4002D00F0E7
:100D70009380BAF1000F00F0E280FFF707FEA0EBCE
:100D80000800504500F2DD80206840694007F4D536
:100D9000EFF3108072B62068616A026842F4007254
:100DA000026000690870606A218D01306062481E2F
:100DB0002085608D0138608562B668E020684169F1
:100DC000490710D4002D77D0BAF1000F00F0B7809A
:100DD000FFF7DCFDA0EB0800504500F2B280206870
:100DE00041694907F4D5016821F480610160EFF39E
:100DF000108072B62068616A00690870606A218D8F
:100E00000130013960622185618D01396185DBF82E
:100E10000010C908A1FB0712110A7143049104993B
:100E2000013904910499002976D021684A69520752
:100E30001DD4049901390491049900296CD02168CA
:100E40004A69520713D4049901390491049900297D
:100E500062D021684A69520709D404990139049182
:100E60000499002958D021684A695207D7D50A68E1
:100E700042F400720A6009690170606A218D0130D4
:100E80006062481E2085608D0138608562B62068EA
:100E9000616A006926E000BF416949073FF578AF04
:100EA000416949075CBF41695FEA41713FF570AF35
:100EB00041694907F0D56BE74169490793D4416916
:100EC00049075CBF41695FEA41713FF58CAF4169F9
:100ED0004907F1D587E700BF20684169490629D550
:100EE0000069616A0870606A218D01306062481E85
:100EF0002085618D0139618501047FF4E8AE2020F1
:100F000084F83D00002084F83E00002189F800109C
:100F100005B0BDE8F08F00BF00202021206384F8D9
:100F20003D1084F83E00206C40F02000206462B642
:100F30001EE000BF50F8141FC90601460CD4FFF78D
:100F400025FD00202021206384F83D1084F83E0018
:100F5000206C40F020000AE06FF0100008600020D4
:100F60002021206384F83D1084F83E00206C20642A
:100F70000120002189F8001005B0BDE8F08F0000C5
:100F80002DE9F04383B0994616460F460446FFF715
:100F9000FDFC94F83D1020291CD10546206881698C
:100FA000890713D5FFF7F2FC401B1928F6D900205A
:100FB0002021206384F83D1084F83E00216C41F02C
:100FC0002001216484F83C0004E000BF94F83C1048
:100FD000012903D1022003B0BDE8F083012284F887
:100FE0003C200368DDE90B180A9ADB0703D103688C
:100FF00043F001030360036823F4006303602120CE
:1010000084F83D00402084F83E00002020646262A5
:101010006185608D394620850020CFF6FF70E06243
:10102000204632464B46CDF80080019501F096F9F6
:1010300020B1012003B0BDE8F08300BF208D00285F
:1010400050D0206808F10106014651F8142F12060D
:101050002CD49EB1B8F1000F5AD000BF08684005EB
:101060005ED4FFF793FC401B404556D820680146EC
:1010700051F8142F1206F1D518E000BF0A68520586
:101080004ED40A68120611D40A68520548D40A6878
:1010900012060BD40A68520542D40A68120605D417
:1010A0000A6852053CD40A681206E7D5626A1146FE
:1010B00011F8013B0361238D6162591E2185678D03
:1010C000013F678547697F070AD50F0408D051782B
:1010D0000161911C6162991E2185628D013A6285D0
:1010E0000904B1D1204641462A4601F071FA38BBC5
:1010F0002068016841F400710160202084F83D00FF
:10110000002084F83E0084F83C0003B0BDE8F08382
:101110000868400504D4FFF739FC202004E000BF34
:101120006FF480600860042000212022216384F88D
:101130003D2084F83E10226C1043206484F83C105B
:10114000206C04287FF475AF2068016841F40071B9
:101150000160012003B0BDE8F083000010B540F647
:101160000044C4F201040068A4F53441884218BF69
:1011700010BD41F21C00C4F20200016821F480019C
:10118000016020464FF48061FFF776FA20464FF465
:101190000061BDE81040FFF76FBA000010B586B0DF
:1011A00045F600010068C4F2000100228842049262
:1011B00002D006B010BD00BF41F21804C4F2020410
:1011C000206840F008002060206800F008000190CE
:1011D00001984FF440600290122003900320059084
:1011E00001F5344002A9FFF7C1FA606840F48000BD
:1011F0006060606800F480000190019806B010BD46
:1012000040F2000040F24811C2F20000C2F20001B8
:1012100000780A68104408607047000080B542F208
:101220000000C4F20200016841F0100101600320D7
:1012300000F0A0F80F2000F005F800F029F80020D9
:1012400080BD000070B540F20006C2F2000640F218
:1012500008013278C2F200014FF47A730968B3FBD7
:10126000F2F20446B1FBF2F1084600F061FB0F2CEC
:101270004FF0010508D838B94FF0FF302146002261
:10128000002500F04BF87460284670BD70470000E0
:1012900082B041F21800C4F202000168022241F05B
:1012A00001010160016801F00101019101994168AA
:1012B00041F080514160406800F0805000900098FB
:1012C0000420C4F20100016862F31A61016002B0F7
:1012D00070470000002848BF704700F01F0101223E
:1012E00002FA01F14EF280124009CEF2000242F8F9
:1012F0002010BFF34F8FBFF36F8F7047002848BF98
:10130000704700F01F01012202FA01F14EF20012B3
:101310004009CEF2000242F82010704710B54EF698
:101320000C5CCEF2000CDCF80030C3F3022E8EF021
:101330000704042C28BF0424BEF103034FF0FF3E32
:101340000EFA04F438BF0023A14399400EFA03F3C8
:101350009A43114300F00F02043A624409010C322F
:1013600000F16043B0F1FF3FC8BF03F56442117064
:1013700010BD00004EF60C51CEF200010A684FF687
:10138000FF031A4060F30A2242F0806040F0FD70D3
:10139000086070472DE9F04381B0002800F0858097
:1013A00042F20008C4F202080446D8F800000D46D4
:1013B00000F0070088420CD2D8F8000020F00700A7
:1013C0002843C8F80000D8F8000000F00700A84241
:1013D0006BD1206841F204098107C4F2020917D5D4
:1013E000410705D5D9F8001041F4E061C9F80010B3
:1013F000010705D5D9F8001041F46051C9F8001073
:10140000D9F80010A26821F0F0011143C9F80010CA
:10141000C00741D1D8F8000000F00700A8420CD95D
:10142000D8F8000020F007002843C8F80000D8F8DA
:10143000000000F00700A84237D12068410707D517
:10144000D9F80010E26821F4E0611143C9F80010F6
:10145000000708D5D9F80000216920F4605040EA5F
:10146000C100C9F80000D9F8002002F00C000828DB
:1014700041F20020C0F27A0050D143F61213C2F3B9
:101480008341C0F60003595CD2033BD440F6001000
:10149000C0F23D00484341E0606802280AD00128BC
:1014A0002AD159F8041C890308D4012001B0BDE8F1
:1014B000F08300BF59F8041C8901F6D5D9F8001053
:1014C00021F003010843C9F80000FFF75FFA064660
:1014D00041F28837D9F80000616800F00C00B0EBE9
:1014E000810F97D0FFF752FA801BB842F2D9032040
:1014F00001B0BDE8F08300BF59F8041C8907D4D5BA
:10150000DCE700BFD9F8002043F6F803C2F34042FD
:10151000C0F600039A5C4843B0FBF2F0D9F8001023
:1015200043F6FA02C1F30311C0F60002515C40F227
:10153000080220FA01F140F20400C2F20000006843
:10154000C2F200021160FFF77DFE002001B0BDE88D
:10155000F083000040F2080041F20401C2F20000F2
:10156000C4F202010068096843F60A12C1F30221BD
:10157000C0F60002515CC840704700002DE9F04100
:1015800082B0002868D00446007841F20006C00707
:10159000C4F2020625D0706800F00C0004281BD0AD
:1015A000706800F00C00082802D17068C00313D4E2
:1015B0006068002800F06881B0F5A02F00F07C8101
:1015C000B0F5803F00F07C81306820F480303060DE
:1015D000306820F4802076E13068800301D56068AF
:1015E000D0B32078800718D5706810F00C0F07D0A2
:1015F000706800F00C0008286ED17068C0036BD4CE
:101600003068800702D52069012825D130686169DA
:1016100020F0F80040EAC1003060207800071FD4B5
:101620002078400732D4E56995B1706800F00C006D
:10163000082840F08F80012D0ED07068216A00F4D8
:1016400080328A4208D1616A00F47010884203D166
:10165000002002B0BDE8F081012002B0BDE8F081B9
:10166000A069002862D00020C4F242200121C0F805
:101670008014FFF78BF90546706A800700F18C80B3
:10168000FFF784F9401B0228F6D92AE1F06910F02F
:10169000805808D1F06940F08050F061F06900F0A6
:1016A00080500090009847F20007C4F200073868A5
:1016B000C00529D4386840F480703860FFF766F9B7
:1016C000054600BF3868C0051ED4FFF75FF9401B10
:1016D0006428F7D905E100BF2069002840F2000026
:1016E000C4F2422000F0828001210160FFF74EF930
:1016F000054600BF306880073FF588AFFFF746F921
:10170000401B0228F6D9ECE0E068002800F0808059
:10171000052800F09780012800F09880306A20F0BA
:1017200001003062306A20F0040092E00020C4F230
:1017300042200021C0F88014FFF728F9054600BFB9
:10174000706A80077FF56CAFFFF720F9401B022815
:10175000F6D9C6E00027C4F2422700203866FFF71A
:1017600015F9022D05460BD13068800140F1BE808D
:10177000FFF70CF9401B02284FF00300F4D968E78B
:10178000306880017FF564AFFFF700F9401B022845
:101790004FF00300F4D95CE740F20800C2F2000009
:1017A000006844F6D351C1F26201A0FB0101480A6E
:1017B000019000BF00BF0198411E002801913FF435
:1017C0002FAF00BF0198411E002801913FF428AFC0
:1017D00000BF0198411E002801913FF421AF00BFD6
:1017E0000198411E00280191E4D119E70021016010
:1017F000FFF7CCF8054600BF306880077FF50DAFD6
:10180000FFF7C4F8401B02284FF00300F4D920E78B
:10181000306A20F001003062306A20F0040030624B
:10182000FFF7B4F8054641F2883700BF306A8007F9
:1018300020D5FFF7ABF8401BB8424FF00300F5D9B5
:1018400007E700BF306A40F004003062306A40F0C1
:1018500001003062FFF79AF8054641F2883700BF71
:10186000306A800706D4FFF791F8401BB842F7D9D9
:1018700037E000BFB8F1000F7FF4D5AEF06920F07B
:101880008050F061CFE600BF306820F480303060D7
:10189000306820F480203060FFF778F8054600BFFC
:1018A000306880037FF59DAEFFF770F8401B642819
:1018B0004FF00300F4D9CCE6306840F4802030606B
:1018C000306840F480303060FFF760F8054600BFB4
:1018D000306880033FF585AEFFF758F8401B642859
:1018E000F6D9032002B0BDE8F08100BF206AB0F550
:1018F000803F05D17168A26821F400311143716005
:101900007168626A21F47411104308437060012009
:101910003866FFF73BF80446306880013FF598AE23
:10192000FFF734F8001B02284FF00300F4D990E6CB
:10193000411E0020B0EB116F1CBF012070474EF21A
:101940001002CEF2000251604EF62351CEF2000199
:10195000F0230B7007219060116070477047000002
:101960007047000010B590F83C20012A4FF00202A9
:101970003FD080F83D200268D2F804E0D2F808C0D9
:101980000C682EF07003234340F6FF34C4F20004C9
:10199000A242536010DCB2F1804F1FD040F20043EE
:1019A000C4F200039A4219D040F60003C4F20003C7
:1019B0009A4213D017E000BF40F60043C4F2000380
:1019C0009A420BD043F20043C4F201039A4205D07D
:1019D00042F60043C4F201039A4204D149682CF054
:1019E0008003194391600121002280F83D1080F8A6
:1019F0003C20104610BD000010B50446022084F8BB
:101A00003D00206841F21112016A114208D1016AB9
:101A100040F24442114203D1016821F0010101600A
:101A2000204600F0ADF80021002084F8461084F82C
:101A30003E1084F83F1084F8401084F8411084F878
:101A4000421084F8431084F8441084F8451084F858
:101A50003D1084F83C1010BD002804BF01207047E1
:101A600010B5044690F83D0028B9002084F83C00E9
:101A7000204600F0ABF8022084F83D00206840F6D4
:101A8000FF330268C4F2000343F2004C9842C4F2F0
:101A9000010C21DCB0F1804F2CD040F20041C4F2A7
:101AA0000001884226D040F60001C4F200018842BD
:101AB00020D0984224DCB0F1804F2FD040F200417A
:101AC000C4F20001884229D040F60001C4F20001AE
:101AD000884223D026E000BF40F60041C4F2000156
:101AE000884207D0604505D042F60041C4F20101AA
:101AF0008842DED1A16822F070020A439842DADD02
:101B000040F60041C4F20001884207D0604505D08C
:101B100042F60041C4F20101884203D1216922F456
:101B200040720A43A36922F08001D4F804E0E2681D
:101B3000194360450160C262C0F828E005D042F652
:101B40000041C4F20101884201D1616901630121B0
:101B50004161002084F8461084F83E1084F83F105C
:101B600084F8401084F8411084F8421084F843103F
:101B700084F8441084F8451084F83D1010BD00002E
:101B8000006840F20041C4F20001884212D042F6DF
:101B90000041C4F20101884218BF704741F21800A9
:101BA000C4F20200016821F4006101601920FFF70E
:101BB00091BB00BF41F21800C4F20200416821F05D
:101BC000020141601D20FFF785BB000010B582B007
:101BD000006840F20041C4F20001884214D042F68D
:101BE0000041C4F20101884228D141F21800C4F238
:101BF00002000168192441F400610160006800F4EA
:101C00000060019001980DE041F21800C4F202005A
:101C100041681D2441F002014160406800F002006B
:101C200000900098204600210022FFF777FB204615
:101C300002B0BDE81040FFF761BB00BF02B010BDAD
:101C400090F83D1001291CBF01207047022180F847
:101C50003D10006840F6FF32C168C4F200029042B5
:101C600041F00101C1600FDCB0F1804F1ED040F2A5
:101C70000041C4F20001884218D040F60001C4F2CD
:101C80000001884212D018E040F60041C4F2000181
:101C900088420BD043F20041C4F20101884205D0D2
:101CA00042F60041C4F20101884206D1816801F088
:101CB0000701062904BF00207047016841F00101B7
:101CC00001600020704700000146006841F21113D6
:101CD000C26822F00102C260026A1A4204D00122E4
:101CE000002081F83D207047026A40F244431A42C6
:101CF000F5D1026822F0010202600122002081F881
:101D00003D20704780B590F83C20012A4FF0020238
:101D100000F0BF8080F83D20D0F800C04FF6777209
:101D2000DCF8083023EA0202CCF808200B683F2BCD
:101D30001CDD5F2B20DD602B50D0B3F5005F6DD034
:101D4000702B40F0A080D1E901E3C968DCF80820DD
:101D500043EA0E0322F47F4243EA01211143CCF807
:101D60000810DCF8081041F077018AE01F2B29DC0D
:101D700063B3102B2AD086E0402B63D0502B40F069
:101D80008280D1F804E0C968DCF82030DCF820203B
:101D900022F00102CCF82020DCF8182022F0F0021A
:101DA00042EA011123F00A0242EA0E02CCF81810AE
:101DB000CCF82020DCF8081041F0570121F0200178
:101DC0005FE000BF202B01D0302B5CD1DCF8081085
:101DD00021F07001194341F0070152E0D1F804E00D
:101DE000C968DCF8203023F01003CCF82030DCF890
:101DF0001830DCF8202023F4704322F0A00243EADC
:101E0000013142EA0E12CCF81810CCF82020DCF890
:101E1000081041F0670121F0100132E0D1E901E33F
:101E2000C968DCF8082043EA0E0322F47F4243EA43
:101E300001211143CCF80810DCF8081041F480416E
:101E40001FE000BFD1F804E0C968DCF82030DCF8FE
:101E5000202022F00102CCF82020DCF8182022F00B
:101E6000F00242EA011123F00A0242EA0E02CCF823
:101E70001810CCF82020DCF8081041F0470121F0C0
:101E80003001CCF808100121002280F83D1080F8C4
:101E90003C20104680BD00007047000010B501686E
:101EA00004460869800744BFC8685FEA807039D477
:101EB0000869400744BFC8685FEA40703ED40869BB
:101EC000000744BFC8685FEA007045D40869C006CF
:101ED00044BFC8685FEAC0604AD40869C0071CBF35
:101EE000C8685FEAC07051D10869000644BFC8687D
:101EF0005FEA006052D40869400644BFC8685FEAE0
:101F0000406053D40869800646BFC8685FEA8060B5
:101F100010BD6FF0200220460A61BDE81040FFF7B7
:101F20001FBD00BF6FF002000861012020778869A3
:101F3000800743D02046FFF7AFFF45E06FF0040075
:101F4000086102202077886910F4407F40D0204645
:101F5000FFF7A2FF42E000BF6FF008000861042015
:101F60002077C86980073DD02046FFF795FF3FE006
:101F70006FF01000086108202077C86910F4407FD6
:101F80003AD02046FFF788FF3CE000BF6FF0010029
:101F90000861204600F03EF82168A5E76FF0800058
:101FA00008612046FFF7DAFC2168A4E76FF04000E3
:101FB0000861204600F03EF82168A3E7204600F0C3
:101FC00025F8204600F024F82168002020776FE7EC
:101FD000204600F01BF8204600F01AF82168002087
:101FE00020776CE7204600F011F8204600F010F84A
:101FF00021680020207769E7204600F007F8204696
:1020000000F006F821680020207766E7704700009E
:1020100070470000006842F60041C4F201018842A6
:1020200018BF704740F2CC00C2F2000001680131D5
:102030000160704770470000FEE700002DE9F043A3
:1020400083B00446006899460368904643F4806272
:10205000026002680B9D42F48072026042690A9E2F
:10206000D2070F461DD1711C11D0002E00F0368111
:10207000FEF78CFC401BB04200F2328120684169BF
:10208000C907F5D00DE000BF4169C90709D1416911
:10209000C90706D14169C90704BF41695FEAC17137
:1020A000F2D007F0FE0707614169890738D441691A
:1020B000721C01F4806111D049BB002E00F03A81FE
:1020C000FEF764FC401BB04200F236812068416993
:1020D000890725D441694905F2D518E0B9B94169A4
:1020E00089071DD44169490511D44169890717D46D
:1020F000416949050BD44169890711D441694905F2
:1021000005D4416989070BD441694905E7D50168C0
:1021100041F4007101606FF48061416104200CE1C1
:1021200000210291014651F8142F02924A6802924E
:10213000029A0A68120620D4002E00F0AB80721CAE
:1021400051D10A68520500F1AD800A68120614D414
:102150000A68520500F1A6800A6812060DD40A68C2
:10216000520500F19F800A68120606D40A685205DB
:1021700000F198800A681206E3D5B9F1010F45D045
:102180004FEA18210161014651F8142F12063DD47F
:10219000002E00F07F80721C2AD10A68520500F1DF
:1021A00081800A68120631D40A6852057AD40A6816
:1021B00012062BD40A68520574D40A68120625D474
:1021C0000A6852056ED40A681206E6D51EE000BF02
:1021D000FEF7DCFB401BB04261D82068014651F895
:1021E000142F1206C9D408684005F1D55AE000BF83
:1021F0000868400556D4FEF7C9FB401BB0424ED8D4
:102200002068014651F8142F1206F1D55FFA88F1C3
:102210000161014651F8142F12061AD4D6B3721C6C
:1022200033D10A6852053DD40A68120611D40A68EF
:10223000520537D40A6812060BD40A68520531D405
:102240000A68120605D40A6852052BD40A681206D9
:10225000E7D50168002241F48071016020464FF00B
:1022600001113346009500F007FA002850D020688D
:10227000006844E0FEF78AFB401BB0420FD820689C
:10228000014651F8142F1206E3D408684005F1D531
:1022900008E000BF0868400504D4FEF777FB202063
:1022A00004E000BF6FF48060086004200021202259
:1022B000216384F83D2084F83E10226C1043206492
:1022C00084F83C10206C042843D12068016841F454
:1022D00000710160012003B0BDE8F083FEF756FBFA
:1022E00000202021206384F83D1084F83E00216CFA
:1022F00041F020012164216884F83C000868C00591
:1023000044BF4FF400702064032003B0BDE8F083A5
:10231000206847F0010101610221C0F2010120465D
:1023200032462B4600F050FA002818BF012003B0B7
:10233000BDE8F083FEF72AFB202000212022216344
:1023400084F83D2084F83E10226C1043206484F809
:102350003C10012003B0BDE8F08300002DE9F043FC
:1023600081B00446006890460268099D42F480727C
:1023700002604269089E9946D2070F461DD1711C22
:1023800011D0002E00F0D280FEF700FB401BB042BF
:1023900000F2CE8020684169C907F5D00DE000BF8A
:1023A0004169C90709D14169C90706D14169C9070E
:1023B00004BF41695FEAC171F2D007F0FE0101611B
:1023C0004169890738D44169721C01F4806111D0D8
:1023D00049BB002E00F0E880FEF7D8FA401BB0425F
:1023E00000F2E48020684169890725D441694905E4
:1023F000F2D518E0B9B9416989071DD44169490589
:1024000011D44169890717D4416949050BD4416941
:10241000890711D44169490505D4416989070BD45D
:1024200041694905E7D5016841F4007101606FF425
:10243000806141610420BAE000210091014651F819
:10244000142F00924A680092009A0A6812061ED45D
:10245000002E00F08580721C4DD10A68520500F1F3
:1024600087800A68120612D40A68520500F180803B
:102470000A6812060BD40A68520579D40A68120653
:1024800005D40A68520573D40A681206E5D5B9F175
:10249000010F43D04FEA18210161014651F8142F72
:1024A00012063BD4002E5BD0721C29D10A6852055B
:1024B0005ED40A68120631D40A68520558D40A68F4
:1024C00012062BD40A68520552D40A68120625D483
:1024D0000A6852054CD40A681206E7D51EE000BF10
:1024E000FEF754FA401BB0423FD82068014651F82D
:1024F000142F1206CBD408684005F1D538E000BF90
:102500000868400534D4FEF741FA401BB0422CD88D
:102510002068014651F8142F1206F1D55FFA88F1B0
:102520000161002001B0BDE8F08300BFFEF72EFA84
:1025300000202021206384F83D1084F83E00216CA7
:1025400041F020012164216884F83C000868C0053E
:1025500044BF4FF400702064032001B0BDE8F08355
:102560000868400504D4FEF711FA202004E000BFFB
:102570006FF480600860042000212022216384F829
:102580003D2084F83E10226C1043206484F83C10F7
:10259000206C042817D12068016841F400710160A3
:1025A000012001B0BDE8F083FEF7F0F92020002102
:1025B0002022216384F83D2084F83E10226C1043D1
:1025C000206484F83C10012001B0BDE8F0830000D5
:1025D00070B50368044653F8140F400737D40E460D
:1025E000F1B1701C24D100BF1868400532D41868BE
:1025F00040072CD4186840052CD41868400726D40E
:102600001868400526D41868400720D4186840058B
:1026100020D4186840074FF0000048BF70BDE3E7C2
:102620001868400516D4FEF7B1F9202016E000BF67
:10263000154600BF186840050CD4FEF7A7F9401BEB
:10264000B042F2D8236853F8140F4007F2D50020A7
:1026500070BD00BF6FF4806018600420002120224C
:10266000216384F83D2084F83E10226C10432064DE
:10267000012084F83C1070BD2DE9F0410546144658
:10268000DDF8188001F47F002A681E46B0F5803F0F
:102690008FB241D150693840C01BB0FA80F0400978
:1026A000A0427BD1701C2DD0002E7BD0FEF76EF99E
:1026B000A0EB0800B04277D8286840693840C01BBA
:1026C000B0FA80F04009A042F0D00020BDE8F081CF
:1026D00050693840C01BB0FA80F04009A0425DD17B
:1026E00050693840C01BB0FA80F04009A04255D173
:1026F00050693840C01BB0FA80F04009A0424FF04A
:1027000000005FD150693840C01BB0FA80F040092A
:10271000A042DDD042E000BF90693840C01BB0FA53
:1027200080F04009A04239D1701C1FD0D6B300BF41
:10273000FEF72CF9A0EB0800B04235D82868806974
:102740003840C01BB0FA80F04009A042F0D0002011
:10275000BDE8F08190693840C01BB0FA80F04009B4
:10276000A0424FF0000018BFBDE8F08190693840EA
:10277000C01BB0FA80F04009A0420FD190693840E8
:10278000C01BB0FA80F04009A04207D190693840E0
:10279000C01BB0FA80F04009A042DBD00020BDE8A9
:1027A000F08100BFFEF7F2F800202021286385F8B1
:1027B0003D1085F83E00296C41F02001296485F820
:1027C0003C000120BDE8F081F0B581B0044600680E
:1027D0001D4643698FB203EA0701B94202D10020C6
:1027E00001B0F0BD41691646013201F480610FD09D
:1027F00059BB9EB3FEF7CAF8401BB04230D82068E0
:1028000041693940B942EAD041694905F2D51CE035
:10281000D9B941693940B942E1D04169490514D477
:1028200041693940B942DAD0416949050DD441695D
:102830003940B942D3D04169490506D4416939408C
:10284000B942CCD041694905E3D5016841F4007132
:1028500001606FF480614161042002E0FEF796F8A8
:10286000202000212022216384F83D2084F83E109E
:10287000226C1043206484F83C10012001B0F0BDAC
:1028800080B584B09C466FF05D0300F00300B1F5A5
:10289000803F38BF6FF05F0343EA80004FF0FF33A3
:1028A0000293C3B240F2D40000928AB2C2F2000096
:1028B00019461023CDF804C0FEF746F9B0FA80F0AF
:1028C000400904B080BD000080B584B09C466FF024
:1028D0005D0300F00300B1F5803F38BF6FF05F0388
:1028E00043EA80004FF0FF330293C3B240F2D400BA
:1028F00000928AB2C2F2000019461023CDF804C03B
:10290000FEF73EFBB0FA80F0400904B080BD000045
:10291000FEE70000FEE7000070470000704700007F
:10292000FEF76EBC7047000040F28400C2F2000067
:10293000FFF7B4BAFEE70000B0B5002900F0CE8082
:10294000CB0705D10D46012900F0C88049E000BF42
:1029500010F801CB4D1E82EA0C2241F2210C0FFA35
:1029600082FE8CEA4204BEF1FF3FC8BF54000FFA5A
:1029700084FE8CEA4402BEF1FF3FC8BF62000FFA3A
:1029800082FE8CEA4204BEF1FF3FC8BF54000FFA3A
:1029900084FE8CEA4402BEF1FF3FC8BF62000FFA1A
:1029A00082FE8CEA4204BEF1FF3FC8BF54000FFA1A
:1029B00084FE8CEA4402BEF1FF3FC8BF62000FFAFA
:1029C00082FE8CEA4204BEF1FF3FC8BF54000FFAFA
:1029D00084FE8CEA4402BEF1FF3FC8BF62000129B9
:1029E0007CD0023841F2210110F8024F023D82EA08
:1029F000042214B281EA4203B4F1FF3FC8BF53007E
:102A00001AB281EA4304B2F1FF3FC8BF5C0022B2B0
:102A100081EA4403B2F1FF3FC8BF63001AB281EA02
:102A20004304B2F1FF3FC8BF5C0022B281EA440315
:102A3000B2F1FF3FC8BF63001AB281EA4304B2F1AA
:102A4000FF3FC8BF5C0022B281EA4403B2F1FF3FFE
:102A5000C8BF63001AB281EA4304B2F1FF3FC8BFA6
:102A60005C00427884EA022213B281EA4204B3F1A4
:102A7000FF3FC8BF540022B281EA4403B2F1FF3FD6
:102A8000C8BF63001AB281EA4304B2F1FF3FC8BF76
:102A90005C0022B281EA4403B2F1FF3FC8BF630089
:102AA0001AB281EA4304B2F1FF3FC8BF5C0022B210
:102AB00081EA4403B2F1FF3FC8BF63001AB281EA62
:102AC0004304B2F1FF3FC8BF5C0023B281EA440275
:102AD000B3F1FF3FC8BF62002B0485D190B2B0BDF7
:102AE0002DE9F04140F2CC06C2F20006376840F60C
:102AF00000480446C4F20108384604E0E91BA1423C
:102B000028BFBDE8F0813568291A6529F6D340460B
:102B10004FF40041FDF72CFF2846EFE7B0B582B037
:102B200040F2D005C2F200052968044629B100F040
:102B3000DDFE2968401A042802D80520FFF7D0FFDF
:102B400004F5FC310DF1060201200223FFF798FE87
:102B500000F0CCFEBDF80610024608462A6002B01E
:102B6000B0BD0000B0B582B040F2D005C2F20005A1
:102B70002968044629B100F0B9FE2968401A0428E2
:102B800002D80520FFF7ACFF04F5FC3101AA0120B3
:102B90000423FFF775FE00F0A9FE019902460846DE
:102BA0002A6002B0B0BD0000B0B582B040F2D005DE
:102BB000C2F200052A6804468DF807102AB100F019
:102BC00095FE2968401A042802D80520FFF788FFDF
:102BD00004F5FC310DF1070201200123FFF774FE1B
:102BE00000F084FE286002B0B0BD0000B6B0FEF771
:102BF00015FB00240120CDE91544CDE913441090C4
:102C000014904FF4E0104FF480310225199010A871
:102C1000CDE91114CDE91751FEF7B0FC20B1EFF367
:102C2000108072B6FEE700BF0F20CDE930054FF4EB
:102C30008060CDE9330430A802213294FEF7AAFB6C
:102C400020B1EFF3108072B6FEE700BF41F218002A
:102C5000C4F20200016840F6004941F02001016021
:102C60000168C4F2010901F0200110911099016876
:102C7000002241F00401016001684FF4004401F0BA
:102C80000401109110990168002641F008010160CB
:102C900000684FF4004100F008001090109848467A
:102CA000FDF76EFE4846042100220427FDF768FE6A
:102CB00001201190022010ADCDE9120048462946AE
:102CC0001094FDF753FD484629461097FDF74EFD39
:102CD00040F27004C2F2000409F50051204640F8A9
:102CE000141F47214FF47A721396CDE91166CDE98E
:102CF0003066C0E90116C0E90326C0E90566FEF7A3
:102D0000ABFE28B1EFF3108072B600BFFEE700BF44
:102D10004FF4805004F114050DF1400A109028463C
:102D20005146FEF7EFFF28B1EFF3108072B600BFF7
:102D3000FEE700BF30A92846FEF714FE20B1EFF3EE
:102D4000108072B6FEE700BF40F2D400A9F534410E
:102D5000C2F2000040F6405200234FF48047C0F218
:102D6000030280E80E00C0E90337C0E90533C0E97B
:102D70000733FDF72DFE28B1EFF3108072B600BFC8
:102D8000FEE700BF204650F8141F6FF001020A61F1
:102D9000FEF756FF4120FFF7E5FE04464520FFF70A
:102DA000BDFE08904C20FFF7DDFE611EC90A7629A2
:102DB000099400F298854CF6DD41CAF6BB218842A1
:102DC00040F0918544F20008099CC0F600084FF6D7
:102DD000FF704FF6FF750D9004E000BFA41BB044D8
:102DE00000F0B681802C264628BF802616F0030E00
:102DF000704618BF012000EB9603002B00F0858180
:102E0000BEF1000F04D0591E032909D20022A4E00C
:102E1000B10808440138032880F0EC80002006E166
:102E200003F07C000F90002008220E960C94CDE950
:102E30000A3511E0300A5871300C987103231820BC
:102E4000141D26FA00F023430AF803000F9B781C98
:102E5000984202F110027BD008EB020B5BF8087C71
:102E600005460AEB0203814203F8087C0CD1BEF14F
:102E7000010F19D0380ABEF1020F03F8070C13D066
:102E80000226102008E000BF380A03F8070C380CAF
:102E900003F8060C03261820A2F1080427FA00F014
:102EA00044EA06070AF807005BF804CC6F1CB94235
:102EB00003F804CC0CD1BEF1010F19D04FEA1C204D
:102EC000BEF1020F03F8030C12D00226102009E015
:102ED0004FEA1C2003F8030C4FEA1C4003F8020CD5
:102EE00003261820141F2CFA00F026430AF80600C7
:102EF00058F802600137B9420AF802600AD1BEF1FF
:102F0000010F11D0300ABEF1020F58700CD0022010
:102F1000102405E0300A5870300C987003201824F3
:102F2000E64010430AF80060DBF804600137B9425C
:102F30001E717FF47FAFBEF1010F3FF487AF300AFF
:102F4000BEF1020F58713FF481AF0223102077E7E2
:102F50002A1D0C9C0E9EDDE90A3513F0030300F0D8
:102F6000D480AB4658F82250A446970091420AF804
:102F700022500FD1BEF1010F1FD0280A344647F06E
:102F80000106BEF1020F0AF80600264615D00226F9
:102F900010200CE03446280A47F001060AF8060023
:102FA000280C47F002060AF806000326182025FA26
:102FB00000F0374326460AF80700012B64465D46B9
:102FC00000F0A380501C58F82050870081420AF876
:102FD00020500E965CD1BEF1010F6AD0280A47F04E
:102FE0000106BEF1020F0AF8060062D00226102088
:102FF0005AE000BF23F00300B4469E464142002041
:10300000002258F8023008EB02074AF802307B68C9
:103010000AEB02067360BB680438B360FB68814248
:1030200002F11002F360ECD140426646734613F0A1
:1030300003016AD058F820200AEB8003170A0AF827
:1030400020205F70170C120E01299F70DA705CD07F
:10305000421C58F822300AEB82070AF822301A0A7A
:103060007A701A0CBA701A0E0229FA704DD0811CAF
:1030700058F821200AEB81030AF82120110A59701F
:10308000110C9970110E0B2202EB80003BE000BF87
:10309000280A47F001060AF80600280C47F0020645
:1030A0000AF806000326182025FA00F037430AF82C
:1030B00007000E9E022B64465D4626D0901C58F8F1
:1030C0002030820081420AF820300FD1BEF1010F7A
:1030D0001BD0180A42F00101BEF1020F0AF80100EC
:1030E00013D0190C42F002000DE000BF180A42F0A4
:1030F00001010AF80100180C42F002010AF801006F
:10310000190E42F003000AF80010B1B2AAB25046FC
:10311000FFF712FC054600F0E9FB40F27001C2F235
:1031200000010968401A6428FFF458AE00F0DEFB85
:1031300040F27001C2F20001086048464FF40041BD
:10314000FDF716FC48460421FDF712FC46E600BFD9
:103150000898854200F0C7834FF6FF7B099F4FF028
:103160000008C0F2010B10AC002502E0BF1B354483
:1031700036D03E46802F28BF80261FFA86FA5D454E
:1031800084BF4FF00108A5F500355FFA88F02946A5
:1031900022465346FFF774FB10B30D98514682B296
:1031A0002046FFF7C9FB0D9000F0A0FB40F2700134
:1031B000C2F200010968401A6428D7D300F096FBD8
:1031C00040F27001C2F20001086048464FF400412D
:1031D000FDF7CEFB48460421FDF7CAFBC6E700BF5A
:1031E00008980D99814240F07E83DDF8248001210A
:1031F0004FEAD82040F270055FEA485218BF01EB51
:10320000D8200021C2F2000544F2000A45F8041F4C
:10321000C0B2C0F6000AC5E902A000200A903091B1
:10322000FDF712FA30A92846FDF736F9FDF7ACF99B
:1032300000260DF1400B09E0DDF824800598069E7C
:10324000B8EB00088244064400F04E8244464FF634
:10325000FF70B8F1800F28BF8024C0F201000A9FE0
:10326000A5B2864284BF0127A6F50036F8B23146E2
:103270005A462B46FFF704FB002800F039825846D7
:1032800029464FF6FF7206960A970895FFF754FBFA
:1032900014F003070790039718BF012707EB940565
:1032A000FDF7D2F9002D0594CDF8248072D0681E68
:1032B0005646CDF83CA04FEA800A0E900AF1010074
:1032C0000B900AF10200A1080C900AF103000D9086
:1032D0008800039C00EB87000297061F2846049590
:1032E000AF004FF0000B0025A046019110E000BF99
:1032F00010A850F80B20A8000F99002301440220C9
:10330000FDF74CF90BF1040B5F4505F1010531D0D8
:103310005FEA0860ECD05E45EAD110AB13F80A1002
:103320005FFA88F0012807D10C98185C41EA004048
:1033300000F57F4015E000BF0B9A02289A5C41EA35
:10334000022103D101F57F000BE000BF0C9A032896
:103350009A5C41EA024003D14FF07F4104E000BF94
:1033600010AB0D99595C090641EA0002A8F1040866
:103370005846C1E7FDF708F90498DDF83CA00DF1C7
:10338000400B48B154B30E98A046032830D2002019
:10339000C4E000BFFDF7F8F8089958464FF6FF72F1
:1033A000FFF7CAFA079940F270048842C2F200049B
:1033B00040F0A08100F09AFA2168401A6428FFF4D6
:1033C0003BAF00F093FA206048464FF40041FDF710
:1033D000CFFA48460421FDF7CBFA2DE7DDE90110CD
:1033E00008440138032880F0E7800020FCE000BF9B
:1033F0000498DDF83CA000F07C0C002008210DF1C1
:10340000400B444611E000BF300A5871300C9871EF
:10341000032018220B1D26FA02F218430BF8002095
:10342000781C604501F1100176D00AEB0105864653
:1034300055F8087C0E980BEB0103704503F8087CE7
:103440000AD1012C17D0380A022C03F8070C12D02D
:103450000226102008E000BF380A03F8070C380CD9
:1034600003F8060C03261820A1F1080227FA00F041
:1034700032430BF8020055F8046C0E980EF1010768
:10348000B84203F8046C09D1012C16D0300A022C82
:1034900003F8030C11D00220102207E0300A03F8D1
:1034A000030C300C03F8020C032018220C1F26FA20
:1034B00002F2204344460BF800205AF801600E98AF
:1034C0000137B8420BF8016008D1012C11D0300A45
:1034D000022C58700DD00220102205E0300A5870DE
:1034E000300C98700320182226FA02F208430BF8D9
:1034F00000206E680E980137B8421E717FF484AFC9
:10350000012C3FF48DAF300A022C58713FF488AF84
:10351000022010227EE700BF0EF104000499DDF8BE
:103520003CA011F003010DF1400B3FF435AF5AF808
:1035300020300E9F820087420BF820300ED1B8F168
:10354000010F1AD01F0A42F00106B8F1020F10ADA8
:10355000AF5512D0022710260BE000BF1F0A42F021
:10356000010610ADAF551F0C42F00206AF55032700
:103570001826F3403A4310AFBB54DDF83CA00129B4
:103580000DF1400B3FF408AF471C5AF827300E9E50
:10359000BA00BE420BF827305CD1B8F1010F68D0F9
:1035A0001F0A42F00106B8F1020F10ADAF5560D00E
:1035B0000227102659E000BF04980F9D20F0030059
:1035C00041420020002210ACAB58AF18A3507B68DA
:1035D000A6187360BB680438B360FB68814202F1CF
:1035E0001002F360F0D140420499DDF83CA011F0E4
:1035F00003010DF1400B3FF4CFAE5AF820200BEB46
:103600008003170A0BF820205F70170C120E012997
:103610009F70DA703FF4C0AE421C5AF822300BEBB8
:1036200082070BF822301A0A7A701A0CBA701A0E36
:103630000229FA703FF4B0AE02305AF820100BEBBA
:1036400080020BF82010080A5070080C9070080EC9
:10365000D070A1E61F0A42F0010610ADAF551F0C55
:1036600042F00206AF5503271826F3403A4310AF45
:10367000BB54DDF83CA002290DF1400B3FF48CAEA9
:10368000821C5AF822100E9B900093420BF82210D5
:1036900016D1DDF83CA0B8F1010F0DF1400B3FF45D
:1036A0007BAE0A0A40F00103B8F1020F0BF80320C9
:1036B0001EBF090C40F002000BF800106CE600BFC2
:1036C0000A0A40F001030DF1400B0BF803200A0C2D
:1036D00040F00203090E40F00300DDF83CA00BF8B7
:1036E00003200BF8001057E60021322504E000BF4C
:1036F000012100E0022196254720FFF755FA5220CC
:103700001221FFF751FA48464FF40041FDF730F916
:1037100048460421FDF72CF92846FFF7E1F9484611
:103720004FF40041FDF724F948460421FDF720F944
:103730002846FFF7D5F948464FF40041FDF718F940
:1037400048460421FDF714F92846FFF7C9F9484611
:103750004FF40041FDF70CF948460421FDF708F944
:103760002846FFF7BDF948464FF40041FDF700F940
:1037700048460421FDF7FCF82846FFF7B1F9484612
:103780004FF40041FDF7F4F848460421FDF7F0F846
:103790002846FFF7A5F948464FF40041FDF7E8F841
:1037A00048460421FDF7E4F82846FFF799F9484612
:1037B0004FF40041FDF7DCF848460421FDF7D8F846
:1037C0002846FFF78DF948464FF40041FDF7D0F841
:1037D00048460421FDF7CCF82846FFF781F9484612
:1037E0004FF40041FDF7C4F848460421FDF7C0F846
:1037F0002846FFF775F948464FF40041FDF7B8F841
:1038000048460421FDF7B4F82846FFF769F9484611
:103810004FF40041FDF7ACF848460421FDF7A8F845
:103820002846FFF75DF948464FF40041FDF7A0F840
:1038300048460421FDF79CF82846FFF751F9484611
:103840004FF40041FDF794F848460421FDF790F845
:103850002846FFF745F948464FF40041FDF788F840
:1038600048460421FDF784F82846FFF739F9484611
:103870004FF40041FDF77CF848460421FDF778F845
:103880002846FFF72DF948464FF40041FDF770F840
:1038900048460421FDF76CF82846FFF721F9484611
:1038A0004FF40041FDF764F848460421FDF760F845
:1038B0002846FFF715F948464FF40041FDF758F840
:1038C00048460421FDF754F82846FFF709F9484611
:1038D0004FF40041FDF74CF848460421FDF748F845
:1038E0002846FFF7FDF8FCF7CFFC000040F2CC00C3
:1038F000C2F20000006870470102000000000000F2
:10390000000001020304060708090000000001028C
:10391000030402030405060708090A0B0C0D0E0F29
:1039200010100000483900080000002010000000BE
:103930006C01000858390008100000204007000002
:1039400088010008000000000100000010000000D5
:083950000024F4000000000057
:0400000508000131BD
:020000040800F2
:10400000C02900207942000825D9000865B90008B8
:104010009DD60008B17900083904010800000000AD
:1040200000000000000000000000000061EE000839
:1040300061850008000000007DDC000865EE0008D6
:1040400093420008934200089342000893420008FC
:1040500093420008934200089342000893420008EC
:1040600093420008934200089342000855850008D7
:1040700093420008934200089342000893420008CC
:1040800093420008934200089342000893420008BC
:1040900093420008934200089342000893420008AC
:1040A000934200086DEE0008934200089342000816
:1040B0009342000879EE00089342000893420008FA
:1040C000934200089342000893420008934200087C
:1040D00093420008210401082D04010893420008BE
:1040E000934200089342000893420008934200085C
:1040F000934200089342000893420008934200084C
:10410000934200089342000893420008934200083B
:10411000934200089342000893420008934200082B
:10412000934200089342000893420008934200081B
:1041300000F002F800F090F80AA090E8000C824429
:104140008344AAF10107DA4501D100F085F8AFF206
:10415000090EBAE80F0013F0010F18BFFB1A43F065
:104160000103184720F2010040F201000A444FF019
:10417000000C10F8013B13F0070408BF10F8014BC6
:104180001D1108BF10F8015B641E05D010F8016B0B
:10419000641E01F8016BF9D113F0080F1EBF10F86F
:1041A000014BAD1C0C1B09D16D1E58BF01F801CB92
:1041B000FAD505E014F8016B01F8016B6D1EF9D515
:1041C0009142D6D37047000000230024002500262A
:1041D000103A28BF78C1FBD8520728BF30C148BF6A
:1041E0000B6070476E2900F02381702900F0F08188
:1041F00066291EF09184692900F0DE80642900F0B0
:10420000DB80752900F0D8806F2900F08381782940
:1042100000F0D1810368DB0928BF41F080016329E8
:1042200000F0D987732900F0DE87E32900F0E987E1
:10423000002070471FB500F031FD04000020002170
:104240001DF0EAFC401C6060002000211DF0FAFC1B
:10425000E0601FBD10B510BD01F062FB1146FFF715
:10426000E9FF18F041FF01F0FDFD03B4FFF7F2FF95
:1042700003BC02F03DF800000948804709480047A8
:10428000FEE7FEE7FEE7FEE7FEE7FEE7FEE7FEE706
:10429000FEE7FEE704480549054A064B7047000063
:1042A00069EE000831410008C0230020C029002029
:1042B000C0250020C025002010B500F0EFFC001D37
:1042C00010BD00BF55D901000FB41CB5084B06AA9C
:1042D0007B4469460090059800F05BFF044600208F
:1042E000694600F069FF20461CBC5DF814FB000025
:1042F000E50E000070B5044685690068C10601D569
:10430000302600E02026C00707D070BDD4E9012187
:1043100030469047206A401C20626D1EF6D570BD65
:1043200070B5044685690078C00707D170BDD4E92F
:10433000012120209047206A401C20626D1EF6D586
:1043400070BD09684A0501D540B27047C905FCD562
:1043500000B2704709684A0501D5C0B27047C90567
:10436000FCD580B2704770B50C460546012A05D0D1
:104370002878800600D5EA69002302E0012305E0E1
:104380005B1C934202D2E05C0028F9D1A869E618D0
:10439000C01AA861286A184428622846FFF7AAFFB5
:1043A00004E0D5E9012114F8010B9047B442F8D399
:1043B0002846FFF7B5FF70BD2DE9F0410646002401
:1043C00010687529314616A510D0FFF7BAFF0028EE
:1043D00002DA404213A507E031688A0701D512A529
:1043E00002E0490704D511A5012401E0FFF7B2FF5F
:1043F00000210A2206F1240709E0B0FBF2FCB0FB21
:10440000F2F302FB1C00303078541846491C002897
:10441000F3D123462A463046BDE8F04100F04DBCBA
:10442000000000002D0000002B0000002000000014
:1044300011680268006A530501D508700AE0D305C7
:1044400001D5088006E0130603D5C217C1E90002B2
:1044500000E00860012070472DE9FF5F15468A469D
:104460000446DFF8AC80F8440027D8E900103E4647
:10447000CDE9001010E03AF816106A4602A800F0E4
:1044800069FF411C07D02178890603D5E2693918F4
:1044900091420DD80744761C2078800602D5E06949
:1044A000B84205DDAE42E6DB3AF816000028E2D15C
:1044B000A069C01BA0612046FFF71CFFD8E90010CF
:1044C000CDE90010002017E03AF818106A4602A85B
:1044D00000F040FFB0F1FF3F81460BD000250DF109
:1044E000080B05E0D4E901211BF8050090476D1C7D
:1044F0004D45F7D308F10100B0428046E4DB206A65
:10450000384420622046FFF70BFFBDE8FF9F000004
:10451000AEE7010070B5044621461068FFF71AFFA8
:10452000002104F1240505E000F007023032C00844
:104530006A54491C0028F7D12068002308A2050707
:1045400008D500F02000084304D0E069012305A24B
:10455000401EE0612046BDE8704000F0AEBB0000A8
:104560000000000030000000F0B40D46018809058D
:1045700002D51B4C7C4402E0194C7C440E340021D3
:1045800000F1240305E002F00F061209A65D5E5457
:10459000491C002AF7D102780023120704D5702D98
:1045A00006D009B1022311342246F0BC00F085BBCD
:1045B00001231034F8E770B504460D462146106813
:1045C000FFF7C8FE024629462046BDE87040CBE70B
:1045D0000368126843F0200303600823C361C3E744
:1045E000A8E601002DE9F05F894604464FF0000A75
:1045F000DFF874B1FB44C0F820A02046E16888478A
:10460000002874D0252806D0D4E901219047206ADB
:10461000401C2062F1E700265F462046E16888479B
:104620002028054607DB312D05D2781910F8200C1B
:1046300008B10643F1E7B00701D526F00406C4F837
:104640001CA00027C4F818A02A2D09D028461DF068
:1046500026FA38B304EB8708303DC8F8185019E043
:1046600059F8041B204604EB87029161E1688847F2
:10467000012F054618D1E069002820DA26F020062F
:104680001DE0D8F8180000EB800005EB4000303842
:10469000C8F818002046E168884705461DF0FFF974
:1046A0000028EED1012F0AD02E2D08D12046E16836
:1046B00088477F1C0546022F46F02006C4DBA06910
:1046C000002803DA404246F00106A061F00701D05D
:1046D00026F010066C2D0BD0682D09D04C2D39D04A
:1046E0006A2D35D0742D35D07A2D33D016E038E0D0
:1046F000E1682F4620468847B842054609D16C2F0D
:1047000026D04FF48060E16806432046884705467E
:1047100004E06C2F1AD04FF4807006430DB3A5F15E
:104720004100192802D8203546F400664A46294639
:10473000204626604E46FFF755FD80B101280BD07C
:10474000F61D26F0070000F1080956E74020E4E7CF
:104750008020D8E70020D6E706F104094DE7284677
:1047600052E7206ABDE8F09F50E601000FB400B5A3
:104770008DB010A9099000910B904FF0FF300A9076
:1047800000200C90064878440690064878446A4613
:1047900007900F9909A800F055FD0DB05DF814FBC6
:1047A000DB0A0000F30A00002DE9FF5F1D464FF011
:1047B000FF3B91464FF000085F46D5E90146A969E5
:1047C00001987F1C8847296A824688470028F6D1CD
:1047D000BAF1FF3F0CD0002E24F4C06419DD60064E
:1047E00014D5BAF12B0F09D0BAF12D0F0ED103E079
:1047F000584604B0BDE8F09F44F48064A96901986C
:104800007F1C8847761E8246002E02DDBAF1300FEB
:1048100003D0B9F1000F26D032E0A969761E0198C5
:104820007F1C44F400748847002E824605DDBAF1EF
:10483000780F06D0BAF1580F03D0B9F1000F10D09D
:104840001EE0B9F1000F02D0B9F1100F18D1A9691B
:10485000761E01987F1C24F400748847824610203D
:1048600002E0082000E00A20814609E0A96908FB6F
:104870000908761E01987F1C44F40074884782461C
:10488000002E05DD4946504600F0C7FC0028EDDA51
:10489000E96901988847A00502D46FF00100A8E7F4
:1048A000E00725D1600613D5600502D5C8F10000E8
:1048B00000E0404629680A1D2A600968220501D5E2
:1048C000087015E0220701D5088011E008600FE0AC
:1048D0002868011D29600068210502D580F8008044
:1048E00006E0210702D5A0F8008001E0C0F80080B2
:1048F00038467EE7401ECAB210F8011F8A4202D035
:104900000029F9D10020704730B505460B462A46EC
:1049100013F8014B12F8010B08B1A042F8D01CB1FA
:10492000002802D06D1CF1E7284630BD40EA0103A3
:1049300010B59B070FD1042A0DD310C808C9121F48
:104940009C42F8D020BA19BA884201D9012010BD82
:104950004FF0FF3010BD1AB1D30703D0521C07E04F
:10496000002010BD10F8013B11F8014B1B1B07D1B3
:1049700010F8013B11F8014B1B1B01D1921EF1D124
:10498000184610BD40EA0103024630B59B0710D11E
:104990004FF0013400E008C208C91D1B9D4315EA11
:1049A000C41FF8D013F0FF0102F8011B0DD01B0A41
:1049B000F8E711F8013B002B02F8013B05D011F894
:1049C000013B002B02F8013BF3D130BD10B5431C75
:1049D00002E010F8011B71B18107FAD14FF00132EA
:1049E00002C88C1A8C4314EAC211F9D0C01A0A0604
:1049F00003D0C01E10BDC01A10BD0A0401D0801E15
:104A000010BD0902FCD0401E10BD40EA010370B584
:104A10009B072ED14FF00136042A2AD308C810C9AB
:104A20009D1B9D43121F15EAC61517D0D8B2E1B2DF
:104A3000401A50EA056110D198B2A1B2401A50EA6A
:104A400005410AD123F07F4024F07F41401A50EA0B
:104A5000052102D1180EA0EB146070BDA342DBD07B
:104A600018BA21BA884201D9012070BD4FF0FF3039
:104A700070BD0AB9002070BD10F8013B11F8014B60
:104A800063B1A3420AD1521E08D010F8013B11F8BD
:104A9000014B1BB1A34201D1521EEDD1181B70BDB9
:104AA000421E12F8013F002BFBD111F8013B002BF5
:104AB00002F8013BF9D1704710B5203AC0F00B80E5
:104AC000B1E81850A0E81850B1E81850A0E8185004
:104AD000203ABFF4F5AF5FEA027C24BFB1E818507A
:104AE000A0E8185044BF18C918C0BDE810405FEADC
:104AF000827C24BF51F8043B40F8043B08BF704758
:104B0000D20728BF31F8023B48BF11F8012B28BF5C
:104B100020F8023B48BF00F8012B704702F0FF036A
:104B200043EA032242EA024200F024B84FF00002B6
:104B30000429C0F0128010F0030C00F01B80CCF1AF
:104B4000040CBCF1020F18BF00F8012BA8BF20F81D
:104B5000022BA1EB0C0100F00DB85FEAC17C24BF71
:104B600000F8012B00F8012B48BF00F8012B70471B
:104B70004FF0000200B5134694469646203922BFF6
:104B8000A0E80C50A0E80C50B1F12001BFF4F7AF41
:104B9000090728BFA0E80C5048BF0CC05DF804EB23
:104BA000890028BF40F8042B08BF704748BF20F891
:104BB000022B11F0804F18BF00F8012B704710B581
:104BC000044610F0030F08BF11F0030F40F01580EA
:104BD0004FF0013E121FC0F20E8051F8043BA3EBD0
:104BE0000E0C2CEA030C1CEACE1C08BF40F8043B58
:104BF000F0D0A1F1040102F10402521E08DB11F809
:104C0000013B00F8013B002BF7D11146FFF78EFF67
:104C1000204610BD4FF0013C50F8042B51F8043BE6
:104C20009A4221D1A2EB0C03934313EACC1317D180
:104C300050F8042B51F8043B9A4215D1A2EB0C0317
:104C4000934313EACC130BD150F8042B51F8043BD7
:104C50009A4209D1A2EB0C03934313EACC13DBD0A5
:104C60004FF00000704700BFD01A01BAB1FA81F1CD
:104C700001F0180122FA01F0CB40DBB2C0B2C01A39
:104C8000C1F120012CFA01F3D11A914311EAC311A9
:104C9000E6D1704770477047704700000048704782
:104CA000F80F002010B500F07DFB006810BD10B5B6
:104CB000044600F077FB046010BD2DE9F0470D4677
:104CC00099469246044600F124080168880604D5F6
:104CD000E06921F01001216000E00120A84201DD1F
:104CE000471B00E00027A1697A1902EB0900081AA6
:104CF000A0612078C00602D42046FFF7FBFA002608
:104D000008E0D4E901211AF806009047206A401C07
:104D1000761C20624E45F4DB2078C0060AD520467A
:104D2000FFF7E8FA06E0D4E9012130209047206A35
:104D3000401C2062381EA7F10107F4DC07E0D4E92B
:104D4000012118F805009047206A401C2062281EA7
:104D5000A5F10105F3DC2046FFF7E2FA2078000612
:104D600002D50220BDE8F0870120FBE72DE9FF4FC7
:104D70000C461E464FF0FF378BB0D2E90001DDF83C
:104D800060800A908A46C1F30A5505B93D46002164
:104D900008464FF00000BAF1000F00F4400005DAB9
:104DA00000EB80004FF4400101EA50004FEA9059B7
:104DB000B9F1010F00DDB9460A9850EA4A000ED059
:104DC00044F61050A5F2FF3545432F14B8F1000FFB
:104DD0001ED07542291E1EDDC9F100021CE0B8F18B
:104DE000010F4FF0000001D0302103E0F24305E055
:104DF0002154401CB042FBDB3046002200212154EC
:104E00000B99C1F80880C1E900200FB0BDE8F08F10
:104E1000BD1B6D1CDEE74A4600DA694206A800F0B9
:104E20000DFD06AB93E8070003AB83E8070050468F
:104E30000A991CF06BF98DE80700A0F500501F38A7
:104E400000900398002D0ADD42F21F014A460844F3
:104E5000002303A9039068461CF016FC09E0A0F5A6
:104E600000504A461F38002303A9039068461CF0EF
:104E700035FC8DE807000004000C03D04FF0FF3034
:104E8000410800E01046B8F1000F03D00022009264
:104E900015461EE0751E05D400F088FA30326255C2
:104EA0006D1EF9D5B3460122084302D000227F1CB3
:104EB00004E02078302801D100227F1E002A0997C3
:104EC00084D01DE0112D07DA00F070FA30326255FF
:104ED0006D1C50EA0102F5D1084302D00098C8B118
:104EE0000EE00021681E05E0235C625C63542254DE
:104EF000401E491C8142F7DBAB46A81B401E0990AF
:104F0000002004F80B000B98099AC0F80880C0E94B
:104F1000002B7AE711264FF0000857E72DE9F04FF4
:104F200088460446D21D22F0070191B0D1E9000164
:104F3000CDE90A011CF01EFD02460B98C00F01D0FE
:104F40002D2007E02068810701D52B2002E02021D9
:104F500001EAC000032A099001D0072A05DB0346B5
:104F60004146204600F070FA0BE12078800601D51A
:104F7000E06900E00620B8F1650F814606D0B8F17F
:104F8000660F18D0B8F1670F70D131E00020B9F189
:104F9000110F009001DB112301E009F101030AAABE
:104FA00001A90CA8FFF7E2FEDDE90C70002609F16B
:104FB0000105834647E001204B4600904FF0004733
:104FC0000AAA01A90CA8FFF7D1FEDDE90DB00C99E2
:104FD0005D46002610B909F101000D18B9EB050076
:104FE00003D4C0F1FF3609F10105A5EB09002BE060
:104FF000B9F1010F01DA4FF001090020B9F1110FE9
:105000000090484601DD112300E003460AAA01A9E9
:105010000CA8FFF7ABFEDDE90C704D460026834679
:10502000207800070AD4AB4500DA5D4601A8012DBF
:1050300004DD411911F8011C302907D04F4502DA6F
:1050400017F1040F04DA012082460FE06D1EEEE72F
:10505000002F02DCED1B3E4403E0781CA84200DD7B
:105060007D1CB81B00F1010A4FF0004720780007B3
:1050700003D4AA4501DB4FF0FF3A0021B7F1004FFE
:105080000DF143088DF8431024D002202B23002F6C
:1050900001DA7F422D230A21021EA0F1010000DC6B
:1050A0005FB197FBF1FC97FBF1F201FB1C7C17460B
:1050B0000CF1300C08F801CDEEE7A8F10100037007
:1050C0002188090501D5452100E06521A0F10108ED
:1050D00000F8011C09980FA9A1EB0807FF1D00B1FA
:1050E0000120411901EBEA70A1693844081A401EF9
:1050F000A0612078C00602D42046FFF7FBF809988B
:1051000028B1D4E901219047206A401C2062207810
:10511000C00622D52046FFF7EDF81EE0002E04DB86
:10512000B34502DD01A8805D00E03020D4E9012113
:105130009047206A401C2062761CAAF101005FEAB9
:10514000000A0AD1FFF7AAFDC0680168405CD4E9F3
:1051500001219047206A401C2062281EA5F101050C
:10516000DCDC07E0D4E9012118F8010B9047206A44
:10517000401C2062381EA7F10107F3DC2046FFF730
:10518000CFF8032011B041E601694A1C026108789A
:10519000704700B58FB0CDE9013100210591054977
:1051A0007944CDE9031011466846FFF71BFA0FB0AA
:1051B00000BD0000E5FFFFFF0A6802F8010B0A606E
:1051C000704710B5436913B1AFF3008001E0FFF7FA
:1051D000CAF8012010BD127800F124010A700022E3
:1051E0004A700122EDE711684FF0FF32E9E710B590
:1051F000436913B1AFF3008001E0FFF72DF90120FF
:1052000010BD128800F1240182840022C284012290
:10521000EDE711684FF0FF32E9E73A2800D2303865
:1052200020F02002412A01D3A2F13700884201D3A5
:105230004FF0FF307047000002681144137801609E
:1052400018467047D1600549794451610449794451
:10525000116200211161114600F036B9EDFFFFFF28
:10526000E5010000426842B1016811F8013B23B139
:10527000521EC0E90012184670470121C160881E05
:10528000704742685AB1C368016843B983688B426A
:1052900005D0491E521CC0E90012002070474FF093
:1052A000FF3070470FB40B0010B54FF000048AB008
:1052B0000FA900910E99CC60234C7C44234A7A4478
:1052C000CDE9064200D004236FF00042CDE901325F
:1052D0001F4A7A446B460892024600201DF07EFC6D
:1052E0000AB010BC5DF814FBF0B507464FF0FF3074
:1052F0001E4615460C463B4685B06A460091CDE9F0
:10530000010131460020049004A8FFF7CBFF049967
:105310000346601825B109B1024600E022462A6022
:1053200000290ED0002B02DD0099814209D03B46B6
:105330006A463146001B0094CDE9010404A8FFF73A
:10534000B1FF05B0F0BD0000A7FFFFFFC1FFFFFFE9
:10535000610100002DE9F04116460C460546FEF7B6
:10536000ABFF036893F80101012807D0FF2C12D886
:10537000185D80B101202C70BDE8F081D3F80701E1
:105380003246214603F20713C7182846BC46BDE83B
:10539000F041002360474FF0FF30EDE700487047D1
:1053A000D80F002000487047D80F002030B5B0F16A
:1053B0000A0271F100034FEA900E4EEA817EB0EBD3
:1053C0000E0061EB91014FEA101E4EEA017E10EBD8
:1053D0000E0041EB11114FEA102E4EEA016E10EB58
:1053E0000E0041EB11214FEA104E4EEA014E10EB38
:1053F0000E0041EB1141401841F100014FEAD0008D
:1054000040EA41704FEAD1014FEA810444EA9074C6
:1054100010EB800544EB01046D1944EB0404521BAE
:10542000A3414FF0000348BF0A3200D530BD401CF5
:1054300041F1000130BD10B50446FEF73DFF0068A4
:10544000005D00F0010010BD2DE9F0411F4604464B
:1054500003260168072A01F4006004DB08B116A5E1
:1054600005E016A503E008B115A500E015A521F09B
:1054700010002060A069C01EA0610FB1401EA06195
:105480002046FEF737FF4FB1D4E901213846904757
:10549000206A401C2062C01C206206E0206AFAE7F5
:1054A000D4E9012115F8010B9047761EF8D2204669
:1054B000FEF736FFBDE8F0814E414E006E616E0092
:1054C000494E4600696E66002DE9F34F4FF0000A21
:1054D0000C4656468DB001200C9001F10C000B904B
:1054E00062690B9801219047051E2DD0252D2CD0E7
:1054F000216A8847C0B162690B9801219047216AEF
:1055000088470028F7D16269411E0B98904700E058
:10551000761CA1690D988847216A88470028F7D131
:10552000E1690D988847DBE7A1690D988847A84293
:10553000074601D1761CD3E7E1690D9888477F1CA7
:1055400002D1BAF1000F6FD06BE162690B980027AE
:105550003D46394690472A2804D162690B980121BB
:1055600090470125DFF8D08262690B9801219047AE
:10557000A0F130010A290AD24745E5DC07EB870193
:1055800000EB4107303FDFD445F01005ECE7E906BA
:1055900001D46FF000476C280AD04C2814D068283A
:1055A00015D06A280DD074281CD07A281AD01DE096
:1055B00062690B98012190476C2802D045F00405E0
:1055C00014E045F002050DE045F020050AE06269AF
:1055D0000B9801219047682802D045F0080505E0A6
:1055E00045F4006562690B9801219047C4E90157B1
:1055F00065283DD019DC58287AD00CDC452837D0F6
:1056000004DC252826D041289ED131E046282FD021
:10561000472899D12CE05B2877D0612828D06328CF
:105620007CD0642823D15AE0F6E06F2848D008DC0B
:1056300066281DD067281BD0692821D06E2816D176
:1056400027E0702845D0732868D0752847D078287F
:105650000DD14DE0A1690D988847252805463FF4F6
:1056600069AFE1690D9888476D1C3FF46AAFD8E0D7
:105670000D9923466A466FF001001DF0AFFAC5E0B0
:1056800045F0400023464FF000026060A80736D482
:105690003EE0E8077FF447AF2068011D2160006805
:1056A000290501D506701BE7290701D5068017E7F4
:1056B000A90703D5F117C0E9006111E706600FE7FC
:1056C00045F0400023464FF008026060A80716D45A
:1056D0001EE040F60E0125EA0100606016E045F08C
:1056E000400023464FF00A026060A80707D40FE08D
:1056F00045F040006060A80708D5234610220D99A8
:105700006FF00100AFF3008080E007E01022234635
:105710000D996FF00100FFF747F877E04FF00009AF
:1057200063284F46C8464B46CB4602D05B2806D07E
:1057300038E0E80601D40120A060012732E0626968
:10574000D4F80CB00B98012190475E2807D14FF098
:10575000010949466269D4F80CB00B989047216959
:1057600039B900210A4603AB43F82120491C082916
:10577000FADBD8B3216949B308F1010862690B98D3
:10578000012190475D28F4D1B9F1000F09D0002024
:1057900003A951F82020D24341F82020401C0828BA
:1057A000F7DB03AB2069002820794FEA40701ED058
:1057B0005B462246CDF80080CDE901970D9900287F
:1057C0006FF0010020DAAFF300801FE0C11703AAD9
:1057D00000EBD1614B1121F01F0102EB8302411A52
:1057E00013680120884003431360C7E719E00D994F
:1057F000224600286FF00100009702DAAFF3008024
:1058000004E0AFF3008001E0AFF3008000280ADA83
:10581000401C06D10C9820B14FF0FF300FB0BDE80E
:10582000F08F5046FAE7E90701D10AF1010A064470
:1058300000200C9054E60000CCCCCC0C2DE9F047B5
:10584000814616468AB0354878440DC88DE80D006B
:1058500032487844801C03AC0DC884E80D0041F642
:105860009B300844372190FBF1F290FBF1F5A5F154
:10587000800501FB12041B3C02D56442012000E0BC
:105880000020DFF898A080460027FA44AAF1BE0A5B
:105890000EE0E0070AD03246684607EB47010123D5
:1058A0000AEB81011BF01AFF8DE8070064107F1CD2
:1058B000002CEED1194F7F44AE3F19E0E80715D018
:1058C00007EB04100DF1180A90E80E008AE80E00AC
:1058D000C068F04201D1981908903246012306A908
:1058E00003A81BF0FBFE03AB83E807006D10641CEC
:1058F000002DE3D14FF0010332466946B8F1000FA5
:1059000003A802D01BF0C0FE01E01BF0E7FEC9E9CE
:105910000001C9F808200AB0BDE8F0878CD4010066
:105920007546FFF73BFDAE4605006946534620F03D
:105930000700854618B020B5FEF7ACFCBDE8204056
:105940004FF000064FF000074FF000084FF0000B3B
:10595000AC46ACE8C009ACE8C009ACE8C009ACE8AA
:10596000C00921F007018D46704700002DE9FF4F67
:1059700006468BB00878FF2806D0491C2D2805D094
:1059800000244FF0000908E000200CE00124F8E7B3
:1059900009EB8903491C00EB43090878FF28F7D17C
:1059A00014B1C9F100008146107800252C46AA46A2
:1059B00029462D2801D02B2804D1521C2D2813D084
:1059C000002082468B461078FF280FD04FF0000C45
:1059D0000A21521CA5FB017804FB018105FB0C1177
:1059E000C5194BEB0104EEE70120EAE70021084668
:1059F0004FF00000BAF1000F02D000EB8000400829
:105A0000C0F38157012F01DD4FF0FF370E9955EAA2
:105A1000040009EB01080BD04FF0020918F5FA7FDA
:105A200016DA4FEACA70002F706008DD012007E027
:105A30004FEACA70C6E900B00FB0BDE8F08F002091
:105A40003060FFF7AFFCC0F800901821084616E060
:105A5000B8F5FA7F18DD002F02DAF748784401E044
:105A6000F6487844D0E90010C6E9001040EACA7050
:105A70007060FFF797FCC0F80090142108460FB043
:105A8000BDE8F04F1DF045B8002108464FF000007A
:105A9000B8F10001099002DAC7F1000200E03A46CD
:105AA00001DAC8F1000106A8FFF7C8FE06AB93E8CB
:105AB000070003AB83E8070044F23E005BEA040101
:105AC0000090584604D144F21E012C465D460091D8
:105AD000210C0904014306D10099240444EA154429
:105AE0002D041039009104F07F41014306D1009943
:105AF000240244EA15642D020839009104F0704133
:105B0000014306D10099240144EA15742D01091FAF
:105B1000009104F04041014306D10099A40044EAF9
:105B20009574AD00891E009104F00041084304D132
:105B300000986D196441401E00904FF001033A46F1
:105B40006846B8F1000FCDE9014503A902DD1BF05D
:105B5000DAFD01E01BF0ADFDBAF1000F04460D4681
:105B600001D084F00044002108464FF0000009995C
:105B700040F2FF77484010F00C0F07D124F00040AE
:105B8000284303D0C4F30A50B84212D1FFF70AFCED
:105B9000C0F80090C4F30A50B8420AD1A84878442B
:105BA000D0E90010C6E9001004F00041084370601D
:105BB00042E7C6E900543FE72DE9FF4F1F464FF08B
:105BC000000A4FF0FF38454691B0D7E90146CDF8BD
:105BD0003CA0FFF763F8C0680168405C1090B969A9
:105BE00012986D1C8847396A814688470028F6D18B
:105BF000B9F1FF3F0AD0002E24F4D06411DDB9F1D1
:105C00002B0F08D0B9F12D0F0BD102E0404615B093
:105C100013E744F48064B96912986D1C8847761EB6
:105C20008146600504A901D52D2000E02B20002E1F
:105C300001F1010B0DF130088DF810003FDDB9F1D5
:105C4000690F08D0B9F1490F05D0B9F16E0F02D034
:105C5000B9F14E0F1CD13B4601A8009580E85002D7
:105C6000DDE912126FF002001CF0BCFFC11CCED1A6
:105C70000EE0B96912986D1C884781461398761E0C
:105C800044F4007405600F98401C002E0F9016DD40
:105C9000B9F1300FEDD0B9F1780F02D0B9F1580F4A
:105CA0000DD10F9801280AD13B46CDE90054DDE91A
:105CB0001212001F02961CF093FFC11CA7D110996D
:105CC00089453ED144F0800406E01399681CAAF18E
:105CD000010A44F400740860B9696D1C1298761EBC
:105CE000884730288146F0D02BE01099894505D1AE
:105CF000200603D4761E44F0800418E048461BF0CA
:105D0000CEFE08B3761E0DF123029345A9F13000B3
:105D100044F4007406D20BF8010B200607D5AAF153
:105D2000010003E0200602D40AF101008246A0052A
:105D300002D51399681C0860B96912986D1C8847D0
:105D40008146002ED1DC53E0002E51DDB9F1650F04
:105D500002D0B9F1450F4BD1A00549D5B9696D1CE9
:105D60001298761E24F440748847002E81460CDD7C
:105D70002B2804D0B9F12D0F07D144F48074B969F0
:105D800012986D1C8847761E8146E00501D52D21AD
:105D900000E02B2108F8011BCDF8008021E0761EE1
:105DA0000DF13901884544F400740CD2A9F130009A
:105DB00010F0FF0088F8000002D10099884509D949
:105DC00008F1010806E0E00501D51E4801E042F2B5
:105DD0000F708246B96912986D1C884781461398E6
:105DE0000560002E04DD48461BF059FE0028D6D180
:105DF000F96912988847FF2053468BF8000088F80D
:105E0000000000200A900B9004AA0CA90AA8FFF732
:105E1000ADFDA00502D46FF00100F8E614F0240FE8
:105E200012D0E0071CD13868DDE90A12031D3B607F
:105E30000068C0E9001213E04CD901003ED901000E
:105E400002D80100F1D8FFFF0AA968461BF0B6FD91
:105E5000E00705D13868009A011D396000680260CA
:105E60002846D4E610B50446AFF300802046BDE8CE
:105E70001040FEF7FAB9B2F120030AD5C2F12003AF
:105E800001FA02F120FA03F341EA030100FA02F0F9
:105E9000704700FA03F14FF0000070472DE9FF4F03
:105EA0001F464FF03C0987B04FF00042DDE9141067
:105EB00001F10108DDF858A002EA405003900020EB
:105EC00005908346054604460490B969461E089825
:105ED0008847AAF1010A0290BAF1000F3BDD02984F
:105EE0002E2815D01021FFF798F900282EDB4FF04F
:105EF000010B0599014317D0B9F1000F0BDB4A469E
:105F0000C117FFF7B8FF05430C43A9F1040905E0E9
:105F1000012004900BE008B145F001050120059037
:105F2000049820B9361D02E0049800B1361FB96903
:105F3000089808F101088847BBF1000FAAF1010A8F
:105F40000290C9D00999C1F80080C5E7029870286D
:105F500008D0502806D0F96908988847BBF1000F8F
:105F600014D04FE0002002900120BBF1000F0490FC
:105F700009D0B969089808F101088847AAF1010910
:105F8000B9F1000F07DCF969089888476FF0010044
:105F90000BB0BDE8F08F2B2804D02D280CD14FF08A
:105FA000FF300490B969089808F101088847A9F101
:105FB0000109B9F1000FE6DD411CE4D00A21FFF729
:105FC0002CF90028DFDB029908F1010801EB8101BF
:105FD00000EB41000290B969089888470A21FFF751
:105FE0001CF9099AA9F10109B9F1000FC2F8008062
:105FF00001DD0028E7DAF9690898884704990298D2
:1060000000FB016655EA040004D004F04041090099
:1060100002D006E0039898E0A40044EA9574AD002D
:10602000B61E04F00041080002D16D196441761ECD
:10603000159810F0240F03D04FF00B095C4803E0D3
:106040004FF028096FF07D008246564507DAAAEB2B
:1060500006018944B9F1410F01DD4FF041090120EA
:106060000021A9F10102FFF706FF024628400B4676
:106070002140084301D0012100E00021501E02917F
:1060800043F1FF3128402140084301D0012000E0C6
:1060900000200299834651EA0B014FD000210846A7
:1060A0004FF00000039900F4400039B100EB80008C
:1060B0004FF4400100EBD07001EA60008015012828
:1060C00002DD4FF0FF3000E013D0401C36D00298C4
:1060D00060B3BBF1000F0CD14A4601200021FFF74D
:1060E000CAFE28402140084301D0012000E00020E2
:1060F000E0B101204A460021FFF7BDFE03464019EA
:106100000A4661412D1A8C4111D3B9F1400F09DDC6
:10611000159810F0240F02D0AAF1340603E0AAF17A
:10612000170600E0761C00254FF0004406E05B1ED9
:1061300042F1FF3220EA030521EA0204CAF101001C
:10614000B04206DA1B4903980843019000200090F2
:106150000EE0039AC4F3D321E80A0A43164940EA41
:1061600044500A433146CDE9000268461BF08CFCDE
