:020000040800F2
:1000000050070020CD0100081529000839200008FC
:10001000112900089103000835290008000000009C
:100020000000000000000000000000001D29000882
:100030009503000800000000192900082129000884
:10004000E7010008E7010008E7010008E7010008F0
:10005000E7010008E7010008E7010008E7010008E0
:10006000E7010008E7010008E7010008E7010008D0
:10007000E7010008E7010008E7010008E7010008C0
:10008000E7010008E7010008E7010008E7010008B0
:10009000E7010008E7010008E7010008E7010008A0
:1000A000E701000829290008E7010008E701000826
:1000B000E7010008E7010008E7010008E701000880
:1000C000E7010008E7010008E7010008E701000870
:1000D000E7010008E7010008E7010008E701000860
:1000E000E7010008E7010008E7010008E701000850
:1000F000E7010008E7010008E7010008E701000840
:10010000E7010008E7010008E7010008E70100082F
:10011000E7010008E7010008E7010008E70100081F
:10012000E7010008E7010008E7010008E70100080F
:1001300000F002F800F03AF80AA090E8000C8244BF
:100140008344AAF10107DA4501D100F02FF8AFF29C
:10015000090EBAE80F0013F0010F18BFFB1A43F0A5
:1001600001031847C0370000E0370000103A24BFF1
:1001700078C878C1FAD8520724BF30C830C144BF0C
:1001800004680C607047000000230024002500264E
:10019000103A28BF78C1FBD8520728BF30C148BFEA
:1001A0000B6070471FB51FBD10B510BD00F036F8CD
:1001B0001146FFF7F7FF02F019FD00F054F803B401
:1001C000FFF7F2FF03BC00F057F800000948804732
:1001D00009480047FEE7FEE7FEE7FEE7FEE7FEE729
:1001E000FEE7FEE7FEE7FEE704480549054A064B41
:1001F0007047000025290008310100085001002047
:100200005007002050030020500300207047704723
:100210007047000000487047100000207546FFF747
:10022000F9FFAE4605006946534620F007008546B3
:1002300018B020B5FFF7D8FFBDE820404FF000060A
:100240004FF000074FF000084FF0000BAC46ACE851
:10025000C009ACE8C009ACE8C009ACE8C00921F0AD
:1002600007018D46704710B50446AFF30080204665
:10027000BDE81040FFF7A3BF01491820ABBEFEE761
:100280002600020070470000EFF31480C00700D082
:1002900000DF40F27000C2F200004EF2100600F1E2
:1002A00014044EF60455CEF200064FF0FF372046F8
:1002B000CEF20005C6F87071C6F87471C6F8787190
:1002C000C6F87C71C6F88071C6F88471C6F888716A
:1002D000C6F88C7101F0F8FC204601F08DFB40F26D
:1002E000D400C2F2000000F057FB40F60044C4F214
:1002F000010420464FF4004100F0BEF920460421DD
:1003000000F0BAF941F21800C4F20200016821F0CD
:1003100008010160016821F004010160016821F019
:100320002001016000F0A8F80020C6F87072C6F83D
:100330007472C6F87872C6F87C72C6F88072C6F815
:100340008472C6F88872C6F88C723060286840F0F3
:1003500000702860286A20F4E0202862EFF31480FF
:10036000800709D5EFF3098080F30888EFF3148044
:1003700020F0020080F3148844F20000C0F6000070
:10038000686003C800F000F880F3088808470000A0
:10039000FEE700007047000070B542F20C0604460C
:1003A000C4F2020600F0F2FA3168C90718D13068C9
:1003B000800644BF202030603068C00607D4306912
:1003C000C00704D1306840075CBF002070BD3068B2
:1003D000C00623D40020316849072BD434E000BF85
:1003E000002C47D00546601C0ED13068C007DED017
:1003F0003068C0071CBF30685FEAC070D7D0306873
:10040000C007F2D1D3E700BF00F0C0FA401BA04202
:1004100030D83068C007F7D1C9E700BF40F22810D4
:10042000C2F20000C16941F00201C16110203168CF
:10043000490709D540F22811C2F20001CA6940F00B
:10044000040042F00102CA613169C90702D130607B
:10045000012070BD40F22811C2F20001CA6942F0C9
:100460000402CA61316921F001013161306001206B
:1004700070BD00BF032070BD80B541F20C00C4F216
:1004800002004FF0FF310022016042600160026013
:1004900000F0FCFE002080BD2DE9F04381B040F269
:1004A0002816C2F20006327E012A03D1022001B0D2
:1004B000BDE8F083054601202C6830764CF25030C0
:1004C0008846FFF769FF022C1CD100284ED100207E
:1004D00042F21004F061C4F20204206840F004000B
:1004E0002060206840F0400020604CF25030FFF760
:1004F00053FF216821F0040121600021317601B011
:10050000BDE8F08390BB4FF0FF30C8F80000D5E99C
:10051000027007EBC020874228D242F21004C4F2D6
:1005200002044FF0000900BFC6F81C90206840F09C
:10053000020020606760206840F0400020604CF2BC
:100540005030FFF729FF216821F00201216098B99E
:10055000D5E9020107F5006700EBC1208742E3D32C
:1005600000200021317601B0BDE8F0830120002198
:10057000317601B0BDE8F083C8F800700021317613
:1005800001B0BDE8F083000042F21001C4F20201A4
:10059000086840F0800200200A6070472DE9F04FA3
:1005A00081B040F22819C2F20009924699F8182049
:1005B000012A03D1022001B0BDE8F08F804601205E
:1005C00089F818004CF250309B460E46FFF7E4FEC7
:1005D000A0BB404642F21007B8F1020F18BF04203A
:1005E000C4F20207B8F1010F08BF404645424FF080
:1005F00000080024C4F12001C9F81C802AFA04F084
:100600000BFA01F13A680843B4F1200158BF2BFA04
:1006100001F042F00101396026F8020B4CF2503033
:10062000FFF7BAFE3968013521F0010248F10001F7
:100630003A6018B9002904F11004DBD0002189F8D0
:10064000181001B0BDE8F08F42F20400C4F20200BD
:10065000C16809065CBF0020704740F22311C4F254
:100660006751016048F6AB11CCF6EF510160C068EC
:10067000C0B2C009704700002DE9F04F41F60042BA
:10068000C4F201024FF0060A904208BF4FF0050A7B
:10069000002908BFBDE8F08FA0F18042A2F58432A6
:1006A00040F2004B4FEAB222C4F2010B6FF01F047C
:1006B0000127052A38BF924639E000BF53F82920A8
:1006C00022EA0C0243F82920DBF800206FEA050C2F
:1006D000AA43CBF80020DBF80420AA43CBF804207F
:1006E000DBF80820AA43CBF8082040F20C42C4F201
:1006F00001021368AB4313600346B5F5807F24BF46
:10070000264604331D680F22B24025EA0202042562
:1007100005FA06F632431A60C26802EA0C02C260A9
:1007200031FA07F207F1010704F104041CD07A1E24
:100730000123934013EA0105F2D04FEA9209ABF589
:100740007E7304F1200653F8298006F00C0E0F2268
:1007500002FA0EFC08EA0C080AFA0EF29045ADD037
:100760006FEA050CC8E700BFBDE8F08F2DE9F04F38
:1007700083B041F60043C4F201030E68062298429A
:10078000019008BF0522002E009200F0ED80019834
:1007900040F20C45A0F18043A3F584334FEAB32720
:1007A00040F200404FF6FF73C4F20105C4F20100AD
:1007B000009A4FF0000E4FF0010CC1F210034FF001
:1007C000000A4FF0000B4FF00F08052F38BF3A46D4
:1007D000009208E00E680AF1010A36FA0AF20EF1F8
:1007E000040E00F0C1800CFA0AF916EA090FF1D0E4
:1007F0004E689E4212DC122E56D8DFE806F0350B0A
:100800004549555555555555555555555555554DBC
:10081000510000BFD1F80CB046E000BF4FF6FF72A8
:10082000C1F2210296420FDC0022C1F2110296426F
:100830001AD00022C1F21202964215D00022C1F253
:100840002102964210D02FE00022C1F222029642ED
:100850000AD00022C1F23102964205D00022C1F234
:100860003202964220D100BF8E684EB1012E019A0D
:1008700014BFC2F81490C2F810904FF0080B13E0A8
:100880004FF0040B10E000BFCF6807F1080B0BE03E
:100890004FF0000B08E000BFCF6807F1040B03E046
:1008A000CF6807F10C0B00BF7446BAF1080F28BFE0
:1008B000203C019F28BF04373E6808FA04F226EA6C
:1008C00002020BFA04F632433A60CA79D2067FF587
:1008D00081AF41F21807C4F202073A684FF6084C9C
:1008E00042F001023A603A68CFF6FF7C02F0010262
:1008F0000292029A2AF00302024452F80C700EF09F
:100900000C0608FA06F4A743009C04FA06F63743DF
:1009100042F80C70D1F804C05FEACC32026854BFD0
:1009200022EA090642EA09065FEA8C32066042685A
:1009300054BF22EA090642EA09065FEACC22466071
:10094000826854BF22EA090642EA09065FEA8C225D
:1009500086604FF0010C2A6854BF22EA090642EA79
:1009600009062E6036E700BF03B0BDE8F08F000037
:10097000C26802EA0103914341EA03410161704701
:10098000002A08BF090401617047000040F24810C6
:10099000C2F2000000687047002804BF01207047C1
:1009A00010B50446242084F83D002068016821F039
:1009B00001010160204600F0D1FB0020206484F892
:1009C0003D00206384F83E0084F83C0010BD000028
:1009D00070B5B8B3044690F83D0028B9002084F8FB
:1009E0003C00204600F0DAFB242084F83D0020681B
:1009F000016821F001010160016841F400410160DA
:100A0000016821F40041016000F0A4FD48F280413A
:100A1000C0F21E0140F60013D4F804E088424FF003
:100A20000001C0F23D0348F2A16C4FF0000238BF54
:100A300001219842C0F2010C38BF0122E64538BFBF
:100A40000A460AB1012070BD4DF68361C4F21B3124
:100A5000A0FB01122168950C4B684FF4967623F0A9
:100A60003F0343EA9243754344F6D3564B60C1F2C9
:100A700062060B6AA5FB0656B50923F03F03E6455F
:100A800038BF950C6A1C1A430A62CA6948F2A0660C
:100A90004CF6FF73C0F20106B64522EA03020BD8FA
:100AA00001384FEA4E03B0FBF3F001306FF31F3013
:100AB000042898BF04201EE0A368013863B11923FD
:100AC0000EFB03F3B0FBF3F001306FF31F3078B18E
:100AD00000F5804008E000BF0EEB4E03B0FBF3F0E2
:100AE00001306FF31F3028B100F5004003E000BF74
:100AF000012000E001201043C8610868D4E9072301
:100B000020F0C000104318430860886848F2FF32A4
:100B100004F10C0690434CCE18431043A56988603D
:100B2000C86820F0FF0030432843C860086840F0E0
:100B30000100086000202021206484F83D1020631B
:100B400084F83E0070BD00002DE9F04F85B00446EA
:100B500000201E4617460D460490FFF717FF94F835
:100B60003D10202923D1804620688169890719D545
:100B7000FFF70CFFA0EB08001928F5D90020202171
:100B8000206384F83D1084F83E00206C04F13C0999
:100B900040F0200020640220002189F8001005B0F8
:100BA000BDE8F08FA14619F83C1F012904D10220AD
:100BB00005B0BDE8F08F00BF012289F8002003686E
:100BC000DDE90F1A0E9ADB0703D1036843F0010336
:100BD0000360036823F400630360222084F83D006F
:100BE000402084F83E000020206462626185608DB0
:100BF000294620850020CFF6FF70E06220463A4665
:100C00003346CDF800A0CDF8048001F017FA18B1F2
:100C1000012005B0BDE8F08F208D022810D00128FA
:100C200024D0002838D10020039020684169039126
:100C3000816903910399016841F40071016037E013
:100C40002068016841F400610160EFF3108072B622
:100C50000020039020684169039181690391039901
:100C6000016821F48061016062B621E020680168BA
:100C700021F480610160EFF3108072B600200390D0
:100C8000206841690391816903910399016841F4E6
:100C90000071016062B60BE02068016841F4806178
:100CA00001600021039141690391806903900398D9
:100CB000208D002800F0238140F2080B4BF2895769
:100CC0000AF10105C2F2000BC1F2F847232680B2F7
:100CD000032819D8022845D001286FD1BAF1000F96
:100CE00000F0FA802068014651F8142F520600F1F6
:100CF000F7800868C00600F12F81FFF747FEA0EBE0
:100D000008005045EED91CE1BAF1000F12D000BF27
:100D10002068014651F8142F520610D40868C00606
:100D200000F11A81FFF732FEA0EB08005045EFD921
:100D300007E100BF20684169490640F1FB80006976
:100D4000616A0870606A2268411C208D6162013806
:100D50002085638D013B638553695B0740F1CC803F
:100D60001069BFE020684169490711D4002D00F0E7
:100D70009380BAF1000F00F0E280FFF707FEA0EBCE
:100D80000800504500F2DD80206840694007F4D536
:100D9000EFF3108072B62068616A026842F4007254
:100DA000026000690870606A218D01306062481E2F
:100DB0002085608D0138608562B668E020684169F1
:100DC000490710D4002D77D0BAF1000F00F0B7809A
:100DD000FFF7DCFDA0EB0800504500F2B280206870
:100DE00041694907F4D5016821F480610160EFF39E
:100DF000108072B62068616A00690870606A218D8F
:100E00000130013960622185618D01396185DBF82E
:100E10000010C908A1FB0712110A7143049104993B
:100E2000013904910499002976D021684A69520752
:100E30001DD4049901390491049900296CD02168CA
:100E40004A69520713D4049901390491049900297D
:100E500062D021684A69520709D404990139049182
:100E60000499002958D021684A695207D7D50A68E1
:100E700042F400720A6009690170606A218D0130D4
:100E80006062481E2085608D0138608562B62068EA
:100E9000616A006926E000BF416949073FF578AF04
:100EA000416949075CBF41695FEA41713FF570AF35
:100EB00041694907F0D56BE74169490793D4416916
:100EC00049075CBF41695FEA41713FF58CAF4169F9
:100ED0004907F1D587E700BF20684169490629D550
:100EE0000069616A0870606A218D01306062481E85
:100EF0002085618D0139618501047FF4E8AE2020F1
:100F000084F83D00002084F83E00002189F800109C
:100F100005B0BDE8F08F00BF00202021206384F8D9
:100F20003D1084F83E00206C40F02000206462B642
:100F30001EE000BF50F8141FC90601460CD4FFF78D
:100F400025FD00202021206384F83D1084F83E0018
:100F5000206C40F020000AE06FF0100008600020D4
:100F60002021206384F83D1084F83E00206C20642A
:100F70000120002189F8001005B0BDE8F08F0000C5
:100F80002DE9F04383B0994616460F460446FFF715
:100F9000FDFC94F83D1020291CD10546206881698C
:100FA000890713D5FFF7F2FC401B1928F6D900205A
:100FB0002021206384F83D1084F83E00216C41F02C
:100FC0002001216484F83C0004E000BF94F83C1048
:100FD000012903D1022003B0BDE8F083012284F887
:100FE0003C200368DDE90B180A9ADB0703D103688C
:100FF00043F001030360036823F4006303602120CE
:1010000084F83D00402084F83E00002020646262A5
:101010006185608D394620850020CFF6FF70E06243
:10102000204632464B46CDF80080019501F096F9F6
:1010300020B1012003B0BDE8F08300BF208D00285F
:1010400050D0206808F10106014651F8142F12060D
:101050002CD49EB1B8F1000F5AD000BF08684005EB
:101060005ED4FFF793FC401B404556D820680146EC
:1010700051F8142F1206F1D518E000BF0A68520586
:101080004ED40A68120611D40A68520548D40A6878
:1010900012060BD40A68520542D40A68120605D417
:1010A0000A6852053CD40A681206E7D5626A1146FE
:1010B00011F8013B0361238D6162591E2185678D03
:1010C000013F678547697F070AD50F0408D051782B
:1010D0000161911C6162991E2185628D013A6285D0
:1010E0000904B1D1204641462A4601F071FA38BBC5
:1010F0002068016841F400710160202084F83D00FF
:10110000002084F83E0084F83C0003B0BDE8F08382
:101110000868400504D4FFF739FC202004E000BF34
:101120006FF480600860042000212022216384F88D
:101130003D2084F83E10226C1043206484F83C105B
:10114000206C04287FF475AF2068016841F40071B9
:101150000160012003B0BDE8F083000010B540F647
:101160000044C4F201040068A4F53441884218BF69
:1011700010BD41F21C00C4F20200016821F480019C
:10118000016020464FF48061FFF776FA20464FF465
:101190000061BDE81040FFF76FBA000010B586B0DF
:1011A00045F600010068C4F2000100228842049262
:1011B00002D006B010BD00BF41F21804C4F2020410
:1011C000206840F008002060206800F008000190CE
:1011D00001984FF440600290122003900320059084
:1011E00001F5344002A9FFF7C1FA606840F48000BD
:1011F0006060606800F480000190019806B010BD46
:1012000040F2000040F24811C2F20000C2F20001B8
:1012100000780A68104408607047000080B542F208
:101220000000C4F20200016841F0100101600320D7
:1012300000F0A0F80F2000F005F800F029F80020D9
:1012400080BD000070B540F20006C2F2000640F218
:1012500008013278C2F200014FF47A730968B3FBD7
:10126000F2F20446B1FBF2F1084600F061FB0F2CEC
:101270004FF0010508D838B94FF0FF302146002261
:10128000002500F04BF87460284670BD70470000E0
:1012900082B041F21800C4F202000168022241F05B
:1012A00001010160016801F00101019101994168AA
:1012B00041F080514160406800F0805000900098FB
:1012C0000420C4F20100016862F31A61016002B0F7
:1012D00070470000002848BF704700F01F0101223E
:1012E00002FA01F14EF280124009CEF2000242F8F9
:1012F0002010BFF34F8FBFF36F8F7047002848BF98
:10130000704700F01F01012202FA01F14EF20012B3
:101310004009CEF2000242F82010704710B54EF698
:101320000C5CCEF2000CDCF80030C3F3022E8EF021
:101330000704042C28BF0424BEF103034FF0FF3E32
:101340000EFA04F438BF0023A14399400EFA03F3C8
:101350009A43114300F00F02043A624409010C322F
:1013600000F16043B0F1FF3FC8BF03F56442117064
:1013700010BD00004EF60C51CEF200010A684FF687
:10138000FF031A4060F30A2242F0806040F0FD70D3
:10139000086070472DE9F04381B0002800F0858097
:1013A00042F20008C4F202080446D8F800000D46D4
:1013B00000F0070088420CD2D8F8000020F00700A7
:1013C0002843C8F80000D8F8000000F00700A84241
:1013D0006BD1206841F204098107C4F2020917D5D4
:1013E000410705D5D9F8001041F4E061C9F80010B3
:1013F000010705D5D9F8001041F46051C9F8001073
:10140000D9F80010A26821F0F0011143C9F80010CA
:10141000C00741D1D8F8000000F00700A8420CD95D
:10142000D8F8000020F007002843C8F80000D8F8DA
:10143000000000F00700A84237D12068410707D517
:10144000D9F80010E26821F4E0611143C9F80010F6
:10145000000708D5D9F80000216920F4605040EA5F
:10146000C100C9F80000D9F8002002F00C000828DB
:1014700041F20020C0F27A0050D143F61213C2F3B9
:101480008341C0F60003595CD2033BD440F6001000
:10149000C0F23D00484341E0606802280AD00128BC
:1014A0002AD159F8041C890308D4012001B0BDE8F1
:1014B000F08300BF59F8041C8901F6D5D9F8001053
:1014C00021F003010843C9F80000FFF75FFA064660
:1014D00041F28837D9F80000616800F00C00B0EBE9
:1014E000810F97D0FFF752FA801BB842F2D9032040
:1014F00001B0BDE8F08300BF59F8041C8907D4D5BA
:10150000DCE700BFD9F8002043F6F803C2F34042FD
:10151000C0F600039A5C4843B0FBF2F0D9F8001023
:1015200043F6FA02C1F30311C0F60002515C40F227
:10153000080220FA01F140F20400C2F20000006843
:10154000C2F200021160FFF77DFE002001B0BDE88D
:10155000F083000040F2080041F20401C2F20000F2
:10156000C4F202010068096843F60A12C1F30221BD
:10157000C0F60002515CC840704700002DE9F04100
:1015800082B0002868D00446007841F20006C00707
:10159000C4F2020625D0706800F00C0004281BD0AD
:1015A000706800F00C00082802D17068C00313D4E2
:1015B0006068002800F06881B0F5A02F00F07C8101
:1015C000B0F5803F00F07C81306820F480303060DE
:1015D000306820F4802076E13068800301D56068AF
:1015E000D0B32078800718D5706810F00C0F07D0A2
:1015F000706800F00C0008286ED17068C0036BD4CE
:101600003068800702D52069012825D130686169DA
:1016100020F0F80040EAC1003060207800071FD4B5
:101620002078400732D4E56995B1706800F00C006D
:10163000082840F08F80012D0ED07068216A00F4D8
:1016400080328A4208D1616A00F47010884203D166
:10165000002002B0BDE8F081012002B0BDE8F081B9
:10166000A069002862D00020C4F242200121C0F805
:101670008014FFF78BF90546706A800700F18C80B3
:10168000FFF784F9401B0228F6D92AE1F06910F02F
:10169000805808D1F06940F08050F061F06900F0A6
:1016A00080500090009847F20007C4F200073868A5
:1016B000C00529D4386840F480703860FFF766F9B7
:1016C000054600BF3868C0051ED4FFF75FF9401B10
:1016D0006428F7D905E100BF2069002840F2000026
:1016E000C4F2422000F0828001210160FFF74EF930
:1016F000054600BF306880073FF588AFFFF746F921
:10170000401B0228F6D9ECE0E068002800F0808059
:10171000052800F09780012800F09880306A20F0BA
:1017200001003062306A20F0040092E00020C4F230
:1017300042200021C0F88014FFF728F9054600BFB9
:10174000706A80077FF56CAFFFF720F9401B022815
:10175000F6D9C6E00027C4F2422700203866FFF71A
:1017600015F9022D05460BD13068800140F1BE808D
:10177000FFF70CF9401B02284FF00300F4D968E78B
:10178000306880017FF564AFFFF700F9401B022845
:101790004FF00300F4D95CE740F20800C2F2000009
:1017A000006844F6D351C1F26201A0FB0101480A6E
:1017B000019000BF00BF0198411E002801913FF435
:1017C0002FAF00BF0198411E002801913FF428AFC0
:1017D00000BF0198411E002801913FF421AF00BFD6
:1017E0000198411E00280191E4D119E70021016010
:1017F000FFF7CCF8054600BF306880077FF50DAFD6
:10180000FFF7C4F8401B02284FF00300F4D920E78B
:10181000306A20F001003062306A20F0040030624B
:10182000FFF7B4F8054641F2883700BF306A8007F9
:1018300020D5FFF7ABF8401BB8424FF00300F5D9B5
:1018400007E700BF306A40F004003062306A40F0C1
:1018500001003062FFF79AF8054641F2883700BF71
:10186000306A800706D4FFF791F8401BB842F7D9D9
:1018700037E000BFB8F1000F7FF4D5AEF06920F07B
:101880008050F061CFE600BF306820F480303060D7
:10189000306820F480203060FFF778F8054600BFFC
:1018A000306880037FF59DAEFFF770F8401B642819
:1018B0004FF00300F4D9CCE6306840F4802030606B
:1018C000306840F480303060FFF760F8054600BFB4
:1018D000306880033FF585AEFFF758F8401B642859
:1018E000F6D9032002B0BDE8F08100BF206AB0F550
:1018F000803F05D17168A26821F400311143716005
:101900007168626A21F47411104308437060012009
:101910003866FFF73BF80446306880013FF598AE23
:10192000FFF734F8001B02284FF00300F4D990E6CB
:10193000411E0020B0EB116F1CBF012070474EF21A
:101940001002CEF2000251604EF62351CEF2000199
:10195000F0230B7007219060116070477047000002
:101960007047000010B590F83C20012A4FF00202A9
:101970003FD080F83D200268D2F804E0D2F808C0D9
:101980000C682EF07003234340F6FF34C4F20004C9
:10199000A242536010DCB2F1804F1FD040F20043EE
:1019A000C4F200039A4219D040F60003C4F20003C7
:1019B0009A4213D017E000BF40F60043C4F2000380
:1019C0009A420BD043F20043C4F201039A4205D07D
:1019D00042F60043C4F201039A4204D149682CF054
:1019E0008003194391600121002280F83D1080F8A6
:1019F0003C20104610BD000010B50446022084F8BB
:101A00003D00206841F21112016A114208D1016AB9
:101A100040F24442114203D1016821F0010101600A
:101A2000204600F0ADF80021002084F8461084F82C
:101A30003E1084F83F1084F8401084F8411084F878
:101A4000421084F8431084F8441084F8451084F858
:101A50003D1084F83C1010BD002804BF01207047E1
:101A600010B5044690F83D0028B9002084F83C00E9
:101A7000204600F0ABF8022084F83D00206840F6D4
:101A8000FF330268C4F2000343F2004C9842C4F2F0
:101A9000010C21DCB0F1804F2CD040F20041C4F2A7
:101AA0000001884226D040F60001C4F200018842BD
:101AB00020D0984224DCB0F1804F2FD040F200417A
:101AC000C4F20001884229D040F60001C4F20001AE
:101AD000884223D026E000BF40F60041C4F2000156
:101AE000884207D0604505D042F60041C4F20101AA
:101AF0008842DED1A16822F070020A439842DADD02
:101B000040F60041C4F20001884207D0604505D08C
:101B100042F60041C4F20101884203D1216922F456
:101B200040720A43A36922F08001D4F804E0E2681D
:101B3000194360450160C262C0F828E005D042F652
:101B40000041C4F20101884201D1616901630121B0
:101B50004161002084F8461084F83E1084F83F105C
:101B600084F8401084F8411084F8421084F843103F
:101B700084F8441084F8451084F83D1010BD00002E
:101B8000006840F20041C4F20001884212D042F6DF
:101B90000041C4F20101884218BF704741F21800A9
:101BA000C4F20200016821F4006101601920FFF70E
:101BB00091BB00BF41F21800C4F20200416821F05D
:101BC000020141601D20FFF785BB000010B582B007
:101BD000006840F20041C4F20001884214D042F68D
:101BE0000041C4F20101884228D141F21800C4F238
:101BF00002000168192441F400610160006800F4EA
:101C00000060019001980DE041F21800C4F202005A
:101C100041681D2441F002014160406800F002006B
:101C200000900098204600210022FFF777FB204615
:101C300002B0BDE81040FFF761BB00BF02B010BDAD
:101C400090F83D1001291CBF01207047022180F847
:101C50003D10006840F6FF32C168C4F200029042B5
:101C600041F00101C1600FDCB0F1804F1ED040F2A5
:101C70000041C4F20001884218D040F60001C4F2CD
:101C80000001884212D018E040F60041C4F2000181
:101C900088420BD043F20041C4F20101884205D0D2
:101CA00042F60041C4F20101884206D1816801F088
:101CB0000701062904BF00207047016841F00101B7
:101CC00001600020704700000146006841F21113D6
:101CD000C26822F00102C260026A1A4204D00122E4
:101CE000002081F83D207047026A40F244431A42C6
:101CF000F5D1026822F0010202600122002081F881
:101D00003D20704780B590F83C20012A4FF0020238
:101D100000F0BF8080F83D20D0F800C04FF6777209
:101D2000DCF8083023EA0202CCF808200B683F2BCD
:101D30001CDD5F2B20DD602B50D0B3F5005F6DD034
:101D4000702B40F0A080D1E901E3C968DCF80820DD
:101D500043EA0E0322F47F4243EA01211143CCF807
:101D60000810DCF8081041F077018AE01F2B29DC0D
:101D700063B3102B2AD086E0402B63D0502B40F069
:101D80008280D1F804E0C968DCF82030DCF820203B
:101D900022F00102CCF82020DCF8182022F0F0021A
:101DA00042EA011123F00A0242EA0E02CCF81810AE
:101DB000CCF82020DCF8081041F0570121F0200178
:101DC0005FE000BF202B01D0302B5CD1DCF8081085
:101DD00021F07001194341F0070152E0D1F804E00D
:101DE000C968DCF8203023F01003CCF82030DCF890
:101DF0001830DCF8202023F4704322F0A00243EADC
:101E0000013142EA0E12CCF81810CCF82020DCF890
:101E1000081041F0670121F0100132E0D1E901E33F
:101E2000C968DCF8082043EA0E0322F47F4243EA43
:101E300001211143CCF80810DCF8081041F480416E
:101E40001FE000BFD1F804E0C968DCF82030DCF8FE
:101E5000202022F00102CCF82020DCF8182022F00B
:101E6000F00242EA011123F00A0242EA0E02CCF823
:101E70001810CCF82020DCF8081041F0470121F0C0
:101E80003001CCF808100121002280F83D1080F8C4
:101E90003C20104680BD00007047000010B501686E
:101EA00004460869800744BFC8685FEA807039D477
:101EB0000869400744BFC8685FEA40703ED40869BB
:101EC000000744BFC8685FEA007045D40869C006CF
:101ED00044BFC8685FEAC0604AD40869C0071CBF35
:101EE000C8685FEAC07051D10869000644BFC8687D
:101EF0005FEA006052D40869400644BFC8685FEAE0
:101F0000406053D40869800646BFC8685FEA8060B5
:101F100010BD6FF0200220460A61BDE81040FFF7B7
:101F20001FBD00BF6FF002000861012020778869A3
:101F3000800743D02046FFF7AFFF45E06FF0040075
:101F4000086102202077886910F4407F40D0204645
:101F5000FFF7A2FF42E000BF6FF008000861042015
:101F60002077C86980073DD02046FFF795FF3FE006
:101F70006FF01000086108202077C86910F4407FD6
:101F80003AD02046FFF788FF3CE000BF6FF0010029
:101F90000861204600F03EF82168A5E76FF0800058
:101FA00008612046FFF7DAFC2168A4E76FF04000E3
:101FB0000861204600F03EF82168A3E7204600F0C3
:101FC00025F8204600F024F82168002020776FE7EC
:101FD000204600F01BF8204600F01AF82168002087
:101FE00020776CE7204600F011F8204600F010F84A
:101FF00021680020207769E7204600F007F8204696
:1020000000F006F821680020207766E7704700009E
:1020100070470000006842F60041C4F201018842A6
:1020200018BF704740F2CC00C2F2000001680131D5
:102030000160704770470000FEE700002DE9F043A3
:1020400083B00446006899460368904643F4806272
:10205000026002680B9D42F48072026042690A9E2F
:10206000D2070F461DD1711C11D0002E00F0368111
:10207000FEF78CFC401BB04200F2328120684169BF
:10208000C907F5D00DE000BF4169C90709D1416911
:10209000C90706D14169C90704BF41695FEAC17137
:1020A000F2D007F0FE0707614169890738D441691A
:1020B000721C01F4806111D049BB002E00F03A81FE
:1020C000FEF764FC401BB04200F236812068416993
:1020D000890725D441694905F2D518E0B9B94169A4
:1020E00089071DD44169490511D44169890717D46D
:1020F000416949050BD44169890711D441694905F2
:1021000005D4416989070BD441694905E7D50168C0
:1021100041F4007101606FF48061416104200CE1C1
:1021200000210291014651F8142F02924A6802924E
:10213000029A0A68120620D4002E00F0AB80721CAE
:1021400051D10A68520500F1AD800A68120614D414
:102150000A68520500F1A6800A6812060DD40A68C2
:10216000520500F19F800A68120606D40A685205DB
:1021700000F198800A681206E3D5B9F1010F45D045
:102180004FEA18210161014651F8142F12063DD47F
:10219000002E00F07F80721C2AD10A68520500F1DF
:1021A00081800A68120631D40A6852057AD40A6816
:1021B00012062BD40A68520574D40A68120625D474
:1021C0000A6852056ED40A681206E6D51EE000BF02
:1021D000FEF7DCFB401BB04261D82068014651F895
:1021E000142F1206C9D408684005F1D55AE000BF83
:1021F0000868400556D4FEF7C9FB401BB0424ED8D4
:102200002068014651F8142F1206F1D55FFA88F1C3
:102210000161014651F8142F12061AD4D6B3721C6C
:1022200033D10A6852053DD40A68120611D40A68EF
:10223000520537D40A6812060BD40A68520531D405
:102240000A68120605D40A6852052BD40A681206D9
:10225000E7D50168002241F48071016020464FF00B
:1022600001113346009500F007FA002850D020688D
:10227000006844E0FEF78AFB401BB0420FD820689C
:10228000014651F8142F1206E3D408684005F1D531
:1022900008E000BF0868400504D4FEF777FB202063
:1022A00004E000BF6FF48060086004200021202259
:1022B000216384F83D2084F83E10226C1043206492
:1022C00084F83C10206C042843D12068016841F454
:1022D00000710160012003B0BDE8F083FEF756FBFA
:1022E00000202021206384F83D1084F83E00216CFA
:1022F00041F020012164216884F83C000868C00591
:1023000044BF4FF400702064032003B0BDE8F083A5
:10231000206847F0010101610221C0F2010120465D
:1023200032462B4600F050FA002818BF012003B0B7
:10233000BDE8F083FEF72AFB202000212022216344
:1023400084F83D2084F83E10226C1043206484F809
:102350003C10012003B0BDE8F08300002DE9F043FC
:1023600081B00446006890460268099D42F480727C
:1023700002604269089E9946D2070F461DD1711C22
:1023800011D0002E00F0D280FEF700FB401BB042BF
:1023900000F2CE8020684169C907F5D00DE000BF8A
:1023A0004169C90709D14169C90706D14169C9070E
:1023B00004BF41695FEAC171F2D007F0FE0101611B
:1023C0004169890738D44169721C01F4806111D0D8
:1023D00049BB002E00F0E880FEF7D8FA401BB0425F
:1023E00000F2E48020684169890725D441694905E4
:1023F000F2D518E0B9B9416989071DD44169490589
:1024000011D44169890717D4416949050BD4416941
:10241000890711D44169490505D4416989070BD45D
:1024200041694905E7D5016841F4007101606FF425
:10243000806141610420BAE000210091014651F819
:10244000142F00924A680092009A0A6812061ED45D
:10245000002E00F08580721C4DD10A68520500F1F3
:1024600087800A68120612D40A68520500F180803B
:102470000A6812060BD40A68520579D40A68120653
:1024800005D40A68520573D40A681206E5D5B9F175
:10249000010F43D04FEA18210161014651F8142F72
:1024A00012063BD4002E5BD0721C29D10A6852055B
:1024B0005ED40A68120631D40A68520558D40A68F4
:1024C00012062BD40A68520552D40A68120625D483
:1024D0000A6852054CD40A681206E7D51EE000BF10
:1024E000FEF754FA401BB0423FD82068014651F82D
:1024F000142F1206CBD408684005F1D538E000BF90
:102500000868400534D4FEF741FA401BB0422CD88D
:102510002068014651F8142F1206F1D55FFA88F1B0
:102520000161002001B0BDE8F08300BFFEF72EFA84
:1025300000202021206384F83D1084F83E00216CA7
:1025400041F020012164216884F83C000868C0053E
:1025500044BF4FF400702064032001B0BDE8F08355
:102560000868400504D4FEF711FA202004E000BFFB
:102570006FF480600860042000212022216384F829
:102580003D2084F83E10226C1043206484F83C10F7
:10259000206C042817D12068016841F400710160A3
:1025A000012001B0BDE8F083FEF7F0F92020002102
:1025B0002022216384F83D2084F83E10226C1043D1
:1025C000206484F83C10012001B0BDE8F0830000D5
:1025D00070B50368044653F8140F400737D40E460D
:1025E000F1B1701C24D100BF1868400532D41868BE
:1025F00040072CD4186840052CD41868400726D40E
:102600001868400526D41868400720D4186840058B
:1026100020D4186840074FF0000048BF70BDE3E7C2
:102620001868400516D4FEF7B1F9202016E000BF67
:10263000154600BF186840050CD4FEF7A7F9401BEB
:10264000B042F2D8236853F8140F4007F2D50020A7
:1026500070BD00BF6FF4806018600420002120224C
:10266000216384F83D2084F83E10226C10432064DE
:10267000012084F83C1070BD2DE9F0410546144658
:10268000DDF8188001F47F002A681E46B0F5803F0F
:102690008FB241D150693840C01BB0FA80F0400978
:1026A000A0427BD1701C2DD0002E7BD0FEF76EF99E
:1026B000A0EB0800B04277D8286840693840C01BBA
:1026C000B0FA80F04009A042F0D00020BDE8F081CF
:1026D00050693840C01BB0FA80F04009A0425DD17B
:1026E00050693840C01BB0FA80F04009A04255D173
:1026F00050693840C01BB0FA80F04009A0424FF04A
:1027000000005FD150693840C01BB0FA80F040092A
:10271000A042DDD042E000BF90693840C01BB0FA53
:1027200080F04009A04239D1701C1FD0D6B300BF41
:10273000FEF72CF9A0EB0800B04235D82868806974
:102740003840C01BB0FA80F04009A042F0D0002011
:10275000BDE8F08190693840C01BB0FA80F04009B4
:10276000A0424FF0000018BFBDE8F08190693840EA
:10277000C01BB0FA80F04009A0420FD190693840E8
:10278000C01BB0FA80F04009A04207D190693840E0
:10279000C01BB0FA80F04009A042DBD00020BDE8A9
:1027A000F08100BFFEF7F2F800202021286385F8B1
:1027B0003D1085F83E00296C41F02001296485F820
:1027C0003C000120BDE8F081F0B581B0044600680E
:1027D0001D4643698FB203EA0701B94202D10020C6
:1027E00001B0F0BD41691646013201F480610FD09D
:1027F00059BB9EB3FEF7CAF8401BB04230D82068E0
:1028000041693940B942EAD041694905F2D51CE035
:10281000D9B941693940B942E1D04169490514D477
:1028200041693940B942DAD0416949050DD441695D
:102830003940B942D3D04169490506D4416939408C
:10284000B942CCD041694905E3D5016841F4007132
:1028500001606FF480614161042002E0FEF796F8A8
:10286000202000212022216384F83D2084F83E109E
:10287000226C1043206484F83C10012001B0F0BDAC
:1028800080B584B09C466FF05D0300F00300B1F5A5
:10289000803F38BF6FF05F0343EA80004FF0FF33A3
:1028A0000293C3B240F2D40000928AB2C2F2000096
:1028B00019461023CDF804C0FEF746F9B0FA80F0AF
:1028C000400904B080BD000080B584B09C466FF024
:1028D0005D0300F00300B1F5803F38BF6FF05F0388
:1028E00043EA80004FF0FF330293C3B240F2D400BA
:1028F00000928AB2C2F2000019461023CDF804C03B
:10290000FEF73EFBB0FA80F0400904B080BD000045
:10291000FEE70000FEE7000070470000704700007F
:10292000FEF76EBC7047000040F28400C2F2000067
:10293000FFF7B4BAFEE70000B0B5002900F0CE8082
:10294000CB0705D10D46012900F0C88049E000BF42
:1029500010F801CB4D1E82EA0C2241F2210C0FFA35
:1029600082FE8CEA4204BEF1FF3FC8BF54000FFA5A
:1029700084FE8CEA4402BEF1FF3FC8BF62000FFA3A
:1029800082FE8CEA4204BEF1FF3FC8BF54000FFA3A
:1029900084FE8CEA4402BEF1FF3FC8BF62000FFA1A
:1029A00082FE8CEA4204BEF1FF3FC8BF54000FFA1A
:1029B00084FE8CEA4402BEF1FF3FC8BF62000FFAFA
:1029C00082FE8CEA4204BEF1FF3FC8BF54000FFAFA
:1029D00084FE8CEA4402BEF1FF3FC8BF62000129B9
:1029E0007CD0023841F2210110F8024F023D82EA08
:1029F000042214B281EA4203B4F1FF3FC8BF53007E
:102A00001AB281EA4304B2F1FF3FC8BF5C0022B2B0
:102A100081EA4403B2F1FF3FC8BF63001AB281EA02
:102A20004304B2F1FF3FC8BF5C0022B281EA440315
:102A3000B2F1FF3FC8BF63001AB281EA4304B2F1AA
:102A4000FF3FC8BF5C0022B281EA4403B2F1FF3FFE
:102A5000C8BF63001AB281EA4304B2F1FF3FC8BFA6
:102A60005C00427884EA022213B281EA4204B3F1A4
:102A7000FF3FC8BF540022B281EA4403B2F1FF3FD6
:102A8000C8BF63001AB281EA4304B2F1FF3FC8BF76
:102A90005C0022B281EA4403B2F1FF3FC8BF630089
:102AA0001AB281EA4304B2F1FF3FC8BF5C0022B210
:102AB00081EA4403B2F1FF3FC8BF63001AB281EA62
:102AC0004304B2F1FF3FC8BF5C0023B281EA440275
:102AD000B3F1FF3FC8BF62002B0485D190B2B0BDF7
:102AE0002DE9F04140F2CC06C2F20006376840F60C
:102AF00000480446C4F20108384604E0E91BA1423C
:102B000028BFBDE8F0813568291A6529F6D340460B
:102B10004FF40041FDF72CFF2846EFE7B0B582B037
:102B200040F2D005C2F200052968044629B100F040
:102B3000DDFE2968401A042802D80520FFF7D0FFDF
:102B400004F5FC310DF1060201200223FFF798FE87
:102B500000F0CCFEBDF80610024608462A6002B01E
:102B6000B0BD0000B0B582B040F2D005C2F20005A1
:102B70002968044629B100F0B9FE2968401A0428E2
:102B800002D80520FFF7ACFF04F5FC3101AA0120B3
:102B90000423FFF775FE00F0A9FE019902460846DE
:102BA0002A6002B0B0BD0000B0B582B040F2D005DE
:102BB000C2F200052A6804468DF807102AB100F019
:102BC00095FE2968401A042802D80520FFF788FFDF
:102BD00004F5FC310DF1070201200123FFF774FE1B
:102BE00000F084FE286002B0B0BD0000B6B0FEF771
:102BF00015FB00240120CDE91544CDE913441090C4
:102C000014904FF4E0104FF480310225199010A871
:102C1000CDE91114CDE91751FEF7B0FC20B1EFF367
:102C2000108072B6FEE700BF0F20CDE930054FF4EB
:102C30008060CDE9330430A802213294FEF7AAFB6C
:102C400020B1EFF3108072B6FEE700BF41F218002A
:102C5000C4F20200016840F6004941F02001016021
:102C60000168C4F2010901F0200110911099016876
:102C7000002241F00401016001684FF4004401F0BA
:102C80000401109110990168002641F008010160CB
:102C900000684FF4004100F008001090109848467A
:102CA000FDF76EFE4846042100220427FDF768FE6A
:102CB00001201190022010ADCDE9120048462946AE
:102CC0001094FDF753FD484629461097FDF74EFD39
:102CD00040F27004C2F2000409F50051204640F8A9
:102CE000141F47214FF47A721396CDE91166CDE98E
:102CF0003066C0E90116C0E90326C0E90566FEF7A3
:102D0000ABFE28B1EFF3108072B600BFFEE700BF44
:102D10004FF4805004F114050DF1400A109028463C
:102D20005146FEF7EFFF28B1EFF3108072B600BFF7
:102D3000FEE700BF30A92846FEF714FE20B1EFF3EE
:102D4000108072B6FEE700BF40F2D400A9F534410E
:102D5000C2F2000040F6405200234FF48047C0F218
:102D6000030280E80E00C0E90337C0E90533C0E97B
:102D70000733FDF72DFE28B1EFF3108072B600BFC8
:102D8000FEE700BF204650F8141F6FF001020A61F1
:102D9000FEF756FF4120FFF7E5FE04464520FFF70A
:102DA000BDFE08904C20FFF7DDFE611EC90A7629A2
:102DB000099400F298854CF6DD41CAF6BB218842A1
:102DC00040F0918544F20008099CC0F600084FF6D7
:102DD000FF704FF6FF750D9004E000BFA41BB044D8
:102DE00000F0B681802C264628BF802616F0030E00
:102DF000704618BF012000EB9603002B00F0858180
:102E0000BEF1000F04D0591E032909D20022A4E00C
:102E1000B10808440138032880F0EC80002006E166
:102E200003F07C000F90002008220E960C94CDE950
:102E30000A3511E0300A5871300C987103231820BC
:102E4000141D26FA00F023430AF803000F9B781C98
:102E5000984202F110027BD008EB020B5BF8087C71
:102E600005460AEB0203814203F8087C0CD1BEF14F
:102E7000010F19D0380ABEF1020F03F8070C13D066
:102E80000226102008E000BF380A03F8070C380CAF
:102E900003F8060C03261820A2F1080427FA00F014
:102EA00044EA06070AF807005BF804CC6F1CB94235
:102EB00003F804CC0CD1BEF1010F19D04FEA1C204D
:102EC000BEF1020F03F8030C12D00226102009E015
:102ED0004FEA1C2003F8030C4FEA1C4003F8020CD5
:102EE00003261820141F2CFA00F026430AF80600C7
:102EF00058F802600137B9420AF802600AD1BEF1FF
:102F0000010F11D0300ABEF1020F58700CD0022010
:102F1000102405E0300A5870300C987003201824F3
:102F2000E64010430AF80060DBF804600137B9425C
:102F30001E717FF47FAFBEF1010F3FF487AF300AFF
:102F4000BEF1020F58713FF481AF0223102077E7E2
:102F50002A1D0C9C0E9EDDE90A3513F0030300F0D8
:102F6000D480AB4658F82250A446970091420AF804
:102F700022500FD1BEF1010F1FD0280A344647F06E
:102F80000106BEF1020F0AF80600264615D00226F9
:102F900010200CE03446280A47F001060AF8060023
:102FA000280C47F002060AF806000326182025FA26
:102FB00000F0374326460AF80700012B64465D46B9
:102FC00000F0A380501C58F82050870081420AF876
:102FD00020500E965CD1BEF1010F6AD0280A47F04E
:102FE0000106BEF1020F0AF8060062D00226102088
:102FF0005AE000BF23F00300B4469E464142002041
:10300000002258F8023008EB02074AF802307B68C9
:103010000AEB02067360BB680438B360FB68814248
:1030200002F11002F360ECD140426646734613F0A1
:1030300003016AD058F820200AEB8003170A0AF827
:1030400020205F70170C120E01299F70DA705CD07F
:10305000421C58F822300AEB82070AF822301A0A7A
:103060007A701A0CBA701A0E0229FA704DD0811CAF
:1030700058F821200AEB81030AF82120110A59701F
:10308000110C9970110E0B2202EB80003BE000BF87
:10309000280A47F001060AF80600280C47F0020645
:1030A0000AF806000326182025FA00F037430AF82C
:1030B00007000E9E022B64465D4626D0901C58F8F1
:1030C0002030820081420AF820300FD1BEF1010F7A
:1030D0001BD0180A42F00101BEF1020F0AF80100EC
:1030E00013D0190C42F002000DE000BF180A42F0A4
:1030F00001010AF80100180C42F002010AF801006F
:10310000190E42F003000AF80010B1B2AAB25046FC
:10311000FFF712FC054600F0E9FB40F27001C2F235
:1031200000010968401A6428FFF458AE00F0DEFB85
:1031300040F27001C2F20001086048464FF40041BD
:10314000FDF716FC48460421FDF712FC46E600BFD9
:103150000898854200F0C7834FF6FF7B099F4FF028
:103160000008C0F2010B10AC002502E0BF1B354483
:1031700036D03E46802F28BF80261FFA86FA5D454E
:1031800084BF4FF00108A5F500355FFA88F02946A5
:1031900022465346FFF774FB10B30D98514682B296
:1031A0002046FFF7C9FB0D9000F0A0FB40F2700134
:1031B000C2F200010968401A6428D7D300F096FBD8
:1031C00040F27001C2F20001086048464FF400412D
:1031D000FDF7CEFB48460421FDF7CAFBC6E700BF5A
:1031E00008980D99814240F07E83DDF8248001210A
:1031F0004FEAD82040F270055FEA485218BF01EB51
:10320000D8200021C2F2000544F2000A45F8041F4C
:10321000C0B2C0F6000AC5E902A000200A903091B1
:10322000FDF712FA30A92846FDF736F9FDF7ACF99B
:1032300000260DF1400B09E0DDF824800598069E7C
:10324000B8EB00088244064400F04E8244464FF634
:10325000FF70B8F1800F28BF8024C0F201000A9FE0
:10326000A5B2864284BF0127A6F50036F8B23146E2
:103270005A462B46FFF704FB002800F039825846D7
:1032800029464FF6FF7206960A970895FFF754FBFA
:1032900014F003070790039718BF012707EB940565
:1032A000FDF7D2F9002D0594CDF8248072D0681E68
:1032B0005646CDF83CA04FEA800A0E900AF1010074
:1032C0000B900AF10200A1080C900AF103000D9086
:1032D0008800039C00EB87000297061F2846049590
:1032E000AF004FF0000B0025A046019110E000BF99
:1032F00010A850F80B20A8000F99002301440220C9
:10330000FDF74CF90BF1040B5F4505F1010531D0D8
:103310005FEA0860ECD05E45EAD110AB13F80A1002
:103320005FFA88F0012807D10C98185C41EA004048
:1033300000F57F4015E000BF0B9A02289A5C41EA35
:10334000022103D101F57F000BE000BF0C9A032896
:103350009A5C41EA024003D14FF07F4104E000BF94
:1033600010AB0D99595C090641EA0002A8F1040866
:103370005846C1E7FDF708F90498DDF83CA00DF1C7
:10338000400B48B154B30E98A046032830D2002019
:10339000C4E000BFFDF7F8F8089958464FF6FF72F1
:1033A000FFF7CAFA079940F270048842C2F200049B
:1033B00040F0A08100F09AFA2168401A6428FFF4D6
:1033C0003BAF00F093FA206048464FF40041FDF710
:1033D000CFFA48460421FDF7CBFA2DE7DDE90110CD
:1033E00008440138032880F0E7800020FCE000BF9B
:1033F0000498DDF83CA000F07C0C002008210DF1C1
:10340000400B444611E000BF300A5871300C9871EF
:10341000032018220B1D26FA02F218430BF8002095
:10342000781C604501F1100176D00AEB0105864653
:1034300055F8087C0E980BEB0103704503F8087CE7
:103440000AD1012C17D0380A022C03F8070C12D02D
:103450000226102008E000BF380A03F8070C380CD9
:1034600003F8060C03261820A1F1080227FA00F041
:1034700032430BF8020055F8046C0E980EF1010768
:10348000B84203F8046C09D1012C16D0300A022C82
:1034900003F8030C11D00220102207E0300A03F8D1
:1034A000030C300C03F8020C032018220C1F26FA20
:1034B00002F2204344460BF800205AF801600E98AF
:1034C0000137B8420BF8016008D1012C11D0300A45
:1034D000022C58700DD00220102205E0300A5870DE
:1034E000300C98700320182226FA02F208430BF8D9
:1034F00000206E680E980137B8421E717FF484AFC9
:10350000012C3FF48DAF300A022C58713FF488AF84
:10351000022010227EE700BF0EF104000499DDF8BE
:103520003CA011F003010DF1400B3FF435AF5AF808
:1035300020300E9F820087420BF820300ED1B8F168
:10354000010F1AD01F0A42F00106B8F1020F10ADA8
:10355000AF5512D0022710260BE000BF1F0A42F021
:10356000010610ADAF551F0C42F00206AF55032700
:103570001826F3403A4310AFBB54DDF83CA00129B4
:103580000DF1400B3FF408AF471C5AF827300E9E50
:10359000BA00BE420BF827305CD1B8F1010F68D0F9
:1035A0001F0A42F00106B8F1020F10ADAF5560D00E
:1035B0000227102659E000BF04980F9D20F0030059
:1035C00041420020002210ACAB58AF18A3507B68DA
:1035D000A6187360BB680438B360FB68814202F1CF
:1035E0001002F360F0D140420499DDF83CA011F0E4
:1035F00003010DF1400B3FF4CFAE5AF820200BEB46
:103600008003170A0BF820205F70170C120E012997
:103610009F70DA703FF4C0AE421C5AF822300BEBB8
:1036200082070BF822301A0A7A701A0CBA701A0E36
:103630000229FA703FF4B0AE02305AF820100BEBBA
:1036400080020BF82010080A5070080C9070080EC9
:10365000D070A1E61F0A42F0010610ADAF551F0C55
:1036600042F00206AF5503271826F3403A4310AF45
:10367000BB54DDF83CA002290DF1400B3FF48CAEA9
:10368000821C5AF822100E9B900093420BF82210D5
:1036900016D1DDF83CA0B8F1010F0DF1400B3FF45D
:1036A0007BAE0A0A40F00103B8F1020F0BF80320C9
:1036B0001EBF090C40F002000BF800106CE600BFC2
:1036C0000A0A40F001030DF1400B0BF803200A0C2D
:1036D00040F00203090E40F00300DDF83CA00BF8B7
:1036E00003200BF8001057E60021322504E000BF4C
:1036F000012100E0022196254720FFF755FA5220CC
:103700001221FFF751FA48464FF40041FDF730F916
:1037100048460421FDF72CF92846FFF7E1F9484611
:103720004FF40041FDF724F948460421FDF720F944
:103730002846FFF7D5F948464FF40041FDF718F940
:1037400048460421FDF714F92846FFF7C9F9484611
:103750004FF40041FDF70CF948460421FDF708F944
:103760002846FFF7BDF948464FF40041FDF700F940
:1037700048460421FDF7FCF82846FFF7B1F9484612
:103780004FF40041FDF7F4F848460421FDF7F0F846
:103790002846FFF7A5F948464FF40041FDF7E8F841
:1037A00048460421FDF7E4F82846FFF799F9484612
:1037B0004FF40041FDF7DCF848460421FDF7D8F846
:1037C0002846FFF78DF948464FF40041FDF7D0F841
:1037D00048460421FDF7CCF82846FFF781F9484612
:1037E0004FF40041FDF7C4F848460421FDF7C0F846
:1037F0002846FFF775F948464FF40041FDF7B8F841
:1038000048460421FDF7B4F82846FFF769F9484611
:103810004FF40041FDF7ACF848460421FDF7A8F845
:103820002846FFF75DF948464FF40041FDF7A0F840
:1038300048460421FDF79CF82846FFF751F9484611
:103840004FF40041FDF794F848460421FDF790F845
:103850002846FFF745F948464FF40041FDF788F840
:1038600048460421FDF784F82846FFF739F9484611
:103870004FF40041FDF77CF848460421FDF778F845
:103880002846FFF72DF948464FF40041FDF770F840
:1038900048460421FDF76CF82846FFF721F9484611
:1038A0004FF40041FDF764F848460421FDF760F845
:1038B0002846FFF715F948464FF40041FDF758F840
:1038C00048460421FDF754F82846FFF709F9484611
:1038D0004FF40041FDF74CF848460421FDF748F845
:1038E0002846FFF7FDF8FCF7CFFC000040F2CC00C3
:1038F000C2F20000006870470102000000000000F2
:10390000000001020304060708090000000001028C
:10391000030402030405060708090A0B0C0D0E0F29
:1039200010100000483900080000002010000000BE
:103930006C01000858390008100000204007000002
:1039400088010008000000000100000010000000D5
:083950000024F4000000000057
:0400000508000131BD
:00000001FF
