:020000040800F2
:10000000C0060020CD010008DD120008D51200084E
:10001000D912000889020008FD1200080000000043
:10002000000000000000000000000000E5120008D1
:100030008D02000800000000E1120008E91200082B
:10004000E7010008E7010008E7010008E7010008F0
:10005000E7010008E7010008E7010008E7010008E0
:10006000E7010008E7010008E7010008E7010008D0
:10007000E7010008E7010008E7010008E7010008C0
:10008000E7010008E7010008E7010008E7010008B0
:10009000E7010008E7010008E7010008E7010008A0
:1000A000E7010008F1120008E7010008E701000875
:1000B000E7010008E7010008E7010008E701000880
:1000C000E7010008E7010008E7010008E701000870
:1000D000E7010008E7010008E7010008E701000860
:1000E000E7010008E7010008E7010008E701000850
:1000F000E7010008E7010008E7010008E701000840
:10010000E7010008E7010008E7010008E70100082F
:10011000E7010008E7010008E7010008E70100081F
:10012000E7010008E7010008E7010008E70100080F
:1001300000F002F800F03AF80AA090E8000C8244BF
:100140008344AAF10107DA4501D100F02FF8AFF29C
:10015000090EBAE80F0013F0010F18BFFB1A43F0A5
:10016000010318473C1300005C130000103A24BF41
:1001700078C878C1FAD8520724BF30C830C144BF0C
:1001800004680C607047000000230024002500264E
:10019000103A28BF78C1FBD8520728BF30C148BFEA
:1001A0000B6070471FB51FBD10B510BD00F036F8CD
:1001B0001146FFF7F7FF01F0A3F800F054F803B47D
:1001C000FFF7F2FF03BC00F057F800000948804732
:1001D00009480047FEE7FEE7FEE7FEE7FEE7FEE729
:1001E000FEE7FEE7FEE7FEE704480549054A064B41
:1001F00070470000ED12000831010008C000002027
:10020000C0060020C0020020C002002070477047D6
:100210007047000000487047100000207546FFF747
:10022000F9FFAE4605006946534620F007008546B3
:1002300018B020B5FFF7D8FFBDE820404FF000060A
:100240004FF000074FF000084FF0000BAC46ACE851
:10025000C009ACE8C009ACE8C009ACE8C00921F0AD
:1002600007018D46704710B50446AFF30080204665
:10027000BDE81040FFF7A3BF01491820ABBEFEE761
:100280002600020070470000FEE7000070470000F3
:100290002DE9F04F83B041F60043C4F201030E682C
:1002A00006229842019008BF0522002E009200F01D
:1002B000ED80019840F20C45A0F18043A3F5843312
:1002C0004FEAB32740F200404FF6FF73C4F2010536
:1002D000C4F20100009A4FF0000E4FF0010CC1F281
:1002E00010034FF0000A4FF0000B4FF00F08052FDE
:1002F00038BF3A46009208E00E680AF1010A36FA61
:100300000AF20EF1040E00F0C1800CFA0AF916EAA6
:10031000090FF1D04E689E4212DC122E56D8DFE84B
:1003200006F0350B454955555555555555555555B7
:100330005555554D510000BFD1F80CB046E000BFF7
:100340004FF6FF72C1F2210296420FDC0022C1F289
:10035000110296421AD00022C1F21202964215D022
:100360000022C1F22102964210D02FE00022C1F2F9
:10037000220296420AD00022C1F23102964205D0F2
:100380000022C1F23202964220D100BF8E684EB1E7
:10039000012E019A14BFC2F81490C2F810904FF0C9
:1003A000080B13E04FF0040B10E000BFCF6807F11B
:1003B000080B0BE04FF0000B08E000BFCF6807F11F
:1003C000040B03E0CF6807F10C0B00BF7446BAF1D1
:1003D000080F28BF203C019F28BF04373E6808FA59
:1003E00004F226EA02020BFA04F632433A60CA79B2
:1003F000D2067FF581AF41F21807C4F202073A68CE
:100400004FF6084C42F001023A603A68CFF6FF7CA2
:1004100002F001020292029A2AF00302024452F808
:100420000C700EF00C0608FA06F4A743009C04FAC0
:1004300006F6374342F80C70D1F804C05FEACC32BC
:10044000026854BF22EA090642EA09065FEA8C32D2
:100450000660426854BF22EA090642EA09065FEADA
:10046000CC224660826854BF22EA090642EA0906A5
:100470005FEA8C2286604FF0010C2A6854BF22EAA2
:10048000090642EA09062E6036E700BF03B0BDE860
:10049000F08F0000C26802EA0103914341EA034180
:1004A00001617047002A08BF09040161704700001C
:1004B00040F2BC00C2F200000068704740F2000049
:1004C00040F2BC01C2F20000C2F2000100780A68EA
:1004D000104408607047000080B542F20000C4F28A
:1004E0000200016841F010010160032000F08AF869
:1004F0000F2000F005F800F027F8002080BD000074
:1005000070B540F20006C2F2000640F208013278EF
:10051000C2F200014FF47A730968B3FBF2F20446A9
:10052000B1FBF2F1084600F0BDFB0F2C4FF00105C6
:1005300008D838B94FF0FF3021460022002500F0DE
:1005400035F87460284670BD82B041F21800C4F2DC
:1005500002000168022241F001010160016801F01E
:10056000010101910199416841F080514160406869
:1005700000F08050009000980420C4F2010001684F
:1005800062F31A61016002B070470000002848BFA2
:10059000704700F01F01012202FA01F14EF2001231
:1005A0004009CEF2000242F82010704710B54EF616
:1005B0000C5CCEF2000CDCF80030C3F3022E8EF09F
:1005C0000704042C28BF0424BEF103034FF0FF3EB0
:1005D0000EFA04F438BF0023A14399400EFA03F346
:1005E0009A43114300F00F02043A624409010C32AD
:1005F00000F16043B0F1FF3FC8BF03F564421170E2
:1006000010BD00004EF60C51CEF200010A684FF604
:10061000FF031A4060F30A2242F0806040F0FD7050
:10062000086070472DE9F04182B00446007841F23D
:100630001C06C007C4F202064AD0306810F0805889
:1006400008D1306840F080503060306800F0805051
:100650000190019847F20007C4F200073868C0050E
:1006600012D4386840F480703860FFF721FF0546E7
:100670003868C00508D4FFF71BFF401B6428F7D972
:10068000032002B0BDE8F081706810F4407012D011
:10069000616801F4407188420DD0706840F24042B8
:1006A000C4F24222012320F4407113600023C007EA
:1006B000136071602AD17068616820F4407008434B
:1006C000B8F1000F706003D1306820F080503060C6
:1006D0002068810707D556F8181CA26821F440410C
:1006E000114346F8181CC00604D4002002B0BDE82F
:1006F000F08100BF56F8180C616920F480000843AF
:1007000046F8180C002002B0BDE8F081FFF7D0FEDB
:10071000054641F2883700BF70688007CBD4FFF7E9
:10072000C7FE401BB8424FF00300F5D9EBE70000CD
:100730002DE9F04381B0002800F0858042F20008E6
:10074000C4F202080446D8F800000D4600F0070085
:1007500088420CD2D8F8000020F007002843C8F8DF
:100760000000D8F8000000F00700A8426BD1206814
:1007700041F204098107C4F2020917D5410705D5E2
:10078000D9F8001041F4E061C9F80010010705D55F
:10079000D9F8001041F46051C9F80010D9F80010E0
:1007A000A26821F0F0011143C9F80010C00741D13F
:1007B000D8F8000000F00700A8420CD9D8F80000D3
:1007C00020F007002843C8F80000D8F8000000F027
:1007D0000700A84237D12068410707D5D9F8001093
:1007E000E26821F4E0611143C9F80010000708D560
:1007F000D9F80000216920F4605040EAC100C9F82E
:100800000000D9F8002002F00C00082841F2002076
:10081000C0F27A0050D141F29043C2F38341C0F656
:100820000003595CD2033BD440F60010C0F23D00F7
:10083000484341E0606802280AD001282AD159F8CB
:10084000041C890308D4012001B0BDE8F08300BF77
:1008500059F8041C8901F6D5D9F8001021F00301DC
:100860000843C9F80000FFF723FE064641F2883727
:10087000D9F80000616800F00C00B0EB810F97D050
:10088000FFF716FE801BB842F2D9032001B0BDE885
:10089000F08300BF59F8041C8907D4D5DCE700BFFA
:1008A000D9F8002041F27E43C2F34042C0F6000373
:1008B0009A5C4843B0FBF2F0D9F8001041F2804254
:1008C000C1F30311C0F60002515C40F2080220FAA5
:1008D00001F140F20400C2F200000068C2F200021E
:1008E0001160FFF70DFE002001B0BDE8F0830000AD
:1008F0002DE9F04182B0002868D00446007841F22A
:100900000006C007C4F2020625D0706800F00C0093
:1009100004281BD0706800F00C00082802D1706811
:10092000C00313D46068002800F06881B0F5A02FE0
:1009300000F07C81B0F5803F00F07C81306820F4CD
:1009400080303060306820F4802076E130688003A9
:1009500001D56068D0B32078800718D5706810F092
:100960000C0F07D0706800F00C0008286ED170687A
:10097000C0036BD43068800702D52069012825D1D7
:100980003068616920F0F80040EAC10030602078EA
:1009900000071FD42078400732D4E56995B170680C
:1009A00000F00C00082840F08F80012D0ED07068F8
:1009B000216A00F480328A4208D1616A00F4701022
:1009C000884203D1002002B0BDE8F081012002B0CE
:1009D000BDE8F081A069002862D00020C4F2422066
:1009E0000121C0F88014FFF763FD0546706A800797
:1009F00000F18C80FFF75CFD401B0228F6D92AE14C
:100A0000F06910F0805808D1F06940F08050F06132
:100A1000F06900F080500090009847F20007C4F29F
:100A200000073868C00529D4386840F48070386001
:100A3000FFF73EFD054600BF3868C0051ED4FFF72E
:100A400037FD401B6428F7D905E100BF2069002865
:100A500040F20000C4F2422000F0828001210160D7
:100A6000FFF726FD054600BF306880073FF588AFD9
:100A7000FFF71EFD401B0228F6D9ECE0E0680028D5
:100A800000F08080052800F09780012800F0988011
:100A9000306A20F001003062306A20F0040092E0F9
:100AA0000020C4F242200021C0F88014FFF700FDAE
:100AB000054600BF706A80077FF56CAFFFF7F8FC52
:100AC000401B0228F6D9C6E00027C4F242270020C6
:100AD0003866FFF7EDFC022D05460BD1306880012A
:100AE00040F1BE80FFF7E4FC401B02284FF00300FA
:100AF000F4D968E7306880017FF564AFFFF7D8FC70
:100B0000401B02284FF00300F4D95CE740F20800D4
:100B1000C2F20000006844F6D351C1F26201A0FBAA
:100B20000101480A019000BF00BF0198411E002842
:100B300001913FF42FAF00BF0198411E00280191A1
:100B40003FF428AF00BF0198411E002801913FF4F7
:100B500021AF00BF0198411E00280191E4D119E79F
:100B600000210160FFF7A4FC054600BF3068800744
:100B70007FF50DAFFFF79CFC401B02284FF00300F0
:100B8000F4D920E7306A20F001003062306A20F0AA
:100B900004003062FFF78CFC054641F2883700BF45
:100BA000306A800720D5FFF783FC401BB8424FF026
:100BB0000300F5D907E700BF306A40F00400306257
:100BC000306A40F001003062FFF772FC054641F2E6
:100BD000883700BF306A800706D4FFF769FC401BE6
:100BE000B842F7D937E000BFB8F1000F7FF4D5AEB7
:100BF000F06920F08050F061CFE600BF306820F44B
:100C000080303060306820F480203060FFF750FC86
:100C1000054600BF306880037FF59DAEFFF748FCB6
:100C2000401B64284FF00300F4D9CCE6306840F450
:100C300080203060306840F480303060FFF738FC4E
:100C4000054600BF306880033FF585AEFFF730FCF6
:100C5000401B6428F6D9032002B0BDE8F08100BF34
:100C6000206AB0F5803F05D17168A26821F4003197
:100C7000114371607168626A21F474111043084372
:100C8000706001203866FFF713FC0446306880016D
:100C90003FF598AEFFF70CFC001B02284FF0030055
:100CA000F4D990E6411E0020B0EB116F1CBF01206B
:100CB00070474EF21002CEF2000251604EF6235100
:100CC000CEF20001F0230B70072190601160704795
:100CD000704700007047000010B590F83C20012AD2
:100CE0004FF002023FD080F83D200268D2F804E0C5
:100CF000D2F808C00C682EF07003234340F6FF348E
:100D0000C4F20004A242536010DCB2F1804F1FD045
:100D100040F20043C4F200039A4219D040F60003A7
:100D2000C4F200039A4213D017E000BF40F600431C
:100D3000C4F200039A420BD043F20043C4F2010311
:100D40009A4205D042F60043C4F201039A4204D10C
:100D500049682CF08003194391600121002280F83A
:100D60003D1080F83C20104610BD0000002804BF54
:100D70000120704710B5044690F83D0028B90020C6
:100D800084F83C00204600F085F8022084F83D00FD
:100D9000206840F6FF330268C4F2000343F2004CBF
:100DA0009842C4F2010C21DCB0F1804F2CD040F20B
:100DB0000041C4F20001884226D040F60001C4F28E
:100DC0000001884220D0984224DCB0F1804F2FD01F
:100DD00040F20041C4F20001884229D040F60001EF
:100DE000C4F20001884223D026E000BF40F6004153
:100DF000C4F20001884207D0604505D042F60041A8
:100E0000C4F201018842DED1A16822F070020A43D7
:100E10009842DADD40F60041C4F20001884207D072
:100E2000604505D042F60041C4F20101884203D179
:100E3000216922F440720A43A36922F08001D4F8A8
:100E400004E0E268194360450160C262C0F828E02E
:100E500005D042F60041C4F20101884201D1616926
:100E6000016301214161002084F8461084F83E109E
:100E700084F83F1084F8401084F8411084F8421040
:100E800084F8431084F8441084F8451084F83D1029
:100E900010BD000080B582B0006842F60041C4F287
:100EA000010188421CBF02B080BD41F21800C4F2AB
:100EB00002000168002241F4006101600068002125
:100EC00000F40060019001981920FFF76FFB1920D2
:100ED00002B0BDE88040FFF759BB000090F83D101C
:100EE00001291CBF01207047022180F83D100068D5
:100EF00040F6FF32C168C4F20002904241F00101A5
:100F0000C1600FDCB0F1804F1ED040F20041C4F24E
:100F10000001884218D040F60001C4F20001884266
:100F200012D018E040F60041C4F2000188420BD014
:100F300043F20041C4F20101884205D042F600416B
:100F4000C4F20101884206D1816801F00701062937
:100F500004BF00207047016841F0010101600020DA
:100F60007047000080B590F83C20012A4FF0020243
:100F700000F0BF8080F83D20D0F800C04FF67772B7
:100F8000DCF8083023EA0202CCF808200B683F2B7B
:100F90001CDD5F2B20DD602B50D0B3F5005F6DD0E2
:100FA000702B40F0A080D1E901E3C968DCF808208B
:100FB00043EA0E0322F47F4243EA01211143CCF8B5
:100FC0000810DCF8081041F077018AE01F2B29DCBB
:100FD00063B3102B2AD086E0402B63D0502B40F017
:100FE0008280D1F804E0C968DCF82030DCF82020E9
:100FF00022F00102CCF82020DCF8182022F0F002C8
:1010000042EA011123F00A0242EA0E02CCF818105B
:10101000CCF82020DCF8081041F0570121F0200125
:101020005FE000BF202B01D0302B5CD1DCF8081032
:1010300021F07001194341F0070152E0D1F804E0BA
:10104000C968DCF8203023F01003CCF82030DCF83D
:101050001830DCF8202023F4704322F0A00243EA89
:10106000013142EA0E12CCF81810CCF82020DCF83E
:10107000081041F0670121F0100132E0D1E901E3ED
:10108000C968DCF8082043EA0E0322F47F4243EAF1
:1010900001211143CCF80810DCF8081041F480411C
:1010A0001FE000BFD1F804E0C968DCF82030DCF8AC
:1010B000202022F00102CCF82020DCF8182022F0B9
:1010C000F00242EA011123F00A0242EA0E02CCF8D1
:1010D0001810CCF82020DCF8081041F0470121F06E
:1010E0003001CCF808100121002280F83D1080F872
:1010F0003C20104680BD00007047000010B501681C
:1011000004460869800744BFC8685FEA807039D424
:101110000869400744BFC8685FEA40703ED4086968
:10112000000744BFC8685FEA007045D40869C0067C
:1011300044BFC8685FEAC0604AD40869C0071CBFE2
:10114000C8685FEAC07051D10869000644BFC8682A
:101150005FEA006052D40869400644BFC8685FEA8D
:10116000406053D40869800646BFC8685FEA806063
:1011700010BD6FF0200220460A61BDE81040FFF765
:10118000A9BD00BF6FF002000861012020778869C7
:10119000800743D02046FFF7AFFF45E06FF0040023
:1011A000086102202077886910F4407F40D02046F3
:1011B000FFF7A2FF42E000BF6FF0080008610420C3
:1011C0002077C86980073DD02046FFF795FF3FE0B4
:1011D0006FF01000086108202077C86910F4407F84
:1011E0003AD02046FFF788FF3CE000BF6FF00100D7
:1011F0000861204600F03EF82168A5E76FF0800006
:1012000008612046FFF764FD2168A4E76FF0400005
:101210000861204600F05CF82168A3E7204600F052
:1012200025F8204600F024F82168002020776FE799
:10123000204600F01BF8204600F01AF82168002034
:1012400020776CE7204600F011F8204600F010F8F7
:1012500021680020207769E7204600F007F8204643
:1012600000F006F821680020207766E7704700004C
:101270007047000010B540F60044C4F20104006855
:1012800004F50051884218BF10BD40F27000C2F250
:101290000000016801310160006847F6D501C2F223
:1012A000E961484342F2DD414FEA7000C0F20611A5
:1012B000884201D910BD00BF20460421FFF7EAF89B
:1012C00020464FF40041BDE81040FFF7E3B80000AE
:1012D00070470000FEE70000FEE70000FEE70000A8
:1012E0007047000070470000FFF7E8B87047000043
:1012F00040F27400C2F20000FFF700BFFEE70000FA
:1013000096B0FFF7E9F800244FF480300225CDE9CC
:101310000D04CDE913504FF4E01015900520012184
:101320000C900CA8CDE91144CDE90444CDE9024468
:1013300010910F91FFF7DCFA20B1EFF3108072B635
:10134000FEE700BF0F20CDE907054FF48060CDE92F
:101350000A0407A802210994FFF7EAF920B1EFF384
:10136000108072B6FEE700BF4FF480700125019037
:1013700068460095FFF756F920B1EFF3108072B67A
:10138000FEE700BF41F21800C4F20200016840F617
:10139000004441F0200101600168C4F2010401F041
:1013A00020010C910C990168002241F004010160B8
:1013B0000168002601F004010C910C99016841F0CC
:1013C000080101600068042100F008000C900C98EE
:1013D0002046FFF767F820464FF400410022FFF750
:1013E00061F848F20400CDE90C050220CDE90E00B9
:1013F0000CA92046FEF74CFF40F2740004F50051A2
:10140000C2F200004FF47A730F96CDE90D66CDE974
:101410000066472280E84600C0E90336C0E9056659
:10142000FFF7A4FC20B1EFF3108072B6FEE700BF17
:101430004FF480500C9040F27400C2F200000CA9EE
:10144000FFF790FD20B1EFF3108072B6FEE700BF0A
:1014500040F27404C2F2000469462046FFF73CFCE7
:1014600020B1EFF3108072B6FEE700BF20686FF086
:10147000010101612046FFF731FD00BFFEE70102D7
:101480000000000000000000010203040607080934
:1014900002030405060708090A0B0C0D0E0F1010B5
:1014A000C014000800000020100000006C010008BB
:1014B000D014000810000020B006000088010008C9
:1014C00001000000100000000024F40000000000F3
:0400000508000131BD
:00000001FF
