:020000040800F2
:1000000068540020D1010008A9020008A1020008DC
:10001000A50200088B020008890300080000000008
:10002000000000000000000000000000D7020008EF
:100030008F02000800000000D5020008D902000865
:10004000EB010008EB010008EB010008EB010008E0
:10005000EB010008EB010008EB010008EB010008D0
:10006000EB010008EB010008EB010008EB010008C0
:10007000EB010008EB010008EB010008EB010008B0
:10008000EB010008EB010008EB010008EB010008A0
:10009000EB010008EB010008EB010008EB01000890
:1000A000EB010008EB010008EB010008EB01000880
:1000B000EB010008EB010008EB010008EB01000870
:1000C000EB010008EB010008EB010008EB01000860
:1000D000EB010008EB010008EB010008EB01000850
:1000E000EB010008EB010008EB010008EB01000840
:1000F000EB010008EB010008EB010008EB01000830
:10010000EB010008EB010008EB010008EB0100081F
:10011000EB010008EB010008EB010008EB0100080F
:10012000EB010008EB010008EB010008EB010008FF
:1001300000F002F800F03CF80AA090E8000C8244BD
:100140008344AAF10107DA4501D100F031F8AFF29A
:10015000090EBAE80F0013F0010F18BFFB1A43F0A5
:1001600001031847D8030000F8030000103A24BF29
:1001700078C878C1FAD8520724BF30C830C144BF0C
:1001800004680C607047000000230024002500264E
:10019000103A28BF78C1FBD8520728BF30C148BFEA
:1001A0000B6070471FB500F0C3F91FBD10B510BD3F
:1001B00000F031F81146FFF7F5FF00F0F3F800F01A
:1001C0004FF803B4FFF7F2FF03BC00F057F800004C
:1001D0000948804709480047FEE7FEE7FEE7FEE7DB
:1001E000FEE7FEE7FEE7FEE7FEE7FEE70448054917
:1001F000054A064B70470000E10200083101000883
:100200006800002068540020680400206804002072
:10021000704770477047754600F02CF8AE460500F1
:100220006946534620F00700854618B020B5FFF711
:10023000DDFFBDE820404FF000064FF000074FF013
:1002400000084FF0000B21F00701AC46ACE8C009F4
:10025000ACE8C009ACE8C009ACE8C0098D467047FD
:1002600010B50446AFF300802046BDE81040FFF70C
:10027000A8BF00000048704708000020014918206E
:10028000ABBEFEE726000200704700BFFEE77047E6
:1002900010B500F025F94FF4C06000F089F810BDEA
:1002A00000BFFEE700BFFEE77047000010B5002862
:1002B00007DA0A07140E054A00F00F031B1FD45477
:1002C00003E00A07130E024A135410BD18ED00E0B4
:1002D00000E400E07047704710B500F057F810BD1B
:1002E00008B52648006840F4700024490860244896
:1002F000006840F001002249086000BF2048006803
:1003000000F002000028F9D000BF1D48406840F00E
:1003100080001B4948600020009002E00098401CCB
:10032000009000985028F9D31548406840F090009C
:10033000134948600020009002E00098401C0090A3
:1003400000985028F9D300BF0D48406820F0030002
:100350000B494860084600680A4908400849086097
:100360004FF41F0088600846006820F48020086071
:1003700000204860C86200F0AFF808BD88ED00E0DA
:1003800000100240FFFFF6FE00BFFEE704480068D1
:1003900020B103480068401E014908607047000012
:1003A0000400002010B5FFF773FF002010BD00000F
:1003B00002490143024A1160704700000000FA053B
:1003C0000CED00E0002000213F4A126842F4803228
:1003D0003D4B1A6000BF401C3B4A126802F40031DA
:1003E00019B94FF6FF729042F5D1374A126802F4FC
:1003F00000320AB900BFFEE7334AD26942F08052A8
:10040000314BDA61314A126842F440422F4B1A6094
:100410002D4A52682C4B5A601A4652685A601A4646
:10042000526842F480625A601A46526822F440329E
:100430005A601A46526842F440325A601A4652686C
:10044000234B1A40204B5A601A465268214B1A43DC
:100450001D4B5A601A46126842F080721A6000BF43
:10046000194A126802F00072002AF9D0174A12687D
:1004700042F48032154B1A6000BF144A526802F4ED
:100480008032002AF9D0114A126842F400320F4B30
:100490001A6000BF0D4A526802F40032002AF9D0F7
:1004A000094A526822F00302074B5A601A46526802
:1004B00042F002025A6000BF034A526802F008028A
:1004C000002AF9D070470000001002400070004080
:1004D000FFFFC3B70000340810B5FFF773FF10BD6E
:1004E00010B5124800684FF47A71B0FBF1F4601E49
:1004F000B0F1807F01D301200FE0601E4FF0E021BA
:1005000048610F214FF0FF30FFF7D0FE00204FF081
:10051000E021886107200861002008B100BFFEE7E4
:100520000021481EFFF7C2FE10BD000000000020A1
:100530004FF04070E1EE100A704700005C050008C3
:1005400000000020080000006C010008640500089D
:10055000080000206054000088010008000E2707F2
:040560000000000097
:0400000508000131BD
:00000001FF
