:020000040800F2
:10000000900400204901000841020008390200085C
:100010003D02000833020008210300080000000030
:100020000000000000000000000000006F02000857
:1000300037020008000000006D020008710200088D
:100040006301000863010008630100086301000800
:1000500063010008630100086301000863010008F0
:1000600063010008630100086301000863010008E0
:1000700063010008630100086301000863010008D0
:1000800063010008630100086301000863010008C0
:1000900063010008630100086301000863010008B0
:1000A00063010008630100086301000863010008A0
:1000B0006301000863010008630100086301000890
:1000C0006301000863010008630100086301000880
:1000D0006301000863010008630100086301000870
:1000E0006301000863010008630100086301000860
:1000F0006301000863010008630100086301000850
:10010000630100086301000863010008630100083F
:10011000630100086301000863010008630100082F
:10012000630100086301000863010008630100081F
:10013000DFF810D000F04CF800480047CD1100085F
:10014000AFF300809004002006488047064800472F
:10015000FEE7FEE7FEE7FEE7FEE7FEE7FEE7FEE777
:10016000FEE7FEE779020008310100082DE9F05FA3
:100170000546002092469B46884606468146402416
:100180001BE0284641464746224600F042F85346C7
:100190005A46C01A914110D311461846224600F023
:1001A00029F82D1A67EB01084F462246012000214D
:1001B00000F020F817EB00094E41201EA4F10104C5
:1001C000DFDC484631462A464346BDE8F09F000042
:1001D000064C074D06E0E06840F0010394E8070094
:1001E00098471034AC42F6D3FFF7A6FF6817000813
:1001F00088170008202A04DB203A00FA02F10020C8
:1002000070479140C2F1200320FA03F31943904054
:100210007047202A04DB203A21FA02F000217047BF
:1002200021FA02F3D040C2F120029140084319465E
:10023000704700BFFEE7704700BFFEE700BFFEE764
:100240007047000010B5002807DA0A07140E054AA7
:1002500000F00F031B1FD45403E00A07130E024AD9
:10026000135410BD18ED00E000E400E07047704743
:1002700010B500F0ADFA10BD08B52648006840F48E
:100280007000244908602448006840F001002249B9
:10029000086000BF2048006800F002000028F9D084
:1002A00000BF1D48406840F080001B4948600020A6
:1002B000009002E00098401C009000985028F9D36C
:1002C0001548406840F090001349486000200090B5
:1002D00002E00098401C009000985028F9D300BF1D
:1002E0000D48406820F003000B494860084600684C
:1002F0000A490840084908604FF41F008860084612
:10030000006820F48020086000204860C86201F086
:1003100043F908BD88ED00E000100240FFFFF6FE43
:1003200000BFFEE70FB4054B10B503A9044A0298BD
:1003300000F018F810BC5DF814FB0000B90B0008C1
:100340008C00002002E008C8121F08C1002AFAD160
:1003500070477047002001E001C1121F002AFBD145
:10036000704700002DE9FF4F8DB00F46054600266F
:1003700006E025280BD0DDE90F1290476D1C761C96
:1003800028780028F5D111B03046BDE8F08F002460
:10039000A246A1460122E94900E0044315F8013FC5
:1003A000203B02FA03F00842F7D128782A2810D01F
:1003B0006FF02F022878A0F13001092914D80AEB38
:1003C0008A0102EB410144F0020400EB010A6D1CBA
:1003D000F0E701CF5FEA000A03D544F40054CAF104
:1003E000000A44F002046D1C28782E2817D115F855
:1003F000010F44F004042A280ED06FF02F02287851
:10040000A0F1300109290AD809EB890102EB410169
:1004100000EB01096D1CF2E757F8049B6D1C28786E
:100420006C280FD006DC4C2817D068280DD06A281D
:1004300014D104E0742810D07A280FD10DE044F4D0
:1004400000140AE044F4801401E044F44014697894
:10045000814202D104F580146D1C6D1C28786E2831
:100460001ED00CDC632830D004DC00288BD0582848
:1004700011D19FE0642867D069280CD164E073280B
:100480002DD004DC6F2872D0702804D194E0752838
:100490006ED078286DD0DDE90F129047761C4BE1C5
:1004A000C4F30250022806D0032809D0042801CF43
:1004B00009D0066040E101CFF117C0E900613BE1DE
:1004C00001CF068038E1067036E117F8040B8DF88D
:1004D000000000208DF80100EB46012003E057F8F2
:1004E00004BB4FF0FF3061074FF0000102D40DE074
:1004F00008F10101884649450FDA8045F8DB1BF811
:1005000008100029F4D108E008F101018846814271
:10051000FADB1BF808100029F6D1DDE90F23AAEB5E
:1005200008008146214600F031F9304400EB08060E
:1005300004E0DDE90F121BF8010B9047B8F1010848
:10054000F7D221464846F2E00A21C4F302524FF0A6
:10055000000B0891022A04D001CFC117032A09D049
:100560000AE0FF1D27F00707F7E8020108E02CE08A
:100570001EE01FE000B2C117042A01D140B2C1172A
:10058000021E71F1000206DA0023D0EB030063EBD8
:1005900001012D2202E0220504D52B228DF8242012
:1005A000012203E0E20701D02022F7E7904653E062
:1005B0000A210BE0102109E010214FF0000B44F05C
:1005C00004044FF00809089103E008214FF0000BE4
:1005D0000891C4F30252022A04D001CF0021032A59
:1005E00006D006E0FF1D27F00707F7E8020103E049
:1005F00080B2042A00D1C0B24FF0000822072BD5E8
:100600002A78702A07D0DDF820C08CF0100C5CEA44
:100610000B0C05D00EE040228DF82420012208E0CA
:1006200050EA010306D030238DF824308DF82520C0
:1006300002229046089B83F0080353EA0B030BD178
:1006400050EA010201D1620706D530228DF824203C
:100650004FF00108A9F101092A78582A04D038A2DC
:100660000B9208AA0A920BE03AA2F9E75B46089AB5
:10067000FFF77CFD0B9B9B5C0A9A521E0A9213703B
:1006800050EA0102F2D10A98ADEB000000F1200B14
:10069000600702D524F4803401E04FF00109D94508
:1006A00002DDA9EB0B0000E0002000EB0B01414450
:1006B0000890AAEB010AE00306D4DDE90F232146E6
:1006C000504600F063F806444FF0000908E009A91D
:1006D00011F80900DDE90F12904709F10109761CB4
:1006E000C145F4DBE0030CD5DDE90F23214650467C
:1006F00000F04CF8064404E0DDE90F12302090478A
:10070000761C0899481E08900029F5DC08E00A9834
:100710000A990078491C0A91DDE90F129047761C6E
:10072000BBF10001ABF1010BF1DC21465046DDE9E4
:100730000F2300F019F806446D1C21E6092801007A
:100740003031323334353637383961626364656647
:100750000000000030313233343536373839414209
:1007600043444546000000002DE9F04104460025C1
:100770001E461746880404D405E039462020B047B9
:100780006D1C641EF9D52846BDE8F0812DE9F041C5
:10079000044600251E469046C80301D5302700E0D8
:1007A0002027880404D505E041463846B0476D1C33
:1007B000641EF9D52846BDE8F081000003490860B1
:1007C00000BF024909680029FBD1704704000020DE
:1007D0000448006820B103480068401E01490860D1
:1007E000704700000400002070B505460E46144610
:1007F00000BF40F20161534800F073FC0028F8D1BB
:10080000022C03D1A1024F4800F07EFB4D4800F0BE
:100810008FFC00BF4FF4A0614A4800F062FC002842
:10082000F8D06FF0010248480188464800F068FCA3
:1008300000BF40F20151434800F053FC0028F8D0BB
:1008400040F201513F4800F038FC00BF40F2075130
:100850003C4800F046FC0128F8D13A4800F028FC5A
:100860003146384800F01AFC00BF40F202513548CA
:1008700000F037FC0028F8D0324800F059FC00BFE7
:100880004FF4A0612F4800F02CFC0028F8D0012282
:100890002D4801882B4800F033FC032C03DA00219B
:1008A000284800F029FB00BF40F20151254800F024
:1008B00018FC0028F8D040F20151224800F0FDFB5E
:1008C000012C02D11F4800F038FC27E0032C0BD18B
:1008D00000BF40F202511B4800F003FC0028F8D092
:1008E0000021184800F008FB022C0AD100BF40F29A
:1008F0000251144800F0F5FB0028F8D0114800F030
:100900001CFC40F206510F4800F0EBFB30B10D48E3
:1009100000F0C0FB28706D1C601E84B2002CD5D185
:1009200000BF0848006800F400700028F9D14FF4B7
:100930008061044800F0E0FA0021024800F0E4FA87
:1009400070BD0000005400408A0000202DE9F047EF
:1009500007460D4614464FF00009C846C246002619
:100960002846E91705EB5171C910A5EBC10101F04B
:10097000FF0ACAF10800C6B22046E11704EB517124
:10098000C1F3C709E11704EB5171C910A4EBC10110
:1009900001F0FF08BAF1000F1DD10AE00822294634
:1009A000384600F05DF800F0BDF805F10800C5B26A
:1009B0000837B9F10000A9F1010101F0FF09EDD1FB
:1009C000B8F1000F49D042462946384600F048F8B1
:1009D00000F0A8F841E0B44207DAE2B2294638460E
:1009E00000F03EF800F09EF837E0A01B84B22046ED
:1009F000E11704EB5171C1F3C709E11704EB517121
:100A0000C910A4EBC10101F0FF084EB132462946DE
:100A1000384600F025F800F085F8A819C5B237442B
:100A20000AE008222946384600F01AF800F07AF861
:100A300005F10800C5B20837B9F10000A9F10101BC
:100A400001F0FF09EDD1B8F1000F06D0424629466A
:100A5000384600F005F800F065F8BDE8F0870000C2
:100A600070B504460E46154600BF40F201612B48A2
:100A700000F037FB0028F8D1284800F059FB00BFF0
:100A80004FF4A061254800F02CFB0028F8D06FF04F
:100A9000010223480188214800F032FB00BF40F2E8
:100AA00001511E4800F01DFB0028F8D040F2015112
:100AB0001A4800F002FB00BF40F20751174800F04F
:100AC00010FB0128F8D13146144800F0E7FA00BFC6
:100AD00040F20251114800F004FB0028F8D00CE06D
:100AE00021780E4800F0DAFA641C00BF40F202518F
:100AF0000A4800F0F6FA0028F8D0281EA5F10101F6
:100B0000CDB2EDD1054800F018FB00BF03480068E6
:100B100000F400700028F9D170BD000000540040BE
:100B20008A00002008B50020009040E000BF40F29D
:100B300001611F4800F0D5FA0028F8D11C4800F0E8
:100B4000F7FA00BF4FF4A061194800F0CAFA002874
:100B5000F8D06FF0010217480188154800F0D0FA6C
:100B600000BF134814300068009040F20241009822
:100B700008400028F5D0009800F0020040B140F293
:100B800001510B4800F099FA094800F0D6FA08BD67
:100B900040F20A51064800F090FA054800F0CDFAFC
:100BA00000BF0348006800F400700028F9D1BDE7D9
:100BB000005400408A00002070B504460D46E1B2A2
:100BC000054800F05DFD00BF0721034800F0A9FDC6
:100BD0000028F9D0204670BD0038014070B50546A8
:100BE00000241D48854200D103E01C48854200D105
:100BF00001241B4931F8140000F014FC194931F8A4
:100C0000140000F00FFC184951F82430174951F82E
:100C100024000322182100F077F8154951F82430F8
:100C2000124951F824000322042100F06DF82846EF
:100C300000F02AFD4FF4E131284600F0D9FC0421F0
:100C4000284600F07DFD0821284600F083FD284657
:100C500000F062FD70BD000000380140004400401B
:100C6000480000202C000020300000204000002020
:100C70003800002010B504460B4931F8140000F08C
:100C8000D1FB0A4951F82430094951F824000322C4
:100C9000102100F039F8054850F82400044951F8B3
:100CA0002410486110BD00004C0000201C000020F2
:100CB0000C000020034951F82010034A52F820206C
:100CC000516170471C0000200C000020034951F8BE
:100CD0002010034A52F82020116170471C000020A8
:100CE0000C00002010B540F2036000F09BFB40F2C6
:100CF000157000F097FBC02303221C21014800F06F
:100D000003F810BD000C0140F0B50446164600255E
:100D1000002201F00F0501F0100747B1042E05D1A4
:100D200045F00305E76B1F43E76300E03543002010
:100D30001EE0012787401F40C7B122684FEA800CA0
:100D40000F2707FA0CF7BA43870005FA07F73A436B
:100D5000282904D1012787401F40676105E0482901
:100D600003D1012787401F4027612260471CB8B28A
:100D70000828DED3082022E0012787401F40E7B182
:100D80006268A0F108074FEA870C0F2707FA0CF7F3
:100D9000BA43A0F10807BF0005FA07F73A4328292C
:100DA00004D1012787401F40676105E0482903D12E
:100DB000012787401F4027616260471CB8B2102896
:100DC000DAD3F0BD10B5ADF5007D2BA0FFF7AAFA80
:100DD000002413E040A90C5540A8015D2CA0FFF7AA
:100DE000A1FAE11704EB11710911A4EB01110F290C
:100DF00002D126A0FFF796FA601C84B2FF2CE9DD31
:100E00004FF48072002140A8FFF7A0FD22A0FFF759
:100E100089FA4FF4807200216846FFF7E5FC002450
:100E200023E01DF8040040A9095D88420BD01DF89D
:100E3000041017A0FFF776FA1DA0FFF773FA012040
:100E40000DF5007D10BD1DF8041011A0FFF76AFA22
:100E5000E11704EB11710911A4EB01110F2902D163
:100E60000AA0FFF75FFA601C84B2FF2CD9DD1BA03B
:100E7000FFF758FA0020E3E70D0A415432344330BB
:100E8000322077726974696E672E2E2E0D0A00006B
:100E900030782530325820004154323443303220EB
:100EA00072656164696E672E2E2E0D0A00000000C7
:100EB0004572723A64617461207265616420616E8A
:100EC00064207772697465206172656E2774206D85
:100ED00061746368696E672E0A0D00004932432D04
:100EE000415432344330322074657374207061731E
:100EF000736564210A0D00000A460021016821F48F
:100F000080611143016070470A460021016821F4A5
:100F100000611143016070472DE9F05F04460E4601
:100F200092460EB900BFFEE7022000F0CFF9074657
:100F30004648B7FBF0F8B8F13C0F01D34FF03C083E
:100F4000D4F804B02BF07F0B4BEA080BC4F804B0C4
:100F50003F4886421ED83D48B7FBF0F000F101093A
:100F6000B9F13C0F02D33C20206207E0B9F1020F37
:100F700002D80220206201E0C4F820907000B7FB84
:100F8000F0F5042D00D20425E069C5F30B010843F8
:100F9000E06158E02F4886422CD84FF4967008FB49
:100FA00000F04FF47A71B0FBF1F0401C2062BAF10E
:100FB000000F08D106EB4600B7FBF0F5E06920F41E
:100FC0008040E06109E006EBC60000EB0610B7FBCD
:100FD000F0F5E06940F48040E061C5F30B0008B92A
:100FE00045F00105E06940F40040E061E069284314
:100FF000E06128E0C8EB0810C0004FF47A71B0FB44
:10100000F1F0401C2062BAF1000F08D106EB460057
:10101000B7FBF0F5E06920F48040E06109E006EB01
:10102000C60000EB0610B7FBF0F5E06940F4804025
:10103000E061E06940F40040E061E0692843E0617C
:101040000120C4F89000BDE8F09F000040420F006E
:10105000A0860100801A060010B540F2157000F05D
:10106000E1F9002209490A48FFF756FFA0230022B0
:101070001146074800F04EF8054800F019F84FF403
:1010800080610348FFF738FF10BD0000801A06009A
:101090000054004001460869C0B27047CAB20261FC
:1010A00070470000A0200149088070478A00002096
:1010B000016841F001010160704710B540F2015232
:1010C000914202D1426982690AE000EB91121268F2
:1010D00001F01F040123A3409A4300EB91131A600F
:1010E00010BD10B5024602EB9110006801F01F041C
:1010F0000123A340184008B1012010BD0020FCE7E7
:1011000012F1020F02D121F0010101E041F00101D1
:101110000161704730B50C460021016821F00201E1
:1011200021430160C3F3090342EA0305856030BD32
:10113000016841F4807101607047016841F40071F9
:101140000160704710B50020FFF794FD0120FFF704
:1011500091FD0220FFF78EFD0320FFF78BFD00209D
:10116000FFF7A8FD0120FFF7A5FD0220FFF7A2FD74
:101170000320FFF79FFD10BD10B5044634B1012CCC
:1011800008D0022C0AD0032C10D10BE00020FFF76E
:101190009DFD18E00120FFF799FD14E00220FFF704
:1011A00095FD10E00320FFF791FD0CE00020FFF714
:1011B0008DFD0120FFF78AFD0220FFF787FD032048
:1011C000FFF784FD00BF00BF10BD000000F0E8F98C
:1011D000FFF7B8FF2548FFF701FD25A0FFF7A2F8AC
:1011E000FFF780FDFFF738FFFFF75CFF27A0FFF751
:1011F00099F82F492FA0FFF795F8FFF7E3FD38BBCB
:1012000025E00020FFF756FD0120FFF753FD0220E7
:10121000FFF750FD0320FFF74DFD2B490C78E11738
:1012200004EB91718910A4EB8101C8B2FFF7A4FF10
:1012300025480078401C2449087008460078042896
:1012400001DB002008704FF4FA70FFF7B7FAD8E717
:101250000020FFF73BFD0120FFF738FD0220FFF7DC
:1012600035FD0320FFF732FD00BFFEE700380140E7
:101270004932432D323443303220636F6E666967E2
:10128000757265642E2E2E2E0A0D00000D0A54680C
:101290006520493243302069732068617264776148
:1012A000726520696E746572666163652000000076
:1012B000801A06000D0A5468652073706565642005
:1012C0006973202564000000000000202DE9F04F24
:1012D0008CB0074600200A904AA090E8004CC068F5
:1012E000CDE905BECDF810A007900FF21C1ADAE97F
:1012F000000ACDE9020A0FF2101ADAE9000ACDE974
:10130000000A44484068C0F381000B900B9820B15C
:10131000012804D002283FD103E03F4A3EE03E4A84
:101320003CE03C48406800F4803CBCF5803F12D172
:101330003848C06A00F08048B8F1000F01D1364B40
:1013400000E0364B3348406800F40039B9F5003FFF
:1013500002D15B0800E0324B2E484068C0F3834165
:101360002C48406800F0006008B141F010012948A5
:10137000406800F0804008B141F020010F2901D2FF
:10138000891C06E00F2903D33E2901D8491C00E03F
:101390003F2103FB01F201E01F4A00BF00BF1D48CF
:1013A0004068C0F3031504A8465D22FA06F4194804
:1013B0004068C0F3022502A8465D24FA06F00990B1
:1013C00014484068C0F3C2251DF8056024FA06F0F1
:1013D000089037B1012F06D0022F06D0032F0AD173
:1013E00006E00A9208E00A9406E009980A9003E0F1
:1013F00008980A9000E000BF00BF0A980CB0BDE852
:10140000F08F000000000000000000000102030453
:10141000060708090010024000127A00006CDC0286
:1014200000093D00064A02EB9011096800F01F0315
:1014300001229A401143024B03EB90121160704756
:1014400000100240064A02EB9011096800F01F03E9
:1014500001229A409143024B03EB901211607047B6
:1014600000100240064A02EB9011096800F01F03C9
:1014700001229A401143024B03EB90121160704716
:1014800000100240002000213F4A126842F48032DE
:101490003D4B1A6000BF401C3B4A126802F4003109
:1014A00019B94FF6FF729042F5D1374A126802F42B
:1014B00000320AB900BFFEE7334AD26942F08052D7
:1014C000314BDA61314A126842F440422F4B1A60C4
:1014D0002D4A52682C4B5A601A4652685A601A4676
:1014E000526842F480625A601A46526822F44032CE
:1014F0005A601A46526842F440325A601A4652689C
:10150000234B1A40204B5A601A465268214B1A430B
:101510001D4B5A601A46126842F080721A6000BF72
:10152000194A126802F00072002AF9D0174A1268AC
:1015300042F48032154B1A6000BF144A526802F41C
:101540008032002AF9D0114A126842F400320F4B5F
:101550001A6000BF0D4A526802F40032002AF9D026
:10156000094A526822F00302074B5A601A46526831
:1015700042F002025A6000BF034A526802F00802B9
:10158000002AF9D0704700000010024000700040AF
:10159000FFFFC3B70000340810B5FFF773FF10BD9D
:1015A00010B5124800684FF47A71B0FBF1F4601E78
:1015B000B0F1807F01D301200FE0601E4FF0E021E9
:1015C00048610F214FF0FF30FEF73CFE00204FF046
:1015D000E021886107200861002008B100BFFEE714
:1015E0000021481EFEF72EFE10BD0000080000205E
:1015F0002DE9F04704460D460027B846B9460026B7
:101600001D49601A8C421CD006DC1C48204470B175
:10161000B0F5806F1FD10FE0B0F5806F16D0B0F538
:101620006C4F18D10320FFF751FE074614E002204B
:10163000FFF74CFE07460FE00220FFF747FE074684
:101640000AE00220FFF742FE074605E00220FFF70E
:101650003DFE074600E000BF00BF07EB5500B0FBB2
:10166000F5F64FF6F07006EA000806F00F0948EAB2
:101670000900A060BDE8F087004C004000BCFFBF3F
:10168000C1F308024260704710B504462049601A51
:101690008C4228D006DC1F48204490B1B0F5806F02
:1016A00033D117E0B0F5806F26D0B0F56C4F2CD158
:1016B00040F20E30FFF7D6FE40F20E30FFF7C2FECA
:1016C00024E040F21140FFF7CDFE40F21140FFF759
:1016D000B9FE1BE040F21240FFF7C4FE40F2124098
:1016E000FFF7B0FE12E040F21340FFF7BBFE40F2FE
:1016F0001340FFF7A7FE09E040F21440FFF7B2FEE7
:1017000040F21440FFF79EFE00E000BF00BF10BD96
:10171000004C004000BCFFBFC16841F40051C160F3
:10172000704710B5024602EB9110006801F01F04EB
:101730000123A340184008B1012010BD0020FCE7A0
:10174000C26822F00402C260C26801F004031A43B6
:10175000C2607047C26822F00802C260C26801F02D
:1017600008031A43C2607047881700080000002071
:1017700090000000440300081818000890000020A2
:1017800000040000540300080000000000000000F6
:10179000000E270700100140001001400018014012
:1017A00000180140010000000400000001000000DA
:1017B000020000000E0611070002000004000000F5
:1017C000000400000800000000080140000801407B
:1017D0000206020604060406060606060008014084
:1017E00000100140000C014001000000002000003A
:1017F000004000000206040603060000010000008D
:101800000020000000400000000201000D0E06282C
:081810002800000000000000A8
:0400000508000131BD
:00000001FF
